{
  "_format": "hh-sol-artifact-1",
  "contractName": "WitnetRequestBoardTrustableDefault",
  "sourceName": "contracts/witnet/impls/trustable/WitnetRequestBoardTrustableDefault.sol",
  "abi": [
    {
      "inputs": [
        {
          "internalType": "bool",
          "name": "_upgradable",
          "type": "bool"
        },
        {
          "internalType": "bytes32",
          "name": "_versionTag",
          "type": "bytes32"
        },
        {
          "internalType": "uint256",
          "name": "_reportResultGasLimit",
          "type": "uint256"
        }
      ],
      "stateMutability": "nonpayable",
      "type": "constructor"
    },
    {
      "anonymous": false,
      "inputs": [
        {
          "indexed": false,
          "internalType": "uint256",
          "name": "queryId",
          "type": "uint256"
        },
        {
          "indexed": false,
          "internalType": "string",
          "name": "reason",
          "type": "string"
        }
      ],
      "name": "BatchReportError",
      "type": "event"
    },
    {
      "anonymous": false,
      "inputs": [
        {
          "indexed": false,
          "internalType": "uint256",
          "name": "queryId",
          "type": "uint256"
        },
        {
          "indexed": false,
          "internalType": "address",
          "name": "from",
          "type": "address"
        }
      ],
      "name": "DeletedQuery",
      "type": "event"
    },
    {
      "anonymous": false,
      "inputs": [
        {
          "indexed": true,
          "internalType": "address",
          "name": "from",
          "type": "address"
        },
        {
          "indexed": true,
          "internalType": "address",
          "name": "to",
          "type": "address"
        }
      ],
      "name": "OwnershipTransferred",
      "type": "event"
    },
    {
      "anonymous": false,
      "inputs": [
        {
          "indexed": false,
          "internalType": "uint256",
          "name": "queryId",
          "type": "uint256"
        },
        {
          "indexed": false,
          "internalType": "address",
          "name": "from",
          "type": "address"
        }
      ],
      "name": "PostedRequest",
      "type": "event"
    },
    {
      "anonymous": false,
      "inputs": [
        {
          "indexed": false,
          "internalType": "uint256",
          "name": "queryId",
          "type": "uint256"
        },
        {
          "indexed": false,
          "internalType": "address",
          "name": "from",
          "type": "address"
        }
      ],
      "name": "PostedResult",
      "type": "event"
    },
    {
      "anonymous": false,
      "inputs": [
        {
          "indexed": false,
          "internalType": "address",
          "name": "from",
          "type": "address"
        },
        {
          "indexed": false,
          "internalType": "uint256",
          "name": "amount",
          "type": "uint256"
        }
      ],
      "name": "Received",
      "type": "event"
    },
    {
      "anonymous": false,
      "inputs": [
        {
          "indexed": false,
          "internalType": "address[]",
          "name": "reporters",
          "type": "address[]"
        }
      ],
      "name": "ReportersSet",
      "type": "event"
    },
    {
      "anonymous": false,
      "inputs": [
        {
          "indexed": false,
          "internalType": "address[]",
          "name": "reporters",
          "type": "address[]"
        }
      ],
      "name": "ReportersUnset",
      "type": "event"
    },
    {
      "anonymous": false,
      "inputs": [
        {
          "indexed": false,
          "internalType": "address",
          "name": "to",
          "type": "address"
        },
        {
          "indexed": false,
          "internalType": "uint256",
          "name": "amount",
          "type": "uint256"
        }
      ],
      "name": "Transfer",
      "type": "event"
    },
    {
      "anonymous": false,
      "inputs": [
        {
          "indexed": true,
          "internalType": "address",
          "name": "from",
          "type": "address"
        },
        {
          "indexed": true,
          "internalType": "address",
          "name": "baseAddr",
          "type": "address"
        },
        {
          "indexed": true,
          "internalType": "bytes32",
          "name": "baseCodehash",
          "type": "bytes32"
        },
        {
          "indexed": false,
          "internalType": "bytes32",
          "name": "versionTag",
          "type": "bytes32"
        }
      ],
      "name": "Upgraded",
      "type": "event"
    },
    {
      "stateMutability": "payable",
      "type": "fallback"
    },
    {
      "inputs": [
        {
          "components": [
            {
              "internalType": "bool",
              "name": "success",
              "type": "bool"
            },
            {
              "components": [
                {
                  "components": [
                    {
                      "internalType": "bytes",
                      "name": "data",
                      "type": "bytes"
                    },
                    {
                      "internalType": "uint32",
                      "name": "cursor",
                      "type": "uint32"
                    }
                  ],
                  "internalType": "struct Witnet.Buffer",
                  "name": "buffer",
                  "type": "tuple"
                },
                {
                  "internalType": "uint8",
                  "name": "initialByte",
                  "type": "uint8"
                },
                {
                  "internalType": "uint8",
                  "name": "majorType",
                  "type": "uint8"
                },
                {
                  "internalType": "uint8",
                  "name": "additionalInformation",
                  "type": "uint8"
                },
                {
                  "internalType": "uint64",
                  "name": "len",
                  "type": "uint64"
                },
                {
                  "internalType": "uint64",
                  "name": "tag",
                  "type": "uint64"
                }
              ],
              "internalType": "struct Witnet.CBOR",
              "name": "value",
              "type": "tuple"
            }
          ],
          "internalType": "struct Witnet.Result",
          "name": "_result",
          "type": "tuple"
        }
      ],
      "name": "asBool",
      "outputs": [
        {
          "internalType": "bool",
          "name": "",
          "type": "bool"
        }
      ],
      "stateMutability": "pure",
      "type": "function"
    },
    {
      "inputs": [
        {
          "components": [
            {
              "internalType": "bool",
              "name": "success",
              "type": "bool"
            },
            {
              "components": [
                {
                  "components": [
                    {
                      "internalType": "bytes",
                      "name": "data",
                      "type": "bytes"
                    },
                    {
                      "internalType": "uint32",
                      "name": "cursor",
                      "type": "uint32"
                    }
                  ],
                  "internalType": "struct Witnet.Buffer",
                  "name": "buffer",
                  "type": "tuple"
                },
                {
                  "internalType": "uint8",
                  "name": "initialByte",
                  "type": "uint8"
                },
                {
                  "internalType": "uint8",
                  "name": "majorType",
                  "type": "uint8"
                },
                {
                  "internalType": "uint8",
                  "name": "additionalInformation",
                  "type": "uint8"
                },
                {
                  "internalType": "uint64",
                  "name": "len",
                  "type": "uint64"
                },
                {
                  "internalType": "uint64",
                  "name": "tag",
                  "type": "uint64"
                }
              ],
              "internalType": "struct Witnet.CBOR",
              "name": "value",
              "type": "tuple"
            }
          ],
          "internalType": "struct Witnet.Result",
          "name": "_result",
          "type": "tuple"
        }
      ],
      "name": "asBytes",
      "outputs": [
        {
          "internalType": "bytes",
          "name": "",
          "type": "bytes"
        }
      ],
      "stateMutability": "pure",
      "type": "function"
    },
    {
      "inputs": [
        {
          "components": [
            {
              "internalType": "bool",
              "name": "success",
              "type": "bool"
            },
            {
              "components": [
                {
                  "components": [
                    {
                      "internalType": "bytes",
                      "name": "data",
                      "type": "bytes"
                    },
                    {
                      "internalType": "uint32",
                      "name": "cursor",
                      "type": "uint32"
                    }
                  ],
                  "internalType": "struct Witnet.Buffer",
                  "name": "buffer",
                  "type": "tuple"
                },
                {
                  "internalType": "uint8",
                  "name": "initialByte",
                  "type": "uint8"
                },
                {
                  "internalType": "uint8",
                  "name": "majorType",
                  "type": "uint8"
                },
                {
                  "internalType": "uint8",
                  "name": "additionalInformation",
                  "type": "uint8"
                },
                {
                  "internalType": "uint64",
                  "name": "len",
                  "type": "uint64"
                },
                {
                  "internalType": "uint64",
                  "name": "tag",
                  "type": "uint64"
                }
              ],
              "internalType": "struct Witnet.CBOR",
              "name": "value",
              "type": "tuple"
            }
          ],
          "internalType": "struct Witnet.Result",
          "name": "_result",
          "type": "tuple"
        }
      ],
      "name": "asBytes32",
      "outputs": [
        {
          "internalType": "bytes32",
          "name": "",
          "type": "bytes32"
        }
      ],
      "stateMutability": "pure",
      "type": "function"
    },
    {
      "inputs": [
        {
          "components": [
            {
              "internalType": "bool",
              "name": "success",
              "type": "bool"
            },
            {
              "components": [
                {
                  "components": [
                    {
                      "internalType": "bytes",
                      "name": "data",
                      "type": "bytes"
                    },
                    {
                      "internalType": "uint32",
                      "name": "cursor",
                      "type": "uint32"
                    }
                  ],
                  "internalType": "struct Witnet.Buffer",
                  "name": "buffer",
                  "type": "tuple"
                },
                {
                  "internalType": "uint8",
                  "name": "initialByte",
                  "type": "uint8"
                },
                {
                  "internalType": "uint8",
                  "name": "majorType",
                  "type": "uint8"
                },
                {
                  "internalType": "uint8",
                  "name": "additionalInformation",
                  "type": "uint8"
                },
                {
                  "internalType": "uint64",
                  "name": "len",
                  "type": "uint64"
                },
                {
                  "internalType": "uint64",
                  "name": "tag",
                  "type": "uint64"
                }
              ],
              "internalType": "struct Witnet.CBOR",
              "name": "value",
              "type": "tuple"
            }
          ],
          "internalType": "struct Witnet.Result",
          "name": "_result",
          "type": "tuple"
        }
      ],
      "name": "asErrorCode",
      "outputs": [
        {
          "internalType": "enum Witnet.ErrorCodes",
          "name": "",
          "type": "uint8"
        }
      ],
      "stateMutability": "pure",
      "type": "function"
    },
    {
      "inputs": [
        {
          "components": [
            {
              "internalType": "bool",
              "name": "success",
              "type": "bool"
            },
            {
              "components": [
                {
                  "components": [
                    {
                      "internalType": "bytes",
                      "name": "data",
                      "type": "bytes"
                    },
                    {
                      "internalType": "uint32",
                      "name": "cursor",
                      "type": "uint32"
                    }
                  ],
                  "internalType": "struct Witnet.Buffer",
                  "name": "buffer",
                  "type": "tuple"
                },
                {
                  "internalType": "uint8",
                  "name": "initialByte",
                  "type": "uint8"
                },
                {
                  "internalType": "uint8",
                  "name": "majorType",
                  "type": "uint8"
                },
                {
                  "internalType": "uint8",
                  "name": "additionalInformation",
                  "type": "uint8"
                },
                {
                  "internalType": "uint64",
                  "name": "len",
                  "type": "uint64"
                },
                {
                  "internalType": "uint64",
                  "name": "tag",
                  "type": "uint64"
                }
              ],
              "internalType": "struct Witnet.CBOR",
              "name": "value",
              "type": "tuple"
            }
          ],
          "internalType": "struct Witnet.Result",
          "name": "_result",
          "type": "tuple"
        }
      ],
      "name": "asErrorMessage",
      "outputs": [
        {
          "internalType": "enum Witnet.ErrorCodes",
          "name": "",
          "type": "uint8"
        },
        {
          "internalType": "string",
          "name": "",
          "type": "string"
        }
      ],
      "stateMutability": "pure",
      "type": "function"
    },
    {
      "inputs": [
        {
          "components": [
            {
              "internalType": "bool",
              "name": "success",
              "type": "bool"
            },
            {
              "components": [
                {
                  "components": [
                    {
                      "internalType": "bytes",
                      "name": "data",
                      "type": "bytes"
                    },
                    {
                      "internalType": "uint32",
                      "name": "cursor",
                      "type": "uint32"
                    }
                  ],
                  "internalType": "struct Witnet.Buffer",
                  "name": "buffer",
                  "type": "tuple"
                },
                {
                  "internalType": "uint8",
                  "name": "initialByte",
                  "type": "uint8"
                },
                {
                  "internalType": "uint8",
                  "name": "majorType",
                  "type": "uint8"
                },
                {
                  "internalType": "uint8",
                  "name": "additionalInformation",
                  "type": "uint8"
                },
                {
                  "internalType": "uint64",
                  "name": "len",
                  "type": "uint64"
                },
                {
                  "internalType": "uint64",
                  "name": "tag",
                  "type": "uint64"
                }
              ],
              "internalType": "struct Witnet.CBOR",
              "name": "value",
              "type": "tuple"
            }
          ],
          "internalType": "struct Witnet.Result",
          "name": "_result",
          "type": "tuple"
        }
      ],
      "name": "asFixed16",
      "outputs": [
        {
          "internalType": "int32",
          "name": "",
          "type": "int32"
        }
      ],
      "stateMutability": "pure",
      "type": "function"
    },
    {
      "inputs": [
        {
          "components": [
            {
              "internalType": "bool",
              "name": "success",
              "type": "bool"
            },
            {
              "components": [
                {
                  "components": [
                    {
                      "internalType": "bytes",
                      "name": "data",
                      "type": "bytes"
                    },
                    {
                      "internalType": "uint32",
                      "name": "cursor",
                      "type": "uint32"
                    }
                  ],
                  "internalType": "struct Witnet.Buffer",
                  "name": "buffer",
                  "type": "tuple"
                },
                {
                  "internalType": "uint8",
                  "name": "initialByte",
                  "type": "uint8"
                },
                {
                  "internalType": "uint8",
                  "name": "majorType",
                  "type": "uint8"
                },
                {
                  "internalType": "uint8",
                  "name": "additionalInformation",
                  "type": "uint8"
                },
                {
                  "internalType": "uint64",
                  "name": "len",
                  "type": "uint64"
                },
                {
                  "internalType": "uint64",
                  "name": "tag",
                  "type": "uint64"
                }
              ],
              "internalType": "struct Witnet.CBOR",
              "name": "value",
              "type": "tuple"
            }
          ],
          "internalType": "struct Witnet.Result",
          "name": "_result",
          "type": "tuple"
        }
      ],
      "name": "asFixed16Array",
      "outputs": [
        {
          "internalType": "int32[]",
          "name": "",
          "type": "int32[]"
        }
      ],
      "stateMutability": "pure",
      "type": "function"
    },
    {
      "inputs": [
        {
          "components": [
            {
              "internalType": "bool",
              "name": "success",
              "type": "bool"
            },
            {
              "components": [
                {
                  "components": [
                    {
                      "internalType": "bytes",
                      "name": "data",
                      "type": "bytes"
                    },
                    {
                      "internalType": "uint32",
                      "name": "cursor",
                      "type": "uint32"
                    }
                  ],
                  "internalType": "struct Witnet.Buffer",
                  "name": "buffer",
                  "type": "tuple"
                },
                {
                  "internalType": "uint8",
                  "name": "initialByte",
                  "type": "uint8"
                },
                {
                  "internalType": "uint8",
                  "name": "majorType",
                  "type": "uint8"
                },
                {
                  "internalType": "uint8",
                  "name": "additionalInformation",
                  "type": "uint8"
                },
                {
                  "internalType": "uint64",
                  "name": "len",
                  "type": "uint64"
                },
                {
                  "internalType": "uint64",
                  "name": "tag",
                  "type": "uint64"
                }
              ],
              "internalType": "struct Witnet.CBOR",
              "name": "value",
              "type": "tuple"
            }
          ],
          "internalType": "struct Witnet.Result",
          "name": "_result",
          "type": "tuple"
        }
      ],
      "name": "asInt128",
      "outputs": [
        {
          "internalType": "int128",
          "name": "",
          "type": "int128"
        }
      ],
      "stateMutability": "pure",
      "type": "function"
    },
    {
      "inputs": [
        {
          "components": [
            {
              "internalType": "bool",
              "name": "success",
              "type": "bool"
            },
            {
              "components": [
                {
                  "components": [
                    {
                      "internalType": "bytes",
                      "name": "data",
                      "type": "bytes"
                    },
                    {
                      "internalType": "uint32",
                      "name": "cursor",
                      "type": "uint32"
                    }
                  ],
                  "internalType": "struct Witnet.Buffer",
                  "name": "buffer",
                  "type": "tuple"
                },
                {
                  "internalType": "uint8",
                  "name": "initialByte",
                  "type": "uint8"
                },
                {
                  "internalType": "uint8",
                  "name": "majorType",
                  "type": "uint8"
                },
                {
                  "internalType": "uint8",
                  "name": "additionalInformation",
                  "type": "uint8"
                },
                {
                  "internalType": "uint64",
                  "name": "len",
                  "type": "uint64"
                },
                {
                  "internalType": "uint64",
                  "name": "tag",
                  "type": "uint64"
                }
              ],
              "internalType": "struct Witnet.CBOR",
              "name": "value",
              "type": "tuple"
            }
          ],
          "internalType": "struct Witnet.Result",
          "name": "_result",
          "type": "tuple"
        }
      ],
      "name": "asInt128Array",
      "outputs": [
        {
          "internalType": "int128[]",
          "name": "",
          "type": "int128[]"
        }
      ],
      "stateMutability": "pure",
      "type": "function"
    },
    {
      "inputs": [
        {
          "components": [
            {
              "internalType": "bool",
              "name": "success",
              "type": "bool"
            },
            {
              "components": [
                {
                  "components": [
                    {
                      "internalType": "bytes",
                      "name": "data",
                      "type": "bytes"
                    },
                    {
                      "internalType": "uint32",
                      "name": "cursor",
                      "type": "uint32"
                    }
                  ],
                  "internalType": "struct Witnet.Buffer",
                  "name": "buffer",
                  "type": "tuple"
                },
                {
                  "internalType": "uint8",
                  "name": "initialByte",
                  "type": "uint8"
                },
                {
                  "internalType": "uint8",
                  "name": "majorType",
                  "type": "uint8"
                },
                {
                  "internalType": "uint8",
                  "name": "additionalInformation",
                  "type": "uint8"
                },
                {
                  "internalType": "uint64",
                  "name": "len",
                  "type": "uint64"
                },
                {
                  "internalType": "uint64",
                  "name": "tag",
                  "type": "uint64"
                }
              ],
              "internalType": "struct Witnet.CBOR",
              "name": "value",
              "type": "tuple"
            }
          ],
          "internalType": "struct Witnet.Result",
          "name": "_result",
          "type": "tuple"
        }
      ],
      "name": "asRawError",
      "outputs": [
        {
          "internalType": "uint64[]",
          "name": "",
          "type": "uint64[]"
        }
      ],
      "stateMutability": "pure",
      "type": "function"
    },
    {
      "inputs": [
        {
          "components": [
            {
              "internalType": "bool",
              "name": "success",
              "type": "bool"
            },
            {
              "components": [
                {
                  "components": [
                    {
                      "internalType": "bytes",
                      "name": "data",
                      "type": "bytes"
                    },
                    {
                      "internalType": "uint32",
                      "name": "cursor",
                      "type": "uint32"
                    }
                  ],
                  "internalType": "struct Witnet.Buffer",
                  "name": "buffer",
                  "type": "tuple"
                },
                {
                  "internalType": "uint8",
                  "name": "initialByte",
                  "type": "uint8"
                },
                {
                  "internalType": "uint8",
                  "name": "majorType",
                  "type": "uint8"
                },
                {
                  "internalType": "uint8",
                  "name": "additionalInformation",
                  "type": "uint8"
                },
                {
                  "internalType": "uint64",
                  "name": "len",
                  "type": "uint64"
                },
                {
                  "internalType": "uint64",
                  "name": "tag",
                  "type": "uint64"
                }
              ],
              "internalType": "struct Witnet.CBOR",
              "name": "value",
              "type": "tuple"
            }
          ],
          "internalType": "struct Witnet.Result",
          "name": "_result",
          "type": "tuple"
        }
      ],
      "name": "asString",
      "outputs": [
        {
          "internalType": "string",
          "name": "",
          "type": "string"
        }
      ],
      "stateMutability": "pure",
      "type": "function"
    },
    {
      "inputs": [
        {
          "components": [
            {
              "internalType": "bool",
              "name": "success",
              "type": "bool"
            },
            {
              "components": [
                {
                  "components": [
                    {
                      "internalType": "bytes",
                      "name": "data",
                      "type": "bytes"
                    },
                    {
                      "internalType": "uint32",
                      "name": "cursor",
                      "type": "uint32"
                    }
                  ],
                  "internalType": "struct Witnet.Buffer",
                  "name": "buffer",
                  "type": "tuple"
                },
                {
                  "internalType": "uint8",
                  "name": "initialByte",
                  "type": "uint8"
                },
                {
                  "internalType": "uint8",
                  "name": "majorType",
                  "type": "uint8"
                },
                {
                  "internalType": "uint8",
                  "name": "additionalInformation",
                  "type": "uint8"
                },
                {
                  "internalType": "uint64",
                  "name": "len",
                  "type": "uint64"
                },
                {
                  "internalType": "uint64",
                  "name": "tag",
                  "type": "uint64"
                }
              ],
              "internalType": "struct Witnet.CBOR",
              "name": "value",
              "type": "tuple"
            }
          ],
          "internalType": "struct Witnet.Result",
          "name": "_result",
          "type": "tuple"
        }
      ],
      "name": "asStringArray",
      "outputs": [
        {
          "internalType": "string[]",
          "name": "",
          "type": "string[]"
        }
      ],
      "stateMutability": "pure",
      "type": "function"
    },
    {
      "inputs": [
        {
          "components": [
            {
              "internalType": "bool",
              "name": "success",
              "type": "bool"
            },
            {
              "components": [
                {
                  "components": [
                    {
                      "internalType": "bytes",
                      "name": "data",
                      "type": "bytes"
                    },
                    {
                      "internalType": "uint32",
                      "name": "cursor",
                      "type": "uint32"
                    }
                  ],
                  "internalType": "struct Witnet.Buffer",
                  "name": "buffer",
                  "type": "tuple"
                },
                {
                  "internalType": "uint8",
                  "name": "initialByte",
                  "type": "uint8"
                },
                {
                  "internalType": "uint8",
                  "name": "majorType",
                  "type": "uint8"
                },
                {
                  "internalType": "uint8",
                  "name": "additionalInformation",
                  "type": "uint8"
                },
                {
                  "internalType": "uint64",
                  "name": "len",
                  "type": "uint64"
                },
                {
                  "internalType": "uint64",
                  "name": "tag",
                  "type": "uint64"
                }
              ],
              "internalType": "struct Witnet.CBOR",
              "name": "value",
              "type": "tuple"
            }
          ],
          "internalType": "struct Witnet.Result",
          "name": "_result",
          "type": "tuple"
        }
      ],
      "name": "asUint64",
      "outputs": [
        {
          "internalType": "uint64",
          "name": "",
          "type": "uint64"
        }
      ],
      "stateMutability": "pure",
      "type": "function"
    },
    {
      "inputs": [
        {
          "components": [
            {
              "internalType": "bool",
              "name": "success",
              "type": "bool"
            },
            {
              "components": [
                {
                  "components": [
                    {
                      "internalType": "bytes",
                      "name": "data",
                      "type": "bytes"
                    },
                    {
                      "internalType": "uint32",
                      "name": "cursor",
                      "type": "uint32"
                    }
                  ],
                  "internalType": "struct Witnet.Buffer",
                  "name": "buffer",
                  "type": "tuple"
                },
                {
                  "internalType": "uint8",
                  "name": "initialByte",
                  "type": "uint8"
                },
                {
                  "internalType": "uint8",
                  "name": "majorType",
                  "type": "uint8"
                },
                {
                  "internalType": "uint8",
                  "name": "additionalInformation",
                  "type": "uint8"
                },
                {
                  "internalType": "uint64",
                  "name": "len",
                  "type": "uint64"
                },
                {
                  "internalType": "uint64",
                  "name": "tag",
                  "type": "uint64"
                }
              ],
              "internalType": "struct Witnet.CBOR",
              "name": "value",
              "type": "tuple"
            }
          ],
          "internalType": "struct Witnet.Result",
          "name": "_result",
          "type": "tuple"
        }
      ],
      "name": "asUint64Array",
      "outputs": [
        {
          "internalType": "uint64[]",
          "name": "",
          "type": "uint64[]"
        }
      ],
      "stateMutability": "pure",
      "type": "function"
    },
    {
      "inputs": [],
      "name": "base",
      "outputs": [
        {
          "internalType": "address",
          "name": "",
          "type": "address"
        }
      ],
      "stateMutability": "view",
      "type": "function"
    },
    {
      "inputs": [],
      "name": "codehash",
      "outputs": [
        {
          "internalType": "bytes32",
          "name": "_codehash",
          "type": "bytes32"
        }
      ],
      "stateMutability": "view",
      "type": "function"
    },
    {
      "inputs": [],
      "name": "currency",
      "outputs": [
        {
          "internalType": "contract IERC20",
          "name": "",
          "type": "address"
        }
      ],
      "stateMutability": "view",
      "type": "function"
    },
    {
      "inputs": [
        {
          "internalType": "uint256",
          "name": "_queryId",
          "type": "uint256"
        }
      ],
      "name": "deleteQuery",
      "outputs": [
        {
          "components": [
            {
              "internalType": "address",
              "name": "reporter",
              "type": "address"
            },
            {
              "internalType": "uint256",
              "name": "timestamp",
              "type": "uint256"
            },
            {
              "internalType": "bytes32",
              "name": "drTxHash",
              "type": "bytes32"
            },
            {
              "internalType": "bytes",
              "name": "cborBytes",
              "type": "bytes"
            }
          ],
          "internalType": "struct Witnet.Response",
          "name": "_response",
          "type": "tuple"
        }
      ],
      "stateMutability": "nonpayable",
      "type": "function"
    },
    {
      "inputs": [],
      "name": "destruct",
      "outputs": [],
      "stateMutability": "nonpayable",
      "type": "function"
    },
    {
      "inputs": [
        {
          "internalType": "uint256",
          "name": "_gasPrice",
          "type": "uint256"
        }
      ],
      "name": "estimateReward",
      "outputs": [
        {
          "internalType": "uint256",
          "name": "",
          "type": "uint256"
        }
      ],
      "stateMutability": "view",
      "type": "function"
    },
    {
      "inputs": [],
      "name": "getNextQueryId",
      "outputs": [
        {
          "internalType": "uint256",
          "name": "",
          "type": "uint256"
        }
      ],
      "stateMutability": "view",
      "type": "function"
    },
    {
      "inputs": [
        {
          "internalType": "uint256",
          "name": "_queryId",
          "type": "uint256"
        }
      ],
      "name": "getQueryData",
      "outputs": [
        {
          "components": [
            {
              "components": [
                {
                  "internalType": "contract IWitnetRequest",
                  "name": "addr",
                  "type": "address"
                },
                {
                  "internalType": "address",
                  "name": "requester",
                  "type": "address"
                },
                {
                  "internalType": "bytes32",
                  "name": "hash",
                  "type": "bytes32"
                },
                {
                  "internalType": "uint256",
                  "name": "gasprice",
                  "type": "uint256"
                },
                {
                  "internalType": "uint256",
                  "name": "reward",
                  "type": "uint256"
                }
              ],
              "internalType": "struct Witnet.Request",
              "name": "request",
              "type": "tuple"
            },
            {
              "components": [
                {
                  "internalType": "address",
                  "name": "reporter",
                  "type": "address"
                },
                {
                  "internalType": "uint256",
                  "name": "timestamp",
                  "type": "uint256"
                },
                {
                  "internalType": "bytes32",
                  "name": "drTxHash",
                  "type": "bytes32"
                },
                {
                  "internalType": "bytes",
                  "name": "cborBytes",
                  "type": "bytes"
                }
              ],
              "internalType": "struct Witnet.Response",
              "name": "response",
              "type": "tuple"
            },
            {
              "internalType": "address",
              "name": "from",
              "type": "address"
            }
          ],
          "internalType": "struct Witnet.Query",
          "name": "",
          "type": "tuple"
        }
      ],
      "stateMutability": "view",
      "type": "function"
    },
    {
      "inputs": [
        {
          "internalType": "uint256",
          "name": "_queryId",
          "type": "uint256"
        }
      ],
      "name": "getQueryStatus",
      "outputs": [
        {
          "internalType": "enum Witnet.QueryStatus",
          "name": "",
          "type": "uint8"
        }
      ],
      "stateMutability": "view",
      "type": "function"
    },
    {
      "inputs": [
        {
          "internalType": "bytes",
          "name": "_initData",
          "type": "bytes"
        }
      ],
      "name": "initialize",
      "outputs": [],
      "stateMutability": "nonpayable",
      "type": "function"
    },
    {
      "inputs": [
        {
          "components": [
            {
              "internalType": "bool",
              "name": "success",
              "type": "bool"
            },
            {
              "components": [
                {
                  "components": [
                    {
                      "internalType": "bytes",
                      "name": "data",
                      "type": "bytes"
                    },
                    {
                      "internalType": "uint32",
                      "name": "cursor",
                      "type": "uint32"
                    }
                  ],
                  "internalType": "struct Witnet.Buffer",
                  "name": "buffer",
                  "type": "tuple"
                },
                {
                  "internalType": "uint8",
                  "name": "initialByte",
                  "type": "uint8"
                },
                {
                  "internalType": "uint8",
                  "name": "majorType",
                  "type": "uint8"
                },
                {
                  "internalType": "uint8",
                  "name": "additionalInformation",
                  "type": "uint8"
                },
                {
                  "internalType": "uint64",
                  "name": "len",
                  "type": "uint64"
                },
                {
                  "internalType": "uint64",
                  "name": "tag",
                  "type": "uint64"
                }
              ],
              "internalType": "struct Witnet.CBOR",
              "name": "value",
              "type": "tuple"
            }
          ],
          "internalType": "struct Witnet.Result",
          "name": "_result",
          "type": "tuple"
        }
      ],
      "name": "isError",
      "outputs": [
        {
          "internalType": "bool",
          "name": "",
          "type": "bool"
        }
      ],
      "stateMutability": "pure",
      "type": "function"
    },
    {
      "inputs": [
        {
          "components": [
            {
              "internalType": "bool",
              "name": "success",
              "type": "bool"
            },
            {
              "components": [
                {
                  "components": [
                    {
                      "internalType": "bytes",
                      "name": "data",
                      "type": "bytes"
                    },
                    {
                      "internalType": "uint32",
                      "name": "cursor",
                      "type": "uint32"
                    }
                  ],
                  "internalType": "struct Witnet.Buffer",
                  "name": "buffer",
                  "type": "tuple"
                },
                {
                  "internalType": "uint8",
                  "name": "initialByte",
                  "type": "uint8"
                },
                {
                  "internalType": "uint8",
                  "name": "majorType",
                  "type": "uint8"
                },
                {
                  "internalType": "uint8",
                  "name": "additionalInformation",
                  "type": "uint8"
                },
                {
                  "internalType": "uint64",
                  "name": "len",
                  "type": "uint64"
                },
                {
                  "internalType": "uint64",
                  "name": "tag",
                  "type": "uint64"
                }
              ],
              "internalType": "struct Witnet.CBOR",
              "name": "value",
              "type": "tuple"
            }
          ],
          "internalType": "struct Witnet.Result",
          "name": "_result",
          "type": "tuple"
        }
      ],
      "name": "isOk",
      "outputs": [
        {
          "internalType": "bool",
          "name": "",
          "type": "bool"
        }
      ],
      "stateMutability": "pure",
      "type": "function"
    },
    {
      "inputs": [
        {
          "internalType": "address",
          "name": "_reporter",
          "type": "address"
        }
      ],
      "name": "isReporter",
      "outputs": [
        {
          "internalType": "bool",
          "name": "",
          "type": "bool"
        }
      ],
      "stateMutability": "view",
      "type": "function"
    },
    {
      "inputs": [],
      "name": "isUpgradable",
      "outputs": [
        {
          "internalType": "bool",
          "name": "",
          "type": "bool"
        }
      ],
      "stateMutability": "view",
      "type": "function"
    },
    {
      "inputs": [
        {
          "internalType": "address",
          "name": "_from",
          "type": "address"
        }
      ],
      "name": "isUpgradableFrom",
      "outputs": [
        {
          "internalType": "bool",
          "name": "",
          "type": "bool"
        }
      ],
      "stateMutability": "view",
      "type": "function"
    },
    {
      "inputs": [],
      "name": "owner",
      "outputs": [
        {
          "internalType": "address",
          "name": "",
          "type": "address"
        }
      ],
      "stateMutability": "view",
      "type": "function"
    },
    {
      "inputs": [
        {
          "internalType": "contract IWitnetRequest",
          "name": "_addr",
          "type": "address"
        }
      ],
      "name": "postRequest",
      "outputs": [
        {
          "internalType": "uint256",
          "name": "_queryId",
          "type": "uint256"
        }
      ],
      "stateMutability": "payable",
      "type": "function"
    },
    {
      "inputs": [],
      "name": "proxiableUUID",
      "outputs": [
        {
          "internalType": "bytes32",
          "name": "",
          "type": "bytes32"
        }
      ],
      "stateMutability": "pure",
      "type": "function"
    },
    {
      "inputs": [
        {
          "internalType": "uint256",
          "name": "_queryId",
          "type": "uint256"
        }
      ],
      "name": "readRequest",
      "outputs": [
        {
          "components": [
            {
              "internalType": "contract IWitnetRequest",
              "name": "addr",
              "type": "address"
            },
            {
              "internalType": "address",
              "name": "requester",
              "type": "address"
            },
            {
              "internalType": "bytes32",
              "name": "hash",
              "type": "bytes32"
            },
            {
              "internalType": "uint256",
              "name": "gasprice",
              "type": "uint256"
            },
            {
              "internalType": "uint256",
              "name": "reward",
              "type": "uint256"
            }
          ],
          "internalType": "struct Witnet.Request",
          "name": "_request",
          "type": "tuple"
        }
      ],
      "stateMutability": "view",
      "type": "function"
    },
    {
      "inputs": [
        {
          "internalType": "uint256",
          "name": "_queryId",
          "type": "uint256"
        }
      ],
      "name": "readRequestBytecode",
      "outputs": [
        {
          "internalType": "bytes",
          "name": "_bytecode",
          "type": "bytes"
        }
      ],
      "stateMutability": "view",
      "type": "function"
    },
    {
      "inputs": [
        {
          "internalType": "uint256",
          "name": "_queryId",
          "type": "uint256"
        }
      ],
      "name": "readRequestGasPrice",
      "outputs": [
        {
          "internalType": "uint256",
          "name": "",
          "type": "uint256"
        }
      ],
      "stateMutability": "view",
      "type": "function"
    },
    {
      "inputs": [
        {
          "internalType": "uint256",
          "name": "_queryId",
          "type": "uint256"
        }
      ],
      "name": "readRequestReward",
      "outputs": [
        {
          "internalType": "uint256",
          "name": "",
          "type": "uint256"
        }
      ],
      "stateMutability": "view",
      "type": "function"
    },
    {
      "inputs": [
        {
          "internalType": "uint256",
          "name": "_queryId",
          "type": "uint256"
        }
      ],
      "name": "readResponse",
      "outputs": [
        {
          "components": [
            {
              "internalType": "address",
              "name": "reporter",
              "type": "address"
            },
            {
              "internalType": "uint256",
              "name": "timestamp",
              "type": "uint256"
            },
            {
              "internalType": "bytes32",
              "name": "drTxHash",
              "type": "bytes32"
            },
            {
              "internalType": "bytes",
              "name": "cborBytes",
              "type": "bytes"
            }
          ],
          "internalType": "struct Witnet.Response",
          "name": "_response",
          "type": "tuple"
        }
      ],
      "stateMutability": "view",
      "type": "function"
    },
    {
      "inputs": [
        {
          "internalType": "uint256",
          "name": "_queryId",
          "type": "uint256"
        }
      ],
      "name": "readResponseDrTxHash",
      "outputs": [
        {
          "internalType": "bytes32",
          "name": "",
          "type": "bytes32"
        }
      ],
      "stateMutability": "view",
      "type": "function"
    },
    {
      "inputs": [
        {
          "internalType": "uint256",
          "name": "_queryId",
          "type": "uint256"
        }
      ],
      "name": "readResponseReporter",
      "outputs": [
        {
          "internalType": "address",
          "name": "",
          "type": "address"
        }
      ],
      "stateMutability": "view",
      "type": "function"
    },
    {
      "inputs": [
        {
          "internalType": "uint256",
          "name": "_queryId",
          "type": "uint256"
        }
      ],
      "name": "readResponseResult",
      "outputs": [
        {
          "components": [
            {
              "internalType": "bool",
              "name": "success",
              "type": "bool"
            },
            {
              "components": [
                {
                  "components": [
                    {
                      "internalType": "bytes",
                      "name": "data",
                      "type": "bytes"
                    },
                    {
                      "internalType": "uint32",
                      "name": "cursor",
                      "type": "uint32"
                    }
                  ],
                  "internalType": "struct Witnet.Buffer",
                  "name": "buffer",
                  "type": "tuple"
                },
                {
                  "internalType": "uint8",
                  "name": "initialByte",
                  "type": "uint8"
                },
                {
                  "internalType": "uint8",
                  "name": "majorType",
                  "type": "uint8"
                },
                {
                  "internalType": "uint8",
                  "name": "additionalInformation",
                  "type": "uint8"
                },
                {
                  "internalType": "uint64",
                  "name": "len",
                  "type": "uint64"
                },
                {
                  "internalType": "uint64",
                  "name": "tag",
                  "type": "uint64"
                }
              ],
              "internalType": "struct Witnet.CBOR",
              "name": "value",
              "type": "tuple"
            }
          ],
          "internalType": "struct Witnet.Result",
          "name": "",
          "type": "tuple"
        }
      ],
      "stateMutability": "view",
      "type": "function"
    },
    {
      "inputs": [
        {
          "internalType": "uint256",
          "name": "_queryId",
          "type": "uint256"
        }
      ],
      "name": "readResponseTimestamp",
      "outputs": [
        {
          "internalType": "uint256",
          "name": "",
          "type": "uint256"
        }
      ],
      "stateMutability": "view",
      "type": "function"
    },
    {
      "inputs": [
        {
          "internalType": "uint256",
          "name": "_queryId",
          "type": "uint256"
        },
        {
          "internalType": "bytes32",
          "name": "_drTxHash",
          "type": "bytes32"
        },
        {
          "internalType": "bytes",
          "name": "_cborBytes",
          "type": "bytes"
        }
      ],
      "name": "reportResult",
      "outputs": [],
      "stateMutability": "nonpayable",
      "type": "function"
    },
    {
      "inputs": [
        {
          "internalType": "uint256",
          "name": "_queryId",
          "type": "uint256"
        },
        {
          "internalType": "uint256",
          "name": "_timestamp",
          "type": "uint256"
        },
        {
          "internalType": "bytes32",
          "name": "_drTxHash",
          "type": "bytes32"
        },
        {
          "internalType": "bytes",
          "name": "_cborBytes",
          "type": "bytes"
        }
      ],
      "name": "reportResult",
      "outputs": [],
      "stateMutability": "nonpayable",
      "type": "function"
    },
    {
      "inputs": [
        {
          "components": [
            {
              "internalType": "uint256",
              "name": "queryId",
              "type": "uint256"
            },
            {
              "internalType": "uint256",
              "name": "timestamp",
              "type": "uint256"
            },
            {
              "internalType": "bytes32",
              "name": "drTxHash",
              "type": "bytes32"
            },
            {
              "internalType": "bytes",
              "name": "cborBytes",
              "type": "bytes"
            }
          ],
          "internalType": "struct IWitnetRequestBoardReporter.BatchResult[]",
          "name": "_batchResults",
          "type": "tuple[]"
        },
        {
          "internalType": "bool",
          "name": "_verbose",
          "type": "bool"
        }
      ],
      "name": "reportResultBatch",
      "outputs": [],
      "stateMutability": "nonpayable",
      "type": "function"
    },
    {
      "inputs": [
        {
          "internalType": "bytes",
          "name": "_cborBytes",
          "type": "bytes"
        }
      ],
      "name": "resultFromCborBytes",
      "outputs": [
        {
          "components": [
            {
              "internalType": "bool",
              "name": "success",
              "type": "bool"
            },
            {
              "components": [
                {
                  "components": [
                    {
                      "internalType": "bytes",
                      "name": "data",
                      "type": "bytes"
                    },
                    {
                      "internalType": "uint32",
                      "name": "cursor",
                      "type": "uint32"
                    }
                  ],
                  "internalType": "struct Witnet.Buffer",
                  "name": "buffer",
                  "type": "tuple"
                },
                {
                  "internalType": "uint8",
                  "name": "initialByte",
                  "type": "uint8"
                },
                {
                  "internalType": "uint8",
                  "name": "majorType",
                  "type": "uint8"
                },
                {
                  "internalType": "uint8",
                  "name": "additionalInformation",
                  "type": "uint8"
                },
                {
                  "internalType": "uint64",
                  "name": "len",
                  "type": "uint64"
                },
                {
                  "internalType": "uint64",
                  "name": "tag",
                  "type": "uint64"
                }
              ],
              "internalType": "struct Witnet.CBOR",
              "name": "value",
              "type": "tuple"
            }
          ],
          "internalType": "struct Witnet.Result",
          "name": "",
          "type": "tuple"
        }
      ],
      "stateMutability": "pure",
      "type": "function"
    },
    {
      "inputs": [
        {
          "components": [
            {
              "components": [
                {
                  "internalType": "bytes",
                  "name": "data",
                  "type": "bytes"
                },
                {
                  "internalType": "uint32",
                  "name": "cursor",
                  "type": "uint32"
                }
              ],
              "internalType": "struct Witnet.Buffer",
              "name": "buffer",
              "type": "tuple"
            },
            {
              "internalType": "uint8",
              "name": "initialByte",
              "type": "uint8"
            },
            {
              "internalType": "uint8",
              "name": "majorType",
              "type": "uint8"
            },
            {
              "internalType": "uint8",
              "name": "additionalInformation",
              "type": "uint8"
            },
            {
              "internalType": "uint64",
              "name": "len",
              "type": "uint64"
            },
            {
              "internalType": "uint64",
              "name": "tag",
              "type": "uint64"
            }
          ],
          "internalType": "struct Witnet.CBOR",
          "name": "_cborValue",
          "type": "tuple"
        }
      ],
      "name": "resultFromCborValue",
      "outputs": [
        {
          "components": [
            {
              "internalType": "bool",
              "name": "success",
              "type": "bool"
            },
            {
              "components": [
                {
                  "components": [
                    {
                      "internalType": "bytes",
                      "name": "data",
                      "type": "bytes"
                    },
                    {
                      "internalType": "uint32",
                      "name": "cursor",
                      "type": "uint32"
                    }
                  ],
                  "internalType": "struct Witnet.Buffer",
                  "name": "buffer",
                  "type": "tuple"
                },
                {
                  "internalType": "uint8",
                  "name": "initialByte",
                  "type": "uint8"
                },
                {
                  "internalType": "uint8",
                  "name": "majorType",
                  "type": "uint8"
                },
                {
                  "internalType": "uint8",
                  "name": "additionalInformation",
                  "type": "uint8"
                },
                {
                  "internalType": "uint64",
                  "name": "len",
                  "type": "uint64"
                },
                {
                  "internalType": "uint64",
                  "name": "tag",
                  "type": "uint64"
                }
              ],
              "internalType": "struct Witnet.CBOR",
              "name": "value",
              "type": "tuple"
            }
          ],
          "internalType": "struct Witnet.Result",
          "name": "",
          "type": "tuple"
        }
      ],
      "stateMutability": "pure",
      "type": "function"
    },
    {
      "inputs": [
        {
          "internalType": "address[]",
          "name": "_reporters",
          "type": "address[]"
        }
      ],
      "name": "setReporters",
      "outputs": [],
      "stateMutability": "nonpayable",
      "type": "function"
    },
    {
      "inputs": [
        {
          "internalType": "address",
          "name": "_newOwner",
          "type": "address"
        }
      ],
      "name": "transferOwnership",
      "outputs": [],
      "stateMutability": "nonpayable",
      "type": "function"
    },
    {
      "inputs": [
        {
          "internalType": "address[]",
          "name": "_exReporters",
          "type": "address[]"
        }
      ],
      "name": "unsetReporters",
      "outputs": [],
      "stateMutability": "nonpayable",
      "type": "function"
    },
    {
      "inputs": [
        {
          "internalType": "uint256",
          "name": "_queryId",
          "type": "uint256"
        }
      ],
      "name": "upgradeReward",
      "outputs": [],
      "stateMutability": "payable",
      "type": "function"
    },
    {
      "inputs": [],
      "name": "version",
      "outputs": [
        {
          "internalType": "bytes32",
          "name": "",
          "type": "bytes32"
        }
      ],
      "stateMutability": "view",
      "type": "function"
    },
    {
      "stateMutability": "payable",
      "type": "receive"
    }
  ],
  "bytecode": "0x6101406040523480156200001257600080fd5b5060405162004932380380620049328339810160408190526200003591620000c3565b600060808190527ff595240b351bc8f951c2f53b26f4e78c32cb62122cf76c19b7fdda7d4968e18480546001600160a01b0319163390811790915581527fa6db7263983f337bae2c9fb315730227961d1c1153ae1e10a56b5791465dd6fd60205260409020805460ff191660011790553060a08190523f60c05291151560e052610100526101205262000101565b600080600060608486031215620000d957600080fd5b83518015158114620000ea57600080fd5b602085015160409095015190969495509392505050565b60805160a05160c05160e05161010051610120516147b76200017b600039600061290001526000818161071101526114590152600081816106de01526118280152600081816108d301526113ec01526000818161066401528181611311015281816113a5015261140d01526000610b1e01526147b76000f3fe6080604052600436106102e85760003560e01c80637780cde111610190578063c805dd0f116100dc578063d4da69ac11610095578063dc3c71cd1161006f578063dc3c71cd14610aec578063e5a6b10f14610b0c578063e99e47f314610b40578063f2fde38b14610b605761034c565b8063d4da69ac14610a71578063d74803be14610a91578063db04f16d14610abf5761034c565b8063c805dd0f146109af578063c87d969e146109c4578063c8f5cdd5146109f1578063cf62d11514610a11578063d2e8756114610a31578063d4ced13214610a515761034c565b8063a8604c1a11610149578063b281a7bd11610123578063b281a7bd14610917578063bc7e25ff1461092a578063c2485ebd14610962578063c683b4651461098f5761034c565b8063a8604c1a146108a4578063a9e954b9146108c4578063b0768328146108f75761034c565b80637780cde1146107e25780637c1fbda31461080257806381a398b5146108225780638da5cb5b1461084257806399f65804146108575780639d96fced146108845761034c565b80633b885f2a1161024f5780635479d9401161020857806366bfdc75116101e257806366bfdc75146107555780636b58960a146107685780636f07abcc14610788578063754e5bea146107b55761034c565b80635479d940146106cf57806354fd4d50146107025780636280bce8146107355761034c565b80633b885f2a146105c8578063439fab91146105e85780634c9f72e3146106085780634dcffaf3146106285780635001f3b51461065557806352d1902d1461069c5761034c565b80632241f2db116102a15780632241f2db146104de5780632565082b1461051157806328a78d9b1461053e5780632b68b9c6146105605780632b905fbb146105755780633ae97295146105a85761034c565b8063044ad7be146103ae57806307e66852146104095780630f572d2c14610436578063109a0e3c146104635780631dd27daf1461049057806320f9241e146104be5761034c565b3661034c5760405162461bcd60e51b815260206004820152602960248201527f5769746e657452657175657374426f6172643a206e6f207472616e7366657273604482015268081858d8d95c1d195960ba1b60648201526084015b60405180910390fd5b60405162461bcd60e51b815260206004820152603160248201527f5769746e657452657175657374426f61726455706772616461626c65426173656044820152700e881b9bdd081a5b5c1b195b595b9d1959607a1b6064820152608401610343565b3480156103ba57600080fd5b506103f46103c93660046130c5565b6001600160a01b03166000908152600080516020614733833981519152602052604090205460ff1690565b60405190151581526020015b60405180910390f35b34801561041557600080fd5b5061042961042436600461335d565b610b80565b60405161040091906133e0565b34801561044257600080fd5b5061045661045136600461335d565b610c05565b6040516104009190613427565b34801561046f57600080fd5b5061048361047e36600461335d565b610c84565b60405161040091906134b2565b34801561049c57600080fd5b506104b06104ab3660046134c5565b610d03565b604051908152602001610400565b3480156104ca57600080fd5b506104b06104d93660046134c5565b610d6f565b3480156104ea57600080fd5b506104fe6104f936600461335d565b610dcd565b60405160039190910b8152602001610400565b34801561051d57600080fd5b5061053161052c3660046134de565b610e48565b604051610400919061351a565b34801561054a57600080fd5b5061055e6105593660046135ed565b610ecc565b005b34801561056c57600080fd5b5061055e610fb8565b34801561058157600080fd5b5061059561059036600461335d565b610fee565b604051600f9190910b8152602001610400565b3480156105b457600080fd5b506104b06105c33660046134c5565b611069565b3480156105d457600080fd5b506104836105e33660046134c5565b6110d6565b3480156105f457600080fd5b5061055e610603366004613691565b61124d565b34801561061457600080fd5b5061055e6106233660046135ed565b6114a4565b34801561063457600080fd5b5061064861064336600461335d565b611585565b60405161040091906136c5565b34801561066157600080fd5b507f00000000000000000000000000000000000000000000000000000000000000005b6040516001600160a01b039091168152602001610400565b3480156106a857600080fd5b507f9969c6aff411c5e5f0807500693e8f819ce88529615cfa6cab569b24788a10186104b0565b3480156106db57600080fd5b507f00000000000000000000000000000000000000000000000000000000000000006103f4565b34801561070e57600080fd5b507f00000000000000000000000000000000000000000000000000000000000000006104b0565b34801561074157600080fd5b5061055e61075036600461374e565b611604565b61055e6107633660046134c5565b611753565b34801561077457600080fd5b506103f46107833660046130c5565b61180c565b34801561079457600080fd5b506107a86107a33660046134c5565b61186b565b60405161040091906137b6565b3480156107c157600080fd5b506107d56107d03660046134c5565b611876565b604051610400919061380b565b3480156107ee57600080fd5b506103f46107fd36600461335d565b6119b9565b34801561080e57600080fd5b506107d561081d3660046134c5565b611a34565b34801561082e57600080fd5b5061055e61083d36600461381e565b611caf565b34801561084e57600080fd5b50610684611fa1565b34801561086357600080fd5b506108776108723660046134c5565b611fbd565b6040516104009190613977565b34801561089057600080fd5b5061068461089f3660046134c5565b6120bf565b3480156108b057600080fd5b506103f46108bf36600461335d565b612123565b3480156108d057600080fd5b507f00000000000000000000000000000000000000000000000000000000000000006104b0565b34801561090357600080fd5b5061064861091236600461335d565b61215d565b6104b06109253660046130c5565b612197565b34801561093657600080fd5b5061094a61094536600461335d565b6123bd565b6040516001600160401b039091168152602001610400565b34801561096e57600080fd5b5061098261097d3660046134c5565b612438565b6040516104009190613985565b34801561099b57600080fd5b506104836109aa36600461335d565b6125f2565b3480156109bb57600080fd5b506104b061262c565b3480156109d057600080fd5b506109e46109df36600461335d565b61264a565b60405161040091906139d4565b3480156109fd57600080fd5b5061055e610a0c366004613a36565b6126c9565b348015610a1d57600080fd5b506104b0610a2c36600461335d565b61287e565b348015610a3d57600080fd5b506104b0610a4c3660046134c5565b6128f9565b348015610a5d57600080fd5b506103f4610a6c36600461335d565b612925565b348015610a7d57600080fd5b50610531610a8c3660046134c5565b61295f565b348015610a9d57600080fd5b50610ab1610aac36600461335d565b612a44565b604051610400929190613aab565b348015610acb57600080fd5b50610adf610ada36600461335d565b612b56565b6040516104009190613acb565b348015610af857600080fd5b506104b0610b073660046134c5565b612bd1565b348015610b1857600080fd5b506106847f000000000000000000000000000000000000000000000000000000000000000081565b348015610b4c57600080fd5b50610531610b5b366004613691565b612c2f565b348015610b6c57600080fd5b5061055e610b7b3660046130c5565b612c6e565b60405163fc853c3760e01b815260609073__$ea6a162dd0cd18b69b81164309824ac93c$__9063fc853c3790610bba908590600401613b60565b600060405180830381865af4158015610bd7573d6000803e3d6000fd5b505050506040513d6000823e601f3d908101601f19168201604052610bff9190810190613b99565b92915050565b6040516308efc09760e01b815260609073__$ea6a162dd0cd18b69b81164309824ac93c$__906308efc09790610c3f908590600401613b60565b600060405180830381865af4158015610c5c573d6000803e3d6000fd5b505050506040513d6000823e601f3d908101601f19168201604052610bff9190810190613c42565b60405163f417daf560e01b815260609073__$ea6a162dd0cd18b69b81164309824ac93c$__9063f417daf590610cbe908590600401613b60565b600060405180830381865af4158015610cdb573d6000803e3d6000fd5b505050506040513d6000823e601f3d908101601f19168201604052610bff9190810190613d28565b600081600180610d1283612d1e565b6003811115610d2357610d236137a0565b14610d2d82612da0565b90610d4b5760405162461bcd60e51b815260040161034391906134b2565b50610d54612e83565b60009485526003016020525050604090912060040154919050565b600081600280610d7e83612d1e565b6003811115610d8f57610d8f6137a0565b14610d9982612da0565b90610db75760405162461bcd60e51b815260040161034391906134b2565b50610dc184612ea7565b60010154949350505050565b604051636c4346db60e11b815260009073__$ea6a162dd0cd18b69b81164309824ac93c$__9063d8868db690610e07908590600401613b60565b602060405180830381865af4158015610e24573d6000803e3d6000fd5b505050506040513d601f19601f82011682018060405250810190610bff9190613d5c565b610e50613007565b60405163098141f760e11b815273__$ea6a162dd0cd18b69b81164309824ac93c$__9063130283ee90610e87908590600401613d77565b600060405180830381865af4158015610ea4573d6000803e3d6000fd5b505050506040513d6000823e601f3d908101601f19168201604052610bff9190810190613da0565b610ed4612e83565b600101546001600160a01b03163314610eff5760405162461bcd60e51b815260040161034390613eed565b60005b8151811015610f7d576000828281518110610f1f57610f1f613f24565b602002602001015190506000610f4060008051602061473383398151915290565b6001600160a01b039290921660009081526020929092526040909120805460ff191691151591909117905580610f7581613f50565b915050610f02565b507f646436560d9757cb3c0f01da0f62642c6040b00c9a80685f94ef1a7725cad5f181604051610fad9190613f69565b60405180910390a150565b610fc0612e83565b600101546001600160a01b03163314610feb5760405162461bcd60e51b815260040161034390613eed565b33ff5b60405163c71db52160e01b815260009073__$ea6a162dd0cd18b69b81164309824ac93c$__9063c71db52190611028908590600401613b60565b602060405180830381865af4158015611045573d6000803e3d6000fd5b505050506040513d601f19601f82011682018060405250810190610bff9190613faa565b60008160018061107883612d1e565b6003811115611089576110896137a0565b1461109382612da0565b906110b15760405162461bcd60e51b815260040161034391906134b2565b506110ba612e83565b6000858152600391820160205260409020015492505050919050565b606060006110e383612d1e565b60038111156110f4576110f46137a0565b036111475760405162461bcd60e51b815260206004820152602f602482015260008051602061471383398151915260448201526e081b9bdd081e595d081c1bdcdd1959608a1b6064820152608401610343565b600061115283612ec7565b80549091506001600160a01b0316156112475780546040805163784a000160e11b815290516001600160a01b039092169163f0940002916004808201926000929091908290030181865afa1580156111ae573d6000803e3d6000fd5b505050506040513d6000823e601f3d908101601f191682016040526111d69190810190613d28565b915080600201546111e683612ee4565b146112475760405162461bcd60e51b815260206004820152603f602482015260008051602061471383398151915260448201527f2062797465636f6465206368616e67656420616674657220706f7374696e67006064820152608401610343565b50919050565b6000611257612e83565b600101546001600160a01b031690508061129c57503380611276612e83565b60010180546001600160a01b0319166001600160a01b03929092169190911790556112f6565b336001600160a01b038216146112f65760405162461bcd60e51b815260206004820152602b602482015260008051602061471383398151915260448201526a1037b7363c9037bbb732b960a91b6064820152608401610343565b6000611300612e83565b546001600160a01b0316146113a3577f00000000000000000000000000000000000000000000000000000000000000006001600160a01b0316611341612e83565b546001600160a01b0316036113a35760405162461bcd60e51b8152602060048201526034602482015260008051602061471383398151915260448201527308185b1c9958591e481a5b9a5d1a585b1a5e995960621b6064820152608401610343565b7f00000000000000000000000000000000000000000000000000000000000000006113cc612e83565b80546001600160a01b0319166001600160a01b03929092169190911790557f00000000000000000000000000000000000000000000000000000000000000007f00000000000000000000000000000000000000000000000000000000000000006001600160a01b0316337f72d4b00d8e35b3717e384aef5f900256a106d6a423d88935a11579981333ba207f000000000000000000000000000000000000000000000000000000000000000060405190815260200160405180910390a46114a0828060200190518101906106239190613fc5565b5050565b6114ac612e83565b600101546001600160a01b031633146114d75760405162461bcd60e51b815260040161034390613eed565b60005b81518110156115555760008282815181106114f7576114f7613f24565b60200260200101519050600161151860008051602061473383398151915290565b6001600160a01b039290921660009081526020929092526040909120805460ff19169115159190911790558061154d81613f50565b9150506114da565b507f4d570ee36dec878006609360d34ac8d6a0b68d521871ae15a407b6340877ca0181604051610fad9190613f69565b60405163147e5c8f60e01b815260609073__$ea6a162dd0cd18b69b81164309824ac93c$__9063147e5c8f906115bf908590600401613b60565b600060405180830381865af41580156115dc573d6000803e3d6000fd5b505050506040513d6000823e601f3d908101601f19168201604052610bff919081019061405e565b336000908152600080516020614733833981519152602052604090205460ff166116405760405162461bcd60e51b8152600401610343906140f7565b8360018061164d83612d1e565b600381111561165e5761165e6137a0565b1461166882612da0565b906116865760405162461bcd60e51b815260040161034391906134b2565b5060008590036116a85760405162461bcd60e51b815260040161034390614141565b60008390036116c95760405162461bcd60e51b8152600401610343906141a9565b6117143361170f88428989898080601f016020809104026020016040519081016040528093929190818152602001838380828437600092019190915250612f3692505050565b612fcc565b604080518781523360208201527ee9413c6321ec446a267b7ebf5bb108663f2ef58b35c4f6e18905ac8f205cb2910160405180910390a1505050505050565b8060018061176083612d1e565b6003811115611771576117716137a0565b1461177b82612da0565b906117995760405162461bcd60e51b815260040161034391906134b2565b5060006117a584612ec7565b905060003482600401546117b99190614206565b60038301549091503a908111156118005760006117d5826128f9565b9050808310156117f75760405162461bcd60e51b815260040161034390614219565b50600383018190555b50600490910155505050565b600080611817612e83565b600101546001600160a01b031690507f000000000000000000000000000000000000000000000000000000000000000080156118645750826001600160a01b0316816001600160a01b0316145b9392505050565b6000610bff82612d1e565b6040805160808101825260008082526020820181905291810191909152606080820152816002806118a683612d1e565b60038111156118b7576118b76137a0565b146118c182612da0565b906118df5760405162461bcd60e51b815260040161034391906134b2565b506118e984612ea7565b6040805160808101825282546001600160a01b031681526001830154602082015260028301549181019190915260038201805491929160608401919061192e90614256565b80601f016020809104026020016040519081016040528092919081815260200182805461195a90614256565b80156119a75780601f1061197c576101008083540402835291602001916119a7565b820191906000526020600020905b81548152906001019060200180831161198a57829003601f168201915b50505050508152505092505050919050565b6040516350ea2eab60e11b815260009073__$ea6a162dd0cd18b69b81164309824ac93c$__9063a1d45d56906119f3908590600401613b60565b602060405180830381865af4158015611a10573d6000803e3d6000fd5b505050506040513d601f19601f82011682018060405250810190610bff919061428a565b604080516080810182526000808252602082018190529181019190915260608082015281600280611a6483612d1e565b6003811115611a7557611a756137a0565b14611a7f82612da0565b90611a9d5760405162461bcd60e51b815260040161034391906134b2565b506000611aa8612e83565b60008681526003919091016020526040902060098101549091506001600160a01b03163314611b1f5760405162461bcd60e51b815260206004820152602f602482015260008051602061471383398151915260448201526e1037b7363c903932b8bab2b9ba32b960891b6064820152608401610343565b604080516080810182526005830180546001600160a01b0316825260068401546020830152600784015492820192909252600883018054919291606084019190611b6890614256565b80601f0160208091040260200160405190810160405280929190818152602001828054611b9490614256565b8015611be15780601f10611bb657610100808354040283529160200191611be1565b820191906000526020600020905b815481529060010190602001808311611bc457829003601f168201915b5050505050815250509350611bf4612e83565b600086815260039182016020526040812080546001600160a01b03199081168255600182018054821690556002820183905592810182905560048101829055600581018054909316835560068101829055600781018290559181611c5b600885018261305a565b50505060090180546001600160a01b0319169055604080518681523360208201527fdec847db058c9c012e0f3dbe2b99e05cfa4c693f61a7d8bc64652a68913cbfff910160405180910390a1505050919050565b336000908152600080516020614733833981519152602052604090205460ff16611ceb5760405162461bcd60e51b8152600401610343906140f7565b8151600090815b81811015611f8a576000858281518110611d0e57611d0e613f24565b6020026020010151905060016003811115611d2b57611d2b6137a0565b8151611d3690612d1e565b6003811115611d4757611d476137a0565b14611db3578415611dae5780516040805191825260208201819052602c9082015260008051602061471383398151915260608201526b08189859081c5d595c9e525960a21b60808201526000805160206146a78339815191529060a0015b60405180910390a15b611f77565b6040810151600003611e1d578415611dae5780516040805191825260208201819052602d9082015260008051602061471383398151915260608201526c040c4c2c840c8e4a8f090c2e6d609b1b60808201526000805160206146a78339815191529060a001611da5565b806060015151600003611e89578415611dae5780516040805191825260208201819052602e9082015260008051602061471383398151915260608201526d206261642063626f72427974657360901b60808201526000805160206146a78339815191529060a001611da5565b60008160200151118015611ea05750428160200151115b15611f04578415611dae5780516040805191825260208201819052602e9082015260008051602061471383398151915260608201526d0206261642074696d657374616d760941b60808201526000805160206146a78339815191529060a001611da5565b80516020820151611f30919015611f1f578260200151611f21565b425b83604001518460600151612f36565b611f3a9085614206565b8151604080519182523360208301529195507ee9413c6321ec446a267b7ebf5bb108663f2ef58b35c4f6e18905ac8f205cb2910160405180910390a15b5080611f8281613f50565b915050611cf2565b508115611f9b57611f9b3383612fcc565b50505050565b6000611fab612e83565b600101546001600160a01b0316919050565b6040805160a08101825260008082526020820181905291810182905260608101829052608081019190915281600180611ff583612d1e565b6003811115612006576120066137a0565b1461201082612da0565b9061202e5760405162461bcd60e51b815260040161034391906134b2565b506000612039612e83565b600086815260039182016020908152604091829020825160a08101845281546001600160a01b039081168252600183015481169382019390935260028201549381019390935292830154606083015260048301546080830152600983015491965091925016156120b75760098101546001600160a01b031660208501525b505050919050565b6000816002806120ce83612d1e565b60038111156120df576120df6137a0565b146120e982612da0565b906121075760405162461bcd60e51b815260040161034391906134b2565b5061211184612ea7565b546001600160a01b0316949350505050565b604051636646c11960e01b815260009073__$ea6a162dd0cd18b69b81164309824ac93c$__90636646c119906119f3908590600401613b60565b604051630879730d60e01b815260609073__$ea6a162dd0cd18b69b81164309824ac93c$__90630879730d906115bf908590600401613b60565b6000343a826121a5826128f9565b9050808310156121c75760405162461bcd60e51b815260040161034390614219565b6001600160a01b0385166122205760405162461bcd60e51b815260206004820152602c602482015260008051602061471383398151915260448201526b081b9d5b1b081cd8dc9a5c1d60a21b6064820152608401610343565b6000856001600160a01b031663f09400026040518163ffffffff1660e01b8152600401600060405180830381865afa158015612260573d6000803e3d6000fd5b505050506040513d6000823e601f3d908101601f191682016040526122889190810190613d28565b905060008151116122df5760405162461bcd60e51b815260206004820152602d602482015260008051602061471383398151915260448201526c08195b5c1d1e481cd8dc9a5c1d609a1b6064820152608401610343565b6122e7612e83565b600201600081546122f790613f50565b9182905550945033612307612e83565b60008781526003919091016020526040812060090180546001600160a01b0319166001600160a01b03939093169290921790915561234486612ec7565b80546001600160a01b0319166001600160a01b038916178155905061236882612ee4565b60028201556003810184905560048101859055604080518781523360208201527fcabaf9c102f83746b27ae932f638eebfaf5ea7d014edd20ab14dec3768a8f55c910160405180910390a15050505050919050565b604051638233f9b360e01b815260009073__$ea6a162dd0cd18b69b81164309824ac93c$__90638233f9b3906123f7908590600401613b60565b602060405180830381865af4158015612414573d6000803e3d6000fd5b505050506040513d601f19601f82011682018060405250810190610bff91906142a7565b6124a26040805161010081019091526000606082018181526080830182905260a0830182905260c0830182905260e0830191909152819081526040805160808101825260008082526020828101829052928201526060808201529101908152600060209091015290565b6124aa612e83565b60008381526003918201602090815260409182902082516101008101845281546001600160a01b03908116606080840191825260018501548316608080860191909152600286015460a08601529785015460c0850152600485015460e0850152908352855196870186526005840180549092168752600684015487860152600784015495870195909552600883018054929693959487019491929184019161255190614256565b80601f016020809104026020016040519081016040528092919081815260200182805461257d90614256565b80156125ca5780601f1061259f576101008083540402835291602001916125ca565b820191906000526020600020905b8154815290600101906020018083116125ad57829003601f168201915b505050919092525050508152600991909101546001600160a01b031660209091015292915050565b60405163a1b9089160e01b815260609073__$ea6a162dd0cd18b69b81164309824ac93c$__9063a1b9089190610cbe908590600401613b60565b6000612636612e83565b60020154612645906001614206565b905090565b6040516316935cf160e11b815260609073__$ea6a162dd0cd18b69b81164309824ac93c$__90632d26b9e290612684908590600401613b60565b600060405180830381865af41580156126a1573d6000803e3d6000fd5b505050506040513d6000823e601f3d908101601f19168201604052610bff91908101906142c4565b336000908152600080516020614733833981519152602052604090205460ff166127055760405162461bcd60e51b8152600401610343906140f7565b8460018061271283612d1e565b6003811115612723576127236137a0565b1461272d82612da0565b9061274b5760405162461bcd60e51b815260040161034391906134b2565b50428611156127b65760405162461bcd60e51b815260206004820152603160248201527f5769746e657452657175657374426f617264547275737461626c65446566617560448201527006c743a206261642074696d657374616d7607c1b6064820152608401610343565b60008590036127d75760405162461bcd60e51b815260040161034390614141565b60008390036127f85760405162461bcd60e51b8152600401610343906141a9565b61283e3361170f89898989898080601f016020809104026020016040519081016040528093929190818152602001838380828437600092019190915250612f3692505050565b604080518881523360208201527ee9413c6321ec446a267b7ebf5bb108663f2ef58b35c4f6e18905ac8f205cb2910160405180910390a150505050505050565b60405163a2e8765560e01b815260009073__$ea6a162dd0cd18b69b81164309824ac93c$__9063a2e87655906128b8908590600401613b60565b602060405180830381865af41580156128d5573d6000803e3d6000fd5b505050506040513d601f19601f82011682018060405250810190610bff919061437f565b6000610bff7f000000000000000000000000000000000000000000000000000000000000000083614398565b604051632afe0bd360e21b815260009073__$ea6a162dd0cd18b69b81164309824ac93c$__9063abf82f4c906119f3908590600401613b60565b612967613007565b8160028061297483612d1e565b6003811115612985576129856137a0565b1461298f82612da0565b906129ad5760405162461bcd60e51b815260040161034391906134b2565b5060006129b985612ea7565b60405163e99e47f360e01b815290915073__$ea6a162dd0cd18b69b81164309824ac93c$__9063e99e47f3906129f69060038501906004016143af565b600060405180830381865af4158015612a13573d6000803e3d6000fd5b505050506040513d6000823e601f3d908101601f19168201604052612a3b9190810190613da0565b95945050505050565b6040516323317ad560e21b815260009060609073__$ea6a162dd0cd18b69b81164309824ac93c$__90638cc5eb5490612a81908690600401613b60565b600060405180830381865af4925050508015612abf57506040513d6000823e601f3d908101601f19168201604052612abc919081019061444a565b60015b612b4c57612acb614497565b806308c379a003612af55750612adf6144b3565b80612aea5750612af7565b600094909350915050565b505b3d808015612b21576040519150601f19603f3d011682016040523d82523d6000602084013e612b26565b606091505b5060ff6040518060600160405280602f8152602001614753602f91399250925050915091565b9094909350915050565b60405163d45d097d60e01b815260009073__$ea6a162dd0cd18b69b81164309824ac93c$__9063d45d097d90612b90908590600401613b60565b602060405180830381865af4158015612bad573d6000803e3d6000fd5b505050506040513d601f19601f82011682018060405250810190610bff919061453c565b600081600280612be083612d1e565b6003811115612bf157612bf16137a0565b14612bfb82612da0565b90612c195760405162461bcd60e51b815260040161034391906134b2565b50612c2384612ea7565b60020154949350505050565b612c37613007565b60405163e99e47f360e01b815273__$ea6a162dd0cd18b69b81164309824ac93c$__9063e99e47f390610e879085906004016134b2565b612c76612e83565b600101546001600160a01b03163314612ca15760405162461bcd60e51b815260040161034390613eed565b6000612cab612e83565b600101546001600160a01b039081169150821681146114a05781612ccd612e83565b60010180546001600160a01b0319166001600160a01b03928316179055604051838216918316907f8be0079c531659141344cd1fd0a4f28419497f9722a3daafe3b4186f6b6457e090600090a35050565b6000811580612d375750612d30612e83565b6002015482115b15612d4457506000919050565b6000612d4e612e83565b600084815260039190910160205260409020600781015490915015612d765750600292915050565b60098101546001600160a01b031615612d925750600192915050565b50600392915050565b919050565b60606001826003811115612db657612db66137a0565b03612dda576040518060600160405280602581526020016146c76025913992915050565b6002826003811115612dee57612dee6137a0565b03612e12576040518060600160405280602781526020016146ec6027913992915050565b6003826003811115612e2657612e266137a0565b03612e4a576040518060600160405280602681526020016146816026913992915050565b505060408051808201909152601981527f5769746e6574426f617264446174613a20626164206d6f6f6400000000000000602082015290565b7ff595240b351bc8f951c2f53b26f4e78c32cb62122cf76c19b7fdda7d4968e18390565b6000612eb1612e83565b6000928352600301602052506040902060050190565b6000612ed1612e83565b6000928352600301602052506040902090565b6000600282604051612ef69190614557565b602060405180830381855afa158015612f13573d6000803e3d6000fd5b5050506040513d601f19601f82011682018060405250810190610bff919061437f565b600080612f41612e83565b60008781526003919091016020526040902060068101869055600781018590556005810180546001600160a01b03191633178155909150819060088201612f8886826145c1565b505060049081015482546001600160a01b03199081168455600184018054909116905560006002840181905560038401819055929091019190915595945050505050565b6040516001600160a01b0383169082156108fc029083906000818181858888f19350505050158015613002573d6000803e3d6000fd5b505050565b6040805180820182526000808252825161010081018452606060c0820181815260e083018490528252602082810184905294820183905281018290526080810182905260a0810191909152909182015290565b50805461306690614256565b6000825580601f10613076575050565b601f0160209004906000526020600020908101906130949190613097565b50565b5b808211156130ac5760008155600101613098565b5090565b6001600160a01b038116811461309457600080fd5b6000602082840312156130d757600080fd5b8135611864816130b0565b634e487b7160e01b600052604160045260246000fd5b60c081018181106001600160401b0382111715613117576131176130e2565b60405250565b604081018181106001600160401b0382111715613117576131176130e2565b608081018181106001600160401b0382111715613117576131176130e2565b601f8201601f191681016001600160401b0381118282101715613180576131806130e2565b6040525050565b801515811461309457600080fd5b8035612d9b81613187565b60006001600160401b038211156131b9576131b96130e2565b50601f01601f191660200190565b600082601f8301126131d857600080fd5b81356131e3816131a0565b6040516131f0828261315b565b82815285602084870101111561320557600080fd5b82602086016020830137600092810160200192909252509392505050565b63ffffffff8116811461309457600080fd5b60ff8116811461309457600080fd5b8035612d9b81613235565b6001600160401b038116811461309457600080fd5b8035612d9b8161324f565b600060c0828403121561328157600080fd5b60405161328d816130f8565b80915082356001600160401b03808211156132a757600080fd5b90840190604082870312156132bb57600080fd5b6040516132c78161311d565b8235828111156132d657600080fd5b6132e2888286016131c7565b825250602083013592506132f583613223565b82602082015280845250505061330d60208401613244565b602082015261331e60408401613244565b604082015261332f60608401613244565b606082015261334060808401613264565b608082015261335160a08401613264565b60a08201525092915050565b60006020828403121561336f57600080fd5b81356001600160401b038082111561338657600080fd5b908301906040828603121561339a57600080fd5b6040516133a68161311d565b82356133b181613187565b81526020830135828111156133c557600080fd5b6133d18782860161326f565b60208301525095945050505050565b6020808252825182820181905260009190848201906040850190845b8181101561341b578351600f0b835292840192918401916001016133fc565b50909695505050505050565b6020808252825182820181905260009190848201906040850190845b8181101561341b57835160030b83529284019291840191600101613443565b60005b8381101561347d578181015183820152602001613465565b50506000910152565b6000815180845261349e816020860160208601613462565b601f01601f19169290920160200192915050565b6020815260006118646020830184613486565b6000602082840312156134d757600080fd5b5035919050565b6000602082840312156134f057600080fd5b81356001600160401b0381111561350657600080fd5b6135128482850161326f565b949350505050565b6020815281511515602082015260006020830151604080840152805160c0606085015280516040610120860152613555610160860182613486565b60209283015163ffffffff166101408701529183015160ff81166080870152919050604083015160ff811660a08701529150606083015160ff811660c0870152915060808301516001600160401b03811660e0870152915060a08301519250612a3b6101008601846001600160401b03169052565b60006001600160401b038211156135e3576135e36130e2565b5060051b60200190565b6000602080838503121561360057600080fd5b82356001600160401b0381111561361657600080fd5b8301601f8101851361362757600080fd5b8035613632816135ca565b60405161363f828261315b565b82815260059290921b830184019184810191508783111561365f57600080fd5b928401925b82841015613686578335613677816130b0565b82529284019290840190613664565b979650505050505050565b6000602082840312156136a357600080fd5b81356001600160401b038111156136b957600080fd5b613512848285016131c7565b6020808252825182820181905260009190848201906040850190845b8181101561341b5783516001600160401b0316835292840192918401916001016136e1565b60008083601f84011261371857600080fd5b5081356001600160401b0381111561372f57600080fd5b60208301915083602082850101111561374757600080fd5b9250929050565b6000806000806060858703121561376457600080fd5b843593506020850135925060408501356001600160401b0381111561378857600080fd5b61379487828801613706565b95989497509550505050565b634e487b7160e01b600052602160045260246000fd5b60208101600483106137ca576137ca6137a0565b91905290565b60018060a01b038151168252602081015160208301526040810151604083015260006060820151608060608501526135126080850182613486565b60208152600061186460208301846137d0565b600080604080848603121561383257600080fd5b83356001600160401b038082111561384957600080fd5b818601915086601f83011261385d57600080fd5b8135602061386a826135ca565b8551613876828261315b565b83815260059390931b850182019282810191508a84111561389657600080fd5b8286015b8481101561391e578035868111156138b157600080fd5b87016080818e03601f190112156138c757600080fd5b88516138d28161313c565b858201358152898201358682015260608201358a8201526080820135888111156138fc5760008081fd5b61390a8f88838601016131c7565b60608301525084525091830191830161389a565b50975061392e9050888201613195565b955050505050509250929050565b80516001600160a01b039081168352602080830151909116908301526040808201519083015260608082015190830152608090810151910152565b60a08101610bff828461393c565b6020815261399760208201835161393c565b6000602083015160e060c08401526139b36101008401826137d0565b604094909401516001600160a01b031660e093909301929092525090919050565b6000602080830181845280855180835260408601915060408160051b870101925083870160005b82811015613a2957603f19888603018452613a17858351613486565b945092850192908501906001016139fb565b5092979650505050505050565b600080600080600060808688031215613a4e57600080fd5b85359450602086013593506040860135925060608601356001600160401b03811115613a7957600080fd5b613a8588828901613706565b969995985093965092949392505050565b6101008110613aa757613aa76137a0565b9052565b613ab58184613a96565b6040602082015260006135126040830184613486565b60208101610bff8284613a96565b6000815160c084528051604060c0860152613af8610100860182613486565b905063ffffffff60208301511660e086015260ff602085015116602086015260ff604085015116604086015260ff60608501511660608601526001600160401b03608085015116608086015260a0840151915061351260a08601836001600160401b03169052565b60208152815115156020820152600060208301516040808401526135126060840182613ad9565b8051600f81900b8114612d9b57600080fd5b60006020808385031215613bac57600080fd5b82516001600160401b03811115613bc257600080fd5b8301601f81018513613bd357600080fd5b8051613bde816135ca565b604051613beb828261315b565b82815260059290921b8301840191848101915087831115613c0b57600080fd5b928401925b8284101561368657613c2184613b87565b82529284019290840190613c10565b8051600381900b8114612d9b57600080fd5b60006020808385031215613c5557600080fd5b82516001600160401b03811115613c6b57600080fd5b8301601f81018513613c7c57600080fd5b8051613c87816135ca565b604051613c94828261315b565b82815260059290921b8301840191848101915087831115613cb457600080fd5b928401925b8284101561368657613cca84613c30565b82529284019290840190613cb9565b600082601f830112613cea57600080fd5b8151613cf5816131a0565b604051613d02828261315b565b828152856020848701011115613d1757600080fd5b612a3b836020830160208801613462565b600060208284031215613d3a57600080fd5b81516001600160401b03811115613d5057600080fd5b61351284828501613cd9565b600060208284031215613d6e57600080fd5b61186482613c30565b6020815260006118646020830184613ad9565b8051612d9b81613235565b8051612d9b8161324f565b60006020808385031215613db357600080fd5b82516001600160401b0380821115613dca57600080fd5b81850191506040808388031215613de057600080fd5b8051613deb8161311d565b8351613df681613187565b81528385015183811115613e0957600080fd5b939093019260c08489031215613e1e57600080fd5b8151613e29816130f8565b845184811115613e3857600080fd5b8501808a03841315613e4957600080fd5b8351613e548161311d565b815186811115613e6357600080fd5b613e6f8c828501613cd9565b825250878201519550613e8186613223565b808801869052825250613e95858701613d8a565b86820152613ea4838601613d8a565b83820152613eb460608601613d8a565b6060820152613ec560808601613d95565b6080820152613ed660a08601613d95565b60a082015294810194909452509195945050505050565b6020808252601b908201527f5769746e6574426f617264446174613a206f6e6c79206f776e65720000000000604082015260600190565b634e487b7160e01b600052603260045260246000fd5b634e487b7160e01b600052601160045260246000fd5b600060018201613f6257613f62613f3a565b5060010190565b6020808252825182820181905260009190848201906040850190845b8181101561341b5783516001600160a01b031683529284019291840191600101613f85565b600060208284031215613fbc57600080fd5b61186482613b87565b60006020808385031215613fd857600080fd5b82516001600160401b03811115613fee57600080fd5b8301601f81018513613fff57600080fd5b805161400a816135ca565b604051614017828261315b565b82815260059290921b830184019184810191508783111561403757600080fd5b928401925b8284101561368657835161404f816130b0565b8252928401929084019061403c565b6000602080838503121561407157600080fd5b82516001600160401b0381111561408757600080fd5b8301601f8101851361409857600080fd5b80516140a3816135ca565b6040516140b0828261315b565b82815260059290921b83018401918481019150878311156140d057600080fd5b928401925b828410156136865783516140e88161324f565b825292840192908401906140d5565b6020808252602a908201527f5769746e6574426f6172644461746141434c733a20756e617574686f72697a6560408201526932103932b837b93a32b960b11b606082015260800190565b60208082526042908201527f5769746e657452657175657374426f617264547275737461626c65446566617560408201527f6c743a205769746e65742064725478486173682063616e6e6f74206265207a65606082015261726f60f01b608082015260a00190565b6020808252603a908201527f5769746e657452657175657374426f617264547275737461626c65446566617560408201527f6c743a20726573756c742063616e6e6f7420626520656d707479000000000000606082015260800190565b80820180821115610bff57610bff613f3a565b6020808252602f9082015260008051602061471383398151915260408201526e2072657761726420746f6f206c6f7760881b606082015260800190565b600181811c9082168061426a57607f821691505b60208210810361124757634e487b7160e01b600052602260045260246000fd5b60006020828403121561429c57600080fd5b815161186481613187565b6000602082840312156142b957600080fd5b81516118648161324f565b600060208083850312156142d757600080fd5b82516001600160401b03808211156142ee57600080fd5b818501915085601f83011261430257600080fd5b815161430d816135ca565b60405161431a828261315b565b82815260059290921b840185019185810191508883111561433a57600080fd5b8585015b83811015614372578051858111156143565760008081fd5b6143648b89838a0101613cd9565b84525091860191860161433e565b5098975050505050505050565b60006020828403121561439157600080fd5b5051919050565b8082028115828204841417610bff57610bff613f3a565b60006020808352600084546143c381614256565b808487015260406001808416600081146143e457600181146143fe5761442c565b60ff1985168984015283151560051b89018301955061442c565b896000528660002060005b858110156144245781548b8201860152908301908801614409565b8a0184019650505b509398975050505050505050565b80516101008110612d9b57600080fd5b6000806040838503121561445d57600080fd5b6144668361443a565b915060208301516001600160401b0381111561448157600080fd5b61448d85828601613cd9565b9150509250929050565b600060033d11156144b05760046000803e5060005160e01c5b90565b600060443d10156144c15790565b6040516003193d81016004833e81513d6001600160401b0381602484011181841117156144f057505050505090565b82850191508151818111156145085750505050505090565b843d87010160208285010111156145225750505050505090565b6145316020828601018761315b565b509095945050505050565b60006020828403121561454e57600080fd5b6118648261443a565b60008251614569818460208701613462565b9190910192915050565b601f82111561300257600081815260208120601f850160051c8101602086101561459a5750805b601f850160051c820191505b818110156145b9578281556001016145a6565b505050505050565b81516001600160401b038111156145da576145da6130e2565b6145ee816145e88454614256565b84614573565b602080601f831160018114614623576000841561460b5750858301515b600019600386901b1c1916600185901b1785556145b9565b600085815260208120601f198616915b8281101561465257888601518255948401946001909101908401614633565b50858210156146705787850151600019600388901b60f8161c191681555b5050505050600190811b0190555056fe5769746e6574426f617264446174613a206e6f7420696e2044656c65746564207374617475734df64445edc775fba59db44b8001852fb1b777eea88fd54f04572dd114e3ff7f5769746e6574426f617264446174613a206e6f7420696e20506f73746564207374617475735769746e6574426f617264446174613a206e6f7420696e205265706f72746564207374617475735769746e657452657175657374426f617264547275737461626c65426173653aa6db7263983f337bae2c9fb315730227961d1c1153ae1e10a56b5791465dd6fd5769746e657452657175657374426f617264547275737461626c65426173653a206661696c696e6720617373657274a2646970667358221220f1c123b5849082824fa471a56b3645a00f1205ba734b5a7ee76e9fa69c25518964736f6c63430008110033",
  "linkReferences": {
    "contracts/witnet/libs/WitnetParserLib.sol": {
      "WitnetParserLib": [
        {
          "length": 20,
          "start": 3341
        },
        {
          "length": 20,
          "start": 3474
        },
        {
          "length": 20,
          "start": 3601
        },
        {
          "length": 20,
          "start": 3930
        },
        {
          "length": 20,
          "start": 4058
        },
        {
          "length": 20,
          "start": 4475
        },
        {
          "length": 20,
          "start": 5906
        },
        {
          "length": 20,
          "start": 6982
        },
        {
          "length": 20,
          "start": 8880
        },
        {
          "length": 20,
          "start": 8938
        },
        {
          "length": 20,
          "start": 9546
        },
        {
          "length": 20,
          "start": 10111
        },
        {
          "length": 20,
          "start": 10199
        },
        {
          "length": 20,
          "start": 10763
        },
        {
          "length": 20,
          "start": 10930
        },
        {
          "length": 20,
          "start": 11078
        },
        {
          "length": 20,
          "start": 11220
        },
        {
          "length": 20,
          "start": 11491
        },
        {
          "length": 20,
          "start": 11713
        }
      ]
    }
  },
  "deployedLinkReferences": {
    "contracts/witnet/libs/WitnetParserLib.sol": {
      "WitnetParserLib": [
        {
          "length": 20,
          "start": 2962
        },
        {
          "length": 20,
          "start": 3095
        },
        {
          "length": 20,
          "start": 3222
        },
        {
          "length": 20,
          "start": 3551
        },
        {
          "length": 20,
          "start": 3679
        },
        {
          "length": 20,
          "start": 4096
        },
        {
          "length": 20,
          "start": 5527
        },
        {
          "length": 20,
          "start": 6603
        },
        {
          "length": 20,
          "start": 8501
        },
        {
          "length": 20,
          "start": 8559
        },
        {
          "length": 20,
          "start": 9167
        },
        {
          "length": 20,
          "start": 9732
        },
        {
          "length": 20,
          "start": 9820
        },
        {
          "length": 20,
          "start": 10384
        },
        {
          "length": 20,
          "start": 10551
        },
        {
          "length": 20,
          "start": 10699
        },
        {
          "length": 20,
          "start": 10841
        },
        {
          "length": 20,
          "start": 11112
        },
        {
          "length": 20,
          "start": 11334
        }
      ]
    }
  }
}