{"contracts/crodraw_contract.sol":{"CroDraw":{"abi":[{"inputs":[{"internalType":"address","name":"_discountToken","type":"address"},{"internalType":"contract IWitnetRandomness","name":"_witnetRandomness","type":"address"},{"internalType":"address","name":"_charity","type":"address"},{"internalType":"address","name":"_project","type":"address"},{"internalType":"address","name":"_founder1","type":"address"},{"internalType":"address","name":"_founder2","type":"address"},{"internalType":"address","name":"_founder3","type":"address"}],"stateMutability":"nonpayable","type":"constructor"},{"anonymous":false,"inputs":[{"indexed":true,"internalType":"address","name":"previousOwner","type":"address"},{"indexed":true,"internalType":"address","name":"newOwner","type":"address"}],"name":"OwnershipTransferred","type":"event"},{"inputs":[],"name":"addFund","outputs":[],"stateMutability":"payable","type":"function"},{"inputs":[],"name":"amountCollected","outputs":[{"internalType":"uint256","name":"","type":"uint256"}],"stateMutability":"view","type":"function"},{"inputs":[{"internalType":"uint32","name":"_amount","type":"uint32"}],"name":"buyDiscountTickets","outputs":[],"stateMutability":"payable","type":"function"},{"inputs":[{"internalType":"uint32","name":"_amount","type":"uint32"}],"name":"buyTickets","outputs":[],"stateMutability":"payable","type":"function"},{"inputs":[],"name":"charityAddress","outputs":[{"internalType":"address","name":"","type":"address"}],"stateMutability":"view","type":"function"},{"inputs":[],"name":"claimRewards","outputs":[],"stateMutability":"nonpayable","type":"function"},{"inputs":[],"name":"closeLottery","outputs":[],"stateMutability":"payable","type":"function"},{"inputs":[],"name":"currentTicketId","outputs":[{"internalType":"uint32","name":"","type":"uint32"}],"stateMutability":"view","type":"function"},{"inputs":[],"name":"declareWinner","outputs":[],"stateMutability":"nonpayable","type":"function"},{"inputs":[],"name":"discountRate","outputs":[{"internalType":"uint16","name":"","type":"uint16"}],"stateMutability":"view","type":"function"},{"inputs":[],"name":"discountToken","outputs":[{"internalType":"contract TRPZToken","name":"","type":"address"}],"stateMutability":"view","type":"function"},{"inputs":[],"name":"discountTokenPrice","outputs":[{"internalType":"uint256","name":"","type":"uint256"}],"stateMutability":"view","type":"function"},{"inputs":[],"name":"endTime","outputs":[{"internalType":"uint256","name":"","type":"uint256"}],"stateMutability":"view","type":"function"},{"inputs":[],"name":"founder1Address","outputs":[{"internalType":"address","name":"","type":"address"}],"stateMutability":"view","type":"function"},{"inputs":[],"name":"founder2Address","outputs":[{"internalType":"address","name":"","type":"address"}],"stateMutability":"view","type":"function"},{"inputs":[],"name":"founder3Address","outputs":[{"internalType":"address","name":"","type":"address"}],"stateMutability":"view","type":"function"},{"inputs":[{"internalType":"address","name":"user","type":"address"}],"name":"getClaimableReward","outputs":[{"internalType":"uint256","name":"","type":"uint256"},{"internalType":"uint8","name":"","type":"uint8"}],"stateMutability":"view","type":"function"},{"inputs":[],"name":"getLastWinners","outputs":[{"internalType":"address[5]","name":"","type":"address[5]"}],"stateMutability":"view","type":"function"},{"inputs":[],"name":"getLotteryInfo","outputs":[{"internalType":"uint256","name":"","type":"uint256"},{"internalType":"uint256","name":"","type":"uint256"},{"internalType":"uint256","name":"","type":"uint256"}],"stateMutability":"view","type":"function"},{"inputs":[{"internalType":"address","name":"user","type":"address"}],"name":"getUserTickets","outputs":[{"internalType":"uint256","name":"","type":"uint256"}],"stateMutability":"view","type":"function"},{"inputs":[{"internalType":"uint8","name":"potNumber","type":"uint8"}],"name":"getWinnersByPot","outputs":[{"internalType":"address[]","name":"","type":"address[]"}],"stateMutability":"view","type":"function"},{"inputs":[],"name":"latestRandomizingBlock","outputs":[{"internalType":"uint256","name":"","type":"uint256"}],"stateMutability":"view","type":"function"},{"inputs":[],"name":"lotteryId","outputs":[{"internalType":"uint256","name":"","type":"uint256"}],"stateMutability":"view","type":"function"},{"inputs":[],"name":"maxNumberTicketsPerBuy","outputs":[{"internalType":"uint32","name":"","type":"uint32"}],"stateMutability":"view","type":"function"},{"inputs":[],"name":"nftContractAddress","outputs":[{"internalType":"address","name":"","type":"address"}],"stateMutability":"view","type":"function"},{"inputs":[],"name":"nftDiscountRate","outputs":[{"internalType":"uint256","name":"","type":"uint256"}],"stateMutability":"view","type":"function"},{"inputs":[],"name":"operatorAddress","outputs":[{"internalType":"address","name":"","type":"address"}],"stateMutability":"view","type":"function"},{"inputs":[],"name":"owner","outputs":[{"internalType":"address","name":"","type":"address"}],"stateMutability":"view","type":"function"},{"inputs":[{"internalType":"uint256","name":"","type":"uint256"}],"name":"prizeRate","outputs":[{"internalType":"uint256","name":"","type":"uint256"}],"stateMutability":"view","type":"function"},{"inputs":[],"name":"projectAddress","outputs":[{"internalType":"address","name":"","type":"address"}],"stateMutability":"view","type":"function"},{"inputs":[{"internalType":"address","name":"_tokenAddress","type":"address"},{"internalType":"uint256","name":"_tokenAmount","type":"uint256"}],"name":"recoverWrongTokens","outputs":[],"stateMutability":"nonpayable","type":"function"},{"inputs":[],"name":"renounceOwnership","outputs":[],"stateMutability":"nonpayable","type":"function"},{"inputs":[{"internalType":"address","name":"_newAddress","type":"address"}],"name":"setDiscountNFTContractAddress","outputs":[],"stateMutability":"nonpayable","type":"function"},{"inputs":[{"internalType":"uint256","name":"_newRate","type":"uint256"}],"name":"setDiscountNFTRate","outputs":[],"stateMutability":"nonpayable","type":"function"},{"inputs":[{"internalType":"uint16","name":"_newRate","type":"uint16"}],"name":"setDiscountRate","outputs":[],"stateMutability":"nonpayable","type":"function"},{"inputs":[{"internalType":"address","name":"_token","type":"address"}],"name":"setDiscountToken","outputs":[],"stateMutability":"nonpayable","type":"function"},{"inputs":[{"internalType":"uint256","name":"_discountTokenPRice","type":"uint256"}],"name":"setDiscountTokenPrice","outputs":[],"stateMutability":"nonpayable","type":"function"},{"inputs":[{"internalType":"uint32","name":"_maxNumberTicketsPerBuy","type":"uint32"}],"name":"setMaxNumberTicketsPerBuy","outputs":[],"stateMutability":"nonpayable","type":"function"},{"inputs":[{"internalType":"address","name":"_operatorAddress","type":"address"},{"internalType":"address","name":"_projectAddress","type":"address"},{"internalType":"address","name":"_charityAddress","type":"address"},{"internalType":"address","name":"_founder1Address","type":"address"},{"internalType":"address","name":"_founder2Address","type":"address"}],"name":"setOperatorAndTreasuryAndCharityAddresses","outputs":[],"stateMutability":"nonpayable","type":"function"},{"inputs":[{"internalType":"uint256","name":"_ticketPrice","type":"uint256"}],"name":"setTicketPrice","outputs":[],"stateMutability":"nonpayable","type":"function"},{"inputs":[{"internalType":"uint256","name":"_period","type":"uint256"}],"name":"startLottery","outputs":[],"stateMutability":"nonpayable","type":"function"},{"inputs":[],"name":"status","outputs":[{"internalType":"enum CroDraw.Status","name":"","type":"uint8"}],"stateMutability":"view","type":"function"},{"inputs":[],"name":"ticketPrice","outputs":[{"internalType":"uint256","name":"","type":"uint256"}],"stateMutability":"view","type":"function"},{"inputs":[{"internalType":"uint32","name":"","type":"uint32"}],"name":"tickets","outputs":[{"internalType":"address","name":"","type":"address"}],"stateMutability":"view","type":"function"},{"inputs":[],"name":"topWinner","outputs":[{"internalType":"address","name":"","type":"address"}],"stateMutability":"view","type":"function"},{"inputs":[],"name":"topWinning","outputs":[{"internalType":"uint256","name":"","type":"uint256"}],"stateMutability":"view","type":"function"},{"inputs":[{"internalType":"address","name":"newOwner","type":"address"}],"name":"transferOwnership","outputs":[],"stateMutability":"nonpayable","type":"function"},{"inputs":[{"internalType":"uint256","name":"","type":"uint256"}],"name":"winnerRate","outputs":[{"internalType":"uint256","name":"","type":"uint256"}],"stateMutability":"view","type":"function"},{"inputs":[],"name":"witnet","outputs":[{"internalType":"contract IWitnetRandomness","name":"","type":"address"}],"stateMutability":"view","type":"function"},{"stateMutability":"payable","type":"receive"}],"evm":{"bytecode":{"linkReferences":{},"object":"600a805463ffffffff61ffff60c01b01191678fa0000000000000000000000000000000000000000000000641781556064600b819055600e55610100604052600260a0908152600560c05260e0919091526200006090600f906003620001ca565b5060408051606081018252600f8152601460208201526019918101919091526200008f906010906003620001ca565b503480156200009d57600080fd5b5060405162002dd238038062002dd2833981016040819052620000c0916200024f565b6001600055620000d03362000178565b6001600160a01b038616620000e957620000e9620002fa565b6001600160a01b03958616608052600a805497871664010000000002600160201b600160c01b031990981697909717909655600380549486166001600160a01b0319958616179055600280549386169385169390931790925560048054918516918416919091179055600580549184169183169190911790556006805493909216921691909117905562000310565b600180546001600160a01b038381166001600160a01b0319831681179093556040519116919082907f8be0079c531659141344cd1fd0a4f28419497f9722a3daafe3b4186f6b6457e090600090a35050565b8280548282559060005260206000209081019282156200020d579160200282015b828111156200020d578251829060ff16905591602001919060010190620001eb565b506200021b9291506200021f565b5090565b5b808211156200021b576000815560010162000220565b6001600160a01b03811681146200024c57600080fd5b50565b600080600080600080600060e0888a0312156200026b57600080fd5b8751620002788162000236565b60208901519097506200028b8162000236565b60408901519096506200029e8162000236565b6060890151909550620002b18162000236565b6080890151909450620002c48162000236565b60a0890151909350620002d78162000236565b60c0890151909250620002ea8162000236565b8091505092959891949750929550565b634e487b7160e01b600052600160045260246000fd5b608051612a8a620003486000396000818161057e01528181610a3201528181610b8701528181610d4901526116ea0152612a8a6000f3fe6080604052600436106102b25760003560e01c8063686465b811610175578063ad99854b116100dc578063e6c0e6d511610095578063f47d39681161006f578063f47d3968146108b0578063fb84d069146108d0578063fc6bb19c146108f0578063ffd4b4cb1461091057600080fd5b8063e6c0e6d514610833578063ea61226c14610868578063f2fde38b1461089057600080fd5b8063ad99854b1461077d578063afcf2fc41461079a578063b1fa4176146107ba578063c5925983146107d0578063c6bec93a146107fd578063e580f47b1461081d57600080fd5b80638da5cb5b1161012e5780638da5cb5b146106df5780639028353a146106fd578063956909361461071d57806399e13b071461073f578063a2f09dfa14610755578063aae282e11461075d57600080fd5b8063686465b8146106405780636b9194be146106795780636e14f95f146106995780636fd09816146106af578063715018a6146106b757806377814890146106cc57600080fd5b8063327daf9711610219578063430eafca116101d2578063430eafca14610543578063444132be1461055957806346d1d21a1461056c57806357d6a974146105a05780635b984526146105c05780635ff329af146105e057600080fd5b8063327daf9714610498578063332f7acf146104b8578063372500ab146104ce578063372d96fe146104e35780633cf96af1146105035780633f138d4b1461052357600080fd5b806314034bd21161026b57806314034bd2146103e457806315981650146103fb578063200d2ed21461041b57806328fe9a7f146104425780632b578f82146104625780633197cbb61461048257600080fd5b80630109f658146102be5780630484a22f146102f157806309d0f0681461033a578063101c5ce91461035a5780631209b1f614610396578063127effb2146103ac57600080fd5b366102b957005b600080fd5b3480156102ca57600080fd5b506102de6102d9366004612469565b610946565b6040519081526020015b60405180910390f35b3480156102fd57600080fd5b506102de61030c36600461249e565b6001600160a01b03166000908152601360209081526040808320601d54845290915290205463ffffffff1690565b34801561034657600080fd5b506102de610355366004612469565b610967565b34801561036657600080fd5b5060085460075460095460408051938452600160a01b90920463ffffffff166020840152908201526060016102e8565b3480156103a257600080fd5b506102de60095481565b3480156103b857600080fd5b506007546103cc906001600160a01b031681565b6040516001600160a01b0390911681526020016102e8565b3480156103f057600080fd5b506103f9610977565b005b34801561040757600080fd5b506103f9610416366004612469565b610f75565b34801561042757600080fd5b506011546104359060ff1681565b6040516102e891906124d6565b34801561044e57600080fd5b506004546103cc906001600160a01b031681565b34801561046e57600080fd5b506103f961047d3660046124fe565b610f82565b34801561048e57600080fd5b506102de600c5481565b3480156104a457600080fd5b506103f96104b3366004612563565b6110a7565b3480156104c457600080fd5b506102de60085481565b3480156104da57600080fd5b506103f96110d1565b3480156104ef57600080fd5b506103f96104fe366004612599565b6111de565b34801561050f57600080fd5b506002546103cc906001600160a01b031681565b34801561052f57600080fd5b506103f961053e3660046125b6565b611246565b34801561054f57600080fd5b506102de60205481565b6103f9610567366004612599565b6112c4565b34801561057857600080fd5b506103cc7f000000000000000000000000000000000000000000000000000000000000000081565b3480156105ac57600080fd5b506103f96105bb36600461249e565b6115e9565b3480156105cc57600080fd5b506006546103cc906001600160a01b031681565b3480156105ec57600080fd5b506106296105fb36600461249e565b6001600160a01b0316600090815260146020908152604080832054601590925290912054909160ff90911690565b6040805192835260ff9091166020830152016102e8565b34801561064c57600080fd5b5060075461066490600160a01b900463ffffffff1681565b60405163ffffffff90911681526020016102e8565b34801561068557600080fd5b50601f546103cc906001600160a01b031681565b3480156106a557600080fd5b506102de600e5481565b6103f9611613565b3480156106c357600080fd5b506103f96117bf565b6103f96106da366004612599565b6117d1565b3480156106eb57600080fd5b506001546001600160a01b03166103cc565b34801561070957600080fd5b506005546103cc906001600160a01b031681565b34801561072957600080fd5b50610732611c85565b6040516102e891906125e0565b34801561074b57600080fd5b506102de600b5481565b6103f9611d41565b34801561076957600080fd5b50600d546103cc906001600160a01b031681565b34801561078957600080fd5b50600a546106649063ffffffff1681565b3480156107a657600080fd5b506003546103cc906001600160a01b031681565b3480156107c657600080fd5b506102de601e5481565b3480156107dc57600080fd5b506107f06107eb366004612629565b611de0565b6040516102e89190612646565b34801561080957600080fd5b506103f9610818366004612469565b611e50565b34801561082957600080fd5b506102de601d5481565b34801561083f57600080fd5b50600a5461085590600160c01b900461ffff1681565b60405161ffff90911681526020016102e8565b34801561087457600080fd5b50600a546103cc9064010000000090046001600160a01b031681565b34801561089c57600080fd5b506103f96108ab36600461249e565b611f32565b3480156108bc57600080fd5b506103f96108cb366004612469565b611fa8565b3480156108dc57600080fd5b506103f96108eb36600461249e565b611fb5565b3480156108fc57600080fd5b506103f961090b366004612469565b611feb565b34801561091c57600080fd5b506103cc61092b366004612599565b6012602052600090815260409020546001600160a01b031681565b600f818154811061095657600080fd5b600091825260209091200154905081565b6010818154811061095657600080fd5b61097f611ff8565b6007546001600160a01b031633146109b25760405162461bcd60e51b81526004016109a990612693565b60405180910390fd5b600260115460ff1660038111156109cb576109cb6124c0565b14610a185760405162461bcd60e51b815260206004820152601860248201527f4c6f747465727920686173206e6f742066696e6973686564000000000000000060448201526064016109a9565b601e546040516326f21bfb60e21b815260048101919091527f00000000000000000000000000000000000000000000000000000000000000006001600160a01b031690639bc86fec90602401602060405180830381865afa158015610a81573d6000803e3d6000fd5b505050506040513d601f19601f82011682018060405250810190610aa591906126bd565b1515600114610ae75760405162461bcd60e51b815260206004820152600e60248201526d139bdd0814985b991bdb5a5e995960921b60448201526064016109a9565b60015b60048160ff1611610b205760ff81166000908152601660205260408120610b1091612414565b610b19816126f5565b9050610aea565b6011805460ff19169055600754600160a01b900463ffffffff16600003610b475750610f69565b600854600754601e546040516324cbbfc160e01b8152600160a01b90920463ffffffff1660048301526000602483018190526044830191909152919082907f00000000000000000000000000000000000000000000000000000000000000006001600160a01b0316906324cbbfc190606401602060405180830381865afa158015610bd6573d6000803e3d6000fd5b505050506040513d601f19601f82011682018060405250810190610bfa9190612714565b905082610c0681612731565b9350506000600a600854610c1a9190612760565b9050610c2882826001612051565b610c31826121b4565b610c3b8184612774565b925060008095505b60038660ff161015610e01576064600f8760ff1681548110610c6757610c67612787565b600091825260209091200154600754610c8f90600190600160a01b900463ffffffff1661279d565b63ffffffff16610c9f91906127c1565b610ca99190612760565b90508015610df15780606460108860ff1681548110610cca57610cca612787565b9060005260206000200154600854610ce291906127c1565b610cec9190612760565b610cf69190612760565b9150610d0281836127c1565b610d0c9085612774565b93505b8015610df157600754601e546040516324cbbfc160e01b8152600160a01b90920463ffffffff1660048301526024820187905260448201527f00000000000000000000000000000000000000000000000000000000000000006001600160a01b0316906324cbbfc190606401602060405180830381865afa158015610d98573d6000803e3d6000fd5b505050506040513d601f19601f82011682018060405250810190610dbc9190612714565b925084610dc881612731565b9550610de190508383610ddc8960026127d8565b612051565b610dea816127f1565b9050610d0f565b610dfa866126f5565b9550610c43565b610e0c600c85612760565b6004546040519193506001600160a01b03169083156108fc029084906000818181858888f19350505050158015610e47573d6000803e3d6000fd5b506005546040516001600160a01b039091169083156108fc029084906000818181858888f19350505050158015610e82573d6000803e3d6000fd5b506006546040516001600160a01b039091169083156108fc029084906000818181858888f19350505050158015610ebd573d6000803e3d6000fd5b50610ec98260036127c1565b610ed39085612774565b9350610ee0600385612760565b6002546040519193506001600160a01b03169083156108fc029084906000818181858888f19350505050158015610f1b573d6000803e3d6000fd5b50610f268285612774565b6003546040519195506001600160a01b03169085156108fc029086906000818181858888f19350505050158015610f61573d6000803e3d6000fd5b505050505050505b610f736001600055565b565b610f7d612281565b600955565b610f8a612281565b6001600160a01b038516610fb05760405162461bcd60e51b81526004016109a990612808565b6001600160a01b038416610fd65760405162461bcd60e51b81526004016109a990612808565b6001600160a01b038316610ffc5760405162461bcd60e51b81526004016109a990612808565b6001600160a01b0382166110225760405162461bcd60e51b81526004016109a990612808565b6001600160a01b0381166110485760405162461bcd60e51b81526004016109a990612808565b600780546001600160a01b03199081166001600160a01b03978816179091556002805482169587169590951790945560038054851693861693909317909255600480548416918516919091179055600580549092169216919091179055565b6110af612281565b600a805461ffff909216600160c01b0261ffff60c01b19909216919091179055565b333b156110f05760405162461bcd60e51b81526004016109a99061282f565b33321461110f5760405162461bcd60e51b81526004016109a990612866565b611117611ff8565b336000818152601460205260409020546111695760405162461bcd60e51b81526020600482015260136024820152724e6f207265776172647320746f20636c61696d60681b60448201526064016109a9565b6001600160a01b038116600081815260146020526040808220805490839055905190929183156108fc02918491818181858888f193505050501580156111b3573d6000803e3d6000fd5b50506001600160a01b03166000908152601560205260409020805460ff19169055610f736001600055565b6111e6612281565b8063ffffffff1660000361122a5760405162461bcd60e51b815260206004820152600b60248201526a04d757374206265203e20360ac1b60448201526064016109a9565b600a805463ffffffff191663ffffffff92909216919091179055565b61124e612281565b60405163a9059cbb60e01b8152336004820152602481018290526001600160a01b0383169063a9059cbb906044016020604051808303816000875af115801561129b573d6000803e3d6000fd5b505050506040513d601f19601f820116820180604052508101906112bf91906126bd565b505050565b333b156112e35760405162461bcd60e51b81526004016109a99061282f565b3332146113025760405162461bcd60e51b81526004016109a990612866565b61130a611ff8565b60095460000361134c5760405162461bcd60e51b815260206004820152600d60248201526c141c9a58d9481b9bdd081cd95d609a1b60448201526064016109a9565b8063ffffffff166000036113a25760405162461bcd60e51b815260206004820152601a60248201527f456e7465722063686f73656e20616d6f756e7420746f2062757900000000000060448201526064016109a9565b600a5463ffffffff90811690821611156113f15760405162461bcd60e51b815260206004820152601060248201526f546f6f206d616e79207469636b65747360801b60448201526064016109a9565b600160115460ff16600381111561140a5761140a6124c0565b146114515760405162461bcd60e51b8152602060048201526017602482015276131bdd1d195c9e481a5cc81b9bdd081bdc195b881e595d604a1b60448201526064016109a9565b600c5442106114965760405162461bcd60e51b8152602060048201526011602482015270131bdd1d195c9e481a185cc8195b991959607a1b60448201526064016109a9565b60006114a38260006122db565b9050803410156114ea5760405162461bcd60e51b8152602060048201526012602482015271496e73756666696369656e742066756e647360701b60448201526064016109a9565b80600860008282546114fc919061289d565b90915550600090505b8263ffffffff1681101561158a576007805463ffffffff600160a01b918290048116600090815260126020526040902080546001600160a01b0319163317905582549190910416906014611558836128b0565b91906101000a81548163ffffffff021916908363ffffffff16021790555050808061158290612731565b915050611505565b50336000908152601360209081526040808320601d548452909152812080548492906115bd90849063ffffffff166128d3565b92506101000a81548163ffffffff021916908363ffffffff160217905550506115e66001600055565b50565b6115f1612281565b600d80546001600160a01b0319166001600160a01b0392909216919091179055565b6007546001600160a01b0316331461163d5760405162461bcd60e51b81526004016109a990612693565b600160115460ff166003811115611656576116566124c0565b146116995760405162461bcd60e51b81526020600482015260136024820152722637ba3a32b93c9034b9903737ba1037b832b760691b60448201526064016109a9565b600c5442116116df5760405162461bcd60e51b81526020600482015260126024820152714c6f7474657279206973206f6e676f696e6760701b60448201526064016109a9565b43601e8190555060007f00000000000000000000000000000000000000000000000000000000000000006001600160a01b031663699b328a346040518263ffffffff1660e01b815260040160206040518083038185885af1158015611748573d6000803e3d6000fd5b50505050506040513d601f19601f8201168201806040525081019061176d91906128f0565b9050348110156117af57336108fc6117858334612774565b6040518115909202916000818181858888f193505050501580156117ad573d6000803e3d6000fd5b505b506011805460ff19166002179055565b6117c7612281565b610f7360006123c2565b333b156117f05760405162461bcd60e51b81526004016109a99061282f565b33321461180f5760405162461bcd60e51b81526004016109a990612866565b611817611ff8565b6009546000036118595760405162461bcd60e51b815260206004820152600d60248201526c141c9a58d9481b9bdd081cd95d609a1b60448201526064016109a9565b8063ffffffff166000036118af5760405162461bcd60e51b815260206004820152601a60248201527f456e7465722063686f73656e20616d6f756e7420746f2062757900000000000060448201526064016109a9565b600a5463ffffffff90811690821611156118fe5760405162461bcd60e51b815260206004820152601060248201526f546f6f206d616e79207469636b65747360801b60448201526064016109a9565b600160115460ff166003811115611917576119176124c0565b1461195e5760405162461bcd60e51b8152602060048201526017602482015276131bdd1d195c9e481a5cc81b9bdd081bdc195b881e595d604a1b60448201526064016109a9565b600c5442106119a35760405162461bcd60e51b8152602060048201526011602482015270131bdd1d195c9e481a185cc8195b991959607a1b60448201526064016109a9565b6000600a60049054906101000a90046001600160a01b03166001600160a01b031663313ce5676040518163ffffffff1660e01b8152600401602060405180830381865afa1580156119f8573d6000803e3d6000fd5b505050506040513d601f19601f82011682018060405250810190611a1c9190612909565b9050600063ffffffff8316611a3283600a612a0a565b600b54611a3f91906127c1565b611a4991906127c1565b600a546040516323b872dd60e01b81523360048201523060248201526044810183905291925064010000000090046001600160a01b0316906323b872dd906064016020604051808303816000875af1158015611aa9573d6000803e3d6000fd5b505050506040513d601f19601f82011682018060405250810190611acd91906126bd565b50600a54604051630852cd8d60e31b8152600481018390526401000000009091046001600160a01b0316906342966c6890602401600060405180830381600087803b158015611b1b57600080fd5b505af1158015611b2f573d6000803e3d6000fd5b505050506000611b408460016122db565b905080341015611b875760405162461bcd60e51b8152602060048201526012602482015271496e73756666696369656e742066756e647360701b60448201526064016109a9565b8060086000828254611b99919061289d565b90915550600090505b8463ffffffff16811015611c27576007805463ffffffff600160a01b918290048116600090815260126020526040902080546001600160a01b0319163317905582549190910416906014611bf5836128b0565b91906101000a81548163ffffffff021916908363ffffffff160217905550508080611c1f90612731565b915050611ba2565b50336000908152601360209081526040808320601d54845290915281208054869290611c5a90849063ffffffff166128d3565b92506101000a81548163ffffffff021916908363ffffffff1602179055505050506115e66001600055565b611c8d612432565b611c95612432565b60005b60058160ff161015611d3b57601c546000906005906001908490611cbf9060ff16846127d8565b611cc99190612a19565b611cd39190612a19565b611cdd9190612a32565b905060178160ff1660058110611cf557611cf5612787565b01546001600160a01b03168360ff841660058110611d1557611d15612787565b6001600160a01b0390921660209290920201525080611d33816126f5565b915050611c98565b50919050565b6007546001600160a01b03163314611d6b5760405162461bcd60e51b81526004016109a990612693565b600160115460ff166003811115611d8457611d846124c0565b14611dc75760405162461bcd60e51b81526020600482015260136024820152722637ba3a32b93c9034b9903737ba1037b832b760691b60448201526064016109a9565b3460086000828254611dd9919061289d565b9091555050565b60ff8116600090815260166020908152604091829020805483518184028101840190945280845260609392830182828015611e4457602002820191906000526020600020905b81546001600160a01b03168152600190910190602001808311611e26575b50505050509050919050565b6007546001600160a01b03163314611e7a5760405162461bcd60e51b81526004016109a990612693565b600060115460ff166003811115611e9357611e936124c0565b14611eea5760405162461bcd60e51b815260206004820152602160248201527f4c617374204c6f747465727920686173206e6f742066696e69736865642079656044820152601d60fa1b60648201526084016109a9565b6011805460ff19166001179055600060088190556007805463ffffffff60a01b19169055601d805491611f1c83612731565b90915550611f2c9050814261289d565b600c5550565b611f3a612281565b6001600160a01b038116611f9f5760405162461bcd60e51b815260206004820152602660248201527f4f776e61626c653a206e6577206f776e657220697320746865207a65726f206160448201526564647265737360d01b60648201526084016109a9565b6115e6816123c2565b611fb0612281565b600b55565b611fbd612281565b600a80546001600160a01b0390921664010000000002640100000000600160c01b0319909216919091179055565b611ff3612281565b600e55565b60026000540361204a5760405162461bcd60e51b815260206004820152601f60248201527f5265656e7472616e637947756172643a207265656e7472616e742063616c6c0060448201526064016109a9565b6002600055565b63ffffffff83166000908152601260205260409020546001600160a01b0316806120ae5760405162461bcd60e51b815260206004820152600e60248201526d125b9d985b1a5908151a58dad95d60921b60448201526064016109a9565b6001600160a01b038116600090815260146020526040812080548592906120d690849061289d565b909155505060ff82166000908152601660209081526040822080546001810182559083529181902090910180546001600160a01b0319166001600160a01b0384161790555483111561213e57601f80546001600160a01b0319166001600160a01b0383161790555b6001600160a01b03811660009081526015602052604090205460ff8084169116118061218357506001600160a01b03811660009081526015602052604090205460ff16155b156121ae576001600160a01b0381166000908152601560205260409020805460ff191660ff84161790555b50505050565b63ffffffff81166000908152601260205260409020546001600160a01b0316806122115760405162461bcd60e51b815260206004820152600e60248201526d125b9d985b1a5908151a58dad95d60921b60448201526064016109a9565b601c54819060179060ff166005811061222c5761222c612787565b0180546001600160a01b0319166001600160a01b0392909216919091179055601c5460059061225f9060ff1660016127d8565b6122699190612a32565b601c805460ff191660ff929092169190911790555050565b6001546001600160a01b03163314610f735760405162461bcd60e51b815260206004820181905260248201527f4f776e61626c653a2063616c6c6572206973206e6f7420746865206f776e657260448201526064016109a9565b6000806009548463ffffffff166122f291906127c1565b600d546040516370a0823160e01b81523360048201529192506000916001600160a01b03909116906370a0823190602401602060405180830381865afa158015612340573d6000803e3d6000fd5b505050506040513d601f19601f8201168201806040525081019061236491906128f0565b90506000841561238957600a5461238690600160c01b900461ffff168261289d565b90505b811561239f57600e5461239c908261289d565b90505b6103e86123ac82856127c1565b6123b69190612760565b93505050505b92915050565b600180546001600160a01b038381166001600160a01b0319831681179093556040519116919082907f8be0079c531659141344cd1fd0a4f28419497f9722a3daafe3b4186f6b6457e090600090a35050565b50805460008255906000526020600020908101906115e69190612450565b6040518060a001604052806005906020820280368337509192915050565b5b808211156124655760008155600101612451565b5090565b60006020828403121561247b57600080fd5b5035919050565b80356001600160a01b038116811461249957600080fd5b919050565b6000602082840312156124b057600080fd5b6124b982612482565b9392505050565b634e487b7160e01b600052602160045260246000fd5b60208101600483106124f857634e487b7160e01b600052602160045260246000fd5b91905290565b600080600080600060a0868803121561251657600080fd5b61251f86612482565b945061252d60208701612482565b935061253b60408701612482565b925061254960608701612482565b915061255760808701612482565b90509295509295909350565b60006020828403121561257557600080fd5b813561ffff811681146124b957600080fd5b63ffffffff811681146115e657600080fd5b6000602082840312156125ab57600080fd5b81356124b981612587565b600080604083850312156125c957600080fd5b6125d283612482565b946020939093013593505050565b60a08101818360005b60058110156126115781516001600160a01b03168352602092830192909101906001016125e9565b50505092915050565b60ff811681146115e657600080fd5b60006020828403121561263b57600080fd5b81356124b98161261a565b6020808252825182820181905260009190848201906040850190845b818110156126875783516001600160a01b031683529284019291840191600101612662565b50909695505050505050565b60208082526010908201526f2737ba103a34329037b832b930ba37b960811b604082015260600190565b6000602082840312156126cf57600080fd5b815180151581146124b957600080fd5b634e487b7160e01b600052601160045260246000fd5b600060ff821660ff810361270b5761270b6126df565b60010192915050565b60006020828403121561272657600080fd5b81516124b981612587565b600060018201612743576127436126df565b5060010190565b634e487b7160e01b600052601260045260246000fd5b60008261276f5761276f61274a565b500490565b818103818111156123bc576123bc6126df565b634e487b7160e01b600052603260045260246000fd5b63ffffffff8281168282160390808211156127ba576127ba6126df565b5092915050565b80820281158282048414176123bc576123bc6126df565b60ff81811683821601908111156123bc576123bc6126df565b600081612800576128006126df565b506000190190565b6020808252600d908201526c456e746572206164647265737360981b604082015260600190565b60208082526017908201527f436f6e7472616374206973206e6f7420616c6c6f776564000000000000000000604082015260600190565b6020808252601d908201527f50726f787920636f6e7472616374206973206e6f7420616c6c6f776564000000604082015260600190565b808201808211156123bc576123bc6126df565b600063ffffffff8083168181036128c9576128c96126df565b6001019392505050565b63ffffffff8181168382160190808211156127ba576127ba6126df565b60006020828403121561290257600080fd5b5051919050565b60006020828403121561291b57600080fd5b81516124b98161261a565b600181815b80851115612961578160001904821115612947576129476126df565b8085161561295457918102915b93841c939080029061292b565b509250929050565b600082612978575060016123bc565b81612985575060006123bc565b816001811461299b57600281146129a5576129c1565b60019150506123bc565b60ff8411156129b6576129b66126df565b50506001821b6123bc565b5060208310610133831016604e8410600b84101617156129e4575081810a6123bc565b6129ee8383612926565b8060001904821115612a0257612a026126df565b029392505050565b60006124b960ff841683612969565b60ff82811682821603908111156123bc576123bc6126df565b600060ff831680612a4557612a4561274a565b8060ff8416069150509291505056fea26469706673582212208ed633c0498955b60b916ce5b5f88ebced987bd45f4eea69fd30816d7212ab1a64736f6c63430008110033","opcodes":"PUSH1 0xA DUP1 SLOAD PUSH4 0xFFFFFFFF PUSH2 0xFFFF PUSH1 0xC0 SHL ADD NOT AND PUSH25 0xFA000000000000000000000000000000000000000000000064 OR DUP2 SSTORE PUSH1 0x64 PUSH1 0xB DUP2 SWAP1 SSTORE PUSH1 0xE SSTORE PUSH2 0x100 PUSH1 0x40 MSTORE PUSH1 0x2 PUSH1 0xA0 SWAP1 DUP2 MSTORE PUSH1 0x5 PUSH1 0xC0 MSTORE PUSH1 0xE0 SWAP2 SWAP1 SWAP2 MSTORE PUSH3 0x60 SWAP1 PUSH1 0xF SWAP1 PUSH1 0x3 PUSH3 0x1CA JUMP JUMPDEST POP PUSH1 0x40 DUP1 MLOAD PUSH1 0x60 DUP2 ADD DUP3 MSTORE PUSH1 0xF DUP2 MSTORE PUSH1 0x14 PUSH1 0x20 DUP3 ADD MSTORE PUSH1 0x19 SWAP2 DUP2 ADD SWAP2 SWAP1 SWAP2 MSTORE PUSH3 0x8F SWAP1 PUSH1 0x10 SWAP1 PUSH1 0x3 PUSH3 0x1CA JUMP JUMPDEST POP CALLVALUE DUP1 ISZERO PUSH3 0x9D JUMPI PUSH1 0x0 DUP1 REVERT JUMPDEST POP PUSH1 0x40 MLOAD PUSH3 0x2DD2 CODESIZE SUB DUP1 PUSH3 0x2DD2 DUP4 CODECOPY DUP2 ADD PUSH1 0x40 DUP2 SWAP1 MSTORE PUSH3 0xC0 SWAP2 PUSH3 0x24F JUMP JUMPDEST PUSH1 0x1 PUSH1 0x0 SSTORE PUSH3 0xD0 CALLER PUSH3 0x178 JUMP JUMPDEST PUSH1 0x1 PUSH1 0x1 PUSH1 0xA0 SHL SUB DUP7 AND PUSH3 0xE9 JUMPI PUSH3 0xE9 PUSH3 0x2FA JUMP JUMPDEST PUSH1 0x1 PUSH1 0x1 PUSH1 0xA0 SHL SUB SWAP6 DUP7 AND PUSH1 0x80 MSTORE PUSH1 0xA DUP1 SLOAD SWAP8 DUP8 AND PUSH5 0x100000000 MUL PUSH1 0x1 PUSH1 0x20 SHL PUSH1 0x1 PUSH1 0xC0 SHL SUB NOT SWAP1 SWAP9 AND SWAP8 SWAP1 SWAP8 OR SWAP1 SWAP7 SSTORE PUSH1 0x3 DUP1 SLOAD SWAP5 DUP7 AND PUSH1 0x1 PUSH1 0x1 PUSH1 0xA0 SHL SUB NOT SWAP6 DUP7 AND OR SWAP1 SSTORE PUSH1 0x2 DUP1 SLOAD SWAP4 DUP7 AND SWAP4 DUP6 AND SWAP4 SWAP1 SWAP4 OR SWAP1 SWAP3 SSTORE PUSH1 0x4 DUP1 SLOAD SWAP2 DUP6 AND SWAP2 DUP5 AND SWAP2 SWAP1 SWAP2 OR SWAP1 SSTORE PUSH1 0x5 DUP1 SLOAD SWAP2 DUP5 AND SWAP2 DUP4 AND SWAP2 SWAP1 SWAP2 OR SWAP1 SSTORE PUSH1 0x6 DUP1 SLOAD SWAP4 SWAP1 SWAP3 AND SWAP3 AND SWAP2 SWAP1 SWAP2 OR SWAP1 SSTORE PUSH3 0x310 JUMP JUMPDEST PUSH1 0x1 DUP1 SLOAD PUSH1 0x1 PUSH1 0x1 PUSH1 0xA0 SHL SUB DUP4 DUP2 AND PUSH1 0x1 PUSH1 0x1 PUSH1 0xA0 SHL SUB NOT DUP4 AND DUP2 OR SWAP1 SWAP4 SSTORE PUSH1 0x40 MLOAD SWAP2 AND SWAP2 SWAP1 DUP3 SWAP1 PUSH32 0x8BE0079C531659141344CD1FD0A4F28419497F9722A3DAAFE3B4186F6B6457E0 SWAP1 PUSH1 0x0 SWAP1 LOG3 POP POP JUMP JUMPDEST DUP3 DUP1 SLOAD DUP3 DUP3 SSTORE SWAP1 PUSH1 0x0 MSTORE PUSH1 0x20 PUSH1 0x0 KECCAK256 SWAP1 DUP2 ADD SWAP3 DUP3 ISZERO PUSH3 0x20D JUMPI SWAP2 PUSH1 0x20 MUL DUP3 ADD JUMPDEST DUP3 DUP2 GT ISZERO PUSH3 0x20D JUMPI DUP3 MLOAD DUP3 SWAP1 PUSH1 0xFF AND SWAP1 SSTORE SWAP2 PUSH1 0x20 ADD SWAP2 SWAP1 PUSH1 0x1 ADD SWAP1 PUSH3 0x1EB JUMP JUMPDEST POP PUSH3 0x21B SWAP3 SWAP2 POP PUSH3 0x21F JUMP JUMPDEST POP SWAP1 JUMP JUMPDEST JUMPDEST DUP1 DUP3 GT ISZERO PUSH3 0x21B JUMPI PUSH1 0x0 DUP2 SSTORE PUSH1 0x1 ADD PUSH3 0x220 JUMP JUMPDEST PUSH1 0x1 PUSH1 0x1 PUSH1 0xA0 SHL SUB DUP2 AND DUP2 EQ PUSH3 0x24C JUMPI PUSH1 0x0 DUP1 REVERT JUMPDEST POP JUMP JUMPDEST PUSH1 0x0 DUP1 PUSH1 0x0 DUP1 PUSH1 0x0 DUP1 PUSH1 0x0 PUSH1 0xE0 DUP9 DUP11 SUB SLT ISZERO PUSH3 0x26B JUMPI PUSH1 0x0 DUP1 REVERT JUMPDEST DUP8 MLOAD PUSH3 0x278 DUP2 PUSH3 0x236 JUMP JUMPDEST PUSH1 0x20 DUP10 ADD MLOAD SWAP1 SWAP8 POP PUSH3 0x28B DUP2 PUSH3 0x236 JUMP JUMPDEST PUSH1 0x40 DUP10 ADD MLOAD SWAP1 SWAP7 POP PUSH3 0x29E DUP2 PUSH3 0x236 JUMP JUMPDEST PUSH1 0x60 DUP10 ADD MLOAD SWAP1 SWAP6 POP PUSH3 0x2B1 DUP2 PUSH3 0x236 JUMP JUMPDEST PUSH1 0x80 DUP10 ADD MLOAD SWAP1 SWAP5 POP PUSH3 0x2C4 DUP2 PUSH3 0x236 JUMP JUMPDEST PUSH1 0xA0 DUP10 ADD MLOAD SWAP1 SWAP4 POP PUSH3 0x2D7 DUP2 PUSH3 0x236 JUMP JUMPDEST PUSH1 0xC0 DUP10 ADD MLOAD SWAP1 SWAP3 POP PUSH3 0x2EA DUP2 PUSH3 0x236 JUMP JUMPDEST DUP1 SWAP2 POP POP SWAP3 SWAP6 SWAP9 SWAP2 SWAP5 SWAP8 POP SWAP3 SWAP6 POP JUMP JUMPDEST PUSH4 0x4E487B71 PUSH1 0xE0 SHL PUSH1 0x0 MSTORE PUSH1 0x1 PUSH1 0x4 MSTORE PUSH1 0x24 PUSH1 0x0 REVERT JUMPDEST PUSH1 0x80 MLOAD PUSH2 0x2A8A PUSH3 0x348 PUSH1 0x0 CODECOPY PUSH1 0x0 DUP2 DUP2 PUSH2 0x57E ADD MSTORE DUP2 DUP2 PUSH2 0xA32 ADD MSTORE DUP2 DUP2 PUSH2 0xB87 ADD MSTORE DUP2 DUP2 PUSH2 0xD49 ADD MSTORE PUSH2 0x16EA ADD MSTORE PUSH2 0x2A8A PUSH1 0x0 RETURN INVALID PUSH1 0x80 PUSH1 0x40 MSTORE PUSH1 0x4 CALLDATASIZE LT PUSH2 0x2B2 JUMPI PUSH1 0x0 CALLDATALOAD PUSH1 0xE0 SHR DUP1 PUSH4 0x686465B8 GT PUSH2 0x175 JUMPI DUP1 PUSH4 0xAD99854B GT PUSH2 0xDC JUMPI DUP1 PUSH4 0xE6C0E6D5 GT PUSH2 0x95 JUMPI DUP1 PUSH4 0xF47D3968 GT PUSH2 0x6F JUMPI DUP1 PUSH4 0xF47D3968 EQ PUSH2 0x8B0 JUMPI DUP1 PUSH4 0xFB84D069 EQ PUSH2 0x8D0 JUMPI DUP1 PUSH4 0xFC6BB19C EQ PUSH2 0x8F0 JUMPI DUP1 PUSH4 0xFFD4B4CB EQ PUSH2 0x910 JUMPI PUSH1 0x0 DUP1 REVERT JUMPDEST DUP1 PUSH4 0xE6C0E6D5 EQ PUSH2 0x833 JUMPI DUP1 PUSH4 0xEA61226C EQ PUSH2 0x868 JUMPI DUP1 PUSH4 0xF2FDE38B EQ PUSH2 0x890 JUMPI PUSH1 0x0 DUP1 REVERT JUMPDEST DUP1 PUSH4 0xAD99854B EQ PUSH2 0x77D JUMPI DUP1 PUSH4 0xAFCF2FC4 EQ PUSH2 0x79A JUMPI DUP1 PUSH4 0xB1FA4176 EQ PUSH2 0x7BA JUMPI DUP1 PUSH4 0xC5925983 EQ PUSH2 0x7D0 JUMPI DUP1 PUSH4 0xC6BEC93A EQ PUSH2 0x7FD JUMPI DUP1 PUSH4 0xE580F47B EQ PUSH2 0x81D JUMPI PUSH1 0x0 DUP1 REVERT JUMPDEST DUP1 PUSH4 0x8DA5CB5B GT PUSH2 0x12E JUMPI DUP1 PUSH4 0x8DA5CB5B EQ PUSH2 0x6DF JUMPI DUP1 PUSH4 0x9028353A EQ PUSH2 0x6FD JUMPI DUP1 PUSH4 0x95690936 EQ PUSH2 0x71D JUMPI DUP1 PUSH4 0x99E13B07 EQ PUSH2 0x73F JUMPI DUP1 PUSH4 0xA2F09DFA EQ PUSH2 0x755 JUMPI DUP1 PUSH4 0xAAE282E1 EQ PUSH2 0x75D JUMPI PUSH1 0x0 DUP1 REVERT JUMPDEST DUP1 PUSH4 0x686465B8 EQ PUSH2 0x640 JUMPI DUP1 PUSH4 0x6B9194BE EQ PUSH2 0x679 JUMPI DUP1 PUSH4 0x6E14F95F EQ PUSH2 0x699 JUMPI DUP1 PUSH4 0x6FD09816 EQ PUSH2 0x6AF JUMPI DUP1 PUSH4 0x715018A6 EQ PUSH2 0x6B7 JUMPI DUP1 PUSH4 0x77814890 EQ PUSH2 0x6CC JUMPI PUSH1 0x0 DUP1 REVERT JUMPDEST DUP1 PUSH4 0x327DAF97 GT PUSH2 0x219 JUMPI DUP1 PUSH4 0x430EAFCA GT PUSH2 0x1D2 JUMPI DUP1 PUSH4 0x430EAFCA EQ PUSH2 0x543 JUMPI DUP1 PUSH4 0x444132BE EQ PUSH2 0x559 JUMPI DUP1 PUSH4 0x46D1D21A EQ PUSH2 0x56C JUMPI DUP1 PUSH4 0x57D6A974 EQ PUSH2 0x5A0 JUMPI DUP1 PUSH4 0x5B984526 EQ PUSH2 0x5C0 JUMPI DUP1 PUSH4 0x5FF329AF EQ PUSH2 0x5E0 JUMPI PUSH1 0x0 DUP1 REVERT JUMPDEST DUP1 PUSH4 0x327DAF97 EQ PUSH2 0x498 JUMPI DUP1 PUSH4 0x332F7ACF EQ PUSH2 0x4B8 JUMPI DUP1 PUSH4 0x372500AB EQ PUSH2 0x4CE JUMPI DUP1 PUSH4 0x372D96FE EQ PUSH2 0x4E3 JUMPI DUP1 PUSH4 0x3CF96AF1 EQ PUSH2 0x503 JUMPI DUP1 PUSH4 0x3F138D4B EQ PUSH2 0x523 JUMPI PUSH1 0x0 DUP1 REVERT JUMPDEST DUP1 PUSH4 0x14034BD2 GT PUSH2 0x26B JUMPI DUP1 PUSH4 0x14034BD2 EQ PUSH2 0x3E4 JUMPI DUP1 PUSH4 0x15981650 EQ PUSH2 0x3FB JUMPI DUP1 PUSH4 0x200D2ED2 EQ PUSH2 0x41B JUMPI DUP1 PUSH4 0x28FE9A7F EQ PUSH2 0x442 JUMPI DUP1 PUSH4 0x2B578F82 EQ PUSH2 0x462 JUMPI DUP1 PUSH4 0x3197CBB6 EQ PUSH2 0x482 JUMPI PUSH1 0x0 DUP1 REVERT JUMPDEST DUP1 PUSH4 0x109F658 EQ PUSH2 0x2BE JUMPI DUP1 PUSH4 0x484A22F EQ PUSH2 0x2F1 JUMPI DUP1 PUSH4 0x9D0F068 EQ PUSH2 0x33A JUMPI DUP1 PUSH4 0x101C5CE9 EQ PUSH2 0x35A JUMPI DUP1 PUSH4 0x1209B1F6 EQ PUSH2 0x396 JUMPI DUP1 PUSH4 0x127EFFB2 EQ PUSH2 0x3AC JUMPI PUSH1 0x0 DUP1 REVERT JUMPDEST CALLDATASIZE PUSH2 0x2B9 JUMPI STOP JUMPDEST PUSH1 0x0 DUP1 REVERT JUMPDEST CALLVALUE DUP1 ISZERO PUSH2 0x2CA JUMPI PUSH1 0x0 DUP1 REVERT JUMPDEST POP PUSH2 0x2DE PUSH2 0x2D9 CALLDATASIZE PUSH1 0x4 PUSH2 0x2469 JUMP JUMPDEST PUSH2 0x946 JUMP JUMPDEST PUSH1 0x40 MLOAD SWAP1 DUP2 MSTORE PUSH1 0x20 ADD JUMPDEST PUSH1 0x40 MLOAD DUP1 SWAP2 SUB SWAP1 RETURN JUMPDEST CALLVALUE DUP1 ISZERO PUSH2 0x2FD JUMPI PUSH1 0x0 DUP1 REVERT JUMPDEST POP PUSH2 0x2DE PUSH2 0x30C CALLDATASIZE PUSH1 0x4 PUSH2 0x249E JUMP JUMPDEST PUSH1 0x1 PUSH1 0x1 PUSH1 0xA0 SHL SUB AND PUSH1 0x0 SWAP1 DUP2 MSTORE PUSH1 0x13 PUSH1 0x20 SWAP1 DUP2 MSTORE PUSH1 0x40 DUP1 DUP4 KECCAK256 PUSH1 0x1D SLOAD DUP5 MSTORE SWAP1 SWAP2 MSTORE SWAP1 KECCAK256 SLOAD PUSH4 0xFFFFFFFF AND SWAP1 JUMP JUMPDEST CALLVALUE DUP1 ISZERO PUSH2 0x346 JUMPI PUSH1 0x0 DUP1 REVERT JUMPDEST POP PUSH2 0x2DE PUSH2 0x355 CALLDATASIZE PUSH1 0x4 PUSH2 0x2469 JUMP JUMPDEST PUSH2 0x967 JUMP JUMPDEST CALLVALUE DUP1 ISZERO PUSH2 0x366 JUMPI PUSH1 0x0 DUP1 REVERT JUMPDEST POP PUSH1 0x8 SLOAD PUSH1 0x7 SLOAD PUSH1 0x9 SLOAD PUSH1 0x40 DUP1 MLOAD SWAP4 DUP5 MSTORE PUSH1 0x1 PUSH1 0xA0 SHL SWAP1 SWAP3 DIV PUSH4 0xFFFFFFFF AND PUSH1 0x20 DUP5 ADD MSTORE SWAP1 DUP3 ADD MSTORE PUSH1 0x60 ADD PUSH2 0x2E8 JUMP JUMPDEST CALLVALUE DUP1 ISZERO PUSH2 0x3A2 JUMPI PUSH1 0x0 DUP1 REVERT JUMPDEST POP PUSH2 0x2DE PUSH1 0x9 SLOAD DUP2 JUMP JUMPDEST CALLVALUE DUP1 ISZERO PUSH2 0x3B8 JUMPI PUSH1 0x0 DUP1 REVERT JUMPDEST POP PUSH1 0x7 SLOAD PUSH2 0x3CC SWAP1 PUSH1 0x1 PUSH1 0x1 PUSH1 0xA0 SHL SUB AND DUP2 JUMP JUMPDEST PUSH1 0x40 MLOAD PUSH1 0x1 PUSH1 0x1 PUSH1 0xA0 SHL SUB SWAP1 SWAP2 AND DUP2 MSTORE PUSH1 0x20 ADD PUSH2 0x2E8 JUMP JUMPDEST CALLVALUE DUP1 ISZERO PUSH2 0x3F0 JUMPI PUSH1 0x0 DUP1 REVERT JUMPDEST POP PUSH2 0x3F9 PUSH2 0x977 JUMP JUMPDEST STOP JUMPDEST CALLVALUE DUP1 ISZERO PUSH2 0x407 JUMPI PUSH1 0x0 DUP1 REVERT JUMPDEST POP PUSH2 0x3F9 PUSH2 0x416 CALLDATASIZE PUSH1 0x4 PUSH2 0x2469 JUMP JUMPDEST PUSH2 0xF75 JUMP JUMPDEST CALLVALUE DUP1 ISZERO PUSH2 0x427 JUMPI PUSH1 0x0 DUP1 REVERT JUMPDEST POP PUSH1 0x11 SLOAD PUSH2 0x435 SWAP1 PUSH1 0xFF AND DUP2 JUMP JUMPDEST PUSH1 0x40 MLOAD PUSH2 0x2E8 SWAP2 SWAP1 PUSH2 0x24D6 JUMP JUMPDEST CALLVALUE DUP1 ISZERO PUSH2 0x44E JUMPI PUSH1 0x0 DUP1 REVERT JUMPDEST POP PUSH1 0x4 SLOAD PUSH2 0x3CC SWAP1 PUSH1 0x1 PUSH1 0x1 PUSH1 0xA0 SHL SUB AND DUP2 JUMP JUMPDEST CALLVALUE DUP1 ISZERO PUSH2 0x46E JUMPI PUSH1 0x0 DUP1 REVERT JUMPDEST POP PUSH2 0x3F9 PUSH2 0x47D CALLDATASIZE PUSH1 0x4 PUSH2 0x24FE JUMP JUMPDEST PUSH2 0xF82 JUMP JUMPDEST CALLVALUE DUP1 ISZERO PUSH2 0x48E JUMPI PUSH1 0x0 DUP1 REVERT JUMPDEST POP PUSH2 0x2DE PUSH1 0xC SLOAD DUP2 JUMP JUMPDEST CALLVALUE DUP1 ISZERO PUSH2 0x4A4 JUMPI PUSH1 0x0 DUP1 REVERT JUMPDEST POP PUSH2 0x3F9 PUSH2 0x4B3 CALLDATASIZE PUSH1 0x4 PUSH2 0x2563 JUMP JUMPDEST PUSH2 0x10A7 JUMP JUMPDEST CALLVALUE DUP1 ISZERO PUSH2 0x4C4 JUMPI PUSH1 0x0 DUP1 REVERT JUMPDEST POP PUSH2 0x2DE PUSH1 0x8 SLOAD DUP2 JUMP JUMPDEST CALLVALUE DUP1 ISZERO PUSH2 0x4DA JUMPI PUSH1 0x0 DUP1 REVERT JUMPDEST POP PUSH2 0x3F9 PUSH2 0x10D1 JUMP JUMPDEST CALLVALUE DUP1 ISZERO PUSH2 0x4EF JUMPI PUSH1 0x0 DUP1 REVERT JUMPDEST POP PUSH2 0x3F9 PUSH2 0x4FE CALLDATASIZE PUSH1 0x4 PUSH2 0x2599 JUMP JUMPDEST PUSH2 0x11DE JUMP JUMPDEST CALLVALUE DUP1 ISZERO PUSH2 0x50F JUMPI PUSH1 0x0 DUP1 REVERT JUMPDEST POP PUSH1 0x2 SLOAD PUSH2 0x3CC SWAP1 PUSH1 0x1 PUSH1 0x1 PUSH1 0xA0 SHL SUB AND DUP2 JUMP JUMPDEST CALLVALUE DUP1 ISZERO PUSH2 0x52F JUMPI PUSH1 0x0 DUP1 REVERT JUMPDEST POP PUSH2 0x3F9 PUSH2 0x53E CALLDATASIZE PUSH1 0x4 PUSH2 0x25B6 JUMP JUMPDEST PUSH2 0x1246 JUMP JUMPDEST CALLVALUE DUP1 ISZERO PUSH2 0x54F JUMPI PUSH1 0x0 DUP1 REVERT JUMPDEST POP PUSH2 0x2DE PUSH1 0x20 SLOAD DUP2 JUMP JUMPDEST PUSH2 0x3F9 PUSH2 0x567 CALLDATASIZE PUSH1 0x4 PUSH2 0x2599 JUMP JUMPDEST PUSH2 0x12C4 JUMP JUMPDEST CALLVALUE DUP1 ISZERO PUSH2 0x578 JUMPI PUSH1 0x0 DUP1 REVERT JUMPDEST POP PUSH2 0x3CC PUSH32 0x0 DUP2 JUMP JUMPDEST CALLVALUE DUP1 ISZERO PUSH2 0x5AC JUMPI PUSH1 0x0 DUP1 REVERT JUMPDEST POP PUSH2 0x3F9 PUSH2 0x5BB CALLDATASIZE PUSH1 0x4 PUSH2 0x249E JUMP JUMPDEST PUSH2 0x15E9 JUMP JUMPDEST CALLVALUE DUP1 ISZERO PUSH2 0x5CC JUMPI PUSH1 0x0 DUP1 REVERT JUMPDEST POP PUSH1 0x6 SLOAD PUSH2 0x3CC SWAP1 PUSH1 0x1 PUSH1 0x1 PUSH1 0xA0 SHL SUB AND DUP2 JUMP JUMPDEST CALLVALUE DUP1 ISZERO PUSH2 0x5EC JUMPI PUSH1 0x0 DUP1 REVERT JUMPDEST POP PUSH2 0x629 PUSH2 0x5FB CALLDATASIZE PUSH1 0x4 PUSH2 0x249E JUMP JUMPDEST PUSH1 0x1 PUSH1 0x1 PUSH1 0xA0 SHL SUB AND PUSH1 0x0 SWAP1 DUP2 MSTORE PUSH1 0x14 PUSH1 0x20 SWAP1 DUP2 MSTORE PUSH1 0x40 DUP1 DUP4 KECCAK256 SLOAD PUSH1 0x15 SWAP1 SWAP3 MSTORE SWAP1 SWAP2 KECCAK256 SLOAD SWAP1 SWAP2 PUSH1 0xFF SWAP1 SWAP2 AND SWAP1 JUMP JUMPDEST PUSH1 0x40 DUP1 MLOAD SWAP3 DUP4 MSTORE PUSH1 0xFF SWAP1 SWAP2 AND PUSH1 0x20 DUP4 ADD MSTORE ADD PUSH2 0x2E8 JUMP JUMPDEST CALLVALUE DUP1 ISZERO PUSH2 0x64C JUMPI PUSH1 0x0 DUP1 REVERT JUMPDEST POP PUSH1 0x7 SLOAD PUSH2 0x664 SWAP1 PUSH1 0x1 PUSH1 0xA0 SHL SWAP1 DIV PUSH4 0xFFFFFFFF AND DUP2 JUMP JUMPDEST PUSH1 0x40 MLOAD PUSH4 0xFFFFFFFF SWAP1 SWAP2 AND DUP2 MSTORE PUSH1 0x20 ADD PUSH2 0x2E8 JUMP JUMPDEST CALLVALUE DUP1 ISZERO PUSH2 0x685 JUMPI PUSH1 0x0 DUP1 REVERT JUMPDEST POP PUSH1 0x1F SLOAD PUSH2 0x3CC SWAP1 PUSH1 0x1 PUSH1 0x1 PUSH1 0xA0 SHL SUB AND DUP2 JUMP JUMPDEST CALLVALUE DUP1 ISZERO PUSH2 0x6A5 JUMPI PUSH1 0x0 DUP1 REVERT JUMPDEST POP PUSH2 0x2DE PUSH1 0xE SLOAD DUP2 JUMP JUMPDEST PUSH2 0x3F9 PUSH2 0x1613 JUMP JUMPDEST CALLVALUE DUP1 ISZERO PUSH2 0x6C3 JUMPI PUSH1 0x0 DUP1 REVERT JUMPDEST POP PUSH2 0x3F9 PUSH2 0x17BF JUMP JUMPDEST PUSH2 0x3F9 PUSH2 0x6DA CALLDATASIZE PUSH1 0x4 PUSH2 0x2599 JUMP JUMPDEST PUSH2 0x17D1 JUMP JUMPDEST CALLVALUE DUP1 ISZERO PUSH2 0x6EB JUMPI PUSH1 0x0 DUP1 REVERT JUMPDEST POP PUSH1 0x1 SLOAD PUSH1 0x1 PUSH1 0x1 PUSH1 0xA0 SHL SUB AND PUSH2 0x3CC JUMP JUMPDEST CALLVALUE DUP1 ISZERO PUSH2 0x709 JUMPI PUSH1 0x0 DUP1 REVERT JUMPDEST POP PUSH1 0x5 SLOAD PUSH2 0x3CC SWAP1 PUSH1 0x1 PUSH1 0x1 PUSH1 0xA0 SHL SUB AND DUP2 JUMP JUMPDEST CALLVALUE DUP1 ISZERO PUSH2 0x729 JUMPI PUSH1 0x0 DUP1 REVERT JUMPDEST POP PUSH2 0x732 PUSH2 0x1C85 JUMP JUMPDEST PUSH1 0x40 MLOAD PUSH2 0x2E8 SWAP2 SWAP1 PUSH2 0x25E0 JUMP JUMPDEST CALLVALUE DUP1 ISZERO PUSH2 0x74B JUMPI PUSH1 0x0 DUP1 REVERT JUMPDEST POP PUSH2 0x2DE PUSH1 0xB SLOAD DUP2 JUMP JUMPDEST PUSH2 0x3F9 PUSH2 0x1D41 JUMP JUMPDEST CALLVALUE DUP1 ISZERO PUSH2 0x769 JUMPI PUSH1 0x0 DUP1 REVERT JUMPDEST POP PUSH1 0xD SLOAD PUSH2 0x3CC SWAP1 PUSH1 0x1 PUSH1 0x1 PUSH1 0xA0 SHL SUB AND DUP2 JUMP JUMPDEST CALLVALUE DUP1 ISZERO PUSH2 0x789 JUMPI PUSH1 0x0 DUP1 REVERT JUMPDEST POP PUSH1 0xA SLOAD PUSH2 0x664 SWAP1 PUSH4 0xFFFFFFFF AND DUP2 JUMP JUMPDEST CALLVALUE DUP1 ISZERO PUSH2 0x7A6 JUMPI PUSH1 0x0 DUP1 REVERT JUMPDEST POP PUSH1 0x3 SLOAD PUSH2 0x3CC SWAP1 PUSH1 0x1 PUSH1 0x1 PUSH1 0xA0 SHL SUB AND DUP2 JUMP JUMPDEST CALLVALUE DUP1 ISZERO PUSH2 0x7C6 JUMPI PUSH1 0x0 DUP1 REVERT JUMPDEST POP PUSH2 0x2DE PUSH1 0x1E SLOAD DUP2 JUMP JUMPDEST CALLVALUE DUP1 ISZERO PUSH2 0x7DC JUMPI PUSH1 0x0 DUP1 REVERT JUMPDEST POP PUSH2 0x7F0 PUSH2 0x7EB CALLDATASIZE PUSH1 0x4 PUSH2 0x2629 JUMP JUMPDEST PUSH2 0x1DE0 JUMP JUMPDEST PUSH1 0x40 MLOAD PUSH2 0x2E8 SWAP2 SWAP1 PUSH2 0x2646 JUMP JUMPDEST CALLVALUE DUP1 ISZERO PUSH2 0x809 JUMPI PUSH1 0x0 DUP1 REVERT JUMPDEST POP PUSH2 0x3F9 PUSH2 0x818 CALLDATASIZE PUSH1 0x4 PUSH2 0x2469 JUMP JUMPDEST PUSH2 0x1E50 JUMP JUMPDEST CALLVALUE DUP1 ISZERO PUSH2 0x829 JUMPI PUSH1 0x0 DUP1 REVERT JUMPDEST POP PUSH2 0x2DE PUSH1 0x1D SLOAD DUP2 JUMP JUMPDEST CALLVALUE DUP1 ISZERO PUSH2 0x83F JUMPI PUSH1 0x0 DUP1 REVERT JUMPDEST POP PUSH1 0xA SLOAD PUSH2 0x855 SWAP1 PUSH1 0x1 PUSH1 0xC0 SHL SWAP1 DIV PUSH2 0xFFFF AND DUP2 JUMP JUMPDEST PUSH1 0x40 MLOAD PUSH2 0xFFFF SWAP1 SWAP2 AND DUP2 MSTORE PUSH1 0x20 ADD PUSH2 0x2E8 JUMP JUMPDEST CALLVALUE DUP1 ISZERO PUSH2 0x874 JUMPI PUSH1 0x0 DUP1 REVERT JUMPDEST POP PUSH1 0xA SLOAD PUSH2 0x3CC SWAP1 PUSH5 0x100000000 SWAP1 DIV PUSH1 0x1 PUSH1 0x1 PUSH1 0xA0 SHL SUB AND DUP2 JUMP JUMPDEST CALLVALUE DUP1 ISZERO PUSH2 0x89C JUMPI PUSH1 0x0 DUP1 REVERT JUMPDEST POP PUSH2 0x3F9 PUSH2 0x8AB CALLDATASIZE PUSH1 0x4 PUSH2 0x249E JUMP JUMPDEST PUSH2 0x1F32 JUMP JUMPDEST CALLVALUE DUP1 ISZERO PUSH2 0x8BC JUMPI PUSH1 0x0 DUP1 REVERT JUMPDEST POP PUSH2 0x3F9 PUSH2 0x8CB CALLDATASIZE PUSH1 0x4 PUSH2 0x2469 JUMP JUMPDEST PUSH2 0x1FA8 JUMP JUMPDEST CALLVALUE DUP1 ISZERO PUSH2 0x8DC JUMPI PUSH1 0x0 DUP1 REVERT JUMPDEST POP PUSH2 0x3F9 PUSH2 0x8EB CALLDATASIZE PUSH1 0x4 PUSH2 0x249E JUMP JUMPDEST PUSH2 0x1FB5 JUMP JUMPDEST CALLVALUE DUP1 ISZERO PUSH2 0x8FC JUMPI PUSH1 0x0 DUP1 REVERT JUMPDEST POP PUSH2 0x3F9 PUSH2 0x90B CALLDATASIZE PUSH1 0x4 PUSH2 0x2469 JUMP JUMPDEST PUSH2 0x1FEB JUMP JUMPDEST CALLVALUE DUP1 ISZERO PUSH2 0x91C JUMPI PUSH1 0x0 DUP1 REVERT JUMPDEST POP PUSH2 0x3CC PUSH2 0x92B CALLDATASIZE PUSH1 0x4 PUSH2 0x2599 JUMP JUMPDEST PUSH1 0x12 PUSH1 0x20 MSTORE PUSH1 0x0 SWAP1 DUP2 MSTORE PUSH1 0x40 SWAP1 KECCAK256 SLOAD PUSH1 0x1 PUSH1 0x1 PUSH1 0xA0 SHL SUB AND DUP2 JUMP JUMPDEST PUSH1 0xF DUP2 DUP2 SLOAD DUP2 LT PUSH2 0x956 JUMPI PUSH1 0x0 DUP1 REVERT JUMPDEST PUSH1 0x0 SWAP2 DUP3 MSTORE PUSH1 0x20 SWAP1 SWAP2 KECCAK256 ADD SLOAD SWAP1 POP DUP2 JUMP JUMPDEST PUSH1 0x10 DUP2 DUP2 SLOAD DUP2 LT PUSH2 0x956 JUMPI PUSH1 0x0 DUP1 REVERT JUMPDEST PUSH2 0x97F PUSH2 0x1FF8 JUMP JUMPDEST PUSH1 0x7 SLOAD PUSH1 0x1 PUSH1 0x1 PUSH1 0xA0 SHL SUB AND CALLER EQ PUSH2 0x9B2 JUMPI PUSH1 0x40 MLOAD PUSH3 0x461BCD PUSH1 0xE5 SHL DUP2 MSTORE PUSH1 0x4 ADD PUSH2 0x9A9 SWAP1 PUSH2 0x2693 JUMP JUMPDEST PUSH1 0x40 MLOAD DUP1 SWAP2 SUB SWAP1 REVERT JUMPDEST PUSH1 0x2 PUSH1 0x11 SLOAD PUSH1 0xFF AND PUSH1 0x3 DUP2 GT ISZERO PUSH2 0x9CB JUMPI PUSH2 0x9CB PUSH2 0x24C0 JUMP JUMPDEST EQ PUSH2 0xA18 JUMPI PUSH1 0x40 MLOAD PUSH3 0x461BCD PUSH1 0xE5 SHL DUP2 MSTORE PUSH1 0x20 PUSH1 0x4 DUP3 ADD MSTORE PUSH1 0x18 PUSH1 0x24 DUP3 ADD MSTORE PUSH32 0x4C6F747465727920686173206E6F742066696E69736865640000000000000000 PUSH1 0x44 DUP3 ADD MSTORE PUSH1 0x64 ADD PUSH2 0x9A9 JUMP JUMPDEST PUSH1 0x1E SLOAD PUSH1 0x40 MLOAD PUSH4 0x26F21BFB PUSH1 0xE2 SHL DUP2 MSTORE PUSH1 0x4 DUP2 ADD SWAP2 SWAP1 SWAP2 MSTORE PUSH32 0x0 PUSH1 0x1 PUSH1 0x1 PUSH1 0xA0 SHL SUB AND SWAP1 PUSH4 0x9BC86FEC SWAP1 PUSH1 0x24 ADD PUSH1 0x20 PUSH1 0x40 MLOAD DUP1 DUP4 SUB DUP2 DUP7 GAS STATICCALL ISZERO DUP1 ISZERO PUSH2 0xA81 JUMPI RETURNDATASIZE PUSH1 0x0 DUP1 RETURNDATACOPY RETURNDATASIZE PUSH1 0x0 REVERT JUMPDEST POP POP POP POP PUSH1 0x40 MLOAD RETURNDATASIZE PUSH1 0x1F NOT PUSH1 0x1F DUP3 ADD AND DUP3 ADD DUP1 PUSH1 0x40 MSTORE POP DUP2 ADD SWAP1 PUSH2 0xAA5 SWAP2 SWAP1 PUSH2 0x26BD JUMP JUMPDEST ISZERO ISZERO PUSH1 0x1 EQ PUSH2 0xAE7 JUMPI PUSH1 0x40 MLOAD PUSH3 0x461BCD PUSH1 0xE5 SHL DUP2 MSTORE PUSH1 0x20 PUSH1 0x4 DUP3 ADD MSTORE PUSH1 0xE PUSH1 0x24 DUP3 ADD MSTORE PUSH14 0x139BDD0814985B991BDB5A5E9959 PUSH1 0x92 SHL PUSH1 0x44 DUP3 ADD MSTORE PUSH1 0x64 ADD PUSH2 0x9A9 JUMP JUMPDEST PUSH1 0x1 JUMPDEST PUSH1 0x4 DUP2 PUSH1 0xFF AND GT PUSH2 0xB20 JUMPI PUSH1 0xFF DUP2 AND PUSH1 0x0 SWAP1 DUP2 MSTORE PUSH1 0x16 PUSH1 0x20 MSTORE PUSH1 0x40 DUP2 KECCAK256 PUSH2 0xB10 SWAP2 PUSH2 0x2414 JUMP JUMPDEST PUSH2 0xB19 DUP2 PUSH2 0x26F5 JUMP JUMPDEST SWAP1 POP PUSH2 0xAEA JUMP JUMPDEST PUSH1 0x11 DUP1 SLOAD PUSH1 0xFF NOT AND SWAP1 SSTORE PUSH1 0x7 SLOAD PUSH1 0x1 PUSH1 0xA0 SHL SWAP1 DIV PUSH4 0xFFFFFFFF AND PUSH1 0x0 SUB PUSH2 0xB47 JUMPI POP PUSH2 0xF69 JUMP JUMPDEST PUSH1 0x8 SLOAD PUSH1 0x7 SLOAD PUSH1 0x1E SLOAD PUSH1 0x40 MLOAD PUSH4 0x24CBBFC1 PUSH1 0xE0 SHL DUP2 MSTORE PUSH1 0x1 PUSH1 0xA0 SHL SWAP1 SWAP3 DIV PUSH4 0xFFFFFFFF AND PUSH1 0x4 DUP4 ADD MSTORE PUSH1 0x0 PUSH1 0x24 DUP4 ADD DUP2 SWAP1 MSTORE PUSH1 0x44 DUP4 ADD SWAP2 SWAP1 SWAP2 MSTORE SWAP2 SWAP1 DUP3 SWAP1 PUSH32 0x0 PUSH1 0x1 PUSH1 0x1 PUSH1 0xA0 SHL SUB AND SWAP1 PUSH4 0x24CBBFC1 SWAP1 PUSH1 0x64 ADD PUSH1 0x20 PUSH1 0x40 MLOAD DUP1 DUP4 SUB DUP2 DUP7 GAS STATICCALL ISZERO DUP1 ISZERO PUSH2 0xBD6 JUMPI RETURNDATASIZE PUSH1 0x0 DUP1 RETURNDATACOPY RETURNDATASIZE PUSH1 0x0 REVERT JUMPDEST POP POP POP POP PUSH1 0x40 MLOAD RETURNDATASIZE PUSH1 0x1F NOT PUSH1 0x1F DUP3 ADD AND DUP3 ADD DUP1 PUSH1 0x40 MSTORE POP DUP2 ADD SWAP1 PUSH2 0xBFA SWAP2 SWAP1 PUSH2 0x2714 JUMP JUMPDEST SWAP1 POP DUP3 PUSH2 0xC06 DUP2 PUSH2 0x2731 JUMP JUMPDEST SWAP4 POP POP PUSH1 0x0 PUSH1 0xA PUSH1 0x8 SLOAD PUSH2 0xC1A SWAP2 SWAP1 PUSH2 0x2760 JUMP JUMPDEST SWAP1 POP PUSH2 0xC28 DUP3 DUP3 PUSH1 0x1 PUSH2 0x2051 JUMP JUMPDEST PUSH2 0xC31 DUP3 PUSH2 0x21B4 JUMP JUMPDEST PUSH2 0xC3B DUP2 DUP5 PUSH2 0x2774 JUMP JUMPDEST SWAP3 POP PUSH1 0x0 DUP1 SWAP6 POP JUMPDEST PUSH1 0x3 DUP7 PUSH1 0xFF AND LT ISZERO PUSH2 0xE01 JUMPI PUSH1 0x64 PUSH1 0xF DUP8 PUSH1 0xFF AND DUP2 SLOAD DUP2 LT PUSH2 0xC67 JUMPI PUSH2 0xC67 PUSH2 0x2787 JUMP JUMPDEST PUSH1 0x0 SWAP2 DUP3 MSTORE PUSH1 0x20 SWAP1 SWAP2 KECCAK256 ADD SLOAD PUSH1 0x7 SLOAD PUSH2 0xC8F SWAP1 PUSH1 0x1 SWAP1 PUSH1 0x1 PUSH1 0xA0 SHL SWAP1 DIV PUSH4 0xFFFFFFFF AND PUSH2 0x279D JUMP JUMPDEST PUSH4 0xFFFFFFFF AND PUSH2 0xC9F SWAP2 SWAP1 PUSH2 0x27C1 JUMP JUMPDEST PUSH2 0xCA9 SWAP2 SWAP1 PUSH2 0x2760 JUMP JUMPDEST SWAP1 POP DUP1 ISZERO PUSH2 0xDF1 JUMPI DUP1 PUSH1 0x64 PUSH1 0x10 DUP9 PUSH1 0xFF AND DUP2 SLOAD DUP2 LT PUSH2 0xCCA JUMPI PUSH2 0xCCA PUSH2 0x2787 JUMP JUMPDEST SWAP1 PUSH1 0x0 MSTORE PUSH1 0x20 PUSH1 0x0 KECCAK256 ADD SLOAD PUSH1 0x8 SLOAD PUSH2 0xCE2 SWAP2 SWAP1 PUSH2 0x27C1 JUMP JUMPDEST PUSH2 0xCEC SWAP2 SWAP1 PUSH2 0x2760 JUMP JUMPDEST PUSH2 0xCF6 SWAP2 SWAP1 PUSH2 0x2760 JUMP JUMPDEST SWAP2 POP PUSH2 0xD02 DUP2 DUP4 PUSH2 0x27C1 JUMP JUMPDEST PUSH2 0xD0C SWAP1 DUP6 PUSH2 0x2774 JUMP JUMPDEST SWAP4 POP JUMPDEST DUP1 ISZERO PUSH2 0xDF1 JUMPI PUSH1 0x7 SLOAD PUSH1 0x1E SLOAD PUSH1 0x40 MLOAD PUSH4 0x24CBBFC1 PUSH1 0xE0 SHL DUP2 MSTORE PUSH1 0x1 PUSH1 0xA0 SHL SWAP1 SWAP3 DIV PUSH4 0xFFFFFFFF AND PUSH1 0x4 DUP4 ADD MSTORE PUSH1 0x24 DUP3 ADD DUP8 SWAP1 MSTORE PUSH1 0x44 DUP3 ADD MSTORE PUSH32 0x0 PUSH1 0x1 PUSH1 0x1 PUSH1 0xA0 SHL SUB AND SWAP1 PUSH4 0x24CBBFC1 SWAP1 PUSH1 0x64 ADD PUSH1 0x20 PUSH1 0x40 MLOAD DUP1 DUP4 SUB DUP2 DUP7 GAS STATICCALL ISZERO DUP1 ISZERO PUSH2 0xD98 JUMPI RETURNDATASIZE PUSH1 0x0 DUP1 RETURNDATACOPY RETURNDATASIZE PUSH1 0x0 REVERT JUMPDEST POP POP POP POP PUSH1 0x40 MLOAD RETURNDATASIZE PUSH1 0x1F NOT PUSH1 0x1F DUP3 ADD AND DUP3 ADD DUP1 PUSH1 0x40 MSTORE POP DUP2 ADD SWAP1 PUSH2 0xDBC SWAP2 SWAP1 PUSH2 0x2714 JUMP JUMPDEST SWAP3 POP DUP5 PUSH2 0xDC8 DUP2 PUSH2 0x2731 JUMP JUMPDEST SWAP6 POP PUSH2 0xDE1 SWAP1 POP DUP4 DUP4 PUSH2 0xDDC DUP10 PUSH1 0x2 PUSH2 0x27D8 JUMP JUMPDEST PUSH2 0x2051 JUMP JUMPDEST PUSH2 0xDEA DUP2 PUSH2 0x27F1 JUMP JUMPDEST SWAP1 POP PUSH2 0xD0F JUMP JUMPDEST PUSH2 0xDFA DUP7 PUSH2 0x26F5 JUMP JUMPDEST SWAP6 POP PUSH2 0xC43 JUMP JUMPDEST PUSH2 0xE0C PUSH1 0xC DUP6 PUSH2 0x2760 JUMP JUMPDEST PUSH1 0x4 SLOAD PUSH1 0x40 MLOAD SWAP2 SWAP4 POP PUSH1 0x1 PUSH1 0x1 PUSH1 0xA0 SHL SUB AND SWAP1 DUP4 ISZERO PUSH2 0x8FC MUL SWAP1 DUP5 SWAP1 PUSH1 0x0 DUP2 DUP2 DUP2 DUP6 DUP9 DUP9 CALL SWAP4 POP POP POP POP ISZERO DUP1 ISZERO PUSH2 0xE47 JUMPI RETURNDATASIZE PUSH1 0x0 DUP1 RETURNDATACOPY RETURNDATASIZE PUSH1 0x0 REVERT JUMPDEST POP PUSH1 0x5 SLOAD PUSH1 0x40 MLOAD PUSH1 0x1 PUSH1 0x1 PUSH1 0xA0 SHL SUB SWAP1 SWAP2 AND SWAP1 DUP4 ISZERO PUSH2 0x8FC MUL SWAP1 DUP5 SWAP1 PUSH1 0x0 DUP2 DUP2 DUP2 DUP6 DUP9 DUP9 CALL SWAP4 POP POP POP POP ISZERO DUP1 ISZERO PUSH2 0xE82 JUMPI RETURNDATASIZE PUSH1 0x0 DUP1 RETURNDATACOPY RETURNDATASIZE PUSH1 0x0 REVERT JUMPDEST POP PUSH1 0x6 SLOAD PUSH1 0x40 MLOAD PUSH1 0x1 PUSH1 0x1 PUSH1 0xA0 SHL SUB SWAP1 SWAP2 AND SWAP1 DUP4 ISZERO PUSH2 0x8FC MUL SWAP1 DUP5 SWAP1 PUSH1 0x0 DUP2 DUP2 DUP2 DUP6 DUP9 DUP9 CALL SWAP4 POP POP POP POP ISZERO DUP1 ISZERO PUSH2 0xEBD JUMPI RETURNDATASIZE PUSH1 0x0 DUP1 RETURNDATACOPY RETURNDATASIZE PUSH1 0x0 REVERT JUMPDEST POP PUSH2 0xEC9 DUP3 PUSH1 0x3 PUSH2 0x27C1 JUMP JUMPDEST PUSH2 0xED3 SWAP1 DUP6 PUSH2 0x2774 JUMP JUMPDEST SWAP4 POP PUSH2 0xEE0 PUSH1 0x3 DUP6 PUSH2 0x2760 JUMP JUMPDEST PUSH1 0x2 SLOAD PUSH1 0x40 MLOAD SWAP2 SWAP4 POP PUSH1 0x1 PUSH1 0x1 PUSH1 0xA0 SHL SUB AND SWAP1 DUP4 ISZERO PUSH2 0x8FC MUL SWAP1 DUP5 SWAP1 PUSH1 0x0 DUP2 DUP2 DUP2 DUP6 DUP9 DUP9 CALL SWAP4 POP POP POP POP ISZERO DUP1 ISZERO PUSH2 0xF1B JUMPI RETURNDATASIZE PUSH1 0x0 DUP1 RETURNDATACOPY RETURNDATASIZE PUSH1 0x0 REVERT JUMPDEST POP PUSH2 0xF26 DUP3 DUP6 PUSH2 0x2774 JUMP JUMPDEST PUSH1 0x3 SLOAD PUSH1 0x40 MLOAD SWAP2 SWAP6 POP PUSH1 0x1 PUSH1 0x1 PUSH1 0xA0 SHL SUB AND SWAP1 DUP6 ISZERO PUSH2 0x8FC MUL SWAP1 DUP7 SWAP1 PUSH1 0x0 DUP2 DUP2 DUP2 DUP6 DUP9 DUP9 CALL SWAP4 POP POP POP POP ISZERO DUP1 ISZERO PUSH2 0xF61 JUMPI RETURNDATASIZE PUSH1 0x0 DUP1 RETURNDATACOPY RETURNDATASIZE PUSH1 0x0 REVERT JUMPDEST POP POP POP POP POP POP POP JUMPDEST PUSH2 0xF73 PUSH1 0x1 PUSH1 0x0 SSTORE JUMP JUMPDEST JUMP JUMPDEST PUSH2 0xF7D PUSH2 0x2281 JUMP JUMPDEST PUSH1 0x9 SSTORE JUMP JUMPDEST PUSH2 0xF8A PUSH2 0x2281 JUMP JUMPDEST PUSH1 0x1 PUSH1 0x1 PUSH1 0xA0 SHL SUB DUP6 AND PUSH2 0xFB0 JUMPI PUSH1 0x40 MLOAD PUSH3 0x461BCD PUSH1 0xE5 SHL DUP2 MSTORE PUSH1 0x4 ADD PUSH2 0x9A9 SWAP1 PUSH2 0x2808 JUMP JUMPDEST PUSH1 0x1 PUSH1 0x1 PUSH1 0xA0 SHL SUB DUP5 AND PUSH2 0xFD6 JUMPI PUSH1 0x40 MLOAD PUSH3 0x461BCD PUSH1 0xE5 SHL DUP2 MSTORE PUSH1 0x4 ADD PUSH2 0x9A9 SWAP1 PUSH2 0x2808 JUMP JUMPDEST PUSH1 0x1 PUSH1 0x1 PUSH1 0xA0 SHL SUB DUP4 AND PUSH2 0xFFC JUMPI PUSH1 0x40 MLOAD PUSH3 0x461BCD PUSH1 0xE5 SHL DUP2 MSTORE PUSH1 0x4 ADD PUSH2 0x9A9 SWAP1 PUSH2 0x2808 JUMP JUMPDEST PUSH1 0x1 PUSH1 0x1 PUSH1 0xA0 SHL SUB DUP3 AND PUSH2 0x1022 JUMPI PUSH1 0x40 MLOAD PUSH3 0x461BCD PUSH1 0xE5 SHL DUP2 MSTORE PUSH1 0x4 ADD PUSH2 0x9A9 SWAP1 PUSH2 0x2808 JUMP JUMPDEST PUSH1 0x1 PUSH1 0x1 PUSH1 0xA0 SHL SUB DUP2 AND PUSH2 0x1048 JUMPI PUSH1 0x40 MLOAD PUSH3 0x461BCD PUSH1 0xE5 SHL DUP2 MSTORE PUSH1 0x4 ADD PUSH2 0x9A9 SWAP1 PUSH2 0x2808 JUMP JUMPDEST PUSH1 0x7 DUP1 SLOAD PUSH1 0x1 PUSH1 0x1 PUSH1 0xA0 SHL SUB NOT SWAP1 DUP2 AND PUSH1 0x1 PUSH1 0x1 PUSH1 0xA0 SHL SUB SWAP8 DUP9 AND OR SWAP1 SWAP2 SSTORE PUSH1 0x2 DUP1 SLOAD DUP3 AND SWAP6 DUP8 AND SWAP6 SWAP1 SWAP6 OR SWAP1 SWAP5 SSTORE PUSH1 0x3 DUP1 SLOAD DUP6 AND SWAP4 DUP7 AND SWAP4 SWAP1 SWAP4 OR SWAP1 SWAP3 SSTORE PUSH1 0x4 DUP1 SLOAD DUP5 AND SWAP2 DUP6 AND SWAP2 SWAP1 SWAP2 OR SWAP1 SSTORE PUSH1 0x5 DUP1 SLOAD SWAP1 SWAP3 AND SWAP3 AND SWAP2 SWAP1 SWAP2 OR SWAP1 SSTORE JUMP JUMPDEST PUSH2 0x10AF PUSH2 0x2281 JUMP JUMPDEST PUSH1 0xA DUP1 SLOAD PUSH2 0xFFFF SWAP1 SWAP3 AND PUSH1 0x1 PUSH1 0xC0 SHL MUL PUSH2 0xFFFF PUSH1 0xC0 SHL NOT SWAP1 SWAP3 AND SWAP2 SWAP1 SWAP2 OR SWAP1 SSTORE JUMP JUMPDEST CALLER EXTCODESIZE ISZERO PUSH2 0x10F0 JUMPI PUSH1 0x40 MLOAD PUSH3 0x461BCD PUSH1 0xE5 SHL DUP2 MSTORE PUSH1 0x4 ADD PUSH2 0x9A9 SWAP1 PUSH2 0x282F JUMP JUMPDEST CALLER ORIGIN EQ PUSH2 0x110F JUMPI PUSH1 0x40 MLOAD PUSH3 0x461BCD PUSH1 0xE5 SHL DUP2 MSTORE PUSH1 0x4 ADD PUSH2 0x9A9 SWAP1 PUSH2 0x2866 JUMP JUMPDEST PUSH2 0x1117 PUSH2 0x1FF8 JUMP JUMPDEST CALLER PUSH1 0x0 DUP2 DUP2 MSTORE PUSH1 0x14 PUSH1 0x20 MSTORE PUSH1 0x40 SWAP1 KECCAK256 SLOAD PUSH2 0x1169 JUMPI PUSH1 0x40 MLOAD PUSH3 0x461BCD PUSH1 0xE5 SHL DUP2 MSTORE PUSH1 0x20 PUSH1 0x4 DUP3 ADD MSTORE PUSH1 0x13 PUSH1 0x24 DUP3 ADD MSTORE PUSH19 0x4E6F207265776172647320746F20636C61696D PUSH1 0x68 SHL PUSH1 0x44 DUP3 ADD MSTORE PUSH1 0x64 ADD PUSH2 0x9A9 JUMP JUMPDEST PUSH1 0x1 PUSH1 0x1 PUSH1 0xA0 SHL SUB DUP2 AND PUSH1 0x0 DUP2 DUP2 MSTORE PUSH1 0x14 PUSH1 0x20 MSTORE PUSH1 0x40 DUP1 DUP3 KECCAK256 DUP1 SLOAD SWAP1 DUP4 SWAP1 SSTORE SWAP1 MLOAD SWAP1 SWAP3 SWAP2 DUP4 ISZERO PUSH2 0x8FC MUL SWAP2 DUP5 SWAP2 DUP2 DUP2 DUP2 DUP6 DUP9 DUP9 CALL SWAP4 POP POP POP POP ISZERO DUP1 ISZERO PUSH2 0x11B3 JUMPI RETURNDATASIZE PUSH1 0x0 DUP1 RETURNDATACOPY RETURNDATASIZE PUSH1 0x0 REVERT JUMPDEST POP POP PUSH1 0x1 PUSH1 0x1 PUSH1 0xA0 SHL SUB AND PUSH1 0x0 SWAP1 DUP2 MSTORE PUSH1 0x15 PUSH1 0x20 MSTORE PUSH1 0x40 SWAP1 KECCAK256 DUP1 SLOAD PUSH1 0xFF NOT AND SWAP1 SSTORE PUSH2 0xF73 PUSH1 0x1 PUSH1 0x0 SSTORE JUMP JUMPDEST PUSH2 0x11E6 PUSH2 0x2281 JUMP JUMPDEST DUP1 PUSH4 0xFFFFFFFF AND PUSH1 0x0 SUB PUSH2 0x122A JUMPI PUSH1 0x40 MLOAD PUSH3 0x461BCD PUSH1 0xE5 SHL DUP2 MSTORE PUSH1 0x20 PUSH1 0x4 DUP3 ADD MSTORE PUSH1 0xB PUSH1 0x24 DUP3 ADD MSTORE PUSH11 0x4D757374206265203E203 PUSH1 0xAC SHL PUSH1 0x44 DUP3 ADD MSTORE PUSH1 0x64 ADD PUSH2 0x9A9 JUMP JUMPDEST PUSH1 0xA DUP1 SLOAD PUSH4 0xFFFFFFFF NOT AND PUSH4 0xFFFFFFFF SWAP3 SWAP1 SWAP3 AND SWAP2 SWAP1 SWAP2 OR SWAP1 SSTORE JUMP JUMPDEST PUSH2 0x124E PUSH2 0x2281 JUMP JUMPDEST PUSH1 0x40 MLOAD PUSH4 0xA9059CBB PUSH1 0xE0 SHL DUP2 MSTORE CALLER PUSH1 0x4 DUP3 ADD MSTORE PUSH1 0x24 DUP2 ADD DUP3 SWAP1 MSTORE PUSH1 0x1 PUSH1 0x1 PUSH1 0xA0 SHL SUB DUP4 AND SWAP1 PUSH4 0xA9059CBB SWAP1 PUSH1 0x44 ADD PUSH1 0x20 PUSH1 0x40 MLOAD DUP1 DUP4 SUB DUP2 PUSH1 0x0 DUP8 GAS CALL ISZERO DUP1 ISZERO PUSH2 0x129B JUMPI RETURNDATASIZE PUSH1 0x0 DUP1 RETURNDATACOPY RETURNDATASIZE PUSH1 0x0 REVERT JUMPDEST POP POP POP POP PUSH1 0x40 MLOAD RETURNDATASIZE PUSH1 0x1F NOT PUSH1 0x1F DUP3 ADD AND DUP3 ADD DUP1 PUSH1 0x40 MSTORE POP DUP2 ADD SWAP1 PUSH2 0x12BF SWAP2 SWAP1 PUSH2 0x26BD JUMP JUMPDEST POP POP POP JUMP JUMPDEST CALLER EXTCODESIZE ISZERO PUSH2 0x12E3 JUMPI PUSH1 0x40 MLOAD PUSH3 0x461BCD PUSH1 0xE5 SHL DUP2 MSTORE PUSH1 0x4 ADD PUSH2 0x9A9 SWAP1 PUSH2 0x282F JUMP JUMPDEST CALLER ORIGIN EQ PUSH2 0x1302 JUMPI PUSH1 0x40 MLOAD PUSH3 0x461BCD PUSH1 0xE5 SHL DUP2 MSTORE PUSH1 0x4 ADD PUSH2 0x9A9 SWAP1 PUSH2 0x2866 JUMP JUMPDEST PUSH2 0x130A PUSH2 0x1FF8 JUMP JUMPDEST PUSH1 0x9 SLOAD PUSH1 0x0 SUB PUSH2 0x134C JUMPI PUSH1 0x40 MLOAD PUSH3 0x461BCD PUSH1 0xE5 SHL DUP2 MSTORE PUSH1 0x20 PUSH1 0x4 DUP3 ADD MSTORE PUSH1 0xD PUSH1 0x24 DUP3 ADD MSTORE PUSH13 0x141C9A58D9481B9BDD081CD95D PUSH1 0x9A SHL PUSH1 0x44 DUP3 ADD MSTORE PUSH1 0x64 ADD PUSH2 0x9A9 JUMP JUMPDEST DUP1 PUSH4 0xFFFFFFFF AND PUSH1 0x0 SUB PUSH2 0x13A2 JUMPI PUSH1 0x40 MLOAD PUSH3 0x461BCD PUSH1 0xE5 SHL DUP2 MSTORE PUSH1 0x20 PUSH1 0x4 DUP3 ADD MSTORE PUSH1 0x1A PUSH1 0x24 DUP3 ADD MSTORE PUSH32 0x456E7465722063686F73656E20616D6F756E7420746F20627579000000000000 PUSH1 0x44 DUP3 ADD MSTORE PUSH1 0x64 ADD PUSH2 0x9A9 JUMP JUMPDEST PUSH1 0xA SLOAD PUSH4 0xFFFFFFFF SWAP1 DUP2 AND SWAP1 DUP3 AND GT ISZERO PUSH2 0x13F1 JUMPI PUSH1 0x40 MLOAD PUSH3 0x461BCD PUSH1 0xE5 SHL DUP2 MSTORE PUSH1 0x20 PUSH1 0x4 DUP3 ADD MSTORE PUSH1 0x10 PUSH1 0x24 DUP3 ADD MSTORE PUSH16 0x546F6F206D616E79207469636B657473 PUSH1 0x80 SHL PUSH1 0x44 DUP3 ADD MSTORE PUSH1 0x64 ADD PUSH2 0x9A9 JUMP JUMPDEST PUSH1 0x1 PUSH1 0x11 SLOAD PUSH1 0xFF AND PUSH1 0x3 DUP2 GT ISZERO PUSH2 0x140A JUMPI PUSH2 0x140A PUSH2 0x24C0 JUMP JUMPDEST EQ PUSH2 0x1451 JUMPI PUSH1 0x40 MLOAD PUSH3 0x461BCD PUSH1 0xE5 SHL DUP2 MSTORE PUSH1 0x20 PUSH1 0x4 DUP3 ADD MSTORE PUSH1 0x17 PUSH1 0x24 DUP3 ADD MSTORE PUSH23 0x131BDD1D195C9E481A5CC81B9BDD081BDC195B881E595D PUSH1 0x4A SHL PUSH1 0x44 DUP3 ADD MSTORE PUSH1 0x64 ADD PUSH2 0x9A9 JUMP JUMPDEST PUSH1 0xC SLOAD TIMESTAMP LT PUSH2 0x1496 JUMPI PUSH1 0x40 MLOAD PUSH3 0x461BCD PUSH1 0xE5 SHL DUP2 MSTORE PUSH1 0x20 PUSH1 0x4 DUP3 ADD MSTORE PUSH1 0x11 PUSH1 0x24 DUP3 ADD MSTORE PUSH17 0x131BDD1D195C9E481A185CC8195B991959 PUSH1 0x7A SHL PUSH1 0x44 DUP3 ADD MSTORE PUSH1 0x64 ADD PUSH2 0x9A9 JUMP JUMPDEST PUSH1 0x0 PUSH2 0x14A3 DUP3 PUSH1 0x0 PUSH2 0x22DB JUMP JUMPDEST SWAP1 POP DUP1 CALLVALUE LT ISZERO PUSH2 0x14EA JUMPI PUSH1 0x40 MLOAD PUSH3 0x461BCD PUSH1 0xE5 SHL DUP2 MSTORE PUSH1 0x20 PUSH1 0x4 DUP3 ADD MSTORE PUSH1 0x12 PUSH1 0x24 DUP3 ADD MSTORE PUSH18 0x496E73756666696369656E742066756E6473 PUSH1 0x70 SHL PUSH1 0x44 DUP3 ADD MSTORE PUSH1 0x64 ADD PUSH2 0x9A9 JUMP JUMPDEST DUP1 PUSH1 0x8 PUSH1 0x0 DUP3 DUP3 SLOAD PUSH2 0x14FC SWAP2 SWAP1 PUSH2 0x289D JUMP JUMPDEST SWAP1 SWAP2 SSTORE POP PUSH1 0x0 SWAP1 POP JUMPDEST DUP3 PUSH4 0xFFFFFFFF AND DUP2 LT ISZERO PUSH2 0x158A JUMPI PUSH1 0x7 DUP1 SLOAD PUSH4 0xFFFFFFFF PUSH1 0x1 PUSH1 0xA0 SHL SWAP2 DUP3 SWAP1 DIV DUP2 AND PUSH1 0x0 SWAP1 DUP2 MSTORE PUSH1 0x12 PUSH1 0x20 MSTORE PUSH1 0x40 SWAP1 KECCAK256 DUP1 SLOAD PUSH1 0x1 PUSH1 0x1 PUSH1 0xA0 SHL SUB NOT AND CALLER OR SWAP1 SSTORE DUP3 SLOAD SWAP2 SWAP1 SWAP2 DIV AND SWAP1 PUSH1 0x14 PUSH2 0x1558 DUP4 PUSH2 0x28B0 JUMP JUMPDEST SWAP2 SWAP1 PUSH2 0x100 EXP DUP2 SLOAD DUP2 PUSH4 0xFFFFFFFF MUL NOT AND SWAP1 DUP4 PUSH4 0xFFFFFFFF AND MUL OR SWAP1 SSTORE POP POP DUP1 DUP1 PUSH2 0x1582 SWAP1 PUSH2 0x2731 JUMP JUMPDEST SWAP2 POP POP PUSH2 0x1505 JUMP JUMPDEST POP CALLER PUSH1 0x0 SWAP1 DUP2 MSTORE PUSH1 0x13 PUSH1 0x20 SWAP1 DUP2 MSTORE PUSH1 0x40 DUP1 DUP4 KECCAK256 PUSH1 0x1D SLOAD DUP5 MSTORE SWAP1 SWAP2 MSTORE DUP2 KECCAK256 DUP1 SLOAD DUP5 SWAP3 SWAP1 PUSH2 0x15BD SWAP1 DUP5 SWAP1 PUSH4 0xFFFFFFFF AND PUSH2 0x28D3 JUMP JUMPDEST SWAP3 POP PUSH2 0x100 EXP DUP2 SLOAD DUP2 PUSH4 0xFFFFFFFF MUL NOT AND SWAP1 DUP4 PUSH4 0xFFFFFFFF AND MUL OR SWAP1 SSTORE POP POP PUSH2 0x15E6 PUSH1 0x1 PUSH1 0x0 SSTORE JUMP JUMPDEST POP JUMP JUMPDEST PUSH2 0x15F1 PUSH2 0x2281 JUMP JUMPDEST PUSH1 0xD DUP1 SLOAD PUSH1 0x1 PUSH1 0x1 PUSH1 0xA0 SHL SUB NOT AND PUSH1 0x1 PUSH1 0x1 PUSH1 0xA0 SHL SUB SWAP3 SWAP1 SWAP3 AND SWAP2 SWAP1 SWAP2 OR SWAP1 SSTORE JUMP JUMPDEST PUSH1 0x7 SLOAD PUSH1 0x1 PUSH1 0x1 PUSH1 0xA0 SHL SUB AND CALLER EQ PUSH2 0x163D JUMPI PUSH1 0x40 MLOAD PUSH3 0x461BCD PUSH1 0xE5 SHL DUP2 MSTORE PUSH1 0x4 ADD PUSH2 0x9A9 SWAP1 PUSH2 0x2693 JUMP JUMPDEST PUSH1 0x1 PUSH1 0x11 SLOAD PUSH1 0xFF AND PUSH1 0x3 DUP2 GT ISZERO PUSH2 0x1656 JUMPI PUSH2 0x1656 PUSH2 0x24C0 JUMP JUMPDEST EQ PUSH2 0x1699 JUMPI PUSH1 0x40 MLOAD PUSH3 0x461BCD PUSH1 0xE5 SHL DUP2 MSTORE PUSH1 0x20 PUSH1 0x4 DUP3 ADD MSTORE PUSH1 0x13 PUSH1 0x24 DUP3 ADD MSTORE PUSH19 0x2637BA3A32B93C9034B9903737BA1037B832B7 PUSH1 0x69 SHL PUSH1 0x44 DUP3 ADD MSTORE PUSH1 0x64 ADD PUSH2 0x9A9 JUMP JUMPDEST PUSH1 0xC SLOAD TIMESTAMP GT PUSH2 0x16DF JUMPI PUSH1 0x40 MLOAD PUSH3 0x461BCD PUSH1 0xE5 SHL DUP2 MSTORE PUSH1 0x20 PUSH1 0x4 DUP3 ADD MSTORE PUSH1 0x12 PUSH1 0x24 DUP3 ADD MSTORE PUSH18 0x4C6F7474657279206973206F6E676F696E67 PUSH1 0x70 SHL PUSH1 0x44 DUP3 ADD MSTORE PUSH1 0x64 ADD PUSH2 0x9A9 JUMP JUMPDEST NUMBER PUSH1 0x1E DUP2 SWAP1 SSTORE POP PUSH1 0x0 PUSH32 0x0 PUSH1 0x1 PUSH1 0x1 PUSH1 0xA0 SHL SUB AND PUSH4 0x699B328A CALLVALUE PUSH1 0x40 MLOAD DUP3 PUSH4 0xFFFFFFFF AND PUSH1 0xE0 SHL DUP2 MSTORE PUSH1 0x4 ADD PUSH1 0x20 PUSH1 0x40 MLOAD DUP1 DUP4 SUB DUP2 DUP6 DUP9 GAS CALL ISZERO DUP1 ISZERO PUSH2 0x1748 JUMPI RETURNDATASIZE PUSH1 0x0 DUP1 RETURNDATACOPY RETURNDATASIZE PUSH1 0x0 REVERT JUMPDEST POP POP POP POP POP PUSH1 0x40 MLOAD RETURNDATASIZE PUSH1 0x1F NOT PUSH1 0x1F DUP3 ADD AND DUP3 ADD DUP1 PUSH1 0x40 MSTORE POP DUP2 ADD SWAP1 PUSH2 0x176D SWAP2 SWAP1 PUSH2 0x28F0 JUMP JUMPDEST SWAP1 POP CALLVALUE DUP2 LT ISZERO PUSH2 0x17AF JUMPI CALLER PUSH2 0x8FC PUSH2 0x1785 DUP4 CALLVALUE PUSH2 0x2774 JUMP JUMPDEST PUSH1 0x40 MLOAD DUP2 ISZERO SWAP1 SWAP3 MUL SWAP2 PUSH1 0x0 DUP2 DUP2 DUP2 DUP6 DUP9 DUP9 CALL SWAP4 POP POP POP POP ISZERO DUP1 ISZERO PUSH2 0x17AD JUMPI RETURNDATASIZE PUSH1 0x0 DUP1 RETURNDATACOPY RETURNDATASIZE PUSH1 0x0 REVERT JUMPDEST POP JUMPDEST POP PUSH1 0x11 DUP1 SLOAD PUSH1 0xFF NOT AND PUSH1 0x2 OR SWAP1 SSTORE JUMP JUMPDEST PUSH2 0x17C7 PUSH2 0x2281 JUMP JUMPDEST PUSH2 0xF73 PUSH1 0x0 PUSH2 0x23C2 JUMP JUMPDEST CALLER EXTCODESIZE ISZERO PUSH2 0x17F0 JUMPI PUSH1 0x40 MLOAD PUSH3 0x461BCD PUSH1 0xE5 SHL DUP2 MSTORE PUSH1 0x4 ADD PUSH2 0x9A9 SWAP1 PUSH2 0x282F JUMP JUMPDEST CALLER ORIGIN EQ PUSH2 0x180F JUMPI PUSH1 0x40 MLOAD PUSH3 0x461BCD PUSH1 0xE5 SHL DUP2 MSTORE PUSH1 0x4 ADD PUSH2 0x9A9 SWAP1 PUSH2 0x2866 JUMP JUMPDEST PUSH2 0x1817 PUSH2 0x1FF8 JUMP JUMPDEST PUSH1 0x9 SLOAD PUSH1 0x0 SUB PUSH2 0x1859 JUMPI PUSH1 0x40 MLOAD PUSH3 0x461BCD PUSH1 0xE5 SHL DUP2 MSTORE PUSH1 0x20 PUSH1 0x4 DUP3 ADD MSTORE PUSH1 0xD PUSH1 0x24 DUP3 ADD MSTORE PUSH13 0x141C9A58D9481B9BDD081CD95D PUSH1 0x9A SHL PUSH1 0x44 DUP3 ADD MSTORE PUSH1 0x64 ADD PUSH2 0x9A9 JUMP JUMPDEST DUP1 PUSH4 0xFFFFFFFF AND PUSH1 0x0 SUB PUSH2 0x18AF JUMPI PUSH1 0x40 MLOAD PUSH3 0x461BCD PUSH1 0xE5 SHL DUP2 MSTORE PUSH1 0x20 PUSH1 0x4 DUP3 ADD MSTORE PUSH1 0x1A PUSH1 0x24 DUP3 ADD MSTORE PUSH32 0x456E7465722063686F73656E20616D6F756E7420746F20627579000000000000 PUSH1 0x44 DUP3 ADD MSTORE PUSH1 0x64 ADD PUSH2 0x9A9 JUMP JUMPDEST PUSH1 0xA SLOAD PUSH4 0xFFFFFFFF SWAP1 DUP2 AND SWAP1 DUP3 AND GT ISZERO PUSH2 0x18FE JUMPI PUSH1 0x40 MLOAD PUSH3 0x461BCD PUSH1 0xE5 SHL DUP2 MSTORE PUSH1 0x20 PUSH1 0x4 DUP3 ADD MSTORE PUSH1 0x10 PUSH1 0x24 DUP3 ADD MSTORE PUSH16 0x546F6F206D616E79207469636B657473 PUSH1 0x80 SHL PUSH1 0x44 DUP3 ADD MSTORE PUSH1 0x64 ADD PUSH2 0x9A9 JUMP JUMPDEST PUSH1 0x1 PUSH1 0x11 SLOAD PUSH1 0xFF AND PUSH1 0x3 DUP2 GT ISZERO PUSH2 0x1917 JUMPI PUSH2 0x1917 PUSH2 0x24C0 JUMP JUMPDEST EQ PUSH2 0x195E JUMPI PUSH1 0x40 MLOAD PUSH3 0x461BCD PUSH1 0xE5 SHL DUP2 MSTORE PUSH1 0x20 PUSH1 0x4 DUP3 ADD MSTORE PUSH1 0x17 PUSH1 0x24 DUP3 ADD MSTORE PUSH23 0x131BDD1D195C9E481A5CC81B9BDD081BDC195B881E595D PUSH1 0x4A SHL PUSH1 0x44 DUP3 ADD MSTORE PUSH1 0x64 ADD PUSH2 0x9A9 JUMP JUMPDEST PUSH1 0xC SLOAD TIMESTAMP LT PUSH2 0x19A3 JUMPI PUSH1 0x40 MLOAD PUSH3 0x461BCD PUSH1 0xE5 SHL DUP2 MSTORE PUSH1 0x20 PUSH1 0x4 DUP3 ADD MSTORE PUSH1 0x11 PUSH1 0x24 DUP3 ADD MSTORE PUSH17 0x131BDD1D195C9E481A185CC8195B991959 PUSH1 0x7A SHL PUSH1 0x44 DUP3 ADD MSTORE PUSH1 0x64 ADD PUSH2 0x9A9 JUMP JUMPDEST PUSH1 0x0 PUSH1 0xA PUSH1 0x4 SWAP1 SLOAD SWAP1 PUSH2 0x100 EXP SWAP1 DIV PUSH1 0x1 PUSH1 0x1 PUSH1 0xA0 SHL SUB AND PUSH1 0x1 PUSH1 0x1 PUSH1 0xA0 SHL SUB AND PUSH4 0x313CE567 PUSH1 0x40 MLOAD DUP2 PUSH4 0xFFFFFFFF AND PUSH1 0xE0 SHL DUP2 MSTORE PUSH1 0x4 ADD PUSH1 0x20 PUSH1 0x40 MLOAD DUP1 DUP4 SUB DUP2 DUP7 GAS STATICCALL ISZERO DUP1 ISZERO PUSH2 0x19F8 JUMPI RETURNDATASIZE PUSH1 0x0 DUP1 RETURNDATACOPY RETURNDATASIZE PUSH1 0x0 REVERT JUMPDEST POP POP POP POP PUSH1 0x40 MLOAD RETURNDATASIZE PUSH1 0x1F NOT PUSH1 0x1F DUP3 ADD AND DUP3 ADD DUP1 PUSH1 0x40 MSTORE POP DUP2 ADD SWAP1 PUSH2 0x1A1C SWAP2 SWAP1 PUSH2 0x2909 JUMP JUMPDEST SWAP1 POP PUSH1 0x0 PUSH4 0xFFFFFFFF DUP4 AND PUSH2 0x1A32 DUP4 PUSH1 0xA PUSH2 0x2A0A JUMP JUMPDEST PUSH1 0xB SLOAD PUSH2 0x1A3F SWAP2 SWAP1 PUSH2 0x27C1 JUMP JUMPDEST PUSH2 0x1A49 SWAP2 SWAP1 PUSH2 0x27C1 JUMP JUMPDEST PUSH1 0xA SLOAD PUSH1 0x40 MLOAD PUSH4 0x23B872DD PUSH1 0xE0 SHL DUP2 MSTORE CALLER PUSH1 0x4 DUP3 ADD MSTORE ADDRESS PUSH1 0x24 DUP3 ADD MSTORE PUSH1 0x44 DUP2 ADD DUP4 SWAP1 MSTORE SWAP2 SWAP3 POP PUSH5 0x100000000 SWAP1 DIV PUSH1 0x1 PUSH1 0x1 PUSH1 0xA0 SHL SUB AND SWAP1 PUSH4 0x23B872DD SWAP1 PUSH1 0x64 ADD PUSH1 0x20 PUSH1 0x40 MLOAD DUP1 DUP4 SUB DUP2 PUSH1 0x0 DUP8 GAS CALL ISZERO DUP1 ISZERO PUSH2 0x1AA9 JUMPI RETURNDATASIZE PUSH1 0x0 DUP1 RETURNDATACOPY RETURNDATASIZE PUSH1 0x0 REVERT JUMPDEST POP POP POP POP PUSH1 0x40 MLOAD RETURNDATASIZE PUSH1 0x1F NOT PUSH1 0x1F DUP3 ADD AND DUP3 ADD DUP1 PUSH1 0x40 MSTORE POP DUP2 ADD SWAP1 PUSH2 0x1ACD SWAP2 SWAP1 PUSH2 0x26BD JUMP JUMPDEST POP PUSH1 0xA SLOAD PUSH1 0x40 MLOAD PUSH4 0x852CD8D PUSH1 0xE3 SHL DUP2 MSTORE PUSH1 0x4 DUP2 ADD DUP4 SWAP1 MSTORE PUSH5 0x100000000 SWAP1 SWAP2 DIV PUSH1 0x1 PUSH1 0x1 PUSH1 0xA0 SHL SUB AND SWAP1 PUSH4 0x42966C68 SWAP1 PUSH1 0x24 ADD PUSH1 0x0 PUSH1 0x40 MLOAD DUP1 DUP4 SUB DUP2 PUSH1 0x0 DUP8 DUP1 EXTCODESIZE ISZERO DUP1 ISZERO PUSH2 0x1B1B JUMPI PUSH1 0x0 DUP1 REVERT JUMPDEST POP GAS CALL ISZERO DUP1 ISZERO PUSH2 0x1B2F JUMPI RETURNDATASIZE PUSH1 0x0 DUP1 RETURNDATACOPY RETURNDATASIZE PUSH1 0x0 REVERT JUMPDEST POP POP POP POP PUSH1 0x0 PUSH2 0x1B40 DUP5 PUSH1 0x1 PUSH2 0x22DB JUMP JUMPDEST SWAP1 POP DUP1 CALLVALUE LT ISZERO PUSH2 0x1B87 JUMPI PUSH1 0x40 MLOAD PUSH3 0x461BCD PUSH1 0xE5 SHL DUP2 MSTORE PUSH1 0x20 PUSH1 0x4 DUP3 ADD MSTORE PUSH1 0x12 PUSH1 0x24 DUP3 ADD MSTORE PUSH18 0x496E73756666696369656E742066756E6473 PUSH1 0x70 SHL PUSH1 0x44 DUP3 ADD MSTORE PUSH1 0x64 ADD PUSH2 0x9A9 JUMP JUMPDEST DUP1 PUSH1 0x8 PUSH1 0x0 DUP3 DUP3 SLOAD PUSH2 0x1B99 SWAP2 SWAP1 PUSH2 0x289D JUMP JUMPDEST SWAP1 SWAP2 SSTORE POP PUSH1 0x0 SWAP1 POP JUMPDEST DUP5 PUSH4 0xFFFFFFFF AND DUP2 LT ISZERO PUSH2 0x1C27 JUMPI PUSH1 0x7 DUP1 SLOAD PUSH4 0xFFFFFFFF PUSH1 0x1 PUSH1 0xA0 SHL SWAP2 DUP3 SWAP1 DIV DUP2 AND PUSH1 0x0 SWAP1 DUP2 MSTORE PUSH1 0x12 PUSH1 0x20 MSTORE PUSH1 0x40 SWAP1 KECCAK256 DUP1 SLOAD PUSH1 0x1 PUSH1 0x1 PUSH1 0xA0 SHL SUB NOT AND CALLER OR SWAP1 SSTORE DUP3 SLOAD SWAP2 SWAP1 SWAP2 DIV AND SWAP1 PUSH1 0x14 PUSH2 0x1BF5 DUP4 PUSH2 0x28B0 JUMP JUMPDEST SWAP2 SWAP1 PUSH2 0x100 EXP DUP2 SLOAD DUP2 PUSH4 0xFFFFFFFF MUL NOT AND SWAP1 DUP4 PUSH4 0xFFFFFFFF AND MUL OR SWAP1 SSTORE POP POP DUP1 DUP1 PUSH2 0x1C1F SWAP1 PUSH2 0x2731 JUMP JUMPDEST SWAP2 POP POP PUSH2 0x1BA2 JUMP JUMPDEST POP CALLER PUSH1 0x0 SWAP1 DUP2 MSTORE PUSH1 0x13 PUSH1 0x20 SWAP1 DUP2 MSTORE PUSH1 0x40 DUP1 DUP4 KECCAK256 PUSH1 0x1D SLOAD DUP5 MSTORE SWAP1 SWAP2 MSTORE DUP2 KECCAK256 DUP1 SLOAD DUP7 SWAP3 SWAP1 PUSH2 0x1C5A SWAP1 DUP5 SWAP1 PUSH4 0xFFFFFFFF AND PUSH2 0x28D3 JUMP JUMPDEST SWAP3 POP PUSH2 0x100 EXP DUP2 SLOAD DUP2 PUSH4 0xFFFFFFFF MUL NOT AND SWAP1 DUP4 PUSH4 0xFFFFFFFF AND MUL OR SWAP1 SSTORE POP POP POP POP PUSH2 0x15E6 PUSH1 0x1 PUSH1 0x0 SSTORE JUMP JUMPDEST PUSH2 0x1C8D PUSH2 0x2432 JUMP JUMPDEST PUSH2 0x1C95 PUSH2 0x2432 JUMP JUMPDEST PUSH1 0x0 JUMPDEST PUSH1 0x5 DUP2 PUSH1 0xFF AND LT ISZERO PUSH2 0x1D3B JUMPI PUSH1 0x1C SLOAD PUSH1 0x0 SWAP1 PUSH1 0x5 SWAP1 PUSH1 0x1 SWAP1 DUP5 SWAP1 PUSH2 0x1CBF SWAP1 PUSH1 0xFF AND DUP5 PUSH2 0x27D8 JUMP JUMPDEST PUSH2 0x1CC9 SWAP2 SWAP1 PUSH2 0x2A19 JUMP JUMPDEST PUSH2 0x1CD3 SWAP2 SWAP1 PUSH2 0x2A19 JUMP JUMPDEST PUSH2 0x1CDD SWAP2 SWAP1 PUSH2 0x2A32 JUMP JUMPDEST SWAP1 POP PUSH1 0x17 DUP2 PUSH1 0xFF AND PUSH1 0x5 DUP2 LT PUSH2 0x1CF5 JUMPI PUSH2 0x1CF5 PUSH2 0x2787 JUMP JUMPDEST ADD SLOAD PUSH1 0x1 PUSH1 0x1 PUSH1 0xA0 SHL SUB AND DUP4 PUSH1 0xFF DUP5 AND PUSH1 0x5 DUP2 LT PUSH2 0x1D15 JUMPI PUSH2 0x1D15 PUSH2 0x2787 JUMP JUMPDEST PUSH1 0x1 PUSH1 0x1 PUSH1 0xA0 SHL SUB SWAP1 SWAP3 AND PUSH1 0x20 SWAP3 SWAP1 SWAP3 MUL ADD MSTORE POP DUP1 PUSH2 0x1D33 DUP2 PUSH2 0x26F5 JUMP JUMPDEST SWAP2 POP POP PUSH2 0x1C98 JUMP JUMPDEST POP SWAP2 SWAP1 POP JUMP JUMPDEST PUSH1 0x7 SLOAD PUSH1 0x1 PUSH1 0x1 PUSH1 0xA0 SHL SUB AND CALLER EQ PUSH2 0x1D6B JUMPI PUSH1 0x40 MLOAD PUSH3 0x461BCD PUSH1 0xE5 SHL DUP2 MSTORE PUSH1 0x4 ADD PUSH2 0x9A9 SWAP1 PUSH2 0x2693 JUMP JUMPDEST PUSH1 0x1 PUSH1 0x11 SLOAD PUSH1 0xFF AND PUSH1 0x3 DUP2 GT ISZERO PUSH2 0x1D84 JUMPI PUSH2 0x1D84 PUSH2 0x24C0 JUMP JUMPDEST EQ PUSH2 0x1DC7 JUMPI PUSH1 0x40 MLOAD PUSH3 0x461BCD PUSH1 0xE5 SHL DUP2 MSTORE PUSH1 0x20 PUSH1 0x4 DUP3 ADD MSTORE PUSH1 0x13 PUSH1 0x24 DUP3 ADD MSTORE PUSH19 0x2637BA3A32B93C9034B9903737BA1037B832B7 PUSH1 0x69 SHL PUSH1 0x44 DUP3 ADD MSTORE PUSH1 0x64 ADD PUSH2 0x9A9 JUMP JUMPDEST CALLVALUE PUSH1 0x8 PUSH1 0x0 DUP3 DUP3 SLOAD PUSH2 0x1DD9 SWAP2 SWAP1 PUSH2 0x289D JUMP JUMPDEST SWAP1 SWAP2 SSTORE POP POP JUMP JUMPDEST PUSH1 0xFF DUP2 AND PUSH1 0x0 SWAP1 DUP2 MSTORE PUSH1 0x16 PUSH1 0x20 SWAP1 DUP2 MSTORE PUSH1 0x40 SWAP2 DUP3 SWAP1 KECCAK256 DUP1 SLOAD DUP4 MLOAD DUP2 DUP5 MUL DUP2 ADD DUP5 ADD SWAP1 SWAP5 MSTORE DUP1 DUP5 MSTORE PUSH1 0x60 SWAP4 SWAP3 DUP4 ADD DUP3 DUP3 DUP1 ISZERO PUSH2 0x1E44 JUMPI PUSH1 0x20 MUL DUP3 ADD SWAP2 SWAP1 PUSH1 0x0 MSTORE PUSH1 0x20 PUSH1 0x0 KECCAK256 SWAP1 JUMPDEST DUP2 SLOAD PUSH1 0x1 PUSH1 0x1 PUSH1 0xA0 SHL SUB AND DUP2 MSTORE PUSH1 0x1 SWAP1 SWAP2 ADD SWAP1 PUSH1 0x20 ADD DUP1 DUP4 GT PUSH2 0x1E26 JUMPI JUMPDEST POP POP POP POP POP SWAP1 POP SWAP2 SWAP1 POP JUMP JUMPDEST PUSH1 0x7 SLOAD PUSH1 0x1 PUSH1 0x1 PUSH1 0xA0 SHL SUB AND CALLER EQ PUSH2 0x1E7A JUMPI PUSH1 0x40 MLOAD PUSH3 0x461BCD PUSH1 0xE5 SHL DUP2 MSTORE PUSH1 0x4 ADD PUSH2 0x9A9 SWAP1 PUSH2 0x2693 JUMP JUMPDEST PUSH1 0x0 PUSH1 0x11 SLOAD PUSH1 0xFF AND PUSH1 0x3 DUP2 GT ISZERO PUSH2 0x1E93 JUMPI PUSH2 0x1E93 PUSH2 0x24C0 JUMP JUMPDEST EQ PUSH2 0x1EEA JUMPI PUSH1 0x40 MLOAD PUSH3 0x461BCD PUSH1 0xE5 SHL DUP2 MSTORE PUSH1 0x20 PUSH1 0x4 DUP3 ADD MSTORE PUSH1 0x21 PUSH1 0x24 DUP3 ADD MSTORE PUSH32 0x4C617374204C6F747465727920686173206E6F742066696E6973686564207965 PUSH1 0x44 DUP3 ADD MSTORE PUSH1 0x1D PUSH1 0xFA SHL PUSH1 0x64 DUP3 ADD MSTORE PUSH1 0x84 ADD PUSH2 0x9A9 JUMP JUMPDEST PUSH1 0x11 DUP1 SLOAD PUSH1 0xFF NOT AND PUSH1 0x1 OR SWAP1 SSTORE PUSH1 0x0 PUSH1 0x8 DUP2 SWAP1 SSTORE PUSH1 0x7 DUP1 SLOAD PUSH4 0xFFFFFFFF PUSH1 0xA0 SHL NOT AND SWAP1 SSTORE PUSH1 0x1D DUP1 SLOAD SWAP2 PUSH2 0x1F1C DUP4 PUSH2 0x2731 JUMP JUMPDEST SWAP1 SWAP2 SSTORE POP PUSH2 0x1F2C SWAP1 POP DUP2 TIMESTAMP PUSH2 0x289D JUMP JUMPDEST PUSH1 0xC SSTORE POP JUMP JUMPDEST PUSH2 0x1F3A PUSH2 0x2281 JUMP JUMPDEST PUSH1 0x1 PUSH1 0x1 PUSH1 0xA0 SHL SUB DUP2 AND PUSH2 0x1F9F JUMPI PUSH1 0x40 MLOAD PUSH3 0x461BCD PUSH1 0xE5 SHL DUP2 MSTORE PUSH1 0x20 PUSH1 0x4 DUP3 ADD MSTORE PUSH1 0x26 PUSH1 0x24 DUP3 ADD MSTORE PUSH32 0x4F776E61626C653A206E6577206F776E657220697320746865207A65726F2061 PUSH1 0x44 DUP3 ADD MSTORE PUSH6 0x646472657373 PUSH1 0xD0 SHL PUSH1 0x64 DUP3 ADD MSTORE PUSH1 0x84 ADD PUSH2 0x9A9 JUMP JUMPDEST PUSH2 0x15E6 DUP2 PUSH2 0x23C2 JUMP JUMPDEST PUSH2 0x1FB0 PUSH2 0x2281 JUMP JUMPDEST PUSH1 0xB SSTORE JUMP JUMPDEST PUSH2 0x1FBD PUSH2 0x2281 JUMP JUMPDEST PUSH1 0xA DUP1 SLOAD PUSH1 0x1 PUSH1 0x1 PUSH1 0xA0 SHL SUB SWAP1 SWAP3 AND PUSH5 0x100000000 MUL PUSH5 0x100000000 PUSH1 0x1 PUSH1 0xC0 SHL SUB NOT SWAP1 SWAP3 AND SWAP2 SWAP1 SWAP2 OR SWAP1 SSTORE JUMP JUMPDEST PUSH2 0x1FF3 PUSH2 0x2281 JUMP JUMPDEST PUSH1 0xE SSTORE JUMP JUMPDEST PUSH1 0x2 PUSH1 0x0 SLOAD SUB PUSH2 0x204A JUMPI PUSH1 0x40 MLOAD PUSH3 0x461BCD PUSH1 0xE5 SHL DUP2 MSTORE PUSH1 0x20 PUSH1 0x4 DUP3 ADD MSTORE PUSH1 0x1F PUSH1 0x24 DUP3 ADD MSTORE PUSH32 0x5265656E7472616E637947756172643A207265656E7472616E742063616C6C00 PUSH1 0x44 DUP3 ADD MSTORE PUSH1 0x64 ADD PUSH2 0x9A9 JUMP JUMPDEST PUSH1 0x2 PUSH1 0x0 SSTORE JUMP JUMPDEST PUSH4 0xFFFFFFFF DUP4 AND PUSH1 0x0 SWAP1 DUP2 MSTORE PUSH1 0x12 PUSH1 0x20 MSTORE PUSH1 0x40 SWAP1 KECCAK256 SLOAD PUSH1 0x1 PUSH1 0x1 PUSH1 0xA0 SHL SUB AND DUP1 PUSH2 0x20AE JUMPI PUSH1 0x40 MLOAD PUSH3 0x461BCD PUSH1 0xE5 SHL DUP2 MSTORE PUSH1 0x20 PUSH1 0x4 DUP3 ADD MSTORE PUSH1 0xE PUSH1 0x24 DUP3 ADD MSTORE PUSH14 0x125B9D985B1A5908151A58DAD95D PUSH1 0x92 SHL PUSH1 0x44 DUP3 ADD MSTORE PUSH1 0x64 ADD PUSH2 0x9A9 JUMP JUMPDEST PUSH1 0x1 PUSH1 0x1 PUSH1 0xA0 SHL SUB DUP2 AND PUSH1 0x0 SWAP1 DUP2 MSTORE PUSH1 0x14 PUSH1 0x20 MSTORE PUSH1 0x40 DUP2 KECCAK256 DUP1 SLOAD DUP6 SWAP3 SWAP1 PUSH2 0x20D6 SWAP1 DUP5 SWAP1 PUSH2 0x289D JUMP JUMPDEST SWAP1 SWAP2 SSTORE POP POP PUSH1 0xFF DUP3 AND PUSH1 0x0 SWAP1 DUP2 MSTORE PUSH1 0x16 PUSH1 0x20 SWAP1 DUP2 MSTORE PUSH1 0x40 DUP3 KECCAK256 DUP1 SLOAD PUSH1 0x1 DUP2 ADD DUP3 SSTORE SWAP1 DUP4 MSTORE SWAP2 DUP2 SWAP1 KECCAK256 SWAP1 SWAP2 ADD DUP1 SLOAD PUSH1 0x1 PUSH1 0x1 PUSH1 0xA0 SHL SUB NOT AND PUSH1 0x1 PUSH1 0x1 PUSH1 0xA0 SHL SUB DUP5 AND OR SWAP1 SSTORE SLOAD DUP4 GT ISZERO PUSH2 0x213E JUMPI PUSH1 0x1F DUP1 SLOAD PUSH1 0x1 PUSH1 0x1 PUSH1 0xA0 SHL SUB NOT AND PUSH1 0x1 PUSH1 0x1 PUSH1 0xA0 SHL SUB DUP4 AND OR SWAP1 SSTORE JUMPDEST PUSH1 0x1 PUSH1 0x1 PUSH1 0xA0 SHL SUB DUP2 AND PUSH1 0x0 SWAP1 DUP2 MSTORE PUSH1 0x15 PUSH1 0x20 MSTORE PUSH1 0x40 SWAP1 KECCAK256 SLOAD PUSH1 0xFF DUP1 DUP5 AND SWAP2 AND GT DUP1 PUSH2 0x2183 JUMPI POP PUSH1 0x1 PUSH1 0x1 PUSH1 0xA0 SHL SUB DUP2 AND PUSH1 0x0 SWAP1 DUP2 MSTORE PUSH1 0x15 PUSH1 0x20 MSTORE PUSH1 0x40 SWAP1 KECCAK256 SLOAD PUSH1 0xFF AND ISZERO JUMPDEST ISZERO PUSH2 0x21AE JUMPI PUSH1 0x1 PUSH1 0x1 PUSH1 0xA0 SHL SUB DUP2 AND PUSH1 0x0 SWAP1 DUP2 MSTORE PUSH1 0x15 PUSH1 0x20 MSTORE PUSH1 0x40 SWAP1 KECCAK256 DUP1 SLOAD PUSH1 0xFF NOT AND PUSH1 0xFF DUP5 AND OR SWAP1 SSTORE JUMPDEST POP POP POP POP JUMP JUMPDEST PUSH4 0xFFFFFFFF DUP2 AND PUSH1 0x0 SWAP1 DUP2 MSTORE PUSH1 0x12 PUSH1 0x20 MSTORE PUSH1 0x40 SWAP1 KECCAK256 SLOAD PUSH1 0x1 PUSH1 0x1 PUSH1 0xA0 SHL SUB AND DUP1 PUSH2 0x2211 JUMPI PUSH1 0x40 MLOAD PUSH3 0x461BCD PUSH1 0xE5 SHL DUP2 MSTORE PUSH1 0x20 PUSH1 0x4 DUP3 ADD MSTORE PUSH1 0xE PUSH1 0x24 DUP3 ADD MSTORE PUSH14 0x125B9D985B1A5908151A58DAD95D PUSH1 0x92 SHL PUSH1 0x44 DUP3 ADD MSTORE PUSH1 0x64 ADD PUSH2 0x9A9 JUMP JUMPDEST PUSH1 0x1C SLOAD DUP2 SWAP1 PUSH1 0x17 SWAP1 PUSH1 0xFF AND PUSH1 0x5 DUP2 LT PUSH2 0x222C JUMPI PUSH2 0x222C PUSH2 0x2787 JUMP JUMPDEST ADD DUP1 SLOAD PUSH1 0x1 PUSH1 0x1 PUSH1 0xA0 SHL SUB NOT AND PUSH1 0x1 PUSH1 0x1 PUSH1 0xA0 SHL SUB SWAP3 SWAP1 SWAP3 AND SWAP2 SWAP1 SWAP2 OR SWAP1 SSTORE PUSH1 0x1C SLOAD PUSH1 0x5 SWAP1 PUSH2 0x225F SWAP1 PUSH1 0xFF AND PUSH1 0x1 PUSH2 0x27D8 JUMP JUMPDEST PUSH2 0x2269 SWAP2 SWAP1 PUSH2 0x2A32 JUMP JUMPDEST PUSH1 0x1C DUP1 SLOAD PUSH1 0xFF NOT AND PUSH1 0xFF SWAP3 SWAP1 SWAP3 AND SWAP2 SWAP1 SWAP2 OR SWAP1 SSTORE POP POP JUMP JUMPDEST PUSH1 0x1 SLOAD PUSH1 0x1 PUSH1 0x1 PUSH1 0xA0 SHL SUB AND CALLER EQ PUSH2 0xF73 JUMPI PUSH1 0x40 MLOAD PUSH3 0x461BCD PUSH1 0xE5 SHL DUP2 MSTORE PUSH1 0x20 PUSH1 0x4 DUP3 ADD DUP2 SWAP1 MSTORE PUSH1 0x24 DUP3 ADD MSTORE PUSH32 0x4F776E61626C653A2063616C6C6572206973206E6F7420746865206F776E6572 PUSH1 0x44 DUP3 ADD MSTORE PUSH1 0x64 ADD PUSH2 0x9A9 JUMP JUMPDEST PUSH1 0x0 DUP1 PUSH1 0x9 SLOAD DUP5 PUSH4 0xFFFFFFFF AND PUSH2 0x22F2 SWAP2 SWAP1 PUSH2 0x27C1 JUMP JUMPDEST PUSH1 0xD SLOAD PUSH1 0x40 MLOAD PUSH4 0x70A08231 PUSH1 0xE0 SHL DUP2 MSTORE CALLER PUSH1 0x4 DUP3 ADD MSTORE SWAP2 SWAP3 POP PUSH1 0x0 SWAP2 PUSH1 0x1 PUSH1 0x1 PUSH1 0xA0 SHL SUB SWAP1 SWAP2 AND SWAP1 PUSH4 0x70A08231 SWAP1 PUSH1 0x24 ADD PUSH1 0x20 PUSH1 0x40 MLOAD DUP1 DUP4 SUB DUP2 DUP7 GAS STATICCALL ISZERO DUP1 ISZERO PUSH2 0x2340 JUMPI RETURNDATASIZE PUSH1 0x0 DUP1 RETURNDATACOPY RETURNDATASIZE PUSH1 0x0 REVERT JUMPDEST POP POP POP POP PUSH1 0x40 MLOAD RETURNDATASIZE PUSH1 0x1F NOT PUSH1 0x1F DUP3 ADD AND DUP3 ADD DUP1 PUSH1 0x40 MSTORE POP DUP2 ADD SWAP1 PUSH2 0x2364 SWAP2 SWAP1 PUSH2 0x28F0 JUMP JUMPDEST SWAP1 POP PUSH1 0x0 DUP5 ISZERO PUSH2 0x2389 JUMPI PUSH1 0xA SLOAD PUSH2 0x2386 SWAP1 PUSH1 0x1 PUSH1 0xC0 SHL SWAP1 DIV PUSH2 0xFFFF AND DUP3 PUSH2 0x289D JUMP JUMPDEST SWAP1 POP JUMPDEST DUP2 ISZERO PUSH2 0x239F JUMPI PUSH1 0xE SLOAD PUSH2 0x239C SWAP1 DUP3 PUSH2 0x289D JUMP JUMPDEST SWAP1 POP JUMPDEST PUSH2 0x3E8 PUSH2 0x23AC DUP3 DUP6 PUSH2 0x27C1 JUMP JUMPDEST PUSH2 0x23B6 SWAP2 SWAP1 PUSH2 0x2760 JUMP JUMPDEST SWAP4 POP POP POP POP JUMPDEST SWAP3 SWAP2 POP POP JUMP JUMPDEST PUSH1 0x1 DUP1 SLOAD PUSH1 0x1 PUSH1 0x1 PUSH1 0xA0 SHL SUB DUP4 DUP2 AND PUSH1 0x1 PUSH1 0x1 PUSH1 0xA0 SHL SUB NOT DUP4 AND DUP2 OR SWAP1 SWAP4 SSTORE PUSH1 0x40 MLOAD SWAP2 AND SWAP2 SWAP1 DUP3 SWAP1 PUSH32 0x8BE0079C531659141344CD1FD0A4F28419497F9722A3DAAFE3B4186F6B6457E0 SWAP1 PUSH1 0x0 SWAP1 LOG3 POP POP JUMP JUMPDEST POP DUP1 SLOAD PUSH1 0x0 DUP3 SSTORE SWAP1 PUSH1 0x0 MSTORE PUSH1 0x20 PUSH1 0x0 KECCAK256 SWAP1 DUP2 ADD SWAP1 PUSH2 0x15E6 SWAP2 SWAP1 PUSH2 0x2450 JUMP JUMPDEST PUSH1 0x40 MLOAD DUP1 PUSH1 0xA0 ADD PUSH1 0x40 MSTORE DUP1 PUSH1 0x5 SWAP1 PUSH1 0x20 DUP3 MUL DUP1 CALLDATASIZE DUP4 CALLDATACOPY POP SWAP2 SWAP3 SWAP2 POP POP JUMP JUMPDEST JUMPDEST DUP1 DUP3 GT ISZERO PUSH2 0x2465 JUMPI PUSH1 0x0 DUP2 SSTORE PUSH1 0x1 ADD PUSH2 0x2451 JUMP JUMPDEST POP SWAP1 JUMP JUMPDEST PUSH1 0x0 PUSH1 0x20 DUP3 DUP5 SUB SLT ISZERO PUSH2 0x247B JUMPI PUSH1 0x0 DUP1 REVERT JUMPDEST POP CALLDATALOAD SWAP2 SWAP1 POP JUMP JUMPDEST DUP1 CALLDATALOAD PUSH1 0x1 PUSH1 0x1 PUSH1 0xA0 SHL SUB DUP2 AND DUP2 EQ PUSH2 0x2499 JUMPI PUSH1 0x0 DUP1 REVERT JUMPDEST SWAP2 SWAP1 POP JUMP JUMPDEST PUSH1 0x0 PUSH1 0x20 DUP3 DUP5 SUB SLT ISZERO PUSH2 0x24B0 JUMPI PUSH1 0x0 DUP1 REVERT JUMPDEST PUSH2 0x24B9 DUP3 PUSH2 0x2482 JUMP JUMPDEST SWAP4 SWAP3 POP POP POP JUMP JUMPDEST PUSH4 0x4E487B71 PUSH1 0xE0 SHL PUSH1 0x0 MSTORE PUSH1 0x21 PUSH1 0x4 MSTORE PUSH1 0x24 PUSH1 0x0 REVERT JUMPDEST PUSH1 0x20 DUP2 ADD PUSH1 0x4 DUP4 LT PUSH2 0x24F8 JUMPI PUSH4 0x4E487B71 PUSH1 0xE0 SHL PUSH1 0x0 MSTORE PUSH1 0x21 PUSH1 0x4 MSTORE PUSH1 0x24 PUSH1 0x0 REVERT JUMPDEST SWAP2 SWAP1 MSTORE SWAP1 JUMP JUMPDEST PUSH1 0x0 DUP1 PUSH1 0x0 DUP1 PUSH1 0x0 PUSH1 0xA0 DUP7 DUP9 SUB SLT ISZERO PUSH2 0x2516 JUMPI PUSH1 0x0 DUP1 REVERT JUMPDEST PUSH2 0x251F DUP7 PUSH2 0x2482 JUMP JUMPDEST SWAP5 POP PUSH2 0x252D PUSH1 0x20 DUP8 ADD PUSH2 0x2482 JUMP JUMPDEST SWAP4 POP PUSH2 0x253B PUSH1 0x40 DUP8 ADD PUSH2 0x2482 JUMP JUMPDEST SWAP3 POP PUSH2 0x2549 PUSH1 0x60 DUP8 ADD PUSH2 0x2482 JUMP JUMPDEST SWAP2 POP PUSH2 0x2557 PUSH1 0x80 DUP8 ADD PUSH2 0x2482 JUMP JUMPDEST SWAP1 POP SWAP3 SWAP6 POP SWAP3 SWAP6 SWAP1 SWAP4 POP JUMP JUMPDEST PUSH1 0x0 PUSH1 0x20 DUP3 DUP5 SUB SLT ISZERO PUSH2 0x2575 JUMPI PUSH1 0x0 DUP1 REVERT JUMPDEST DUP2 CALLDATALOAD PUSH2 0xFFFF DUP2 AND DUP2 EQ PUSH2 0x24B9 JUMPI PUSH1 0x0 DUP1 REVERT JUMPDEST PUSH4 0xFFFFFFFF DUP2 AND DUP2 EQ PUSH2 0x15E6 JUMPI PUSH1 0x0 DUP1 REVERT JUMPDEST PUSH1 0x0 PUSH1 0x20 DUP3 DUP5 SUB SLT ISZERO PUSH2 0x25AB JUMPI PUSH1 0x0 DUP1 REVERT JUMPDEST DUP2 CALLDATALOAD PUSH2 0x24B9 DUP2 PUSH2 0x2587 JUMP JUMPDEST PUSH1 0x0 DUP1 PUSH1 0x40 DUP4 DUP6 SUB SLT ISZERO PUSH2 0x25C9 JUMPI PUSH1 0x0 DUP1 REVERT JUMPDEST PUSH2 0x25D2 DUP4 PUSH2 0x2482 JUMP JUMPDEST SWAP5 PUSH1 0x20 SWAP4 SWAP1 SWAP4 ADD CALLDATALOAD SWAP4 POP POP POP JUMP JUMPDEST PUSH1 0xA0 DUP2 ADD DUP2 DUP4 PUSH1 0x0 JUMPDEST PUSH1 0x5 DUP2 LT ISZERO PUSH2 0x2611 JUMPI DUP2 MLOAD PUSH1 0x1 PUSH1 0x1 PUSH1 0xA0 SHL SUB AND DUP4 MSTORE PUSH1 0x20 SWAP3 DUP4 ADD SWAP3 SWAP1 SWAP2 ADD SWAP1 PUSH1 0x1 ADD PUSH2 0x25E9 JUMP JUMPDEST POP POP POP SWAP3 SWAP2 POP POP JUMP JUMPDEST PUSH1 0xFF DUP2 AND DUP2 EQ PUSH2 0x15E6 JUMPI PUSH1 0x0 DUP1 REVERT JUMPDEST PUSH1 0x0 PUSH1 0x20 DUP3 DUP5 SUB SLT ISZERO PUSH2 0x263B JUMPI PUSH1 0x0 DUP1 REVERT JUMPDEST DUP2 CALLDATALOAD PUSH2 0x24B9 DUP2 PUSH2 0x261A JUMP JUMPDEST PUSH1 0x20 DUP1 DUP3 MSTORE DUP3 MLOAD DUP3 DUP3 ADD DUP2 SWAP1 MSTORE PUSH1 0x0 SWAP2 SWAP1 DUP5 DUP3 ADD SWAP1 PUSH1 0x40 DUP6 ADD SWAP1 DUP5 JUMPDEST DUP2 DUP2 LT ISZERO PUSH2 0x2687 JUMPI DUP4 MLOAD PUSH1 0x1 PUSH1 0x1 PUSH1 0xA0 SHL SUB AND DUP4 MSTORE SWAP3 DUP5 ADD SWAP3 SWAP2 DUP5 ADD SWAP2 PUSH1 0x1 ADD PUSH2 0x2662 JUMP JUMPDEST POP SWAP1 SWAP7 SWAP6 POP POP POP POP POP POP JUMP JUMPDEST PUSH1 0x20 DUP1 DUP3 MSTORE PUSH1 0x10 SWAP1 DUP3 ADD MSTORE PUSH16 0x2737BA103A34329037B832B930BA37B9 PUSH1 0x81 SHL PUSH1 0x40 DUP3 ADD MSTORE PUSH1 0x60 ADD SWAP1 JUMP JUMPDEST PUSH1 0x0 PUSH1 0x20 DUP3 DUP5 SUB SLT ISZERO PUSH2 0x26CF JUMPI PUSH1 0x0 DUP1 REVERT JUMPDEST DUP2 MLOAD DUP1 ISZERO ISZERO DUP2 EQ PUSH2 0x24B9 JUMPI PUSH1 0x0 DUP1 REVERT JUMPDEST PUSH4 0x4E487B71 PUSH1 0xE0 SHL PUSH1 0x0 MSTORE PUSH1 0x11 PUSH1 0x4 MSTORE PUSH1 0x24 PUSH1 0x0 REVERT JUMPDEST PUSH1 0x0 PUSH1 0xFF DUP3 AND PUSH1 0xFF DUP2 SUB PUSH2 0x270B JUMPI PUSH2 0x270B PUSH2 0x26DF JUMP JUMPDEST PUSH1 0x1 ADD SWAP3 SWAP2 POP POP JUMP JUMPDEST PUSH1 0x0 PUSH1 0x20 DUP3 DUP5 SUB SLT ISZERO PUSH2 0x2726 JUMPI PUSH1 0x0 DUP1 REVERT JUMPDEST DUP2 MLOAD PUSH2 0x24B9 DUP2 PUSH2 0x2587 JUMP JUMPDEST PUSH1 0x0 PUSH1 0x1 DUP3 ADD PUSH2 0x2743 JUMPI PUSH2 0x2743 PUSH2 0x26DF JUMP JUMPDEST POP PUSH1 0x1 ADD SWAP1 JUMP JUMPDEST PUSH4 0x4E487B71 PUSH1 0xE0 SHL PUSH1 0x0 MSTORE PUSH1 0x12 PUSH1 0x4 MSTORE PUSH1 0x24 PUSH1 0x0 REVERT JUMPDEST PUSH1 0x0 DUP3 PUSH2 0x276F JUMPI PUSH2 0x276F PUSH2 0x274A JUMP JUMPDEST POP DIV SWAP1 JUMP JUMPDEST DUP2 DUP2 SUB DUP2 DUP2 GT ISZERO PUSH2 0x23BC JUMPI PUSH2 0x23BC PUSH2 0x26DF JUMP JUMPDEST PUSH4 0x4E487B71 PUSH1 0xE0 SHL PUSH1 0x0 MSTORE PUSH1 0x32 PUSH1 0x4 MSTORE PUSH1 0x24 PUSH1 0x0 REVERT JUMPDEST PUSH4 0xFFFFFFFF DUP3 DUP2 AND DUP3 DUP3 AND SUB SWAP1 DUP1 DUP3 GT ISZERO PUSH2 0x27BA JUMPI PUSH2 0x27BA PUSH2 0x26DF JUMP JUMPDEST POP SWAP3 SWAP2 POP POP JUMP JUMPDEST DUP1 DUP3 MUL DUP2 ISZERO DUP3 DUP3 DIV DUP5 EQ OR PUSH2 0x23BC JUMPI PUSH2 0x23BC PUSH2 0x26DF JUMP JUMPDEST PUSH1 0xFF DUP2 DUP2 AND DUP4 DUP3 AND ADD SWAP1 DUP2 GT ISZERO PUSH2 0x23BC JUMPI PUSH2 0x23BC PUSH2 0x26DF JUMP JUMPDEST PUSH1 0x0 DUP2 PUSH2 0x2800 JUMPI PUSH2 0x2800 PUSH2 0x26DF JUMP JUMPDEST POP PUSH1 0x0 NOT ADD SWAP1 JUMP JUMPDEST PUSH1 0x20 DUP1 DUP3 MSTORE PUSH1 0xD SWAP1 DUP3 ADD MSTORE PUSH13 0x456E7465722061646472657373 PUSH1 0x98 SHL PUSH1 0x40 DUP3 ADD MSTORE PUSH1 0x60 ADD SWAP1 JUMP JUMPDEST PUSH1 0x20 DUP1 DUP3 MSTORE PUSH1 0x17 SWAP1 DUP3 ADD MSTORE PUSH32 0x436F6E7472616374206973206E6F7420616C6C6F776564000000000000000000 PUSH1 0x40 DUP3 ADD MSTORE PUSH1 0x60 ADD SWAP1 JUMP JUMPDEST PUSH1 0x20 DUP1 DUP3 MSTORE PUSH1 0x1D SWAP1 DUP3 ADD MSTORE PUSH32 0x50726F787920636F6E7472616374206973206E6F7420616C6C6F776564000000 PUSH1 0x40 DUP3 ADD MSTORE PUSH1 0x60 ADD SWAP1 JUMP JUMPDEST DUP1 DUP3 ADD DUP1 DUP3 GT ISZERO PUSH2 0x23BC JUMPI PUSH2 0x23BC PUSH2 0x26DF JUMP JUMPDEST PUSH1 0x0 PUSH4 0xFFFFFFFF DUP1 DUP4 AND DUP2 DUP2 SUB PUSH2 0x28C9 JUMPI PUSH2 0x28C9 PUSH2 0x26DF JUMP JUMPDEST PUSH1 0x1 ADD SWAP4 SWAP3 POP POP POP JUMP JUMPDEST PUSH4 0xFFFFFFFF DUP2 DUP2 AND DUP4 DUP3 AND ADD SWAP1 DUP1 DUP3 GT ISZERO PUSH2 0x27BA JUMPI PUSH2 0x27BA PUSH2 0x26DF JUMP JUMPDEST PUSH1 0x0 PUSH1 0x20 DUP3 DUP5 SUB SLT ISZERO PUSH2 0x2902 JUMPI PUSH1 0x0 DUP1 REVERT JUMPDEST POP MLOAD SWAP2 SWAP1 POP JUMP JUMPDEST PUSH1 0x0 PUSH1 0x20 DUP3 DUP5 SUB SLT ISZERO PUSH2 0x291B JUMPI PUSH1 0x0 DUP1 REVERT JUMPDEST DUP2 MLOAD PUSH2 0x24B9 DUP2 PUSH2 0x261A JUMP JUMPDEST PUSH1 0x1 DUP2 DUP2 JUMPDEST DUP1 DUP6 GT ISZERO PUSH2 0x2961 JUMPI DUP2 PUSH1 0x0 NOT DIV DUP3 GT ISZERO PUSH2 0x2947 JUMPI PUSH2 0x2947 PUSH2 0x26DF JUMP JUMPDEST DUP1 DUP6 AND ISZERO PUSH2 0x2954 JUMPI SWAP2 DUP2 MUL SWAP2 JUMPDEST SWAP4 DUP5 SHR SWAP4 SWAP1 DUP1 MUL SWAP1 PUSH2 0x292B JUMP JUMPDEST POP SWAP3 POP SWAP3 SWAP1 POP JUMP JUMPDEST PUSH1 0x0 DUP3 PUSH2 0x2978 JUMPI POP PUSH1 0x1 PUSH2 0x23BC JUMP JUMPDEST DUP2 PUSH2 0x2985 JUMPI POP PUSH1 0x0 PUSH2 0x23BC JUMP JUMPDEST DUP2 PUSH1 0x1 DUP2 EQ PUSH2 0x299B JUMPI PUSH1 0x2 DUP2 EQ PUSH2 0x29A5 JUMPI PUSH2 0x29C1 JUMP JUMPDEST PUSH1 0x1 SWAP2 POP POP PUSH2 0x23BC JUMP JUMPDEST PUSH1 0xFF DUP5 GT ISZERO PUSH2 0x29B6 JUMPI PUSH2 0x29B6 PUSH2 0x26DF JUMP JUMPDEST POP POP PUSH1 0x1 DUP3 SHL PUSH2 0x23BC JUMP JUMPDEST POP PUSH1 0x20 DUP4 LT PUSH2 0x133 DUP4 LT AND PUSH1 0x4E DUP5 LT PUSH1 0xB DUP5 LT AND OR ISZERO PUSH2 0x29E4 JUMPI POP DUP2 DUP2 EXP PUSH2 0x23BC JUMP JUMPDEST PUSH2 0x29EE DUP4 DUP4 PUSH2 0x2926 JUMP JUMPDEST DUP1 PUSH1 0x0 NOT DIV DUP3 GT ISZERO PUSH2 0x2A02 JUMPI PUSH2 0x2A02 PUSH2 0x26DF JUMP JUMPDEST MUL SWAP4 SWAP3 POP POP POP JUMP JUMPDEST PUSH1 0x0 PUSH2 0x24B9 PUSH1 0xFF DUP5 AND DUP4 PUSH2 0x2969 JUMP JUMPDEST PUSH1 0xFF DUP3 DUP2 AND DUP3 DUP3 AND SUB SWAP1 DUP2 GT ISZERO PUSH2 0x23BC JUMPI PUSH2 0x23BC PUSH2 0x26DF JUMP JUMPDEST PUSH1 0x0 PUSH1 0xFF DUP4 AND DUP1 PUSH2 0x2A45 JUMPI PUSH2 0x2A45 PUSH2 0x274A JUMP JUMPDEST DUP1 PUSH1 0xFF DUP5 AND MOD SWAP2 POP POP SWAP3 SWAP2 POP POP JUMP INVALID LOG2 PUSH5 0x6970667358 0x22 SLT KECCAK256 DUP15 0xD6 CALLER 0xC0 0x49 DUP10 SSTORE 0xB6 SIGNEXTEND SWAP2 PUSH13 0xE5B5F88EBCED987BD45F4EEA69 REVERT ADDRESS DUP2 PUSH14 0x7212AB1A64736F6C634300081100 CALLER "},"methodIdentifiers":{"addFund()":"a2f09dfa","amountCollected()":"332f7acf","buyDiscountTickets(uint32)":"77814890","buyTickets(uint32)":"444132be","charityAddress()":"afcf2fc4","claimRewards()":"372500ab","closeLottery()":"6fd09816","currentTicketId()":"686465b8","declareWinner()":"14034bd2","discountRate()":"e6c0e6d5","discountToken()":"ea61226c","discountTokenPrice()":"99e13b07","endTime()":"3197cbb6","founder1Address()":"28fe9a7f","founder2Address()":"9028353a","founder3Address()":"5b984526","getClaimableReward(address)":"5ff329af","getLastWinners()":"95690936","getLotteryInfo()":"101c5ce9","getUserTickets(address)":"0484a22f","getWinnersByPot(uint8)":"c5925983","latestRandomizingBlock()":"b1fa4176","lotteryId()":"e580f47b","maxNumberTicketsPerBuy()":"ad99854b","nftContractAddress()":"aae282e1","nftDiscountRate()":"6e14f95f","operatorAddress()":"127effb2","owner()":"8da5cb5b","prizeRate(uint256)":"09d0f068","projectAddress()":"3cf96af1","recoverWrongTokens(address,uint256)":"3f138d4b","renounceOwnership()":"715018a6","setDiscountNFTContractAddress(address)":"57d6a974","setDiscountNFTRate(uint256)":"fc6bb19c","setDiscountRate(uint16)":"327daf97","setDiscountToken(address)":"fb84d069","setDiscountTokenPrice(uint256)":"f47d3968","setMaxNumberTicketsPerBuy(uint32)":"372d96fe","setOperatorAndTreasuryAndCharityAddresses(address,address,address,address,address)":"2b578f82","setTicketPrice(uint256)":"15981650","startLottery(uint256)":"c6bec93a","status()":"200d2ed2","ticketPrice()":"1209b1f6","tickets(uint32)":"ffd4b4cb","topWinner()":"6b9194be","topWinning()":"430eafca","transferOwnership(address)":"f2fde38b","winnerRate(uint256)":"0109f658","witnet()":"46d1d21a"}}}}}