{
  "_format": "hh-sol-artifact-1",
  "contractName": "WitnetRequest",
  "sourceName": "contracts/witnet/requests/WitnetRequest.sol",
  "abi": [
    {
      "inputs": [
        {
          "internalType": "bytes",
          "name": "_bytecode",
          "type": "bytes"
        }
      ],
      "stateMutability": "nonpayable",
      "type": "constructor"
    },
    {
      "inputs": [],
      "name": "bytecode",
      "outputs": [
        {
          "internalType": "bytes",
          "name": "",
          "type": "bytes"
        }
      ],
      "stateMutability": "view",
      "type": "function"
    },
    {
      "inputs": [],
      "name": "hash",
      "outputs": [
        {
          "internalType": "bytes32",
          "name": "",
          "type": "bytes32"
        }
      ],
      "stateMutability": "view",
      "type": "function"
    }
  ],
  "bytecode": "0x608060405234801561001057600080fd5b5060405161057038038061057083398101604081905261002f916100ea565b600061003b828261021f565b5061004f8161005860201b6100fa1760201c565b60015550610313565b600060028260405161006a91906102de565b602060405180830381855afa158015610087573d6000803e3d6000fd5b5050506040513d601f19601f820116820180604052508101906100aa91906102fa565b92915050565b634e487b7160e01b600052604160045260246000fd5b60005b838110156100e15781810151838201526020016100c9565b50506000910152565b6000602082840312156100fc57600080fd5b81516001600160401b038082111561011357600080fd5b818401915084601f83011261012757600080fd5b815181811115610139576101396100b0565b604051601f8201601f19908116603f01168101908382118183101715610161576101616100b0565b8160405282815287602084870101111561017a57600080fd5b61018b8360208301602088016100c6565b979650505050505050565b600181811c908216806101aa57607f821691505b6020821081036101ca57634e487b7160e01b600052602260045260246000fd5b50919050565b601f82111561021a57600081815260208120601f850160051c810160208610156101f75750805b601f850160051c820191505b8181101561021657828155600101610203565b5050505b505050565b81516001600160401b03811115610238576102386100b0565b61024c816102468454610196565b846101d0565b602080601f83116001811461028157600084156102695750858301515b600019600386901b1c1916600185901b178555610216565b600085815260208120601f198616915b828110156102b057888601518255948401946001909101908401610291565b50858210156102ce5787850151600019600388901b60f8161c191681555b5050505050600190811b01905550565b600082516102f08184602087016100c6565b9190910192915050565b60006020828403121561030c57600080fd5b5051919050565b61024e806103226000396000f3fe608060405234801561001057600080fd5b50600436106100365760003560e01c806309bd5a601461003b578063f094000214610057575b600080fd5b61004460015481565b6040519081526020015b60405180910390f35b61005f61006c565b60405161004e9190610176565b60008054610079906101a9565b80601f01602080910402602001604051908101604052809291908181526020018280546100a5906101a9565b80156100f25780601f106100c7576101008083540402835291602001916100f2565b820191906000526020600020905b8154815290600101906020018083116100d557829003601f168201915b505050505081565b600060028260405161010c91906101e3565b602060405180830381855afa158015610129573d6000803e3d6000fd5b5050506040513d601f19601f8201168201806040525081019061014c91906101ff565b92915050565b60005b8381101561016d578181015183820152602001610155565b50506000910152565b6020815260008251806020840152610195816040850160208701610152565b601f01601f19169190910160400192915050565b600181811c908216806101bd57607f821691505b6020821081036101dd57634e487b7160e01b600052602260045260246000fd5b50919050565b600082516101f5818460208701610152565b9190910192915050565b60006020828403121561021157600080fd5b505191905056fea26469706673582212202735bafb4af314da64a1d89be31d0223511969ef1573ed086f691b86b0ee668b64736f6c63430008110033",
  "linkReferences": {},
  "deployedLinkReferences": {}
}