{
  "_format": "hh-sol-artifact-1",
  "contractName": "CroDraw",
  "sourceName": "contracts/crodraw_contract.sol",
  "abi": [
    {
      "inputs": [
        {
          "internalType": "address",
          "name": "_discountToken",
          "type": "address"
        },
        {
          "internalType": "contract IWitnetRandomness",
          "name": "_witnetRandomness",
          "type": "address"
        },
        {
          "internalType": "address",
          "name": "_charity",
          "type": "address"
        },
        {
          "internalType": "address",
          "name": "_project",
          "type": "address"
        },
        {
          "internalType": "address",
          "name": "_founder1",
          "type": "address"
        },
        {
          "internalType": "address",
          "name": "_founder2",
          "type": "address"
        },
        {
          "internalType": "address",
          "name": "_founder3",
          "type": "address"
        }
      ],
      "stateMutability": "nonpayable",
      "type": "constructor"
    },
    {
      "anonymous": false,
      "inputs": [
        {
          "indexed": true,
          "internalType": "address",
          "name": "previousOwner",
          "type": "address"
        },
        {
          "indexed": true,
          "internalType": "address",
          "name": "newOwner",
          "type": "address"
        }
      ],
      "name": "OwnershipTransferred",
      "type": "event"
    },
    {
      "inputs": [],
      "name": "addFund",
      "outputs": [],
      "stateMutability": "payable",
      "type": "function"
    },
    {
      "inputs": [],
      "name": "amountCollected",
      "outputs": [
        {
          "internalType": "uint256",
          "name": "",
          "type": "uint256"
        }
      ],
      "stateMutability": "view",
      "type": "function"
    },
    {
      "inputs": [
        {
          "internalType": "uint32",
          "name": "_amount",
          "type": "uint32"
        }
      ],
      "name": "buyDiscountTickets",
      "outputs": [],
      "stateMutability": "payable",
      "type": "function"
    },
    {
      "inputs": [
        {
          "internalType": "uint32",
          "name": "_amount",
          "type": "uint32"
        }
      ],
      "name": "buyTickets",
      "outputs": [],
      "stateMutability": "payable",
      "type": "function"
    },
    {
      "inputs": [],
      "name": "charityAddress",
      "outputs": [
        {
          "internalType": "address",
          "name": "",
          "type": "address"
        }
      ],
      "stateMutability": "view",
      "type": "function"
    },
    {
      "inputs": [],
      "name": "claimRewards",
      "outputs": [],
      "stateMutability": "nonpayable",
      "type": "function"
    },
    {
      "inputs": [],
      "name": "closeLottery",
      "outputs": [],
      "stateMutability": "payable",
      "type": "function"
    },
    {
      "inputs": [],
      "name": "currentTicketId",
      "outputs": [
        {
          "internalType": "uint32",
          "name": "",
          "type": "uint32"
        }
      ],
      "stateMutability": "view",
      "type": "function"
    },
    {
      "inputs": [],
      "name": "declareWinner",
      "outputs": [],
      "stateMutability": "nonpayable",
      "type": "function"
    },
    {
      "inputs": [],
      "name": "discountRate",
      "outputs": [
        {
          "internalType": "uint16",
          "name": "",
          "type": "uint16"
        }
      ],
      "stateMutability": "view",
      "type": "function"
    },
    {
      "inputs": [],
      "name": "discountToken",
      "outputs": [
        {
          "internalType": "contract TRPZToken",
          "name": "",
          "type": "address"
        }
      ],
      "stateMutability": "view",
      "type": "function"
    },
    {
      "inputs": [],
      "name": "discountTokenPrice",
      "outputs": [
        {
          "internalType": "uint256",
          "name": "",
          "type": "uint256"
        }
      ],
      "stateMutability": "view",
      "type": "function"
    },
    {
      "inputs": [],
      "name": "endTime",
      "outputs": [
        {
          "internalType": "uint256",
          "name": "",
          "type": "uint256"
        }
      ],
      "stateMutability": "view",
      "type": "function"
    },
    {
      "inputs": [],
      "name": "founder1Address",
      "outputs": [
        {
          "internalType": "address",
          "name": "",
          "type": "address"
        }
      ],
      "stateMutability": "view",
      "type": "function"
    },
    {
      "inputs": [],
      "name": "founder2Address",
      "outputs": [
        {
          "internalType": "address",
          "name": "",
          "type": "address"
        }
      ],
      "stateMutability": "view",
      "type": "function"
    },
    {
      "inputs": [],
      "name": "founder3Address",
      "outputs": [
        {
          "internalType": "address",
          "name": "",
          "type": "address"
        }
      ],
      "stateMutability": "view",
      "type": "function"
    },
    {
      "inputs": [
        {
          "internalType": "address",
          "name": "user",
          "type": "address"
        }
      ],
      "name": "getClaimableReward",
      "outputs": [
        {
          "internalType": "uint256",
          "name": "",
          "type": "uint256"
        },
        {
          "internalType": "uint8",
          "name": "",
          "type": "uint8"
        }
      ],
      "stateMutability": "view",
      "type": "function"
    },
    {
      "inputs": [],
      "name": "getLastWinners",
      "outputs": [
        {
          "internalType": "address[5]",
          "name": "",
          "type": "address[5]"
        }
      ],
      "stateMutability": "view",
      "type": "function"
    },
    {
      "inputs": [],
      "name": "getLotteryInfo",
      "outputs": [
        {
          "internalType": "uint256",
          "name": "",
          "type": "uint256"
        },
        {
          "internalType": "uint256",
          "name": "",
          "type": "uint256"
        },
        {
          "internalType": "uint256",
          "name": "",
          "type": "uint256"
        }
      ],
      "stateMutability": "view",
      "type": "function"
    },
    {
      "inputs": [
        {
          "internalType": "address",
          "name": "user",
          "type": "address"
        }
      ],
      "name": "getUserTickets",
      "outputs": [
        {
          "internalType": "uint256",
          "name": "",
          "type": "uint256"
        }
      ],
      "stateMutability": "view",
      "type": "function"
    },
    {
      "inputs": [
        {
          "internalType": "uint8",
          "name": "potNumber",
          "type": "uint8"
        }
      ],
      "name": "getWinnersByPot",
      "outputs": [
        {
          "internalType": "address[]",
          "name": "",
          "type": "address[]"
        }
      ],
      "stateMutability": "view",
      "type": "function"
    },
    {
      "inputs": [],
      "name": "latestRandomizingBlock",
      "outputs": [
        {
          "internalType": "uint256",
          "name": "",
          "type": "uint256"
        }
      ],
      "stateMutability": "view",
      "type": "function"
    },
    {
      "inputs": [],
      "name": "lotteryId",
      "outputs": [
        {
          "internalType": "uint256",
          "name": "",
          "type": "uint256"
        }
      ],
      "stateMutability": "view",
      "type": "function"
    },
    {
      "inputs": [],
      "name": "maxNumberTicketsPerBuy",
      "outputs": [
        {
          "internalType": "uint32",
          "name": "",
          "type": "uint32"
        }
      ],
      "stateMutability": "view",
      "type": "function"
    },
    {
      "inputs": [],
      "name": "nftContractAddress",
      "outputs": [
        {
          "internalType": "address",
          "name": "",
          "type": "address"
        }
      ],
      "stateMutability": "view",
      "type": "function"
    },
    {
      "inputs": [],
      "name": "nftDiscountRate",
      "outputs": [
        {
          "internalType": "uint256",
          "name": "",
          "type": "uint256"
        }
      ],
      "stateMutability": "view",
      "type": "function"
    },
    {
      "inputs": [],
      "name": "operatorAddress",
      "outputs": [
        {
          "internalType": "address",
          "name": "",
          "type": "address"
        }
      ],
      "stateMutability": "view",
      "type": "function"
    },
    {
      "inputs": [],
      "name": "owner",
      "outputs": [
        {
          "internalType": "address",
          "name": "",
          "type": "address"
        }
      ],
      "stateMutability": "view",
      "type": "function"
    },
    {
      "inputs": [
        {
          "internalType": "uint256",
          "name": "",
          "type": "uint256"
        }
      ],
      "name": "prizeRate",
      "outputs": [
        {
          "internalType": "uint256",
          "name": "",
          "type": "uint256"
        }
      ],
      "stateMutability": "view",
      "type": "function"
    },
    {
      "inputs": [],
      "name": "projectAddress",
      "outputs": [
        {
          "internalType": "address",
          "name": "",
          "type": "address"
        }
      ],
      "stateMutability": "view",
      "type": "function"
    },
    {
      "inputs": [
        {
          "internalType": "address",
          "name": "_tokenAddress",
          "type": "address"
        },
        {
          "internalType": "uint256",
          "name": "_tokenAmount",
          "type": "uint256"
        }
      ],
      "name": "recoverWrongTokens",
      "outputs": [],
      "stateMutability": "nonpayable",
      "type": "function"
    },
    {
      "inputs": [],
      "name": "renounceOwnership",
      "outputs": [],
      "stateMutability": "nonpayable",
      "type": "function"
    },
    {
      "inputs": [
        {
          "internalType": "address",
          "name": "_newAddress",
          "type": "address"
        }
      ],
      "name": "setDiscountNFTContractAddress",
      "outputs": [],
      "stateMutability": "nonpayable",
      "type": "function"
    },
    {
      "inputs": [
        {
          "internalType": "uint256",
          "name": "_newRate",
          "type": "uint256"
        }
      ],
      "name": "setDiscountNFTRate",
      "outputs": [],
      "stateMutability": "nonpayable",
      "type": "function"
    },
    {
      "inputs": [
        {
          "internalType": "uint16",
          "name": "_newRate",
          "type": "uint16"
        }
      ],
      "name": "setDiscountRate",
      "outputs": [],
      "stateMutability": "nonpayable",
      "type": "function"
    },
    {
      "inputs": [
        {
          "internalType": "address",
          "name": "_token",
          "type": "address"
        }
      ],
      "name": "setDiscountToken",
      "outputs": [],
      "stateMutability": "nonpayable",
      "type": "function"
    },
    {
      "inputs": [
        {
          "internalType": "uint256",
          "name": "_discountTokenPRice",
          "type": "uint256"
        }
      ],
      "name": "setDiscountTokenPrice",
      "outputs": [],
      "stateMutability": "nonpayable",
      "type": "function"
    },
    {
      "inputs": [
        {
          "internalType": "uint32",
          "name": "_maxNumberTicketsPerBuy",
          "type": "uint32"
        }
      ],
      "name": "setMaxNumberTicketsPerBuy",
      "outputs": [],
      "stateMutability": "nonpayable",
      "type": "function"
    },
    {
      "inputs": [
        {
          "internalType": "address",
          "name": "_operatorAddress",
          "type": "address"
        },
        {
          "internalType": "address",
          "name": "_projectAddress",
          "type": "address"
        },
        {
          "internalType": "address",
          "name": "_charityAddress",
          "type": "address"
        },
        {
          "internalType": "address",
          "name": "_founder1Address",
          "type": "address"
        },
        {
          "internalType": "address",
          "name": "_founder2Address",
          "type": "address"
        }
      ],
      "name": "setOperatorAndTreasuryAndCharityAddresses",
      "outputs": [],
      "stateMutability": "nonpayable",
      "type": "function"
    },
    {
      "inputs": [
        {
          "internalType": "uint256",
          "name": "_ticketPrice",
          "type": "uint256"
        }
      ],
      "name": "setTicketPrice",
      "outputs": [],
      "stateMutability": "nonpayable",
      "type": "function"
    },
    {
      "inputs": [
        {
          "internalType": "uint256",
          "name": "_period",
          "type": "uint256"
        }
      ],
      "name": "startLottery",
      "outputs": [],
      "stateMutability": "nonpayable",
      "type": "function"
    },
    {
      "inputs": [],
      "name": "status",
      "outputs": [
        {
          "internalType": "enum CroDraw.Status",
          "name": "",
          "type": "uint8"
        }
      ],
      "stateMutability": "view",
      "type": "function"
    },
    {
      "inputs": [],
      "name": "ticketPrice",
      "outputs": [
        {
          "internalType": "uint256",
          "name": "",
          "type": "uint256"
        }
      ],
      "stateMutability": "view",
      "type": "function"
    },
    {
      "inputs": [
        {
          "internalType": "uint32",
          "name": "",
          "type": "uint32"
        }
      ],
      "name": "tickets",
      "outputs": [
        {
          "internalType": "address",
          "name": "",
          "type": "address"
        }
      ],
      "stateMutability": "view",
      "type": "function"
    },
    {
      "inputs": [],
      "name": "topWinner",
      "outputs": [
        {
          "internalType": "address",
          "name": "",
          "type": "address"
        }
      ],
      "stateMutability": "view",
      "type": "function"
    },
    {
      "inputs": [],
      "name": "topWinning",
      "outputs": [
        {
          "internalType": "uint256",
          "name": "",
          "type": "uint256"
        }
      ],
      "stateMutability": "view",
      "type": "function"
    },
    {
      "inputs": [
        {
          "internalType": "address",
          "name": "newOwner",
          "type": "address"
        }
      ],
      "name": "transferOwnership",
      "outputs": [],
      "stateMutability": "nonpayable",
      "type": "function"
    },
    {
      "inputs": [
        {
          "internalType": "uint256",
          "name": "",
          "type": "uint256"
        }
      ],
      "name": "winnerRate",
      "outputs": [
        {
          "internalType": "uint256",
          "name": "",
          "type": "uint256"
        }
      ],
      "stateMutability": "view",
      "type": "function"
    },
    {
      "inputs": [],
      "name": "witnet",
      "outputs": [
        {
          "internalType": "contract IWitnetRandomness",
          "name": "",
          "type": "address"
        }
      ],
      "stateMutability": "view",
      "type": "function"
    },
    {
      "stateMutability": "payable",
      "type": "receive"
    }
  ],
  "bytecode": "0x600a805463ffffffff61ffff60c01b01191678fa0000000000000000000000000000000000000000000000641781556064600b819055600e55610100604052600260a0908152600560c05260e0919091526200006090600f906003620001ca565b5060408051606081018252600f8152601460208201526019918101919091526200008f906010906003620001ca565b503480156200009d57600080fd5b5060405162002dd238038062002dd2833981016040819052620000c0916200024f565b6001600055620000d03362000178565b6001600160a01b038616620000e957620000e9620002fa565b6001600160a01b03958616608052600a805497871664010000000002600160201b600160c01b031990981697909717909655600380549486166001600160a01b0319958616179055600280549386169385169390931790925560048054918516918416919091179055600580549184169183169190911790556006805493909216921691909117905562000310565b600180546001600160a01b038381166001600160a01b0319831681179093556040519116919082907f8be0079c531659141344cd1fd0a4f28419497f9722a3daafe3b4186f6b6457e090600090a35050565b8280548282559060005260206000209081019282156200020d579160200282015b828111156200020d578251829060ff16905591602001919060010190620001eb565b506200021b9291506200021f565b5090565b5b808211156200021b576000815560010162000220565b6001600160a01b03811681146200024c57600080fd5b50565b600080600080600080600060e0888a0312156200026b57600080fd5b8751620002788162000236565b60208901519097506200028b8162000236565b60408901519096506200029e8162000236565b6060890151909550620002b18162000236565b6080890151909450620002c48162000236565b60a0890151909350620002d78162000236565b60c0890151909250620002ea8162000236565b8091505092959891949750929550565b634e487b7160e01b600052600160045260246000fd5b608051612a8a620003486000396000818161057e01528181610a3201528181610b8701528181610d4901526116ea0152612a8a6000f3fe6080604052600436106102b25760003560e01c8063686465b811610175578063ad99854b116100dc578063e6c0e6d511610095578063f47d39681161006f578063f47d3968146108b0578063fb84d069146108d0578063fc6bb19c146108f0578063ffd4b4cb1461091057600080fd5b8063e6c0e6d514610833578063ea61226c14610868578063f2fde38b1461089057600080fd5b8063ad99854b1461077d578063afcf2fc41461079a578063b1fa4176146107ba578063c5925983146107d0578063c6bec93a146107fd578063e580f47b1461081d57600080fd5b80638da5cb5b1161012e5780638da5cb5b146106df5780639028353a146106fd578063956909361461071d57806399e13b071461073f578063a2f09dfa14610755578063aae282e11461075d57600080fd5b8063686465b8146106405780636b9194be146106795780636e14f95f146106995780636fd09816146106af578063715018a6146106b757806377814890146106cc57600080fd5b8063327daf9711610219578063430eafca116101d2578063430eafca14610543578063444132be1461055957806346d1d21a1461056c57806357d6a974146105a05780635b984526146105c05780635ff329af146105e057600080fd5b8063327daf9714610498578063332f7acf146104b8578063372500ab146104ce578063372d96fe146104e35780633cf96af1146105035780633f138d4b1461052357600080fd5b806314034bd21161026b57806314034bd2146103e457806315981650146103fb578063200d2ed21461041b57806328fe9a7f146104425780632b578f82146104625780633197cbb61461048257600080fd5b80630109f658146102be5780630484a22f146102f157806309d0f0681461033a578063101c5ce91461035a5780631209b1f614610396578063127effb2146103ac57600080fd5b366102b957005b600080fd5b3480156102ca57600080fd5b506102de6102d9366004612469565b610946565b6040519081526020015b60405180910390f35b3480156102fd57600080fd5b506102de61030c36600461249e565b6001600160a01b03166000908152601360209081526040808320601d54845290915290205463ffffffff1690565b34801561034657600080fd5b506102de610355366004612469565b610967565b34801561036657600080fd5b5060085460075460095460408051938452600160a01b90920463ffffffff166020840152908201526060016102e8565b3480156103a257600080fd5b506102de60095481565b3480156103b857600080fd5b506007546103cc906001600160a01b031681565b6040516001600160a01b0390911681526020016102e8565b3480156103f057600080fd5b506103f9610977565b005b34801561040757600080fd5b506103f9610416366004612469565b610f75565b34801561042757600080fd5b506011546104359060ff1681565b6040516102e891906124d6565b34801561044e57600080fd5b506004546103cc906001600160a01b031681565b34801561046e57600080fd5b506103f961047d3660046124fe565b610f82565b34801561048e57600080fd5b506102de600c5481565b3480156104a457600080fd5b506103f96104b3366004612563565b6110a7565b3480156104c457600080fd5b506102de60085481565b3480156104da57600080fd5b506103f96110d1565b3480156104ef57600080fd5b506103f96104fe366004612599565b6111de565b34801561050f57600080fd5b506002546103cc906001600160a01b031681565b34801561052f57600080fd5b506103f961053e3660046125b6565b611246565b34801561054f57600080fd5b506102de60205481565b6103f9610567366004612599565b6112c4565b34801561057857600080fd5b506103cc7f000000000000000000000000000000000000000000000000000000000000000081565b3480156105ac57600080fd5b506103f96105bb36600461249e565b6115e9565b3480156105cc57600080fd5b506006546103cc906001600160a01b031681565b3480156105ec57600080fd5b506106296105fb36600461249e565b6001600160a01b0316600090815260146020908152604080832054601590925290912054909160ff90911690565b6040805192835260ff9091166020830152016102e8565b34801561064c57600080fd5b5060075461066490600160a01b900463ffffffff1681565b60405163ffffffff90911681526020016102e8565b34801561068557600080fd5b50601f546103cc906001600160a01b031681565b3480156106a557600080fd5b506102de600e5481565b6103f9611613565b3480156106c357600080fd5b506103f96117bf565b6103f96106da366004612599565b6117d1565b3480156106eb57600080fd5b506001546001600160a01b03166103cc565b34801561070957600080fd5b506005546103cc906001600160a01b031681565b34801561072957600080fd5b50610732611c85565b6040516102e891906125e0565b34801561074b57600080fd5b506102de600b5481565b6103f9611d41565b34801561076957600080fd5b50600d546103cc906001600160a01b031681565b34801561078957600080fd5b50600a546106649063ffffffff1681565b3480156107a657600080fd5b506003546103cc906001600160a01b031681565b3480156107c657600080fd5b506102de601e5481565b3480156107dc57600080fd5b506107f06107eb366004612629565b611de0565b6040516102e89190612646565b34801561080957600080fd5b506103f9610818366004612469565b611e50565b34801561082957600080fd5b506102de601d5481565b34801561083f57600080fd5b50600a5461085590600160c01b900461ffff1681565b60405161ffff90911681526020016102e8565b34801561087457600080fd5b50600a546103cc9064010000000090046001600160a01b031681565b34801561089c57600080fd5b506103f96108ab36600461249e565b611f32565b3480156108bc57600080fd5b506103f96108cb366004612469565b611fa8565b3480156108dc57600080fd5b506103f96108eb36600461249e565b611fb5565b3480156108fc57600080fd5b506103f961090b366004612469565b611feb565b34801561091c57600080fd5b506103cc61092b366004612599565b6012602052600090815260409020546001600160a01b031681565b600f818154811061095657600080fd5b600091825260209091200154905081565b6010818154811061095657600080fd5b61097f611ff8565b6007546001600160a01b031633146109b25760405162461bcd60e51b81526004016109a990612693565b60405180910390fd5b600260115460ff1660038111156109cb576109cb6124c0565b14610a185760405162461bcd60e51b815260206004820152601860248201527f4c6f747465727920686173206e6f742066696e6973686564000000000000000060448201526064016109a9565b601e546040516326f21bfb60e21b815260048101919091527f00000000000000000000000000000000000000000000000000000000000000006001600160a01b031690639bc86fec90602401602060405180830381865afa158015610a81573d6000803e3d6000fd5b505050506040513d601f19601f82011682018060405250810190610aa591906126bd565b1515600114610ae75760405162461bcd60e51b815260206004820152600e60248201526d139bdd0814985b991bdb5a5e995960921b60448201526064016109a9565b60015b60048160ff1611610b205760ff81166000908152601660205260408120610b1091612414565b610b19816126f5565b9050610aea565b6011805460ff19169055600754600160a01b900463ffffffff16600003610b475750610f69565b600854600754601e546040516324cbbfc160e01b8152600160a01b90920463ffffffff1660048301526000602483018190526044830191909152919082907f00000000000000000000000000000000000000000000000000000000000000006001600160a01b0316906324cbbfc190606401602060405180830381865afa158015610bd6573d6000803e3d6000fd5b505050506040513d601f19601f82011682018060405250810190610bfa9190612714565b905082610c0681612731565b9350506000600a600854610c1a9190612760565b9050610c2882826001612051565b610c31826121b4565b610c3b8184612774565b925060008095505b60038660ff161015610e01576064600f8760ff1681548110610c6757610c67612787565b600091825260209091200154600754610c8f90600190600160a01b900463ffffffff1661279d565b63ffffffff16610c9f91906127c1565b610ca99190612760565b90508015610df15780606460108860ff1681548110610cca57610cca612787565b9060005260206000200154600854610ce291906127c1565b610cec9190612760565b610cf69190612760565b9150610d0281836127c1565b610d0c9085612774565b93505b8015610df157600754601e546040516324cbbfc160e01b8152600160a01b90920463ffffffff1660048301526024820187905260448201527f00000000000000000000000000000000000000000000000000000000000000006001600160a01b0316906324cbbfc190606401602060405180830381865afa158015610d98573d6000803e3d6000fd5b505050506040513d601f19601f82011682018060405250810190610dbc9190612714565b925084610dc881612731565b9550610de190508383610ddc8960026127d8565b612051565b610dea816127f1565b9050610d0f565b610dfa866126f5565b9550610c43565b610e0c600c85612760565b6004546040519193506001600160a01b03169083156108fc029084906000818181858888f19350505050158015610e47573d6000803e3d6000fd5b506005546040516001600160a01b039091169083156108fc029084906000818181858888f19350505050158015610e82573d6000803e3d6000fd5b506006546040516001600160a01b039091169083156108fc029084906000818181858888f19350505050158015610ebd573d6000803e3d6000fd5b50610ec98260036127c1565b610ed39085612774565b9350610ee0600385612760565b6002546040519193506001600160a01b03169083156108fc029084906000818181858888f19350505050158015610f1b573d6000803e3d6000fd5b50610f268285612774565b6003546040519195506001600160a01b03169085156108fc029086906000818181858888f19350505050158015610f61573d6000803e3d6000fd5b505050505050505b610f736001600055565b565b610f7d612281565b600955565b610f8a612281565b6001600160a01b038516610fb05760405162461bcd60e51b81526004016109a990612808565b6001600160a01b038416610fd65760405162461bcd60e51b81526004016109a990612808565b6001600160a01b038316610ffc5760405162461bcd60e51b81526004016109a990612808565b6001600160a01b0382166110225760405162461bcd60e51b81526004016109a990612808565b6001600160a01b0381166110485760405162461bcd60e51b81526004016109a990612808565b600780546001600160a01b03199081166001600160a01b03978816179091556002805482169587169590951790945560038054851693861693909317909255600480548416918516919091179055600580549092169216919091179055565b6110af612281565b600a805461ffff909216600160c01b0261ffff60c01b19909216919091179055565b333b156110f05760405162461bcd60e51b81526004016109a99061282f565b33321461110f5760405162461bcd60e51b81526004016109a990612866565b611117611ff8565b336000818152601460205260409020546111695760405162461bcd60e51b81526020600482015260136024820152724e6f207265776172647320746f20636c61696d60681b60448201526064016109a9565b6001600160a01b038116600081815260146020526040808220805490839055905190929183156108fc02918491818181858888f193505050501580156111b3573d6000803e3d6000fd5b50506001600160a01b03166000908152601560205260409020805460ff19169055610f736001600055565b6111e6612281565b8063ffffffff1660000361122a5760405162461bcd60e51b815260206004820152600b60248201526a04d757374206265203e20360ac1b60448201526064016109a9565b600a805463ffffffff191663ffffffff92909216919091179055565b61124e612281565b60405163a9059cbb60e01b8152336004820152602481018290526001600160a01b0383169063a9059cbb906044016020604051808303816000875af115801561129b573d6000803e3d6000fd5b505050506040513d601f19601f820116820180604052508101906112bf91906126bd565b505050565b333b156112e35760405162461bcd60e51b81526004016109a99061282f565b3332146113025760405162461bcd60e51b81526004016109a990612866565b61130a611ff8565b60095460000361134c5760405162461bcd60e51b815260206004820152600d60248201526c141c9a58d9481b9bdd081cd95d609a1b60448201526064016109a9565b8063ffffffff166000036113a25760405162461bcd60e51b815260206004820152601a60248201527f456e7465722063686f73656e20616d6f756e7420746f2062757900000000000060448201526064016109a9565b600a5463ffffffff90811690821611156113f15760405162461bcd60e51b815260206004820152601060248201526f546f6f206d616e79207469636b65747360801b60448201526064016109a9565b600160115460ff16600381111561140a5761140a6124c0565b146114515760405162461bcd60e51b8152602060048201526017602482015276131bdd1d195c9e481a5cc81b9bdd081bdc195b881e595d604a1b60448201526064016109a9565b600c5442106114965760405162461bcd60e51b8152602060048201526011602482015270131bdd1d195c9e481a185cc8195b991959607a1b60448201526064016109a9565b60006114a38260006122db565b9050803410156114ea5760405162461bcd60e51b8152602060048201526012602482015271496e73756666696369656e742066756e647360701b60448201526064016109a9565b80600860008282546114fc919061289d565b90915550600090505b8263ffffffff1681101561158a576007805463ffffffff600160a01b918290048116600090815260126020526040902080546001600160a01b0319163317905582549190910416906014611558836128b0565b91906101000a81548163ffffffff021916908363ffffffff16021790555050808061158290612731565b915050611505565b50336000908152601360209081526040808320601d548452909152812080548492906115bd90849063ffffffff166128d3565b92506101000a81548163ffffffff021916908363ffffffff160217905550506115e66001600055565b50565b6115f1612281565b600d80546001600160a01b0319166001600160a01b0392909216919091179055565b6007546001600160a01b0316331461163d5760405162461bcd60e51b81526004016109a990612693565b600160115460ff166003811115611656576116566124c0565b146116995760405162461bcd60e51b81526020600482015260136024820152722637ba3a32b93c9034b9903737ba1037b832b760691b60448201526064016109a9565b600c5442116116df5760405162461bcd60e51b81526020600482015260126024820152714c6f7474657279206973206f6e676f696e6760701b60448201526064016109a9565b43601e8190555060007f00000000000000000000000000000000000000000000000000000000000000006001600160a01b031663699b328a346040518263ffffffff1660e01b815260040160206040518083038185885af1158015611748573d6000803e3d6000fd5b50505050506040513d601f19601f8201168201806040525081019061176d91906128f0565b9050348110156117af57336108fc6117858334612774565b6040518115909202916000818181858888f193505050501580156117ad573d6000803e3d6000fd5b505b506011805460ff19166002179055565b6117c7612281565b610f7360006123c2565b333b156117f05760405162461bcd60e51b81526004016109a99061282f565b33321461180f5760405162461bcd60e51b81526004016109a990612866565b611817611ff8565b6009546000036118595760405162461bcd60e51b815260206004820152600d60248201526c141c9a58d9481b9bdd081cd95d609a1b60448201526064016109a9565b8063ffffffff166000036118af5760405162461bcd60e51b815260206004820152601a60248201527f456e7465722063686f73656e20616d6f756e7420746f2062757900000000000060448201526064016109a9565b600a5463ffffffff90811690821611156118fe5760405162461bcd60e51b815260206004820152601060248201526f546f6f206d616e79207469636b65747360801b60448201526064016109a9565b600160115460ff166003811115611917576119176124c0565b1461195e5760405162461bcd60e51b8152602060048201526017602482015276131bdd1d195c9e481a5cc81b9bdd081bdc195b881e595d604a1b60448201526064016109a9565b600c5442106119a35760405162461bcd60e51b8152602060048201526011602482015270131bdd1d195c9e481a185cc8195b991959607a1b60448201526064016109a9565b6000600a60049054906101000a90046001600160a01b03166001600160a01b031663313ce5676040518163ffffffff1660e01b8152600401602060405180830381865afa1580156119f8573d6000803e3d6000fd5b505050506040513d601f19601f82011682018060405250810190611a1c9190612909565b9050600063ffffffff8316611a3283600a612a0a565b600b54611a3f91906127c1565b611a4991906127c1565b600a546040516323b872dd60e01b81523360048201523060248201526044810183905291925064010000000090046001600160a01b0316906323b872dd906064016020604051808303816000875af1158015611aa9573d6000803e3d6000fd5b505050506040513d601f19601f82011682018060405250810190611acd91906126bd565b50600a54604051630852cd8d60e31b8152600481018390526401000000009091046001600160a01b0316906342966c6890602401600060405180830381600087803b158015611b1b57600080fd5b505af1158015611b2f573d6000803e3d6000fd5b505050506000611b408460016122db565b905080341015611b875760405162461bcd60e51b8152602060048201526012602482015271496e73756666696369656e742066756e647360701b60448201526064016109a9565b8060086000828254611b99919061289d565b90915550600090505b8463ffffffff16811015611c27576007805463ffffffff600160a01b918290048116600090815260126020526040902080546001600160a01b0319163317905582549190910416906014611bf5836128b0565b91906101000a81548163ffffffff021916908363ffffffff160217905550508080611c1f90612731565b915050611ba2565b50336000908152601360209081526040808320601d54845290915281208054869290611c5a90849063ffffffff166128d3565b92506101000a81548163ffffffff021916908363ffffffff1602179055505050506115e66001600055565b611c8d612432565b611c95612432565b60005b60058160ff161015611d3b57601c546000906005906001908490611cbf9060ff16846127d8565b611cc99190612a19565b611cd39190612a19565b611cdd9190612a32565b905060178160ff1660058110611cf557611cf5612787565b01546001600160a01b03168360ff841660058110611d1557611d15612787565b6001600160a01b0390921660209290920201525080611d33816126f5565b915050611c98565b50919050565b6007546001600160a01b03163314611d6b5760405162461bcd60e51b81526004016109a990612693565b600160115460ff166003811115611d8457611d846124c0565b14611dc75760405162461bcd60e51b81526020600482015260136024820152722637ba3a32b93c9034b9903737ba1037b832b760691b60448201526064016109a9565b3460086000828254611dd9919061289d565b9091555050565b60ff8116600090815260166020908152604091829020805483518184028101840190945280845260609392830182828015611e4457602002820191906000526020600020905b81546001600160a01b03168152600190910190602001808311611e26575b50505050509050919050565b6007546001600160a01b03163314611e7a5760405162461bcd60e51b81526004016109a990612693565b600060115460ff166003811115611e9357611e936124c0565b14611eea5760405162461bcd60e51b815260206004820152602160248201527f4c617374204c6f747465727920686173206e6f742066696e69736865642079656044820152601d60fa1b60648201526084016109a9565b6011805460ff19166001179055600060088190556007805463ffffffff60a01b19169055601d805491611f1c83612731565b90915550611f2c9050814261289d565b600c5550565b611f3a612281565b6001600160a01b038116611f9f5760405162461bcd60e51b815260206004820152602660248201527f4f776e61626c653a206e6577206f776e657220697320746865207a65726f206160448201526564647265737360d01b60648201526084016109a9565b6115e6816123c2565b611fb0612281565b600b55565b611fbd612281565b600a80546001600160a01b0390921664010000000002640100000000600160c01b0319909216919091179055565b611ff3612281565b600e55565b60026000540361204a5760405162461bcd60e51b815260206004820152601f60248201527f5265656e7472616e637947756172643a207265656e7472616e742063616c6c0060448201526064016109a9565b6002600055565b63ffffffff83166000908152601260205260409020546001600160a01b0316806120ae5760405162461bcd60e51b815260206004820152600e60248201526d125b9d985b1a5908151a58dad95d60921b60448201526064016109a9565b6001600160a01b038116600090815260146020526040812080548592906120d690849061289d565b909155505060ff82166000908152601660209081526040822080546001810182559083529181902090910180546001600160a01b0319166001600160a01b0384161790555483111561213e57601f80546001600160a01b0319166001600160a01b0383161790555b6001600160a01b03811660009081526015602052604090205460ff8084169116118061218357506001600160a01b03811660009081526015602052604090205460ff16155b156121ae576001600160a01b0381166000908152601560205260409020805460ff191660ff84161790555b50505050565b63ffffffff81166000908152601260205260409020546001600160a01b0316806122115760405162461bcd60e51b815260206004820152600e60248201526d125b9d985b1a5908151a58dad95d60921b60448201526064016109a9565b601c54819060179060ff166005811061222c5761222c612787565b0180546001600160a01b0319166001600160a01b0392909216919091179055601c5460059061225f9060ff1660016127d8565b6122699190612a32565b601c805460ff191660ff929092169190911790555050565b6001546001600160a01b03163314610f735760405162461bcd60e51b815260206004820181905260248201527f4f776e61626c653a2063616c6c6572206973206e6f7420746865206f776e657260448201526064016109a9565b6000806009548463ffffffff166122f291906127c1565b600d546040516370a0823160e01b81523360048201529192506000916001600160a01b03909116906370a0823190602401602060405180830381865afa158015612340573d6000803e3d6000fd5b505050506040513d601f19601f8201168201806040525081019061236491906128f0565b90506000841561238957600a5461238690600160c01b900461ffff168261289d565b90505b811561239f57600e5461239c908261289d565b90505b6103e86123ac82856127c1565b6123b69190612760565b93505050505b92915050565b600180546001600160a01b038381166001600160a01b0319831681179093556040519116919082907f8be0079c531659141344cd1fd0a4f28419497f9722a3daafe3b4186f6b6457e090600090a35050565b50805460008255906000526020600020908101906115e69190612450565b6040518060a001604052806005906020820280368337509192915050565b5b808211156124655760008155600101612451565b5090565b60006020828403121561247b57600080fd5b5035919050565b80356001600160a01b038116811461249957600080fd5b919050565b6000602082840312156124b057600080fd5b6124b982612482565b9392505050565b634e487b7160e01b600052602160045260246000fd5b60208101600483106124f857634e487b7160e01b600052602160045260246000fd5b91905290565b600080600080600060a0868803121561251657600080fd5b61251f86612482565b945061252d60208701612482565b935061253b60408701612482565b925061254960608701612482565b915061255760808701612482565b90509295509295909350565b60006020828403121561257557600080fd5b813561ffff811681146124b957600080fd5b63ffffffff811681146115e657600080fd5b6000602082840312156125ab57600080fd5b81356124b981612587565b600080604083850312156125c957600080fd5b6125d283612482565b946020939093013593505050565b60a08101818360005b60058110156126115781516001600160a01b03168352602092830192909101906001016125e9565b50505092915050565b60ff811681146115e657600080fd5b60006020828403121561263b57600080fd5b81356124b98161261a565b6020808252825182820181905260009190848201906040850190845b818110156126875783516001600160a01b031683529284019291840191600101612662565b50909695505050505050565b60208082526010908201526f2737ba103a34329037b832b930ba37b960811b604082015260600190565b6000602082840312156126cf57600080fd5b815180151581146124b957600080fd5b634e487b7160e01b600052601160045260246000fd5b600060ff821660ff810361270b5761270b6126df565b60010192915050565b60006020828403121561272657600080fd5b81516124b981612587565b600060018201612743576127436126df565b5060010190565b634e487b7160e01b600052601260045260246000fd5b60008261276f5761276f61274a565b500490565b818103818111156123bc576123bc6126df565b634e487b7160e01b600052603260045260246000fd5b63ffffffff8281168282160390808211156127ba576127ba6126df565b5092915050565b80820281158282048414176123bc576123bc6126df565b60ff81811683821601908111156123bc576123bc6126df565b600081612800576128006126df565b506000190190565b6020808252600d908201526c456e746572206164647265737360981b604082015260600190565b60208082526017908201527f436f6e7472616374206973206e6f7420616c6c6f776564000000000000000000604082015260600190565b6020808252601d908201527f50726f787920636f6e7472616374206973206e6f7420616c6c6f776564000000604082015260600190565b808201808211156123bc576123bc6126df565b600063ffffffff8083168181036128c9576128c96126df565b6001019392505050565b63ffffffff8181168382160190808211156127ba576127ba6126df565b60006020828403121561290257600080fd5b5051919050565b60006020828403121561291b57600080fd5b81516124b98161261a565b600181815b80851115612961578160001904821115612947576129476126df565b8085161561295457918102915b93841c939080029061292b565b509250929050565b600082612978575060016123bc565b81612985575060006123bc565b816001811461299b57600281146129a5576129c1565b60019150506123bc565b60ff8411156129b6576129b66126df565b50506001821b6123bc565b5060208310610133831016604e8410600b84101617156129e4575081810a6123bc565b6129ee8383612926565b8060001904821115612a0257612a026126df565b029392505050565b60006124b960ff841683612969565b60ff82811682821603908111156123bc576123bc6126df565b600060ff831680612a4557612a4561274a565b8060ff8416069150509291505056fea26469706673582212208ed633c0498955b60b916ce5b5f88ebced987bd45f4eea69fd30816d7212ab1a64736f6c63430008110033",
  "linkReferences": {},
  "deployedLinkReferences": {}
}