{
  "_format": "hh-sol-artifact-1",
  "contractName": "WitnetProxy",
  "sourceName": "contracts/witnet/impls/WitnetProxy.sol",
  "abi": [
    {
      "inputs": [],
      "stateMutability": "nonpayable",
      "type": "constructor"
    },
    {
      "anonymous": false,
      "inputs": [
        {
          "indexed": true,
          "internalType": "address",
          "name": "implementation",
          "type": "address"
        }
      ],
      "name": "Upgraded",
      "type": "event"
    },
    {
      "stateMutability": "payable",
      "type": "fallback"
    },
    {
      "inputs": [],
      "name": "implementation",
      "outputs": [
        {
          "internalType": "address",
          "name": "",
          "type": "address"
        }
      ],
      "stateMutability": "view",
      "type": "function"
    },
    {
      "inputs": [
        {
          "internalType": "address",
          "name": "_newImplementation",
          "type": "address"
        },
        {
          "internalType": "bytes",
          "name": "_initData",
          "type": "bytes"
        }
      ],
      "name": "upgradeTo",
      "outputs": [
        {
          "internalType": "bool",
          "name": "",
          "type": "bool"
        }
      ],
      "stateMutability": "nonpayable",
      "type": "function"
    },
    {
      "stateMutability": "payable",
      "type": "receive"
    }
  ],
  "bytecode": "0x608060405234801561001057600080fd5b50610963806100206000396000f3fe60806040526004361061002d5760003560e01c80635c60da1b146100bb5780636fbc15e9146100ed5761008a565b3661008a5760405162461bcd60e51b815260206004820152602260248201527f5769746e657450726f78793a206e6f207472616e736665727320616363657074604482015261195960f21b60648201526084015b60405180910390fd5b600061009461011d565b905060405136600082376000803683855af43d806000843e8180156100b7578184f35b8184fd5b3480156100c757600080fd5b506100d061011d565b6040516001600160a01b0390911681526020015b60405180910390f35b3480156100f957600080fd5b5061010d6101083660046107a8565b61014b565b60405190151581526020016100e4565b7f360894a13ba1a3210667c828492db98dca3e2076cc3735a920a3ca505d382bbc546001600160a01b031690565b60006001600160a01b0383166101a35760405162461bcd60e51b815260206004820181905260248201527f5769746e657450726f78793a206e756c6c20696d706c656d656e746174696f6e6044820152606401610081565b60006101ad61011d565b90506001600160a01b0381161561058957806001600160a01b0316846001600160a01b03160361021f5760405162461bcd60e51b815260206004820152601f60248201527f5769746e657450726f78793a206e6f7468696e6720746f2075706772616465006044820152606401610081565b806001600160a01b0316635479d9406040518163ffffffff1660e01b8152600401602060405180830381865afa925050508015610279575060408051601f3d908101601f1916820190925261027691810190610878565b60015b6102d85760405162461bcd60e51b815260206004820152602a60248201527f5769746e657450726f78793a20756e61626c6520746f20636865636b207570676044820152697261646162696c69747960b01b6064820152608401610081565b806103255760405162461bcd60e51b815260206004820152601b60248201527f5769746e657450726f78793a206e6f742075706772616461626c6500000000006044820152606401610081565b5060405133602482015260009081906001600160a01b0384169060440160408051601f198184030181529181526020820180516001600160e01b03166335ac4b0560e11b1790525161037791906108c5565b600060405180830381855af49150503d80600081146103b2576040519150601f19603f3d011682016040523d82523d6000602084013e6103b7565b606091505b5091509150816104095760405162461bcd60e51b815260206004820152601a60248201527f5769746e657450726f78793a206e6f7420636f6d706c69616e740000000000006044820152606401610081565b8080602001905181019061041d9190610878565b6104695760405162461bcd60e51b815260206004820152601b60248201527f5769746e657450726f78793a206e6f7420617574686f72697a656400000000006044820152606401610081565b856001600160a01b03166352d1902d6040518163ffffffff1660e01b8152600401602060405180830381865afa1580156104a7573d6000803e3d6000fd5b505050506040513d601f19601f820116820180604052508101906104cb91906108e1565b836001600160a01b03166352d1902d6040518163ffffffff1660e01b8152600401602060405180830381865afa158015610509573d6000803e3d6000fd5b505050506040513d601f19601f8201168201806040525081019061052d91906108e1565b146105865760405162461bcd60e51b8152602060048201526024808201527f5769746e657450726f78793a2070726f786961626c655555494473206d69736d6044820152630c2e8c6d60e31b6064820152608401610081565b50505b6000846001600160a01b0316846040516024016105a691906108fa565b60408051601f198184030181529181526020820180516001600160e01b031663439fab9160e01b179052516105db91906108c5565b600060405180830381855af49150503d8060008114610616576040519150601f19603f3d011682016040523d82523d6000602084013e61061b565b606091505b50509050806106765760405162461bcd60e51b815260206004820152602160248201527f5769746e657450726f78793a20756e61626c6520746f20696e697469616c697a6044820152606560f81b6064820152608401610081565b7f360894a13ba1a3210667c828492db98dca3e2076cc3735a920a3ca505d382bbc80546001600160a01b0319166001600160a01b0387169081179091556040517fbc7cd75a20ee27fd9adebab32041f755214dbc6bffa90cc0225b39da2e5c2d3b90600090a2846001600160a01b0316635479d9406040518163ffffffff1660e01b8152600401602060405180830381865afa925050508015610736575060408051601f3d908101601f1916820190925261073391810190610878565b60015b6107825760405162461bcd60e51b815260206004820152601a60248201527f5769746e657450726f78793a206e6f7420636f6d706c69616e740000000000006044820152606401610081565b925061078c915050565b92915050565b634e487b7160e01b600052604160045260246000fd5b600080604083850312156107bb57600080fd5b82356001600160a01b03811681146107d257600080fd5b9150602083013567ffffffffffffffff808211156107ef57600080fd5b818501915085601f83011261080357600080fd5b81358181111561081557610815610792565b604051601f8201601f19908116603f0116810190838211818310171561083d5761083d610792565b8160405282815288602084870101111561085657600080fd5b8260208601602083013760006020848301015280955050505050509250929050565b60006020828403121561088a57600080fd5b8151801515811461089a57600080fd5b9392505050565b60005b838110156108bc5781810151838201526020016108a4565b50506000910152565b600082516108d78184602087016108a1565b9190910192915050565b6000602082840312156108f357600080fd5b5051919050565b60208152600082518060208401526109198160408501602087016108a1565b601f01601f1916919091016040019291505056fea26469706673582212201e3b21e9878c88c6425747818e5ac9ed84603ff354085e1d67aba45ab06a1fb164736f6c63430008110033",
  "linkReferences": {},
  "deployedLinkReferences": {}
}