{
  "_format": "hh-sol-artifact-1",
  "contractName": "WitnetRequestBoardTrustableOvm2",
  "sourceName": "contracts/witnet/impls/trustable/WitnetRequestBoardTrustableOvm2.sol",
  "abi": [
    {
      "inputs": [
        {
          "internalType": "bool",
          "name": "_upgradable",
          "type": "bool"
        },
        {
          "internalType": "bytes32",
          "name": "_versionTag",
          "type": "bytes32"
        },
        {
          "internalType": "uint256",
          "name": "_reportResultGasLimit",
          "type": "uint256"
        }
      ],
      "stateMutability": "nonpayable",
      "type": "constructor"
    },
    {
      "anonymous": false,
      "inputs": [
        {
          "indexed": false,
          "internalType": "uint256",
          "name": "queryId",
          "type": "uint256"
        },
        {
          "indexed": false,
          "internalType": "string",
          "name": "reason",
          "type": "string"
        }
      ],
      "name": "BatchReportError",
      "type": "event"
    },
    {
      "anonymous": false,
      "inputs": [
        {
          "indexed": false,
          "internalType": "uint256",
          "name": "queryId",
          "type": "uint256"
        },
        {
          "indexed": false,
          "internalType": "address",
          "name": "from",
          "type": "address"
        }
      ],
      "name": "DeletedQuery",
      "type": "event"
    },
    {
      "anonymous": false,
      "inputs": [
        {
          "indexed": true,
          "internalType": "address",
          "name": "from",
          "type": "address"
        },
        {
          "indexed": true,
          "internalType": "address",
          "name": "to",
          "type": "address"
        }
      ],
      "name": "OwnershipTransferred",
      "type": "event"
    },
    {
      "anonymous": false,
      "inputs": [
        {
          "indexed": false,
          "internalType": "uint256",
          "name": "queryId",
          "type": "uint256"
        },
        {
          "indexed": false,
          "internalType": "address",
          "name": "from",
          "type": "address"
        }
      ],
      "name": "PostedRequest",
      "type": "event"
    },
    {
      "anonymous": false,
      "inputs": [
        {
          "indexed": false,
          "internalType": "uint256",
          "name": "queryId",
          "type": "uint256"
        },
        {
          "indexed": false,
          "internalType": "address",
          "name": "from",
          "type": "address"
        }
      ],
      "name": "PostedResult",
      "type": "event"
    },
    {
      "anonymous": false,
      "inputs": [
        {
          "indexed": false,
          "internalType": "address",
          "name": "from",
          "type": "address"
        },
        {
          "indexed": false,
          "internalType": "uint256",
          "name": "amount",
          "type": "uint256"
        }
      ],
      "name": "Received",
      "type": "event"
    },
    {
      "anonymous": false,
      "inputs": [
        {
          "indexed": false,
          "internalType": "address[]",
          "name": "reporters",
          "type": "address[]"
        }
      ],
      "name": "ReportersSet",
      "type": "event"
    },
    {
      "anonymous": false,
      "inputs": [
        {
          "indexed": false,
          "internalType": "address[]",
          "name": "reporters",
          "type": "address[]"
        }
      ],
      "name": "ReportersUnset",
      "type": "event"
    },
    {
      "anonymous": false,
      "inputs": [
        {
          "indexed": false,
          "internalType": "address",
          "name": "to",
          "type": "address"
        },
        {
          "indexed": false,
          "internalType": "uint256",
          "name": "amount",
          "type": "uint256"
        }
      ],
      "name": "Transfer",
      "type": "event"
    },
    {
      "anonymous": false,
      "inputs": [
        {
          "indexed": true,
          "internalType": "address",
          "name": "from",
          "type": "address"
        },
        {
          "indexed": true,
          "internalType": "address",
          "name": "baseAddr",
          "type": "address"
        },
        {
          "indexed": true,
          "internalType": "bytes32",
          "name": "baseCodehash",
          "type": "bytes32"
        },
        {
          "indexed": false,
          "internalType": "bytes32",
          "name": "versionTag",
          "type": "bytes32"
        }
      ],
      "name": "Upgraded",
      "type": "event"
    },
    {
      "stateMutability": "payable",
      "type": "fallback"
    },
    {
      "inputs": [
        {
          "components": [
            {
              "internalType": "bool",
              "name": "success",
              "type": "bool"
            },
            {
              "components": [
                {
                  "components": [
                    {
                      "internalType": "bytes",
                      "name": "data",
                      "type": "bytes"
                    },
                    {
                      "internalType": "uint32",
                      "name": "cursor",
                      "type": "uint32"
                    }
                  ],
                  "internalType": "struct Witnet.Buffer",
                  "name": "buffer",
                  "type": "tuple"
                },
                {
                  "internalType": "uint8",
                  "name": "initialByte",
                  "type": "uint8"
                },
                {
                  "internalType": "uint8",
                  "name": "majorType",
                  "type": "uint8"
                },
                {
                  "internalType": "uint8",
                  "name": "additionalInformation",
                  "type": "uint8"
                },
                {
                  "internalType": "uint64",
                  "name": "len",
                  "type": "uint64"
                },
                {
                  "internalType": "uint64",
                  "name": "tag",
                  "type": "uint64"
                }
              ],
              "internalType": "struct Witnet.CBOR",
              "name": "value",
              "type": "tuple"
            }
          ],
          "internalType": "struct Witnet.Result",
          "name": "_result",
          "type": "tuple"
        }
      ],
      "name": "asBool",
      "outputs": [
        {
          "internalType": "bool",
          "name": "",
          "type": "bool"
        }
      ],
      "stateMutability": "pure",
      "type": "function"
    },
    {
      "inputs": [
        {
          "components": [
            {
              "internalType": "bool",
              "name": "success",
              "type": "bool"
            },
            {
              "components": [
                {
                  "components": [
                    {
                      "internalType": "bytes",
                      "name": "data",
                      "type": "bytes"
                    },
                    {
                      "internalType": "uint32",
                      "name": "cursor",
                      "type": "uint32"
                    }
                  ],
                  "internalType": "struct Witnet.Buffer",
                  "name": "buffer",
                  "type": "tuple"
                },
                {
                  "internalType": "uint8",
                  "name": "initialByte",
                  "type": "uint8"
                },
                {
                  "internalType": "uint8",
                  "name": "majorType",
                  "type": "uint8"
                },
                {
                  "internalType": "uint8",
                  "name": "additionalInformation",
                  "type": "uint8"
                },
                {
                  "internalType": "uint64",
                  "name": "len",
                  "type": "uint64"
                },
                {
                  "internalType": "uint64",
                  "name": "tag",
                  "type": "uint64"
                }
              ],
              "internalType": "struct Witnet.CBOR",
              "name": "value",
              "type": "tuple"
            }
          ],
          "internalType": "struct Witnet.Result",
          "name": "_result",
          "type": "tuple"
        }
      ],
      "name": "asBytes",
      "outputs": [
        {
          "internalType": "bytes",
          "name": "",
          "type": "bytes"
        }
      ],
      "stateMutability": "pure",
      "type": "function"
    },
    {
      "inputs": [
        {
          "components": [
            {
              "internalType": "bool",
              "name": "success",
              "type": "bool"
            },
            {
              "components": [
                {
                  "components": [
                    {
                      "internalType": "bytes",
                      "name": "data",
                      "type": "bytes"
                    },
                    {
                      "internalType": "uint32",
                      "name": "cursor",
                      "type": "uint32"
                    }
                  ],
                  "internalType": "struct Witnet.Buffer",
                  "name": "buffer",
                  "type": "tuple"
                },
                {
                  "internalType": "uint8",
                  "name": "initialByte",
                  "type": "uint8"
                },
                {
                  "internalType": "uint8",
                  "name": "majorType",
                  "type": "uint8"
                },
                {
                  "internalType": "uint8",
                  "name": "additionalInformation",
                  "type": "uint8"
                },
                {
                  "internalType": "uint64",
                  "name": "len",
                  "type": "uint64"
                },
                {
                  "internalType": "uint64",
                  "name": "tag",
                  "type": "uint64"
                }
              ],
              "internalType": "struct Witnet.CBOR",
              "name": "value",
              "type": "tuple"
            }
          ],
          "internalType": "struct Witnet.Result",
          "name": "_result",
          "type": "tuple"
        }
      ],
      "name": "asBytes32",
      "outputs": [
        {
          "internalType": "bytes32",
          "name": "",
          "type": "bytes32"
        }
      ],
      "stateMutability": "pure",
      "type": "function"
    },
    {
      "inputs": [
        {
          "components": [
            {
              "internalType": "bool",
              "name": "success",
              "type": "bool"
            },
            {
              "components": [
                {
                  "components": [
                    {
                      "internalType": "bytes",
                      "name": "data",
                      "type": "bytes"
                    },
                    {
                      "internalType": "uint32",
                      "name": "cursor",
                      "type": "uint32"
                    }
                  ],
                  "internalType": "struct Witnet.Buffer",
                  "name": "buffer",
                  "type": "tuple"
                },
                {
                  "internalType": "uint8",
                  "name": "initialByte",
                  "type": "uint8"
                },
                {
                  "internalType": "uint8",
                  "name": "majorType",
                  "type": "uint8"
                },
                {
                  "internalType": "uint8",
                  "name": "additionalInformation",
                  "type": "uint8"
                },
                {
                  "internalType": "uint64",
                  "name": "len",
                  "type": "uint64"
                },
                {
                  "internalType": "uint64",
                  "name": "tag",
                  "type": "uint64"
                }
              ],
              "internalType": "struct Witnet.CBOR",
              "name": "value",
              "type": "tuple"
            }
          ],
          "internalType": "struct Witnet.Result",
          "name": "_result",
          "type": "tuple"
        }
      ],
      "name": "asErrorCode",
      "outputs": [
        {
          "internalType": "enum Witnet.ErrorCodes",
          "name": "",
          "type": "uint8"
        }
      ],
      "stateMutability": "pure",
      "type": "function"
    },
    {
      "inputs": [
        {
          "components": [
            {
              "internalType": "bool",
              "name": "success",
              "type": "bool"
            },
            {
              "components": [
                {
                  "components": [
                    {
                      "internalType": "bytes",
                      "name": "data",
                      "type": "bytes"
                    },
                    {
                      "internalType": "uint32",
                      "name": "cursor",
                      "type": "uint32"
                    }
                  ],
                  "internalType": "struct Witnet.Buffer",
                  "name": "buffer",
                  "type": "tuple"
                },
                {
                  "internalType": "uint8",
                  "name": "initialByte",
                  "type": "uint8"
                },
                {
                  "internalType": "uint8",
                  "name": "majorType",
                  "type": "uint8"
                },
                {
                  "internalType": "uint8",
                  "name": "additionalInformation",
                  "type": "uint8"
                },
                {
                  "internalType": "uint64",
                  "name": "len",
                  "type": "uint64"
                },
                {
                  "internalType": "uint64",
                  "name": "tag",
                  "type": "uint64"
                }
              ],
              "internalType": "struct Witnet.CBOR",
              "name": "value",
              "type": "tuple"
            }
          ],
          "internalType": "struct Witnet.Result",
          "name": "_result",
          "type": "tuple"
        }
      ],
      "name": "asErrorMessage",
      "outputs": [
        {
          "internalType": "enum Witnet.ErrorCodes",
          "name": "",
          "type": "uint8"
        },
        {
          "internalType": "string",
          "name": "",
          "type": "string"
        }
      ],
      "stateMutability": "pure",
      "type": "function"
    },
    {
      "inputs": [
        {
          "components": [
            {
              "internalType": "bool",
              "name": "success",
              "type": "bool"
            },
            {
              "components": [
                {
                  "components": [
                    {
                      "internalType": "bytes",
                      "name": "data",
                      "type": "bytes"
                    },
                    {
                      "internalType": "uint32",
                      "name": "cursor",
                      "type": "uint32"
                    }
                  ],
                  "internalType": "struct Witnet.Buffer",
                  "name": "buffer",
                  "type": "tuple"
                },
                {
                  "internalType": "uint8",
                  "name": "initialByte",
                  "type": "uint8"
                },
                {
                  "internalType": "uint8",
                  "name": "majorType",
                  "type": "uint8"
                },
                {
                  "internalType": "uint8",
                  "name": "additionalInformation",
                  "type": "uint8"
                },
                {
                  "internalType": "uint64",
                  "name": "len",
                  "type": "uint64"
                },
                {
                  "internalType": "uint64",
                  "name": "tag",
                  "type": "uint64"
                }
              ],
              "internalType": "struct Witnet.CBOR",
              "name": "value",
              "type": "tuple"
            }
          ],
          "internalType": "struct Witnet.Result",
          "name": "_result",
          "type": "tuple"
        }
      ],
      "name": "asFixed16",
      "outputs": [
        {
          "internalType": "int32",
          "name": "",
          "type": "int32"
        }
      ],
      "stateMutability": "pure",
      "type": "function"
    },
    {
      "inputs": [
        {
          "components": [
            {
              "internalType": "bool",
              "name": "success",
              "type": "bool"
            },
            {
              "components": [
                {
                  "components": [
                    {
                      "internalType": "bytes",
                      "name": "data",
                      "type": "bytes"
                    },
                    {
                      "internalType": "uint32",
                      "name": "cursor",
                      "type": "uint32"
                    }
                  ],
                  "internalType": "struct Witnet.Buffer",
                  "name": "buffer",
                  "type": "tuple"
                },
                {
                  "internalType": "uint8",
                  "name": "initialByte",
                  "type": "uint8"
                },
                {
                  "internalType": "uint8",
                  "name": "majorType",
                  "type": "uint8"
                },
                {
                  "internalType": "uint8",
                  "name": "additionalInformation",
                  "type": "uint8"
                },
                {
                  "internalType": "uint64",
                  "name": "len",
                  "type": "uint64"
                },
                {
                  "internalType": "uint64",
                  "name": "tag",
                  "type": "uint64"
                }
              ],
              "internalType": "struct Witnet.CBOR",
              "name": "value",
              "type": "tuple"
            }
          ],
          "internalType": "struct Witnet.Result",
          "name": "_result",
          "type": "tuple"
        }
      ],
      "name": "asFixed16Array",
      "outputs": [
        {
          "internalType": "int32[]",
          "name": "",
          "type": "int32[]"
        }
      ],
      "stateMutability": "pure",
      "type": "function"
    },
    {
      "inputs": [
        {
          "components": [
            {
              "internalType": "bool",
              "name": "success",
              "type": "bool"
            },
            {
              "components": [
                {
                  "components": [
                    {
                      "internalType": "bytes",
                      "name": "data",
                      "type": "bytes"
                    },
                    {
                      "internalType": "uint32",
                      "name": "cursor",
                      "type": "uint32"
                    }
                  ],
                  "internalType": "struct Witnet.Buffer",
                  "name": "buffer",
                  "type": "tuple"
                },
                {
                  "internalType": "uint8",
                  "name": "initialByte",
                  "type": "uint8"
                },
                {
                  "internalType": "uint8",
                  "name": "majorType",
                  "type": "uint8"
                },
                {
                  "internalType": "uint8",
                  "name": "additionalInformation",
                  "type": "uint8"
                },
                {
                  "internalType": "uint64",
                  "name": "len",
                  "type": "uint64"
                },
                {
                  "internalType": "uint64",
                  "name": "tag",
                  "type": "uint64"
                }
              ],
              "internalType": "struct Witnet.CBOR",
              "name": "value",
              "type": "tuple"
            }
          ],
          "internalType": "struct Witnet.Result",
          "name": "_result",
          "type": "tuple"
        }
      ],
      "name": "asInt128",
      "outputs": [
        {
          "internalType": "int128",
          "name": "",
          "type": "int128"
        }
      ],
      "stateMutability": "pure",
      "type": "function"
    },
    {
      "inputs": [
        {
          "components": [
            {
              "internalType": "bool",
              "name": "success",
              "type": "bool"
            },
            {
              "components": [
                {
                  "components": [
                    {
                      "internalType": "bytes",
                      "name": "data",
                      "type": "bytes"
                    },
                    {
                      "internalType": "uint32",
                      "name": "cursor",
                      "type": "uint32"
                    }
                  ],
                  "internalType": "struct Witnet.Buffer",
                  "name": "buffer",
                  "type": "tuple"
                },
                {
                  "internalType": "uint8",
                  "name": "initialByte",
                  "type": "uint8"
                },
                {
                  "internalType": "uint8",
                  "name": "majorType",
                  "type": "uint8"
                },
                {
                  "internalType": "uint8",
                  "name": "additionalInformation",
                  "type": "uint8"
                },
                {
                  "internalType": "uint64",
                  "name": "len",
                  "type": "uint64"
                },
                {
                  "internalType": "uint64",
                  "name": "tag",
                  "type": "uint64"
                }
              ],
              "internalType": "struct Witnet.CBOR",
              "name": "value",
              "type": "tuple"
            }
          ],
          "internalType": "struct Witnet.Result",
          "name": "_result",
          "type": "tuple"
        }
      ],
      "name": "asInt128Array",
      "outputs": [
        {
          "internalType": "int128[]",
          "name": "",
          "type": "int128[]"
        }
      ],
      "stateMutability": "pure",
      "type": "function"
    },
    {
      "inputs": [
        {
          "components": [
            {
              "internalType": "bool",
              "name": "success",
              "type": "bool"
            },
            {
              "components": [
                {
                  "components": [
                    {
                      "internalType": "bytes",
                      "name": "data",
                      "type": "bytes"
                    },
                    {
                      "internalType": "uint32",
                      "name": "cursor",
                      "type": "uint32"
                    }
                  ],
                  "internalType": "struct Witnet.Buffer",
                  "name": "buffer",
                  "type": "tuple"
                },
                {
                  "internalType": "uint8",
                  "name": "initialByte",
                  "type": "uint8"
                },
                {
                  "internalType": "uint8",
                  "name": "majorType",
                  "type": "uint8"
                },
                {
                  "internalType": "uint8",
                  "name": "additionalInformation",
                  "type": "uint8"
                },
                {
                  "internalType": "uint64",
                  "name": "len",
                  "type": "uint64"
                },
                {
                  "internalType": "uint64",
                  "name": "tag",
                  "type": "uint64"
                }
              ],
              "internalType": "struct Witnet.CBOR",
              "name": "value",
              "type": "tuple"
            }
          ],
          "internalType": "struct Witnet.Result",
          "name": "_result",
          "type": "tuple"
        }
      ],
      "name": "asRawError",
      "outputs": [
        {
          "internalType": "uint64[]",
          "name": "",
          "type": "uint64[]"
        }
      ],
      "stateMutability": "pure",
      "type": "function"
    },
    {
      "inputs": [
        {
          "components": [
            {
              "internalType": "bool",
              "name": "success",
              "type": "bool"
            },
            {
              "components": [
                {
                  "components": [
                    {
                      "internalType": "bytes",
                      "name": "data",
                      "type": "bytes"
                    },
                    {
                      "internalType": "uint32",
                      "name": "cursor",
                      "type": "uint32"
                    }
                  ],
                  "internalType": "struct Witnet.Buffer",
                  "name": "buffer",
                  "type": "tuple"
                },
                {
                  "internalType": "uint8",
                  "name": "initialByte",
                  "type": "uint8"
                },
                {
                  "internalType": "uint8",
                  "name": "majorType",
                  "type": "uint8"
                },
                {
                  "internalType": "uint8",
                  "name": "additionalInformation",
                  "type": "uint8"
                },
                {
                  "internalType": "uint64",
                  "name": "len",
                  "type": "uint64"
                },
                {
                  "internalType": "uint64",
                  "name": "tag",
                  "type": "uint64"
                }
              ],
              "internalType": "struct Witnet.CBOR",
              "name": "value",
              "type": "tuple"
            }
          ],
          "internalType": "struct Witnet.Result",
          "name": "_result",
          "type": "tuple"
        }
      ],
      "name": "asString",
      "outputs": [
        {
          "internalType": "string",
          "name": "",
          "type": "string"
        }
      ],
      "stateMutability": "pure",
      "type": "function"
    },
    {
      "inputs": [
        {
          "components": [
            {
              "internalType": "bool",
              "name": "success",
              "type": "bool"
            },
            {
              "components": [
                {
                  "components": [
                    {
                      "internalType": "bytes",
                      "name": "data",
                      "type": "bytes"
                    },
                    {
                      "internalType": "uint32",
                      "name": "cursor",
                      "type": "uint32"
                    }
                  ],
                  "internalType": "struct Witnet.Buffer",
                  "name": "buffer",
                  "type": "tuple"
                },
                {
                  "internalType": "uint8",
                  "name": "initialByte",
                  "type": "uint8"
                },
                {
                  "internalType": "uint8",
                  "name": "majorType",
                  "type": "uint8"
                },
                {
                  "internalType": "uint8",
                  "name": "additionalInformation",
                  "type": "uint8"
                },
                {
                  "internalType": "uint64",
                  "name": "len",
                  "type": "uint64"
                },
                {
                  "internalType": "uint64",
                  "name": "tag",
                  "type": "uint64"
                }
              ],
              "internalType": "struct Witnet.CBOR",
              "name": "value",
              "type": "tuple"
            }
          ],
          "internalType": "struct Witnet.Result",
          "name": "_result",
          "type": "tuple"
        }
      ],
      "name": "asStringArray",
      "outputs": [
        {
          "internalType": "string[]",
          "name": "",
          "type": "string[]"
        }
      ],
      "stateMutability": "pure",
      "type": "function"
    },
    {
      "inputs": [
        {
          "components": [
            {
              "internalType": "bool",
              "name": "success",
              "type": "bool"
            },
            {
              "components": [
                {
                  "components": [
                    {
                      "internalType": "bytes",
                      "name": "data",
                      "type": "bytes"
                    },
                    {
                      "internalType": "uint32",
                      "name": "cursor",
                      "type": "uint32"
                    }
                  ],
                  "internalType": "struct Witnet.Buffer",
                  "name": "buffer",
                  "type": "tuple"
                },
                {
                  "internalType": "uint8",
                  "name": "initialByte",
                  "type": "uint8"
                },
                {
                  "internalType": "uint8",
                  "name": "majorType",
                  "type": "uint8"
                },
                {
                  "internalType": "uint8",
                  "name": "additionalInformation",
                  "type": "uint8"
                },
                {
                  "internalType": "uint64",
                  "name": "len",
                  "type": "uint64"
                },
                {
                  "internalType": "uint64",
                  "name": "tag",
                  "type": "uint64"
                }
              ],
              "internalType": "struct Witnet.CBOR",
              "name": "value",
              "type": "tuple"
            }
          ],
          "internalType": "struct Witnet.Result",
          "name": "_result",
          "type": "tuple"
        }
      ],
      "name": "asUint64",
      "outputs": [
        {
          "internalType": "uint64",
          "name": "",
          "type": "uint64"
        }
      ],
      "stateMutability": "pure",
      "type": "function"
    },
    {
      "inputs": [
        {
          "components": [
            {
              "internalType": "bool",
              "name": "success",
              "type": "bool"
            },
            {
              "components": [
                {
                  "components": [
                    {
                      "internalType": "bytes",
                      "name": "data",
                      "type": "bytes"
                    },
                    {
                      "internalType": "uint32",
                      "name": "cursor",
                      "type": "uint32"
                    }
                  ],
                  "internalType": "struct Witnet.Buffer",
                  "name": "buffer",
                  "type": "tuple"
                },
                {
                  "internalType": "uint8",
                  "name": "initialByte",
                  "type": "uint8"
                },
                {
                  "internalType": "uint8",
                  "name": "majorType",
                  "type": "uint8"
                },
                {
                  "internalType": "uint8",
                  "name": "additionalInformation",
                  "type": "uint8"
                },
                {
                  "internalType": "uint64",
                  "name": "len",
                  "type": "uint64"
                },
                {
                  "internalType": "uint64",
                  "name": "tag",
                  "type": "uint64"
                }
              ],
              "internalType": "struct Witnet.CBOR",
              "name": "value",
              "type": "tuple"
            }
          ],
          "internalType": "struct Witnet.Result",
          "name": "_result",
          "type": "tuple"
        }
      ],
      "name": "asUint64Array",
      "outputs": [
        {
          "internalType": "uint64[]",
          "name": "",
          "type": "uint64[]"
        }
      ],
      "stateMutability": "pure",
      "type": "function"
    },
    {
      "inputs": [],
      "name": "base",
      "outputs": [
        {
          "internalType": "address",
          "name": "",
          "type": "address"
        }
      ],
      "stateMutability": "view",
      "type": "function"
    },
    {
      "inputs": [],
      "name": "codehash",
      "outputs": [
        {
          "internalType": "bytes32",
          "name": "_codehash",
          "type": "bytes32"
        }
      ],
      "stateMutability": "view",
      "type": "function"
    },
    {
      "inputs": [],
      "name": "currency",
      "outputs": [
        {
          "internalType": "contract IERC20",
          "name": "",
          "type": "address"
        }
      ],
      "stateMutability": "view",
      "type": "function"
    },
    {
      "inputs": [
        {
          "internalType": "uint256",
          "name": "_queryId",
          "type": "uint256"
        }
      ],
      "name": "deleteQuery",
      "outputs": [
        {
          "components": [
            {
              "internalType": "address",
              "name": "reporter",
              "type": "address"
            },
            {
              "internalType": "uint256",
              "name": "timestamp",
              "type": "uint256"
            },
            {
              "internalType": "bytes32",
              "name": "drTxHash",
              "type": "bytes32"
            },
            {
              "internalType": "bytes",
              "name": "cborBytes",
              "type": "bytes"
            }
          ],
          "internalType": "struct Witnet.Response",
          "name": "_response",
          "type": "tuple"
        }
      ],
      "stateMutability": "nonpayable",
      "type": "function"
    },
    {
      "inputs": [],
      "name": "destruct",
      "outputs": [],
      "stateMutability": "nonpayable",
      "type": "function"
    },
    {
      "inputs": [
        {
          "internalType": "uint256",
          "name": "_gasPrice",
          "type": "uint256"
        }
      ],
      "name": "estimateReward",
      "outputs": [
        {
          "internalType": "uint256",
          "name": "",
          "type": "uint256"
        }
      ],
      "stateMutability": "view",
      "type": "function"
    },
    {
      "inputs": [],
      "name": "gasPriceOracleL1",
      "outputs": [
        {
          "internalType": "contract OVM_GasPriceOracle",
          "name": "",
          "type": "address"
        }
      ],
      "stateMutability": "view",
      "type": "function"
    },
    {
      "inputs": [],
      "name": "getNextQueryId",
      "outputs": [
        {
          "internalType": "uint256",
          "name": "",
          "type": "uint256"
        }
      ],
      "stateMutability": "view",
      "type": "function"
    },
    {
      "inputs": [
        {
          "internalType": "uint256",
          "name": "_queryId",
          "type": "uint256"
        }
      ],
      "name": "getQueryData",
      "outputs": [
        {
          "components": [
            {
              "components": [
                {
                  "internalType": "contract IWitnetRequest",
                  "name": "addr",
                  "type": "address"
                },
                {
                  "internalType": "address",
                  "name": "requester",
                  "type": "address"
                },
                {
                  "internalType": "bytes32",
                  "name": "hash",
                  "type": "bytes32"
                },
                {
                  "internalType": "uint256",
                  "name": "gasprice",
                  "type": "uint256"
                },
                {
                  "internalType": "uint256",
                  "name": "reward",
                  "type": "uint256"
                }
              ],
              "internalType": "struct Witnet.Request",
              "name": "request",
              "type": "tuple"
            },
            {
              "components": [
                {
                  "internalType": "address",
                  "name": "reporter",
                  "type": "address"
                },
                {
                  "internalType": "uint256",
                  "name": "timestamp",
                  "type": "uint256"
                },
                {
                  "internalType": "bytes32",
                  "name": "drTxHash",
                  "type": "bytes32"
                },
                {
                  "internalType": "bytes",
                  "name": "cborBytes",
                  "type": "bytes"
                }
              ],
              "internalType": "struct Witnet.Response",
              "name": "response",
              "type": "tuple"
            },
            {
              "internalType": "address",
              "name": "from",
              "type": "address"
            }
          ],
          "internalType": "struct Witnet.Query",
          "name": "",
          "type": "tuple"
        }
      ],
      "stateMutability": "view",
      "type": "function"
    },
    {
      "inputs": [
        {
          "internalType": "uint256",
          "name": "_queryId",
          "type": "uint256"
        }
      ],
      "name": "getQueryStatus",
      "outputs": [
        {
          "internalType": "enum Witnet.QueryStatus",
          "name": "",
          "type": "uint8"
        }
      ],
      "stateMutability": "view",
      "type": "function"
    },
    {
      "inputs": [
        {
          "internalType": "bytes",
          "name": "_initData",
          "type": "bytes"
        }
      ],
      "name": "initialize",
      "outputs": [],
      "stateMutability": "nonpayable",
      "type": "function"
    },
    {
      "inputs": [
        {
          "components": [
            {
              "internalType": "bool",
              "name": "success",
              "type": "bool"
            },
            {
              "components": [
                {
                  "components": [
                    {
                      "internalType": "bytes",
                      "name": "data",
                      "type": "bytes"
                    },
                    {
                      "internalType": "uint32",
                      "name": "cursor",
                      "type": "uint32"
                    }
                  ],
                  "internalType": "struct Witnet.Buffer",
                  "name": "buffer",
                  "type": "tuple"
                },
                {
                  "internalType": "uint8",
                  "name": "initialByte",
                  "type": "uint8"
                },
                {
                  "internalType": "uint8",
                  "name": "majorType",
                  "type": "uint8"
                },
                {
                  "internalType": "uint8",
                  "name": "additionalInformation",
                  "type": "uint8"
                },
                {
                  "internalType": "uint64",
                  "name": "len",
                  "type": "uint64"
                },
                {
                  "internalType": "uint64",
                  "name": "tag",
                  "type": "uint64"
                }
              ],
              "internalType": "struct Witnet.CBOR",
              "name": "value",
              "type": "tuple"
            }
          ],
          "internalType": "struct Witnet.Result",
          "name": "_result",
          "type": "tuple"
        }
      ],
      "name": "isError",
      "outputs": [
        {
          "internalType": "bool",
          "name": "",
          "type": "bool"
        }
      ],
      "stateMutability": "pure",
      "type": "function"
    },
    {
      "inputs": [
        {
          "components": [
            {
              "internalType": "bool",
              "name": "success",
              "type": "bool"
            },
            {
              "components": [
                {
                  "components": [
                    {
                      "internalType": "bytes",
                      "name": "data",
                      "type": "bytes"
                    },
                    {
                      "internalType": "uint32",
                      "name": "cursor",
                      "type": "uint32"
                    }
                  ],
                  "internalType": "struct Witnet.Buffer",
                  "name": "buffer",
                  "type": "tuple"
                },
                {
                  "internalType": "uint8",
                  "name": "initialByte",
                  "type": "uint8"
                },
                {
                  "internalType": "uint8",
                  "name": "majorType",
                  "type": "uint8"
                },
                {
                  "internalType": "uint8",
                  "name": "additionalInformation",
                  "type": "uint8"
                },
                {
                  "internalType": "uint64",
                  "name": "len",
                  "type": "uint64"
                },
                {
                  "internalType": "uint64",
                  "name": "tag",
                  "type": "uint64"
                }
              ],
              "internalType": "struct Witnet.CBOR",
              "name": "value",
              "type": "tuple"
            }
          ],
          "internalType": "struct Witnet.Result",
          "name": "_result",
          "type": "tuple"
        }
      ],
      "name": "isOk",
      "outputs": [
        {
          "internalType": "bool",
          "name": "",
          "type": "bool"
        }
      ],
      "stateMutability": "pure",
      "type": "function"
    },
    {
      "inputs": [
        {
          "internalType": "address",
          "name": "_reporter",
          "type": "address"
        }
      ],
      "name": "isReporter",
      "outputs": [
        {
          "internalType": "bool",
          "name": "",
          "type": "bool"
        }
      ],
      "stateMutability": "view",
      "type": "function"
    },
    {
      "inputs": [],
      "name": "isUpgradable",
      "outputs": [
        {
          "internalType": "bool",
          "name": "",
          "type": "bool"
        }
      ],
      "stateMutability": "view",
      "type": "function"
    },
    {
      "inputs": [
        {
          "internalType": "address",
          "name": "_from",
          "type": "address"
        }
      ],
      "name": "isUpgradableFrom",
      "outputs": [
        {
          "internalType": "bool",
          "name": "",
          "type": "bool"
        }
      ],
      "stateMutability": "view",
      "type": "function"
    },
    {
      "inputs": [],
      "name": "owner",
      "outputs": [
        {
          "internalType": "address",
          "name": "",
          "type": "address"
        }
      ],
      "stateMutability": "view",
      "type": "function"
    },
    {
      "inputs": [
        {
          "internalType": "contract IWitnetRequest",
          "name": "_addr",
          "type": "address"
        }
      ],
      "name": "postRequest",
      "outputs": [
        {
          "internalType": "uint256",
          "name": "_queryId",
          "type": "uint256"
        }
      ],
      "stateMutability": "payable",
      "type": "function"
    },
    {
      "inputs": [],
      "name": "proxiableUUID",
      "outputs": [
        {
          "internalType": "bytes32",
          "name": "",
          "type": "bytes32"
        }
      ],
      "stateMutability": "pure",
      "type": "function"
    },
    {
      "inputs": [
        {
          "internalType": "uint256",
          "name": "_queryId",
          "type": "uint256"
        }
      ],
      "name": "readRequest",
      "outputs": [
        {
          "components": [
            {
              "internalType": "contract IWitnetRequest",
              "name": "addr",
              "type": "address"
            },
            {
              "internalType": "address",
              "name": "requester",
              "type": "address"
            },
            {
              "internalType": "bytes32",
              "name": "hash",
              "type": "bytes32"
            },
            {
              "internalType": "uint256",
              "name": "gasprice",
              "type": "uint256"
            },
            {
              "internalType": "uint256",
              "name": "reward",
              "type": "uint256"
            }
          ],
          "internalType": "struct Witnet.Request",
          "name": "_request",
          "type": "tuple"
        }
      ],
      "stateMutability": "view",
      "type": "function"
    },
    {
      "inputs": [
        {
          "internalType": "uint256",
          "name": "_queryId",
          "type": "uint256"
        }
      ],
      "name": "readRequestBytecode",
      "outputs": [
        {
          "internalType": "bytes",
          "name": "_bytecode",
          "type": "bytes"
        }
      ],
      "stateMutability": "view",
      "type": "function"
    },
    {
      "inputs": [
        {
          "internalType": "uint256",
          "name": "_queryId",
          "type": "uint256"
        }
      ],
      "name": "readRequestGasPrice",
      "outputs": [
        {
          "internalType": "uint256",
          "name": "",
          "type": "uint256"
        }
      ],
      "stateMutability": "view",
      "type": "function"
    },
    {
      "inputs": [
        {
          "internalType": "uint256",
          "name": "_queryId",
          "type": "uint256"
        }
      ],
      "name": "readRequestReward",
      "outputs": [
        {
          "internalType": "uint256",
          "name": "",
          "type": "uint256"
        }
      ],
      "stateMutability": "view",
      "type": "function"
    },
    {
      "inputs": [
        {
          "internalType": "uint256",
          "name": "_queryId",
          "type": "uint256"
        }
      ],
      "name": "readResponse",
      "outputs": [
        {
          "components": [
            {
              "internalType": "address",
              "name": "reporter",
              "type": "address"
            },
            {
              "internalType": "uint256",
              "name": "timestamp",
              "type": "uint256"
            },
            {
              "internalType": "bytes32",
              "name": "drTxHash",
              "type": "bytes32"
            },
            {
              "internalType": "bytes",
              "name": "cborBytes",
              "type": "bytes"
            }
          ],
          "internalType": "struct Witnet.Response",
          "name": "_response",
          "type": "tuple"
        }
      ],
      "stateMutability": "view",
      "type": "function"
    },
    {
      "inputs": [
        {
          "internalType": "uint256",
          "name": "_queryId",
          "type": "uint256"
        }
      ],
      "name": "readResponseDrTxHash",
      "outputs": [
        {
          "internalType": "bytes32",
          "name": "",
          "type": "bytes32"
        }
      ],
      "stateMutability": "view",
      "type": "function"
    },
    {
      "inputs": [
        {
          "internalType": "uint256",
          "name": "_queryId",
          "type": "uint256"
        }
      ],
      "name": "readResponseReporter",
      "outputs": [
        {
          "internalType": "address",
          "name": "",
          "type": "address"
        }
      ],
      "stateMutability": "view",
      "type": "function"
    },
    {
      "inputs": [
        {
          "internalType": "uint256",
          "name": "_queryId",
          "type": "uint256"
        }
      ],
      "name": "readResponseResult",
      "outputs": [
        {
          "components": [
            {
              "internalType": "bool",
              "name": "success",
              "type": "bool"
            },
            {
              "components": [
                {
                  "components": [
                    {
                      "internalType": "bytes",
                      "name": "data",
                      "type": "bytes"
                    },
                    {
                      "internalType": "uint32",
                      "name": "cursor",
                      "type": "uint32"
                    }
                  ],
                  "internalType": "struct Witnet.Buffer",
                  "name": "buffer",
                  "type": "tuple"
                },
                {
                  "internalType": "uint8",
                  "name": "initialByte",
                  "type": "uint8"
                },
                {
                  "internalType": "uint8",
                  "name": "majorType",
                  "type": "uint8"
                },
                {
                  "internalType": "uint8",
                  "name": "additionalInformation",
                  "type": "uint8"
                },
                {
                  "internalType": "uint64",
                  "name": "len",
                  "type": "uint64"
                },
                {
                  "internalType": "uint64",
                  "name": "tag",
                  "type": "uint64"
                }
              ],
              "internalType": "struct Witnet.CBOR",
              "name": "value",
              "type": "tuple"
            }
          ],
          "internalType": "struct Witnet.Result",
          "name": "",
          "type": "tuple"
        }
      ],
      "stateMutability": "view",
      "type": "function"
    },
    {
      "inputs": [
        {
          "internalType": "uint256",
          "name": "_queryId",
          "type": "uint256"
        }
      ],
      "name": "readResponseTimestamp",
      "outputs": [
        {
          "internalType": "uint256",
          "name": "",
          "type": "uint256"
        }
      ],
      "stateMutability": "view",
      "type": "function"
    },
    {
      "inputs": [
        {
          "internalType": "uint256",
          "name": "_queryId",
          "type": "uint256"
        },
        {
          "internalType": "bytes32",
          "name": "_drTxHash",
          "type": "bytes32"
        },
        {
          "internalType": "bytes",
          "name": "_cborBytes",
          "type": "bytes"
        }
      ],
      "name": "reportResult",
      "outputs": [],
      "stateMutability": "nonpayable",
      "type": "function"
    },
    {
      "inputs": [
        {
          "internalType": "uint256",
          "name": "_queryId",
          "type": "uint256"
        },
        {
          "internalType": "uint256",
          "name": "_timestamp",
          "type": "uint256"
        },
        {
          "internalType": "bytes32",
          "name": "_drTxHash",
          "type": "bytes32"
        },
        {
          "internalType": "bytes",
          "name": "_cborBytes",
          "type": "bytes"
        }
      ],
      "name": "reportResult",
      "outputs": [],
      "stateMutability": "nonpayable",
      "type": "function"
    },
    {
      "inputs": [
        {
          "components": [
            {
              "internalType": "uint256",
              "name": "queryId",
              "type": "uint256"
            },
            {
              "internalType": "uint256",
              "name": "timestamp",
              "type": "uint256"
            },
            {
              "internalType": "bytes32",
              "name": "drTxHash",
              "type": "bytes32"
            },
            {
              "internalType": "bytes",
              "name": "cborBytes",
              "type": "bytes"
            }
          ],
          "internalType": "struct IWitnetRequestBoardReporter.BatchResult[]",
          "name": "_batchResults",
          "type": "tuple[]"
        },
        {
          "internalType": "bool",
          "name": "_verbose",
          "type": "bool"
        }
      ],
      "name": "reportResultBatch",
      "outputs": [],
      "stateMutability": "nonpayable",
      "type": "function"
    },
    {
      "inputs": [
        {
          "internalType": "bytes",
          "name": "_cborBytes",
          "type": "bytes"
        }
      ],
      "name": "resultFromCborBytes",
      "outputs": [
        {
          "components": [
            {
              "internalType": "bool",
              "name": "success",
              "type": "bool"
            },
            {
              "components": [
                {
                  "components": [
                    {
                      "internalType": "bytes",
                      "name": "data",
                      "type": "bytes"
                    },
                    {
                      "internalType": "uint32",
                      "name": "cursor",
                      "type": "uint32"
                    }
                  ],
                  "internalType": "struct Witnet.Buffer",
                  "name": "buffer",
                  "type": "tuple"
                },
                {
                  "internalType": "uint8",
                  "name": "initialByte",
                  "type": "uint8"
                },
                {
                  "internalType": "uint8",
                  "name": "majorType",
                  "type": "uint8"
                },
                {
                  "internalType": "uint8",
                  "name": "additionalInformation",
                  "type": "uint8"
                },
                {
                  "internalType": "uint64",
                  "name": "len",
                  "type": "uint64"
                },
                {
                  "internalType": "uint64",
                  "name": "tag",
                  "type": "uint64"
                }
              ],
              "internalType": "struct Witnet.CBOR",
              "name": "value",
              "type": "tuple"
            }
          ],
          "internalType": "struct Witnet.Result",
          "name": "",
          "type": "tuple"
        }
      ],
      "stateMutability": "pure",
      "type": "function"
    },
    {
      "inputs": [
        {
          "components": [
            {
              "components": [
                {
                  "internalType": "bytes",
                  "name": "data",
                  "type": "bytes"
                },
                {
                  "internalType": "uint32",
                  "name": "cursor",
                  "type": "uint32"
                }
              ],
              "internalType": "struct Witnet.Buffer",
              "name": "buffer",
              "type": "tuple"
            },
            {
              "internalType": "uint8",
              "name": "initialByte",
              "type": "uint8"
            },
            {
              "internalType": "uint8",
              "name": "majorType",
              "type": "uint8"
            },
            {
              "internalType": "uint8",
              "name": "additionalInformation",
              "type": "uint8"
            },
            {
              "internalType": "uint64",
              "name": "len",
              "type": "uint64"
            },
            {
              "internalType": "uint64",
              "name": "tag",
              "type": "uint64"
            }
          ],
          "internalType": "struct Witnet.CBOR",
          "name": "_cborValue",
          "type": "tuple"
        }
      ],
      "name": "resultFromCborValue",
      "outputs": [
        {
          "components": [
            {
              "internalType": "bool",
              "name": "success",
              "type": "bool"
            },
            {
              "components": [
                {
                  "components": [
                    {
                      "internalType": "bytes",
                      "name": "data",
                      "type": "bytes"
                    },
                    {
                      "internalType": "uint32",
                      "name": "cursor",
                      "type": "uint32"
                    }
                  ],
                  "internalType": "struct Witnet.Buffer",
                  "name": "buffer",
                  "type": "tuple"
                },
                {
                  "internalType": "uint8",
                  "name": "initialByte",
                  "type": "uint8"
                },
                {
                  "internalType": "uint8",
                  "name": "majorType",
                  "type": "uint8"
                },
                {
                  "internalType": "uint8",
                  "name": "additionalInformation",
                  "type": "uint8"
                },
                {
                  "internalType": "uint64",
                  "name": "len",
                  "type": "uint64"
                },
                {
                  "internalType": "uint64",
                  "name": "tag",
                  "type": "uint64"
                }
              ],
              "internalType": "struct Witnet.CBOR",
              "name": "value",
              "type": "tuple"
            }
          ],
          "internalType": "struct Witnet.Result",
          "name": "",
          "type": "tuple"
        }
      ],
      "stateMutability": "pure",
      "type": "function"
    },
    {
      "inputs": [
        {
          "internalType": "address[]",
          "name": "_reporters",
          "type": "address[]"
        }
      ],
      "name": "setReporters",
      "outputs": [],
      "stateMutability": "nonpayable",
      "type": "function"
    },
    {
      "inputs": [
        {
          "internalType": "address",
          "name": "_newOwner",
          "type": "address"
        }
      ],
      "name": "transferOwnership",
      "outputs": [],
      "stateMutability": "nonpayable",
      "type": "function"
    },
    {
      "inputs": [
        {
          "internalType": "address[]",
          "name": "_exReporters",
          "type": "address[]"
        }
      ],
      "name": "unsetReporters",
      "outputs": [],
      "stateMutability": "nonpayable",
      "type": "function"
    },
    {
      "inputs": [
        {
          "internalType": "uint256",
          "name": "_queryId",
          "type": "uint256"
        }
      ],
      "name": "upgradeReward",
      "outputs": [],
      "stateMutability": "payable",
      "type": "function"
    },
    {
      "inputs": [],
      "name": "version",
      "outputs": [
        {
          "internalType": "bytes32",
          "name": "",
          "type": "bytes32"
        }
      ],
      "stateMutability": "view",
      "type": "function"
    },
    {
      "stateMutability": "payable",
      "type": "receive"
    }
  ],
  "bytecode": "0x6101606040523480156200001257600080fd5b5060405162004a9a38038062004a9a8339810160408190526200003591620000dc565b600060808190527ff595240b351bc8f951c2f53b26f4e78c32cb62122cf76c19b7fdda7d4968e18480546001600160a01b0319163390811790915581527fa6db7263983f337bae2c9fb315730227961d1c1153ae1e10a56b5791465dd6fd60205260409020805460ff191660011790553060a08190523f60c05291151560e052610100526101205273420000000000000000000000000000000000000f610140526200011a565b600080600060608486031215620000f257600080fd5b835180151581146200010357600080fd5b602085015160409095015190969495509392505050565b60805160a05160c05160e0516101005161012051610140516148f4620001a6600039600081816108b101526129ba01526000612a3301526000818161072c01526114a80152600081816106f90152611877015260008181610922015261143b01526000818161067f01528181611360015281816113f4015261145c01526000610b6d01526148f46000f3fe6080604052600436106103035760003560e01c80637c1fbda311610190578063c805dd0f116100dc578063d4da69ac11610095578063dc3c71cd1161006f578063dc3c71cd14610b3b578063e5a6b10f14610b5b578063e99e47f314610b8f578063f2fde38b14610baf57610367565b8063d4da69ac14610ac0578063d74803be14610ae0578063db04f16d14610b0e57610367565b8063c805dd0f146109fe578063c87d969e14610a13578063c8f5cdd514610a40578063cf62d11514610a60578063d2e8756114610a80578063d4ced13214610aa057610367565b8063a8604c1a11610149578063b281a7bd11610123578063b281a7bd14610966578063bc7e25ff14610979578063c2485ebd146109b1578063c683b465146109de57610367565b8063a8604c1a146108f3578063a9e954b914610913578063b07683281461094657610367565b80637c1fbda31461081d57806381a398b51461083d5780638da5cb5b1461085d57806399f65804146108725780639c2f26501461089f5780639d96fced146108d357610367565b8063439fab911161024f57806354fd4d50116102085780636b58960a116101e25780636b58960a146107835780636f07abcc146107a3578063754e5bea146107d05780637780cde1146107fd57610367565b806354fd4d501461071d5780636280bce81461075057806366bfdc751461077057610367565b8063439fab91146106035780634c9f72e3146106235780634dcffaf3146106435780635001f3b51461067057806352d1902d146106b75780635479d940146106ea57610367565b80632241f2db116102bc5780632b68b9c6116102965780632b68b9c61461057b5780632b905fbb146105905780633ae97295146105c35780633b885f2a146105e357610367565b80632241f2db146104f95780632565082b1461052c57806328a78d9b1461055957610367565b8063044ad7be146103c957806307e66852146104245780630f572d2c14610451578063109a0e3c1461047e5780631dd27daf146104ab57806320f9241e146104d957610367565b366103675760405162461bcd60e51b815260206004820152602960248201527f5769746e657452657175657374426f6172643a206e6f207472616e7366657273604482015268081858d8d95c1d195960ba1b60648201526084015b60405180910390fd5b60405162461bcd60e51b815260206004820152603160248201527f5769746e657452657175657374426f61726455706772616461626c65426173656044820152700e881b9bdd081a5b5c1b195b595b9d1959607a1b606482015260840161035e565b3480156103d557600080fd5b5061040f6103e4366004613202565b6001600160a01b03166000908152600080516020614870833981519152602052604090205460ff1690565b60405190151581526020015b60405180910390f35b34801561043057600080fd5b5061044461043f36600461349a565b610bcf565b60405161041b919061351d565b34801561045d57600080fd5b5061047161046c36600461349a565b610c54565b60405161041b9190613564565b34801561048a57600080fd5b5061049e61049936600461349a565b610cd3565b60405161041b91906135ef565b3480156104b757600080fd5b506104cb6104c6366004613602565b610d52565b60405190815260200161041b565b3480156104e557600080fd5b506104cb6104f4366004613602565b610dbe565b34801561050557600080fd5b5061051961051436600461349a565b610e1c565b60405160039190910b815260200161041b565b34801561053857600080fd5b5061054c61054736600461361b565b610e97565b60405161041b9190613657565b34801561056557600080fd5b5061057961057436600461372a565b610f1b565b005b34801561058757600080fd5b50610579611007565b34801561059c57600080fd5b506105b06105ab36600461349a565b61103d565b604051600f9190910b815260200161041b565b3480156105cf57600080fd5b506104cb6105de366004613602565b6110b8565b3480156105ef57600080fd5b5061049e6105fe366004613602565b611125565b34801561060f57600080fd5b5061057961061e3660046137ce565b61129c565b34801561062f57600080fd5b5061057961063e36600461372a565b6114f3565b34801561064f57600080fd5b5061066361065e36600461349a565b6115d4565b60405161041b9190613802565b34801561067c57600080fd5b507f00000000000000000000000000000000000000000000000000000000000000005b6040516001600160a01b03909116815260200161041b565b3480156106c357600080fd5b507f9969c6aff411c5e5f0807500693e8f819ce88529615cfa6cab569b24788a10186104cb565b3480156106f657600080fd5b507f000000000000000000000000000000000000000000000000000000000000000061040f565b34801561072957600080fd5b507f00000000000000000000000000000000000000000000000000000000000000006104cb565b34801561075c57600080fd5b5061057961076b36600461388b565b611653565b61057961077e366004613602565b6117a2565b34801561078f57600080fd5b5061040f61079e366004613202565b61185b565b3480156107af57600080fd5b506107c36107be366004613602565b6118ba565b60405161041b91906138f3565b3480156107dc57600080fd5b506107f06107eb366004613602565b6118c5565b60405161041b9190613948565b34801561080957600080fd5b5061040f61081836600461349a565b611a08565b34801561082957600080fd5b506107f0610838366004613602565b611a83565b34801561084957600080fd5b5061057961085836600461395b565b611cfe565b34801561086957600080fd5b5061069f611ff0565b34801561087e57600080fd5b5061089261088d366004613602565b61200c565b60405161041b9190613ab4565b3480156108ab57600080fd5b5061069f7f000000000000000000000000000000000000000000000000000000000000000081565b3480156108df57600080fd5b5061069f6108ee366004613602565b61210e565b3480156108ff57600080fd5b5061040f61090e36600461349a565b612172565b34801561091f57600080fd5b507f00000000000000000000000000000000000000000000000000000000000000006104cb565b34801561095257600080fd5b5061066361096136600461349a565b6121ac565b6104cb610974366004613202565b6121e6565b34801561098557600080fd5b5061099961099436600461349a565b61240c565b6040516001600160401b03909116815260200161041b565b3480156109bd57600080fd5b506109d16109cc366004613602565b612487565b60405161041b9190613ac2565b3480156109ea57600080fd5b5061049e6109f936600461349a565b612641565b348015610a0a57600080fd5b506104cb61267b565b348015610a1f57600080fd5b50610a33610a2e36600461349a565b612699565b60405161041b9190613b11565b348015610a4c57600080fd5b50610579610a5b366004613b73565b612718565b348015610a6c57600080fd5b506104cb610a7b36600461349a565b6128cd565b348015610a8c57600080fd5b506104cb610a9b366004613602565b612948565b348015610aac57600080fd5b5061040f610abb36600461349a565b612a62565b348015610acc57600080fd5b5061054c610adb366004613602565b612a9c565b348015610aec57600080fd5b50610b00610afb36600461349a565b612b81565b60405161041b929190613be8565b348015610b1a57600080fd5b50610b2e610b2936600461349a565b612c93565b60405161041b9190613c08565b348015610b4757600080fd5b506104cb610b56366004613602565b612d0e565b348015610b6757600080fd5b5061069f7f000000000000000000000000000000000000000000000000000000000000000081565b348015610b9b57600080fd5b5061054c610baa3660046137ce565b612d6c565b348015610bbb57600080fd5b50610579610bca366004613202565b612dab565b60405163fc853c3760e01b815260609073__$ea6a162dd0cd18b69b81164309824ac93c$__9063fc853c3790610c09908590600401613c9d565b600060405180830381865af4158015610c26573d6000803e3d6000fd5b505050506040513d6000823e601f3d908101601f19168201604052610c4e9190810190613cd6565b92915050565b6040516308efc09760e01b815260609073__$ea6a162dd0cd18b69b81164309824ac93c$__906308efc09790610c8e908590600401613c9d565b600060405180830381865af4158015610cab573d6000803e3d6000fd5b505050506040513d6000823e601f3d908101601f19168201604052610c4e9190810190613d7f565b60405163f417daf560e01b815260609073__$ea6a162dd0cd18b69b81164309824ac93c$__9063f417daf590610d0d908590600401613c9d565b600060405180830381865af4158015610d2a573d6000803e3d6000fd5b505050506040513d6000823e601f3d908101601f19168201604052610c4e9190810190613e65565b600081600180610d6183612e5b565b6003811115610d7257610d726138dd565b14610d7c82612edd565b90610d9a5760405162461bcd60e51b815260040161035e91906135ef565b50610da3612fc0565b60009485526003016020525050604090912060040154919050565b600081600280610dcd83612e5b565b6003811115610dde57610dde6138dd565b14610de882612edd565b90610e065760405162461bcd60e51b815260040161035e91906135ef565b50610e1084612fe4565b60010154949350505050565b604051636c4346db60e11b815260009073__$ea6a162dd0cd18b69b81164309824ac93c$__9063d8868db690610e56908590600401613c9d565b602060405180830381865af4158015610e73573d6000803e3d6000fd5b505050506040513d601f19601f82011682018060405250810190610c4e9190613e99565b610e9f613144565b60405163098141f760e11b815273__$ea6a162dd0cd18b69b81164309824ac93c$__9063130283ee90610ed6908590600401613eb4565b600060405180830381865af4158015610ef3573d6000803e3d6000fd5b505050506040513d6000823e601f3d908101601f19168201604052610c4e9190810190613edd565b610f23612fc0565b600101546001600160a01b03163314610f4e5760405162461bcd60e51b815260040161035e9061402a565b60005b8151811015610fcc576000828281518110610f6e57610f6e614061565b602002602001015190506000610f8f60008051602061487083398151915290565b6001600160a01b039290921660009081526020929092526040909120805460ff191691151591909117905580610fc48161408d565b915050610f51565b507f646436560d9757cb3c0f01da0f62642c6040b00c9a80685f94ef1a7725cad5f181604051610ffc91906140a6565b60405180910390a150565b61100f612fc0565b600101546001600160a01b0316331461103a5760405162461bcd60e51b815260040161035e9061402a565b33ff5b60405163c71db52160e01b815260009073__$ea6a162dd0cd18b69b81164309824ac93c$__9063c71db52190611077908590600401613c9d565b602060405180830381865af4158015611094573d6000803e3d6000fd5b505050506040513d601f19601f82011682018060405250810190610c4e91906140e7565b6000816001806110c783612e5b565b60038111156110d8576110d86138dd565b146110e282612edd565b906111005760405162461bcd60e51b815260040161035e91906135ef565b50611109612fc0565b6000858152600391820160205260409020015492505050919050565b6060600061113283612e5b565b6003811115611143576111436138dd565b036111965760405162461bcd60e51b815260206004820152602f602482015260008051602061485083398151915260448201526e081b9bdd081e595d081c1bdcdd1959608a1b606482015260840161035e565b60006111a183613004565b80549091506001600160a01b0316156112965780546040805163784a000160e11b815290516001600160a01b039092169163f0940002916004808201926000929091908290030181865afa1580156111fd573d6000803e3d6000fd5b505050506040513d6000823e601f3d908101601f191682016040526112259190810190613e65565b9150806002015461123583613021565b146112965760405162461bcd60e51b815260206004820152603f602482015260008051602061485083398151915260448201527f2062797465636f6465206368616e67656420616674657220706f7374696e6700606482015260840161035e565b50919050565b60006112a6612fc0565b600101546001600160a01b03169050806112eb575033806112c5612fc0565b60010180546001600160a01b0319166001600160a01b0392909216919091179055611345565b336001600160a01b038216146113455760405162461bcd60e51b815260206004820152602b602482015260008051602061485083398151915260448201526a1037b7363c9037bbb732b960a91b606482015260840161035e565b600061134f612fc0565b546001600160a01b0316146113f2577f00000000000000000000000000000000000000000000000000000000000000006001600160a01b0316611390612fc0565b546001600160a01b0316036113f25760405162461bcd60e51b8152602060048201526034602482015260008051602061485083398151915260448201527308185b1c9958591e481a5b9a5d1a585b1a5e995960621b606482015260840161035e565b7f000000000000000000000000000000000000000000000000000000000000000061141b612fc0565b80546001600160a01b0319166001600160a01b03929092169190911790557f00000000000000000000000000000000000000000000000000000000000000007f00000000000000000000000000000000000000000000000000000000000000006001600160a01b0316337f72d4b00d8e35b3717e384aef5f900256a106d6a423d88935a11579981333ba207f000000000000000000000000000000000000000000000000000000000000000060405190815260200160405180910390a46114ef8280602001905181019061063e9190614102565b5050565b6114fb612fc0565b600101546001600160a01b031633146115265760405162461bcd60e51b815260040161035e9061402a565b60005b81518110156115a457600082828151811061154657611546614061565b60200260200101519050600161156760008051602061487083398151915290565b6001600160a01b039290921660009081526020929092526040909120805460ff19169115159190911790558061159c8161408d565b915050611529565b507f4d570ee36dec878006609360d34ac8d6a0b68d521871ae15a407b6340877ca0181604051610ffc91906140a6565b60405163147e5c8f60e01b815260609073__$ea6a162dd0cd18b69b81164309824ac93c$__9063147e5c8f9061160e908590600401613c9d565b600060405180830381865af415801561162b573d6000803e3d6000fd5b505050506040513d6000823e601f3d908101601f19168201604052610c4e919081019061419b565b336000908152600080516020614870833981519152602052604090205460ff1661168f5760405162461bcd60e51b815260040161035e90614234565b8360018061169c83612e5b565b60038111156116ad576116ad6138dd565b146116b782612edd565b906116d55760405162461bcd60e51b815260040161035e91906135ef565b5060008590036116f75760405162461bcd60e51b815260040161035e9061427e565b60008390036117185760405162461bcd60e51b815260040161035e906142e6565b6117633361175e88428989898080601f01602080910402602001604051908101604052809392919081815260200183838082843760009201919091525061307392505050565b613109565b604080518781523360208201527ee9413c6321ec446a267b7ebf5bb108663f2ef58b35c4f6e18905ac8f205cb2910160405180910390a1505050505050565b806001806117af83612e5b565b60038111156117c0576117c06138dd565b146117ca82612edd565b906117e85760405162461bcd60e51b815260040161035e91906135ef565b5060006117f484613004565b905060003482600401546118089190614343565b60038301549091503a9081111561184f57600061182482612948565b9050808310156118465760405162461bcd60e51b815260040161035e90614356565b50600383018190555b50600490910155505050565b600080611866612fc0565b600101546001600160a01b031690507f000000000000000000000000000000000000000000000000000000000000000080156118b35750826001600160a01b0316816001600160a01b0316145b9392505050565b6000610c4e82612e5b565b6040805160808101825260008082526020820181905291810191909152606080820152816002806118f583612e5b565b6003811115611906576119066138dd565b1461191082612edd565b9061192e5760405162461bcd60e51b815260040161035e91906135ef565b5061193884612fe4565b6040805160808101825282546001600160a01b031681526001830154602082015260028301549181019190915260038201805491929160608401919061197d90614393565b80601f01602080910402602001604051908101604052809291908181526020018280546119a990614393565b80156119f65780601f106119cb576101008083540402835291602001916119f6565b820191906000526020600020905b8154815290600101906020018083116119d957829003601f168201915b50505050508152505092505050919050565b6040516350ea2eab60e11b815260009073__$ea6a162dd0cd18b69b81164309824ac93c$__9063a1d45d5690611a42908590600401613c9d565b602060405180830381865af4158015611a5f573d6000803e3d6000fd5b505050506040513d601f19601f82011682018060405250810190610c4e91906143c7565b604080516080810182526000808252602082018190529181019190915260608082015281600280611ab383612e5b565b6003811115611ac457611ac46138dd565b14611ace82612edd565b90611aec5760405162461bcd60e51b815260040161035e91906135ef565b506000611af7612fc0565b60008681526003919091016020526040902060098101549091506001600160a01b03163314611b6e5760405162461bcd60e51b815260206004820152602f602482015260008051602061485083398151915260448201526e1037b7363c903932b8bab2b9ba32b960891b606482015260840161035e565b604080516080810182526005830180546001600160a01b0316825260068401546020830152600784015492820192909252600883018054919291606084019190611bb790614393565b80601f0160208091040260200160405190810160405280929190818152602001828054611be390614393565b8015611c305780601f10611c0557610100808354040283529160200191611c30565b820191906000526020600020905b815481529060010190602001808311611c1357829003601f168201915b5050505050815250509350611c43612fc0565b600086815260039182016020526040812080546001600160a01b03199081168255600182018054821690556002820183905592810182905560048101829055600581018054909316835560068101829055600781018290559181611caa6008850182613197565b50505060090180546001600160a01b0319169055604080518681523360208201527fdec847db058c9c012e0f3dbe2b99e05cfa4c693f61a7d8bc64652a68913cbfff910160405180910390a1505050919050565b336000908152600080516020614870833981519152602052604090205460ff16611d3a5760405162461bcd60e51b815260040161035e90614234565b8151600090815b81811015611fd9576000858281518110611d5d57611d5d614061565b6020026020010151905060016003811115611d7a57611d7a6138dd565b8151611d8590612e5b565b6003811115611d9657611d966138dd565b14611e02578415611dfd5780516040805191825260208201819052602c9082015260008051602061485083398151915260608201526b08189859081c5d595c9e525960a21b60808201526000805160206147e48339815191529060a0015b60405180910390a15b611fc6565b6040810151600003611e6c578415611dfd5780516040805191825260208201819052602d9082015260008051602061485083398151915260608201526c040c4c2c840c8e4a8f090c2e6d609b1b60808201526000805160206147e48339815191529060a001611df4565b806060015151600003611ed8578415611dfd5780516040805191825260208201819052602e9082015260008051602061485083398151915260608201526d206261642063626f72427974657360901b60808201526000805160206147e48339815191529060a001611df4565b60008160200151118015611eef5750428160200151115b15611f53578415611dfd5780516040805191825260208201819052602e9082015260008051602061485083398151915260608201526d0206261642074696d657374616d760941b60808201526000805160206147e48339815191529060a001611df4565b80516020820151611f7f919015611f6e578260200151611f70565b425b83604001518460600151613073565b611f899085614343565b8151604080519182523360208301529195507ee9413c6321ec446a267b7ebf5bb108663f2ef58b35c4f6e18905ac8f205cb2910160405180910390a15b5080611fd18161408d565b915050611d41565b508115611fea57611fea3383613109565b50505050565b6000611ffa612fc0565b600101546001600160a01b0316919050565b6040805160a0810182526000808252602082018190529181018290526060810182905260808101919091528160018061204483612e5b565b6003811115612055576120556138dd565b1461205f82612edd565b9061207d5760405162461bcd60e51b815260040161035e91906135ef565b506000612088612fc0565b600086815260039182016020908152604091829020825160a08101845281546001600160a01b039081168252600183015481169382019390935260028201549381019390935292830154606083015260048301546080830152600983015491965091925016156121065760098101546001600160a01b031660208501525b505050919050565b60008160028061211d83612e5b565b600381111561212e5761212e6138dd565b1461213882612edd565b906121565760405162461bcd60e51b815260040161035e91906135ef565b5061216084612fe4565b546001600160a01b0316949350505050565b604051636646c11960e01b815260009073__$ea6a162dd0cd18b69b81164309824ac93c$__90636646c11990611a42908590600401613c9d565b604051630879730d60e01b815260609073__$ea6a162dd0cd18b69b81164309824ac93c$__90630879730d9061160e908590600401613c9d565b6000343a826121f482612948565b9050808310156122165760405162461bcd60e51b815260040161035e90614356565b6001600160a01b03851661226f5760405162461bcd60e51b815260206004820152602c602482015260008051602061485083398151915260448201526b081b9d5b1b081cd8dc9a5c1d60a21b606482015260840161035e565b6000856001600160a01b031663f09400026040518163ffffffff1660e01b8152600401600060405180830381865afa1580156122af573d6000803e3d6000fd5b505050506040513d6000823e601f3d908101601f191682016040526122d79190810190613e65565b9050600081511161232e5760405162461bcd60e51b815260206004820152602d602482015260008051602061485083398151915260448201526c08195b5c1d1e481cd8dc9a5c1d609a1b606482015260840161035e565b612336612fc0565b600201600081546123469061408d565b9182905550945033612356612fc0565b60008781526003919091016020526040812060090180546001600160a01b0319166001600160a01b03939093169290921790915561239386613004565b80546001600160a01b0319166001600160a01b03891617815590506123b782613021565b60028201556003810184905560048101859055604080518781523360208201527fcabaf9c102f83746b27ae932f638eebfaf5ea7d014edd20ab14dec3768a8f55c910160405180910390a15050505050919050565b604051638233f9b360e01b815260009073__$ea6a162dd0cd18b69b81164309824ac93c$__90638233f9b390612446908590600401613c9d565b602060405180830381865af4158015612463573d6000803e3d6000fd5b505050506040513d601f19601f82011682018060405250810190610c4e91906143e4565b6124f16040805161010081019091526000606082018181526080830182905260a0830182905260c0830182905260e0830191909152819081526040805160808101825260008082526020828101829052928201526060808201529101908152600060209091015290565b6124f9612fc0565b60008381526003918201602090815260409182902082516101008101845281546001600160a01b03908116606080840191825260018501548316608080860191909152600286015460a08601529785015460c0850152600485015460e085015290835285519687018652600584018054909216875260068401548786015260078401549587019590955260088301805492969395948701949192918401916125a090614393565b80601f01602080910402602001604051908101604052809291908181526020018280546125cc90614393565b80156126195780601f106125ee57610100808354040283529160200191612619565b820191906000526020600020905b8154815290600101906020018083116125fc57829003601f168201915b505050919092525050508152600991909101546001600160a01b031660209091015292915050565b60405163a1b9089160e01b815260609073__$ea6a162dd0cd18b69b81164309824ac93c$__9063a1b9089190610d0d908590600401613c9d565b6000612685612fc0565b60020154612694906001614343565b905090565b6040516316935cf160e11b815260609073__$ea6a162dd0cd18b69b81164309824ac93c$__90632d26b9e2906126d3908590600401613c9d565b600060405180830381865af41580156126f0573d6000803e3d6000fd5b505050506040513d6000823e601f3d908101601f19168201604052610c4e9190810190614401565b336000908152600080516020614870833981519152602052604090205460ff166127545760405162461bcd60e51b815260040161035e90614234565b8460018061276183612e5b565b6003811115612772576127726138dd565b1461277c82612edd565b9061279a5760405162461bcd60e51b815260040161035e91906135ef565b50428611156128055760405162461bcd60e51b815260206004820152603160248201527f5769746e657452657175657374426f617264547275737461626c65446566617560448201527006c743a206261642074696d657374616d7607c1b606482015260840161035e565b60008590036128265760405162461bcd60e51b815260040161035e9061427e565b60008390036128475760405162461bcd60e51b815260040161035e906142e6565b61288d3361175e89898989898080601f01602080910402602001604051908101604052809392919081815260200183838082843760009201919091525061307392505050565b604080518881523360208201527ee9413c6321ec446a267b7ebf5bb108663f2ef58b35c4f6e18905ac8f205cb2910160405180910390a150505050505050565b60405163a2e8765560e01b815260009073__$ea6a162dd0cd18b69b81164309824ac93c$__9063a2e8765590612907908590600401613c9d565b602060405180830381865af4158015612924573d6000803e3d6000fd5b505050506040513d601f19601f82011682018060405250810190610c4e91906144bc565b6040516324ca470760e11b81526020600482015260c6602482015263c8f5cdd560e01b60448201526001600160e01b031960648201819052600019608483015260a4820152600160e71b60c482015260016222582160d01b0360e48201526001600160d01b03196101048201526000907f00000000000000000000000000000000000000000000000000000000000000006001600160a01b0316906349948e0e9061012401602060405180830381865afa158015612a0a573d6000803e3d6000fd5b505050506040513d601f19601f82011682018060405250810190612a2e91906144bc565b612a587f0000000000000000000000000000000000000000000000000000000000000000846144d5565b610c4e9190614343565b604051632afe0bd360e21b815260009073__$ea6a162dd0cd18b69b81164309824ac93c$__9063abf82f4c90611a42908590600401613c9d565b612aa4613144565b81600280612ab183612e5b565b6003811115612ac257612ac26138dd565b14612acc82612edd565b90612aea5760405162461bcd60e51b815260040161035e91906135ef565b506000612af685612fe4565b60405163e99e47f360e01b815290915073__$ea6a162dd0cd18b69b81164309824ac93c$__9063e99e47f390612b339060038501906004016144ec565b600060405180830381865af4158015612b50573d6000803e3d6000fd5b505050506040513d6000823e601f3d908101601f19168201604052612b789190810190613edd565b95945050505050565b6040516323317ad560e21b815260009060609073__$ea6a162dd0cd18b69b81164309824ac93c$__90638cc5eb5490612bbe908690600401613c9d565b600060405180830381865af4925050508015612bfc57506040513d6000823e601f3d908101601f19168201604052612bf99190810190614587565b60015b612c8957612c086145d4565b806308c379a003612c325750612c1c6145f0565b80612c275750612c34565b600094909350915050565b505b3d808015612c5e576040519150601f19603f3d011682016040523d82523d6000602084013e612c63565b606091505b5060ff6040518060600160405280602f8152602001614890602f91399250925050915091565b9094909350915050565b60405163d45d097d60e01b815260009073__$ea6a162dd0cd18b69b81164309824ac93c$__9063d45d097d90612ccd908590600401613c9d565b602060405180830381865af4158015612cea573d6000803e3d6000fd5b505050506040513d601f19601f82011682018060405250810190610c4e9190614679565b600081600280612d1d83612e5b565b6003811115612d2e57612d2e6138dd565b14612d3882612edd565b90612d565760405162461bcd60e51b815260040161035e91906135ef565b50612d6084612fe4565b60020154949350505050565b612d74613144565b60405163e99e47f360e01b815273__$ea6a162dd0cd18b69b81164309824ac93c$__9063e99e47f390610ed69085906004016135ef565b612db3612fc0565b600101546001600160a01b03163314612dde5760405162461bcd60e51b815260040161035e9061402a565b6000612de8612fc0565b600101546001600160a01b039081169150821681146114ef5781612e0a612fc0565b60010180546001600160a01b0319166001600160a01b03928316179055604051838216918316907f8be0079c531659141344cd1fd0a4f28419497f9722a3daafe3b4186f6b6457e090600090a35050565b6000811580612e745750612e6d612fc0565b6002015482115b15612e8157506000919050565b6000612e8b612fc0565b600084815260039190910160205260409020600781015490915015612eb35750600292915050565b60098101546001600160a01b031615612ecf5750600192915050565b50600392915050565b919050565b60606001826003811115612ef357612ef36138dd565b03612f17576040518060600160405280602581526020016148046025913992915050565b6002826003811115612f2b57612f2b6138dd565b03612f4f576040518060600160405280602781526020016148296027913992915050565b6003826003811115612f6357612f636138dd565b03612f87576040518060600160405280602681526020016147be6026913992915050565b505060408051808201909152601981527f5769746e6574426f617264446174613a20626164206d6f6f6400000000000000602082015290565b7ff595240b351bc8f951c2f53b26f4e78c32cb62122cf76c19b7fdda7d4968e18390565b6000612fee612fc0565b6000928352600301602052506040902060050190565b600061300e612fc0565b6000928352600301602052506040902090565b60006002826040516130339190614694565b602060405180830381855afa158015613050573d6000803e3d6000fd5b5050506040513d601f19601f82011682018060405250810190610c4e91906144bc565b60008061307e612fc0565b60008781526003919091016020526040902060068101869055600781018590556005810180546001600160a01b031916331781559091508190600882016130c586826146fe565b505060049081015482546001600160a01b03199081168455600184018054909116905560006002840181905560038401819055929091019190915595945050505050565b6040516001600160a01b0383169082156108fc029083906000818181858888f1935050505015801561313f573d6000803e3d6000fd5b505050565b6040805180820182526000808252825161010081018452606060c0820181815260e083018490528252602082810184905294820183905281018290526080810182905260a0810191909152909182015290565b5080546131a390614393565b6000825580601f106131b3575050565b601f0160209004906000526020600020908101906131d191906131d4565b50565b5b808211156131e957600081556001016131d5565b5090565b6001600160a01b03811681146131d157600080fd5b60006020828403121561321457600080fd5b81356118b3816131ed565b634e487b7160e01b600052604160045260246000fd5b60c081018181106001600160401b03821117156132545761325461321f565b60405250565b604081018181106001600160401b03821117156132545761325461321f565b608081018181106001600160401b03821117156132545761325461321f565b601f8201601f191681016001600160401b03811182821017156132bd576132bd61321f565b6040525050565b80151581146131d157600080fd5b8035612ed8816132c4565b60006001600160401b038211156132f6576132f661321f565b50601f01601f191660200190565b600082601f83011261331557600080fd5b8135613320816132dd565b60405161332d8282613298565b82815285602084870101111561334257600080fd5b82602086016020830137600092810160200192909252509392505050565b63ffffffff811681146131d157600080fd5b60ff811681146131d157600080fd5b8035612ed881613372565b6001600160401b03811681146131d157600080fd5b8035612ed88161338c565b600060c082840312156133be57600080fd5b6040516133ca81613235565b80915082356001600160401b03808211156133e457600080fd5b90840190604082870312156133f857600080fd5b6040516134048161325a565b82358281111561341357600080fd5b61341f88828601613304565b8252506020830135925061343283613360565b82602082015280845250505061344a60208401613381565b602082015261345b60408401613381565b604082015261346c60608401613381565b606082015261347d608084016133a1565b608082015261348e60a084016133a1565b60a08201525092915050565b6000602082840312156134ac57600080fd5b81356001600160401b03808211156134c357600080fd5b90830190604082860312156134d757600080fd5b6040516134e38161325a565b82356134ee816132c4565b815260208301358281111561350257600080fd5b61350e878286016133ac565b60208301525095945050505050565b6020808252825182820181905260009190848201906040850190845b81811015613558578351600f0b83529284019291840191600101613539565b50909695505050505050565b6020808252825182820181905260009190848201906040850190845b8181101561355857835160030b83529284019291840191600101613580565b60005b838110156135ba5781810151838201526020016135a2565b50506000910152565b600081518084526135db81602086016020860161359f565b601f01601f19169290920160200192915050565b6020815260006118b360208301846135c3565b60006020828403121561361457600080fd5b5035919050565b60006020828403121561362d57600080fd5b81356001600160401b0381111561364357600080fd5b61364f848285016133ac565b949350505050565b6020815281511515602082015260006020830151604080840152805160c06060850152805160406101208601526136926101608601826135c3565b60209283015163ffffffff166101408701529183015160ff81166080870152919050604083015160ff811660a08701529150606083015160ff811660c0870152915060808301516001600160401b03811660e0870152915060a08301519250612b786101008601846001600160401b03169052565b60006001600160401b038211156137205761372061321f565b5060051b60200190565b6000602080838503121561373d57600080fd5b82356001600160401b0381111561375357600080fd5b8301601f8101851361376457600080fd5b803561376f81613707565b60405161377c8282613298565b82815260059290921b830184019184810191508783111561379c57600080fd5b928401925b828410156137c35783356137b4816131ed565b825292840192908401906137a1565b979650505050505050565b6000602082840312156137e057600080fd5b81356001600160401b038111156137f657600080fd5b61364f84828501613304565b6020808252825182820181905260009190848201906040850190845b818110156135585783516001600160401b03168352928401929184019160010161381e565b60008083601f84011261385557600080fd5b5081356001600160401b0381111561386c57600080fd5b60208301915083602082850101111561388457600080fd5b9250929050565b600080600080606085870312156138a157600080fd5b843593506020850135925060408501356001600160401b038111156138c557600080fd5b6138d187828801613843565b95989497509550505050565b634e487b7160e01b600052602160045260246000fd5b6020810160048310613907576139076138dd565b91905290565b60018060a01b0381511682526020810151602083015260408101516040830152600060608201516080606085015261364f60808501826135c3565b6020815260006118b3602083018461390d565b600080604080848603121561396f57600080fd5b83356001600160401b038082111561398657600080fd5b818601915086601f83011261399a57600080fd5b813560206139a782613707565b85516139b38282613298565b83815260059390931b850182019282810191508a8411156139d357600080fd5b8286015b84811015613a5b578035868111156139ee57600080fd5b87016080818e03601f19011215613a0457600080fd5b8851613a0f81613279565b858201358152898201358682015260608201358a820152608082013588811115613a395760008081fd5b613a478f8883860101613304565b6060830152508452509183019183016139d7565b509750613a6b90508882016132d2565b955050505050509250929050565b80516001600160a01b039081168352602080830151909116908301526040808201519083015260608082015190830152608090810151910152565b60a08101610c4e8284613a79565b60208152613ad4602082018351613a79565b6000602083015160e060c0840152613af061010084018261390d565b604094909401516001600160a01b031660e093909301929092525090919050565b6000602080830181845280855180835260408601915060408160051b870101925083870160005b82811015613b6657603f19888603018452613b548583516135c3565b94509285019290850190600101613b38565b5092979650505050505050565b600080600080600060808688031215613b8b57600080fd5b85359450602086013593506040860135925060608601356001600160401b03811115613bb657600080fd5b613bc288828901613843565b969995985093965092949392505050565b6101008110613be457613be46138dd565b9052565b613bf28184613bd3565b60406020820152600061364f60408301846135c3565b60208101610c4e8284613bd3565b6000815160c084528051604060c0860152613c356101008601826135c3565b905063ffffffff60208301511660e086015260ff602085015116602086015260ff604085015116604086015260ff60608501511660608601526001600160401b03608085015116608086015260a0840151915061364f60a08601836001600160401b03169052565b602081528151151560208201526000602083015160408084015261364f6060840182613c16565b8051600f81900b8114612ed857600080fd5b60006020808385031215613ce957600080fd5b82516001600160401b03811115613cff57600080fd5b8301601f81018513613d1057600080fd5b8051613d1b81613707565b604051613d288282613298565b82815260059290921b8301840191848101915087831115613d4857600080fd5b928401925b828410156137c357613d5e84613cc4565b82529284019290840190613d4d565b8051600381900b8114612ed857600080fd5b60006020808385031215613d9257600080fd5b82516001600160401b03811115613da857600080fd5b8301601f81018513613db957600080fd5b8051613dc481613707565b604051613dd18282613298565b82815260059290921b8301840191848101915087831115613df157600080fd5b928401925b828410156137c357613e0784613d6d565b82529284019290840190613df6565b600082601f830112613e2757600080fd5b8151613e32816132dd565b604051613e3f8282613298565b828152856020848701011115613e5457600080fd5b612b7883602083016020880161359f565b600060208284031215613e7757600080fd5b81516001600160401b03811115613e8d57600080fd5b61364f84828501613e16565b600060208284031215613eab57600080fd5b6118b382613d6d565b6020815260006118b36020830184613c16565b8051612ed881613372565b8051612ed88161338c565b60006020808385031215613ef057600080fd5b82516001600160401b0380821115613f0757600080fd5b81850191506040808388031215613f1d57600080fd5b8051613f288161325a565b8351613f33816132c4565b81528385015183811115613f4657600080fd5b939093019260c08489031215613f5b57600080fd5b8151613f6681613235565b845184811115613f7557600080fd5b8501808a03841315613f8657600080fd5b8351613f918161325a565b815186811115613fa057600080fd5b613fac8c828501613e16565b825250878201519550613fbe86613360565b808801869052825250613fd2858701613ec7565b86820152613fe1838601613ec7565b83820152613ff160608601613ec7565b606082015261400260808601613ed2565b608082015261401360a08601613ed2565b60a082015294810194909452509195945050505050565b6020808252601b908201527f5769746e6574426f617264446174613a206f6e6c79206f776e65720000000000604082015260600190565b634e487b7160e01b600052603260045260246000fd5b634e487b7160e01b600052601160045260246000fd5b60006001820161409f5761409f614077565b5060010190565b6020808252825182820181905260009190848201906040850190845b818110156135585783516001600160a01b0316835292840192918401916001016140c2565b6000602082840312156140f957600080fd5b6118b382613cc4565b6000602080838503121561411557600080fd5b82516001600160401b0381111561412b57600080fd5b8301601f8101851361413c57600080fd5b805161414781613707565b6040516141548282613298565b82815260059290921b830184019184810191508783111561417457600080fd5b928401925b828410156137c357835161418c816131ed565b82529284019290840190614179565b600060208083850312156141ae57600080fd5b82516001600160401b038111156141c457600080fd5b8301601f810185136141d557600080fd5b80516141e081613707565b6040516141ed8282613298565b82815260059290921b830184019184810191508783111561420d57600080fd5b928401925b828410156137c35783516142258161338c565b82529284019290840190614212565b6020808252602a908201527f5769746e6574426f6172644461746141434c733a20756e617574686f72697a6560408201526932103932b837b93a32b960b11b606082015260800190565b60208082526042908201527f5769746e657452657175657374426f617264547275737461626c65446566617560408201527f6c743a205769746e65742064725478486173682063616e6e6f74206265207a65606082015261726f60f01b608082015260a00190565b6020808252603a908201527f5769746e657452657175657374426f617264547275737461626c65446566617560408201527f6c743a20726573756c742063616e6e6f7420626520656d707479000000000000606082015260800190565b80820180821115610c4e57610c4e614077565b6020808252602f9082015260008051602061485083398151915260408201526e2072657761726420746f6f206c6f7760881b606082015260800190565b600181811c908216806143a757607f821691505b60208210810361129657634e487b7160e01b600052602260045260246000fd5b6000602082840312156143d957600080fd5b81516118b3816132c4565b6000602082840312156143f657600080fd5b81516118b38161338c565b6000602080838503121561441457600080fd5b82516001600160401b038082111561442b57600080fd5b818501915085601f83011261443f57600080fd5b815161444a81613707565b6040516144578282613298565b82815260059290921b840185019185810191508883111561447757600080fd5b8585015b838110156144af578051858111156144935760008081fd5b6144a18b89838a0101613e16565b84525091860191860161447b565b5098975050505050505050565b6000602082840312156144ce57600080fd5b5051919050565b8082028115828204841417610c4e57610c4e614077565b600060208083526000845461450081614393565b80848701526040600180841660008114614521576001811461453b57614569565b60ff1985168984015283151560051b890183019550614569565b896000528660002060005b858110156145615781548b8201860152908301908801614546565b8a0184019650505b509398975050505050505050565b80516101008110612ed857600080fd5b6000806040838503121561459a57600080fd5b6145a383614577565b915060208301516001600160401b038111156145be57600080fd5b6145ca85828601613e16565b9150509250929050565b600060033d11156145ed5760046000803e5060005160e01c5b90565b600060443d10156145fe5790565b6040516003193d81016004833e81513d6001600160401b03816024840111818411171561462d57505050505090565b82850191508151818111156146455750505050505090565b843d870101602082850101111561465f5750505050505090565b61466e60208286010187613298565b509095945050505050565b60006020828403121561468b57600080fd5b6118b382614577565b600082516146a681846020870161359f565b9190910192915050565b601f82111561313f57600081815260208120601f850160051c810160208610156146d75750805b601f850160051c820191505b818110156146f6578281556001016146e3565b505050505050565b81516001600160401b038111156147175761471761321f565b61472b816147258454614393565b846146b0565b602080601f83116001811461476057600084156147485750858301515b600019600386901b1c1916600185901b1785556146f6565b600085815260208120601f198616915b8281101561478f57888601518255948401946001909101908401614770565b50858210156147ad5787850151600019600388901b60f8161c191681555b5050505050600190811b0190555056fe5769746e6574426f617264446174613a206e6f7420696e2044656c65746564207374617475734df64445edc775fba59db44b8001852fb1b777eea88fd54f04572dd114e3ff7f5769746e6574426f617264446174613a206e6f7420696e20506f73746564207374617475735769746e6574426f617264446174613a206e6f7420696e205265706f72746564207374617475735769746e657452657175657374426f617264547275737461626c65426173653aa6db7263983f337bae2c9fb315730227961d1c1153ae1e10a56b5791465dd6fd5769746e657452657175657374426f617264547275737461626c65426173653a206661696c696e6720617373657274a2646970667358221220ddd24a9e04b4b282b27b1d38627085b8ec4b4ea4e4f37c1998f899febf54ac8764736f6c63430008110033",
  "linkReferences": {
    "contracts/witnet/libs/WitnetParserLib.sol": {
      "WitnetParserLib": [
        {
          "length": 20,
          "start": 3463
        },
        {
          "length": 20,
          "start": 3596
        },
        {
          "length": 20,
          "start": 3723
        },
        {
          "length": 20,
          "start": 4052
        },
        {
          "length": 20,
          "start": 4180
        },
        {
          "length": 20,
          "start": 4597
        },
        {
          "length": 20,
          "start": 6028
        },
        {
          "length": 20,
          "start": 7104
        },
        {
          "length": 20,
          "start": 9002
        },
        {
          "length": 20,
          "start": 9060
        },
        {
          "length": 20,
          "start": 9668
        },
        {
          "length": 20,
          "start": 10233
        },
        {
          "length": 20,
          "start": 10321
        },
        {
          "length": 20,
          "start": 10885
        },
        {
          "length": 20,
          "start": 11290
        },
        {
          "length": 20,
          "start": 11438
        },
        {
          "length": 20,
          "start": 11580
        },
        {
          "length": 20,
          "start": 11851
        },
        {
          "length": 20,
          "start": 12073
        }
      ]
    }
  },
  "deployedLinkReferences": {
    "contracts/witnet/libs/WitnetParserLib.sol": {
      "WitnetParserLib": [
        {
          "length": 20,
          "start": 3041
        },
        {
          "length": 20,
          "start": 3174
        },
        {
          "length": 20,
          "start": 3301
        },
        {
          "length": 20,
          "start": 3630
        },
        {
          "length": 20,
          "start": 3758
        },
        {
          "length": 20,
          "start": 4175
        },
        {
          "length": 20,
          "start": 5606
        },
        {
          "length": 20,
          "start": 6682
        },
        {
          "length": 20,
          "start": 8580
        },
        {
          "length": 20,
          "start": 8638
        },
        {
          "length": 20,
          "start": 9246
        },
        {
          "length": 20,
          "start": 9811
        },
        {
          "length": 20,
          "start": 9899
        },
        {
          "length": 20,
          "start": 10463
        },
        {
          "length": 20,
          "start": 10868
        },
        {
          "length": 20,
          "start": 11016
        },
        {
          "length": 20,
          "start": 11158
        },
        {
          "length": 20,
          "start": 11429
        },
        {
          "length": 20,
          "start": 11651
        }
      ]
    }
  }
}