{
  "_format": "hh-sol-artifact-1",
  "contractName": "WitnetRequestBoardTrustableReef",
  "sourceName": "contracts/witnet/impls/trustable/WitnetRequestBoardTrustableReef.sol",
  "abi": [
    {
      "inputs": [
        {
          "internalType": "bool",
          "name": "_upgradable",
          "type": "bool"
        },
        {
          "internalType": "bytes32",
          "name": "_versionTag",
          "type": "bytes32"
        },
        {
          "internalType": "uint256",
          "name": "_reportResultGasLimit",
          "type": "uint256"
        }
      ],
      "stateMutability": "nonpayable",
      "type": "constructor"
    },
    {
      "anonymous": false,
      "inputs": [
        {
          "indexed": false,
          "internalType": "uint256",
          "name": "queryId",
          "type": "uint256"
        },
        {
          "indexed": false,
          "internalType": "string",
          "name": "reason",
          "type": "string"
        }
      ],
      "name": "BatchReportError",
      "type": "event"
    },
    {
      "anonymous": false,
      "inputs": [
        {
          "indexed": false,
          "internalType": "uint256",
          "name": "queryId",
          "type": "uint256"
        },
        {
          "indexed": false,
          "internalType": "address",
          "name": "from",
          "type": "address"
        }
      ],
      "name": "DeletedQuery",
      "type": "event"
    },
    {
      "anonymous": false,
      "inputs": [
        {
          "indexed": true,
          "internalType": "address",
          "name": "from",
          "type": "address"
        },
        {
          "indexed": true,
          "internalType": "address",
          "name": "to",
          "type": "address"
        }
      ],
      "name": "OwnershipTransferred",
      "type": "event"
    },
    {
      "anonymous": false,
      "inputs": [
        {
          "indexed": false,
          "internalType": "uint256",
          "name": "queryId",
          "type": "uint256"
        },
        {
          "indexed": false,
          "internalType": "address",
          "name": "from",
          "type": "address"
        }
      ],
      "name": "PostedRequest",
      "type": "event"
    },
    {
      "anonymous": false,
      "inputs": [
        {
          "indexed": false,
          "internalType": "uint256",
          "name": "queryId",
          "type": "uint256"
        },
        {
          "indexed": false,
          "internalType": "address",
          "name": "from",
          "type": "address"
        }
      ],
      "name": "PostedResult",
      "type": "event"
    },
    {
      "anonymous": false,
      "inputs": [
        {
          "indexed": false,
          "internalType": "address",
          "name": "from",
          "type": "address"
        },
        {
          "indexed": false,
          "internalType": "uint256",
          "name": "amount",
          "type": "uint256"
        }
      ],
      "name": "Received",
      "type": "event"
    },
    {
      "anonymous": false,
      "inputs": [
        {
          "indexed": false,
          "internalType": "address[]",
          "name": "reporters",
          "type": "address[]"
        }
      ],
      "name": "ReportersSet",
      "type": "event"
    },
    {
      "anonymous": false,
      "inputs": [
        {
          "indexed": false,
          "internalType": "address[]",
          "name": "reporters",
          "type": "address[]"
        }
      ],
      "name": "ReportersUnset",
      "type": "event"
    },
    {
      "anonymous": false,
      "inputs": [
        {
          "indexed": false,
          "internalType": "address",
          "name": "to",
          "type": "address"
        },
        {
          "indexed": false,
          "internalType": "uint256",
          "name": "amount",
          "type": "uint256"
        }
      ],
      "name": "Transfer",
      "type": "event"
    },
    {
      "anonymous": false,
      "inputs": [
        {
          "indexed": true,
          "internalType": "address",
          "name": "from",
          "type": "address"
        },
        {
          "indexed": true,
          "internalType": "address",
          "name": "baseAddr",
          "type": "address"
        },
        {
          "indexed": true,
          "internalType": "bytes32",
          "name": "baseCodehash",
          "type": "bytes32"
        },
        {
          "indexed": false,
          "internalType": "bytes32",
          "name": "versionTag",
          "type": "bytes32"
        }
      ],
      "name": "Upgraded",
      "type": "event"
    },
    {
      "stateMutability": "payable",
      "type": "fallback"
    },
    {
      "inputs": [
        {
          "components": [
            {
              "internalType": "bool",
              "name": "success",
              "type": "bool"
            },
            {
              "components": [
                {
                  "components": [
                    {
                      "internalType": "bytes",
                      "name": "data",
                      "type": "bytes"
                    },
                    {
                      "internalType": "uint32",
                      "name": "cursor",
                      "type": "uint32"
                    }
                  ],
                  "internalType": "struct Witnet.Buffer",
                  "name": "buffer",
                  "type": "tuple"
                },
                {
                  "internalType": "uint8",
                  "name": "initialByte",
                  "type": "uint8"
                },
                {
                  "internalType": "uint8",
                  "name": "majorType",
                  "type": "uint8"
                },
                {
                  "internalType": "uint8",
                  "name": "additionalInformation",
                  "type": "uint8"
                },
                {
                  "internalType": "uint64",
                  "name": "len",
                  "type": "uint64"
                },
                {
                  "internalType": "uint64",
                  "name": "tag",
                  "type": "uint64"
                }
              ],
              "internalType": "struct Witnet.CBOR",
              "name": "value",
              "type": "tuple"
            }
          ],
          "internalType": "struct Witnet.Result",
          "name": "_result",
          "type": "tuple"
        }
      ],
      "name": "asBool",
      "outputs": [
        {
          "internalType": "bool",
          "name": "",
          "type": "bool"
        }
      ],
      "stateMutability": "pure",
      "type": "function"
    },
    {
      "inputs": [
        {
          "components": [
            {
              "internalType": "bool",
              "name": "success",
              "type": "bool"
            },
            {
              "components": [
                {
                  "components": [
                    {
                      "internalType": "bytes",
                      "name": "data",
                      "type": "bytes"
                    },
                    {
                      "internalType": "uint32",
                      "name": "cursor",
                      "type": "uint32"
                    }
                  ],
                  "internalType": "struct Witnet.Buffer",
                  "name": "buffer",
                  "type": "tuple"
                },
                {
                  "internalType": "uint8",
                  "name": "initialByte",
                  "type": "uint8"
                },
                {
                  "internalType": "uint8",
                  "name": "majorType",
                  "type": "uint8"
                },
                {
                  "internalType": "uint8",
                  "name": "additionalInformation",
                  "type": "uint8"
                },
                {
                  "internalType": "uint64",
                  "name": "len",
                  "type": "uint64"
                },
                {
                  "internalType": "uint64",
                  "name": "tag",
                  "type": "uint64"
                }
              ],
              "internalType": "struct Witnet.CBOR",
              "name": "value",
              "type": "tuple"
            }
          ],
          "internalType": "struct Witnet.Result",
          "name": "_result",
          "type": "tuple"
        }
      ],
      "name": "asBytes",
      "outputs": [
        {
          "internalType": "bytes",
          "name": "",
          "type": "bytes"
        }
      ],
      "stateMutability": "pure",
      "type": "function"
    },
    {
      "inputs": [
        {
          "components": [
            {
              "internalType": "bool",
              "name": "success",
              "type": "bool"
            },
            {
              "components": [
                {
                  "components": [
                    {
                      "internalType": "bytes",
                      "name": "data",
                      "type": "bytes"
                    },
                    {
                      "internalType": "uint32",
                      "name": "cursor",
                      "type": "uint32"
                    }
                  ],
                  "internalType": "struct Witnet.Buffer",
                  "name": "buffer",
                  "type": "tuple"
                },
                {
                  "internalType": "uint8",
                  "name": "initialByte",
                  "type": "uint8"
                },
                {
                  "internalType": "uint8",
                  "name": "majorType",
                  "type": "uint8"
                },
                {
                  "internalType": "uint8",
                  "name": "additionalInformation",
                  "type": "uint8"
                },
                {
                  "internalType": "uint64",
                  "name": "len",
                  "type": "uint64"
                },
                {
                  "internalType": "uint64",
                  "name": "tag",
                  "type": "uint64"
                }
              ],
              "internalType": "struct Witnet.CBOR",
              "name": "value",
              "type": "tuple"
            }
          ],
          "internalType": "struct Witnet.Result",
          "name": "_result",
          "type": "tuple"
        }
      ],
      "name": "asBytes32",
      "outputs": [
        {
          "internalType": "bytes32",
          "name": "",
          "type": "bytes32"
        }
      ],
      "stateMutability": "pure",
      "type": "function"
    },
    {
      "inputs": [
        {
          "components": [
            {
              "internalType": "bool",
              "name": "success",
              "type": "bool"
            },
            {
              "components": [
                {
                  "components": [
                    {
                      "internalType": "bytes",
                      "name": "data",
                      "type": "bytes"
                    },
                    {
                      "internalType": "uint32",
                      "name": "cursor",
                      "type": "uint32"
                    }
                  ],
                  "internalType": "struct Witnet.Buffer",
                  "name": "buffer",
                  "type": "tuple"
                },
                {
                  "internalType": "uint8",
                  "name": "initialByte",
                  "type": "uint8"
                },
                {
                  "internalType": "uint8",
                  "name": "majorType",
                  "type": "uint8"
                },
                {
                  "internalType": "uint8",
                  "name": "additionalInformation",
                  "type": "uint8"
                },
                {
                  "internalType": "uint64",
                  "name": "len",
                  "type": "uint64"
                },
                {
                  "internalType": "uint64",
                  "name": "tag",
                  "type": "uint64"
                }
              ],
              "internalType": "struct Witnet.CBOR",
              "name": "value",
              "type": "tuple"
            }
          ],
          "internalType": "struct Witnet.Result",
          "name": "_result",
          "type": "tuple"
        }
      ],
      "name": "asErrorCode",
      "outputs": [
        {
          "internalType": "enum Witnet.ErrorCodes",
          "name": "",
          "type": "uint8"
        }
      ],
      "stateMutability": "pure",
      "type": "function"
    },
    {
      "inputs": [
        {
          "components": [
            {
              "internalType": "bool",
              "name": "success",
              "type": "bool"
            },
            {
              "components": [
                {
                  "components": [
                    {
                      "internalType": "bytes",
                      "name": "data",
                      "type": "bytes"
                    },
                    {
                      "internalType": "uint32",
                      "name": "cursor",
                      "type": "uint32"
                    }
                  ],
                  "internalType": "struct Witnet.Buffer",
                  "name": "buffer",
                  "type": "tuple"
                },
                {
                  "internalType": "uint8",
                  "name": "initialByte",
                  "type": "uint8"
                },
                {
                  "internalType": "uint8",
                  "name": "majorType",
                  "type": "uint8"
                },
                {
                  "internalType": "uint8",
                  "name": "additionalInformation",
                  "type": "uint8"
                },
                {
                  "internalType": "uint64",
                  "name": "len",
                  "type": "uint64"
                },
                {
                  "internalType": "uint64",
                  "name": "tag",
                  "type": "uint64"
                }
              ],
              "internalType": "struct Witnet.CBOR",
              "name": "value",
              "type": "tuple"
            }
          ],
          "internalType": "struct Witnet.Result",
          "name": "_result",
          "type": "tuple"
        }
      ],
      "name": "asErrorMessage",
      "outputs": [
        {
          "internalType": "enum Witnet.ErrorCodes",
          "name": "",
          "type": "uint8"
        },
        {
          "internalType": "string",
          "name": "",
          "type": "string"
        }
      ],
      "stateMutability": "pure",
      "type": "function"
    },
    {
      "inputs": [
        {
          "components": [
            {
              "internalType": "bool",
              "name": "success",
              "type": "bool"
            },
            {
              "components": [
                {
                  "components": [
                    {
                      "internalType": "bytes",
                      "name": "data",
                      "type": "bytes"
                    },
                    {
                      "internalType": "uint32",
                      "name": "cursor",
                      "type": "uint32"
                    }
                  ],
                  "internalType": "struct Witnet.Buffer",
                  "name": "buffer",
                  "type": "tuple"
                },
                {
                  "internalType": "uint8",
                  "name": "initialByte",
                  "type": "uint8"
                },
                {
                  "internalType": "uint8",
                  "name": "majorType",
                  "type": "uint8"
                },
                {
                  "internalType": "uint8",
                  "name": "additionalInformation",
                  "type": "uint8"
                },
                {
                  "internalType": "uint64",
                  "name": "len",
                  "type": "uint64"
                },
                {
                  "internalType": "uint64",
                  "name": "tag",
                  "type": "uint64"
                }
              ],
              "internalType": "struct Witnet.CBOR",
              "name": "value",
              "type": "tuple"
            }
          ],
          "internalType": "struct Witnet.Result",
          "name": "_result",
          "type": "tuple"
        }
      ],
      "name": "asFixed16",
      "outputs": [
        {
          "internalType": "int32",
          "name": "",
          "type": "int32"
        }
      ],
      "stateMutability": "pure",
      "type": "function"
    },
    {
      "inputs": [
        {
          "components": [
            {
              "internalType": "bool",
              "name": "success",
              "type": "bool"
            },
            {
              "components": [
                {
                  "components": [
                    {
                      "internalType": "bytes",
                      "name": "data",
                      "type": "bytes"
                    },
                    {
                      "internalType": "uint32",
                      "name": "cursor",
                      "type": "uint32"
                    }
                  ],
                  "internalType": "struct Witnet.Buffer",
                  "name": "buffer",
                  "type": "tuple"
                },
                {
                  "internalType": "uint8",
                  "name": "initialByte",
                  "type": "uint8"
                },
                {
                  "internalType": "uint8",
                  "name": "majorType",
                  "type": "uint8"
                },
                {
                  "internalType": "uint8",
                  "name": "additionalInformation",
                  "type": "uint8"
                },
                {
                  "internalType": "uint64",
                  "name": "len",
                  "type": "uint64"
                },
                {
                  "internalType": "uint64",
                  "name": "tag",
                  "type": "uint64"
                }
              ],
              "internalType": "struct Witnet.CBOR",
              "name": "value",
              "type": "tuple"
            }
          ],
          "internalType": "struct Witnet.Result",
          "name": "_result",
          "type": "tuple"
        }
      ],
      "name": "asFixed16Array",
      "outputs": [
        {
          "internalType": "int32[]",
          "name": "",
          "type": "int32[]"
        }
      ],
      "stateMutability": "pure",
      "type": "function"
    },
    {
      "inputs": [
        {
          "components": [
            {
              "internalType": "bool",
              "name": "success",
              "type": "bool"
            },
            {
              "components": [
                {
                  "components": [
                    {
                      "internalType": "bytes",
                      "name": "data",
                      "type": "bytes"
                    },
                    {
                      "internalType": "uint32",
                      "name": "cursor",
                      "type": "uint32"
                    }
                  ],
                  "internalType": "struct Witnet.Buffer",
                  "name": "buffer",
                  "type": "tuple"
                },
                {
                  "internalType": "uint8",
                  "name": "initialByte",
                  "type": "uint8"
                },
                {
                  "internalType": "uint8",
                  "name": "majorType",
                  "type": "uint8"
                },
                {
                  "internalType": "uint8",
                  "name": "additionalInformation",
                  "type": "uint8"
                },
                {
                  "internalType": "uint64",
                  "name": "len",
                  "type": "uint64"
                },
                {
                  "internalType": "uint64",
                  "name": "tag",
                  "type": "uint64"
                }
              ],
              "internalType": "struct Witnet.CBOR",
              "name": "value",
              "type": "tuple"
            }
          ],
          "internalType": "struct Witnet.Result",
          "name": "_result",
          "type": "tuple"
        }
      ],
      "name": "asInt128",
      "outputs": [
        {
          "internalType": "int128",
          "name": "",
          "type": "int128"
        }
      ],
      "stateMutability": "pure",
      "type": "function"
    },
    {
      "inputs": [
        {
          "components": [
            {
              "internalType": "bool",
              "name": "success",
              "type": "bool"
            },
            {
              "components": [
                {
                  "components": [
                    {
                      "internalType": "bytes",
                      "name": "data",
                      "type": "bytes"
                    },
                    {
                      "internalType": "uint32",
                      "name": "cursor",
                      "type": "uint32"
                    }
                  ],
                  "internalType": "struct Witnet.Buffer",
                  "name": "buffer",
                  "type": "tuple"
                },
                {
                  "internalType": "uint8",
                  "name": "initialByte",
                  "type": "uint8"
                },
                {
                  "internalType": "uint8",
                  "name": "majorType",
                  "type": "uint8"
                },
                {
                  "internalType": "uint8",
                  "name": "additionalInformation",
                  "type": "uint8"
                },
                {
                  "internalType": "uint64",
                  "name": "len",
                  "type": "uint64"
                },
                {
                  "internalType": "uint64",
                  "name": "tag",
                  "type": "uint64"
                }
              ],
              "internalType": "struct Witnet.CBOR",
              "name": "value",
              "type": "tuple"
            }
          ],
          "internalType": "struct Witnet.Result",
          "name": "_result",
          "type": "tuple"
        }
      ],
      "name": "asInt128Array",
      "outputs": [
        {
          "internalType": "int128[]",
          "name": "",
          "type": "int128[]"
        }
      ],
      "stateMutability": "pure",
      "type": "function"
    },
    {
      "inputs": [
        {
          "components": [
            {
              "internalType": "bool",
              "name": "success",
              "type": "bool"
            },
            {
              "components": [
                {
                  "components": [
                    {
                      "internalType": "bytes",
                      "name": "data",
                      "type": "bytes"
                    },
                    {
                      "internalType": "uint32",
                      "name": "cursor",
                      "type": "uint32"
                    }
                  ],
                  "internalType": "struct Witnet.Buffer",
                  "name": "buffer",
                  "type": "tuple"
                },
                {
                  "internalType": "uint8",
                  "name": "initialByte",
                  "type": "uint8"
                },
                {
                  "internalType": "uint8",
                  "name": "majorType",
                  "type": "uint8"
                },
                {
                  "internalType": "uint8",
                  "name": "additionalInformation",
                  "type": "uint8"
                },
                {
                  "internalType": "uint64",
                  "name": "len",
                  "type": "uint64"
                },
                {
                  "internalType": "uint64",
                  "name": "tag",
                  "type": "uint64"
                }
              ],
              "internalType": "struct Witnet.CBOR",
              "name": "value",
              "type": "tuple"
            }
          ],
          "internalType": "struct Witnet.Result",
          "name": "_result",
          "type": "tuple"
        }
      ],
      "name": "asRawError",
      "outputs": [
        {
          "internalType": "uint64[]",
          "name": "",
          "type": "uint64[]"
        }
      ],
      "stateMutability": "pure",
      "type": "function"
    },
    {
      "inputs": [
        {
          "components": [
            {
              "internalType": "bool",
              "name": "success",
              "type": "bool"
            },
            {
              "components": [
                {
                  "components": [
                    {
                      "internalType": "bytes",
                      "name": "data",
                      "type": "bytes"
                    },
                    {
                      "internalType": "uint32",
                      "name": "cursor",
                      "type": "uint32"
                    }
                  ],
                  "internalType": "struct Witnet.Buffer",
                  "name": "buffer",
                  "type": "tuple"
                },
                {
                  "internalType": "uint8",
                  "name": "initialByte",
                  "type": "uint8"
                },
                {
                  "internalType": "uint8",
                  "name": "majorType",
                  "type": "uint8"
                },
                {
                  "internalType": "uint8",
                  "name": "additionalInformation",
                  "type": "uint8"
                },
                {
                  "internalType": "uint64",
                  "name": "len",
                  "type": "uint64"
                },
                {
                  "internalType": "uint64",
                  "name": "tag",
                  "type": "uint64"
                }
              ],
              "internalType": "struct Witnet.CBOR",
              "name": "value",
              "type": "tuple"
            }
          ],
          "internalType": "struct Witnet.Result",
          "name": "_result",
          "type": "tuple"
        }
      ],
      "name": "asString",
      "outputs": [
        {
          "internalType": "string",
          "name": "",
          "type": "string"
        }
      ],
      "stateMutability": "pure",
      "type": "function"
    },
    {
      "inputs": [
        {
          "components": [
            {
              "internalType": "bool",
              "name": "success",
              "type": "bool"
            },
            {
              "components": [
                {
                  "components": [
                    {
                      "internalType": "bytes",
                      "name": "data",
                      "type": "bytes"
                    },
                    {
                      "internalType": "uint32",
                      "name": "cursor",
                      "type": "uint32"
                    }
                  ],
                  "internalType": "struct Witnet.Buffer",
                  "name": "buffer",
                  "type": "tuple"
                },
                {
                  "internalType": "uint8",
                  "name": "initialByte",
                  "type": "uint8"
                },
                {
                  "internalType": "uint8",
                  "name": "majorType",
                  "type": "uint8"
                },
                {
                  "internalType": "uint8",
                  "name": "additionalInformation",
                  "type": "uint8"
                },
                {
                  "internalType": "uint64",
                  "name": "len",
                  "type": "uint64"
                },
                {
                  "internalType": "uint64",
                  "name": "tag",
                  "type": "uint64"
                }
              ],
              "internalType": "struct Witnet.CBOR",
              "name": "value",
              "type": "tuple"
            }
          ],
          "internalType": "struct Witnet.Result",
          "name": "_result",
          "type": "tuple"
        }
      ],
      "name": "asStringArray",
      "outputs": [
        {
          "internalType": "string[]",
          "name": "",
          "type": "string[]"
        }
      ],
      "stateMutability": "pure",
      "type": "function"
    },
    {
      "inputs": [
        {
          "components": [
            {
              "internalType": "bool",
              "name": "success",
              "type": "bool"
            },
            {
              "components": [
                {
                  "components": [
                    {
                      "internalType": "bytes",
                      "name": "data",
                      "type": "bytes"
                    },
                    {
                      "internalType": "uint32",
                      "name": "cursor",
                      "type": "uint32"
                    }
                  ],
                  "internalType": "struct Witnet.Buffer",
                  "name": "buffer",
                  "type": "tuple"
                },
                {
                  "internalType": "uint8",
                  "name": "initialByte",
                  "type": "uint8"
                },
                {
                  "internalType": "uint8",
                  "name": "majorType",
                  "type": "uint8"
                },
                {
                  "internalType": "uint8",
                  "name": "additionalInformation",
                  "type": "uint8"
                },
                {
                  "internalType": "uint64",
                  "name": "len",
                  "type": "uint64"
                },
                {
                  "internalType": "uint64",
                  "name": "tag",
                  "type": "uint64"
                }
              ],
              "internalType": "struct Witnet.CBOR",
              "name": "value",
              "type": "tuple"
            }
          ],
          "internalType": "struct Witnet.Result",
          "name": "_result",
          "type": "tuple"
        }
      ],
      "name": "asUint64",
      "outputs": [
        {
          "internalType": "uint64",
          "name": "",
          "type": "uint64"
        }
      ],
      "stateMutability": "pure",
      "type": "function"
    },
    {
      "inputs": [
        {
          "components": [
            {
              "internalType": "bool",
              "name": "success",
              "type": "bool"
            },
            {
              "components": [
                {
                  "components": [
                    {
                      "internalType": "bytes",
                      "name": "data",
                      "type": "bytes"
                    },
                    {
                      "internalType": "uint32",
                      "name": "cursor",
                      "type": "uint32"
                    }
                  ],
                  "internalType": "struct Witnet.Buffer",
                  "name": "buffer",
                  "type": "tuple"
                },
                {
                  "internalType": "uint8",
                  "name": "initialByte",
                  "type": "uint8"
                },
                {
                  "internalType": "uint8",
                  "name": "majorType",
                  "type": "uint8"
                },
                {
                  "internalType": "uint8",
                  "name": "additionalInformation",
                  "type": "uint8"
                },
                {
                  "internalType": "uint64",
                  "name": "len",
                  "type": "uint64"
                },
                {
                  "internalType": "uint64",
                  "name": "tag",
                  "type": "uint64"
                }
              ],
              "internalType": "struct Witnet.CBOR",
              "name": "value",
              "type": "tuple"
            }
          ],
          "internalType": "struct Witnet.Result",
          "name": "_result",
          "type": "tuple"
        }
      ],
      "name": "asUint64Array",
      "outputs": [
        {
          "internalType": "uint64[]",
          "name": "",
          "type": "uint64[]"
        }
      ],
      "stateMutability": "pure",
      "type": "function"
    },
    {
      "inputs": [],
      "name": "base",
      "outputs": [
        {
          "internalType": "address",
          "name": "",
          "type": "address"
        }
      ],
      "stateMutability": "view",
      "type": "function"
    },
    {
      "inputs": [],
      "name": "codehash",
      "outputs": [
        {
          "internalType": "bytes32",
          "name": "_codehash",
          "type": "bytes32"
        }
      ],
      "stateMutability": "view",
      "type": "function"
    },
    {
      "inputs": [],
      "name": "currency",
      "outputs": [
        {
          "internalType": "contract IERC20",
          "name": "",
          "type": "address"
        }
      ],
      "stateMutability": "view",
      "type": "function"
    },
    {
      "inputs": [
        {
          "internalType": "uint256",
          "name": "_queryId",
          "type": "uint256"
        }
      ],
      "name": "deleteQuery",
      "outputs": [
        {
          "components": [
            {
              "internalType": "address",
              "name": "reporter",
              "type": "address"
            },
            {
              "internalType": "uint256",
              "name": "timestamp",
              "type": "uint256"
            },
            {
              "internalType": "bytes32",
              "name": "drTxHash",
              "type": "bytes32"
            },
            {
              "internalType": "bytes",
              "name": "cborBytes",
              "type": "bytes"
            }
          ],
          "internalType": "struct Witnet.Response",
          "name": "_response",
          "type": "tuple"
        }
      ],
      "stateMutability": "nonpayable",
      "type": "function"
    },
    {
      "inputs": [],
      "name": "destruct",
      "outputs": [],
      "stateMutability": "nonpayable",
      "type": "function"
    },
    {
      "inputs": [
        {
          "internalType": "uint256",
          "name": "",
          "type": "uint256"
        }
      ],
      "name": "estimateReward",
      "outputs": [
        {
          "internalType": "uint256",
          "name": "",
          "type": "uint256"
        }
      ],
      "stateMutability": "view",
      "type": "function"
    },
    {
      "inputs": [],
      "name": "getNextQueryId",
      "outputs": [
        {
          "internalType": "uint256",
          "name": "",
          "type": "uint256"
        }
      ],
      "stateMutability": "view",
      "type": "function"
    },
    {
      "inputs": [
        {
          "internalType": "uint256",
          "name": "_queryId",
          "type": "uint256"
        }
      ],
      "name": "getQueryData",
      "outputs": [
        {
          "components": [
            {
              "components": [
                {
                  "internalType": "contract IWitnetRequest",
                  "name": "addr",
                  "type": "address"
                },
                {
                  "internalType": "address",
                  "name": "requester",
                  "type": "address"
                },
                {
                  "internalType": "bytes32",
                  "name": "hash",
                  "type": "bytes32"
                },
                {
                  "internalType": "uint256",
                  "name": "gasprice",
                  "type": "uint256"
                },
                {
                  "internalType": "uint256",
                  "name": "reward",
                  "type": "uint256"
                }
              ],
              "internalType": "struct Witnet.Request",
              "name": "request",
              "type": "tuple"
            },
            {
              "components": [
                {
                  "internalType": "address",
                  "name": "reporter",
                  "type": "address"
                },
                {
                  "internalType": "uint256",
                  "name": "timestamp",
                  "type": "uint256"
                },
                {
                  "internalType": "bytes32",
                  "name": "drTxHash",
                  "type": "bytes32"
                },
                {
                  "internalType": "bytes",
                  "name": "cborBytes",
                  "type": "bytes"
                }
              ],
              "internalType": "struct Witnet.Response",
              "name": "response",
              "type": "tuple"
            },
            {
              "internalType": "address",
              "name": "from",
              "type": "address"
            }
          ],
          "internalType": "struct Witnet.Query",
          "name": "",
          "type": "tuple"
        }
      ],
      "stateMutability": "view",
      "type": "function"
    },
    {
      "inputs": [
        {
          "internalType": "uint256",
          "name": "_queryId",
          "type": "uint256"
        }
      ],
      "name": "getQueryStatus",
      "outputs": [
        {
          "internalType": "enum Witnet.QueryStatus",
          "name": "",
          "type": "uint8"
        }
      ],
      "stateMutability": "view",
      "type": "function"
    },
    {
      "inputs": [
        {
          "internalType": "bytes",
          "name": "_initData",
          "type": "bytes"
        }
      ],
      "name": "initialize",
      "outputs": [],
      "stateMutability": "nonpayable",
      "type": "function"
    },
    {
      "inputs": [
        {
          "components": [
            {
              "internalType": "bool",
              "name": "success",
              "type": "bool"
            },
            {
              "components": [
                {
                  "components": [
                    {
                      "internalType": "bytes",
                      "name": "data",
                      "type": "bytes"
                    },
                    {
                      "internalType": "uint32",
                      "name": "cursor",
                      "type": "uint32"
                    }
                  ],
                  "internalType": "struct Witnet.Buffer",
                  "name": "buffer",
                  "type": "tuple"
                },
                {
                  "internalType": "uint8",
                  "name": "initialByte",
                  "type": "uint8"
                },
                {
                  "internalType": "uint8",
                  "name": "majorType",
                  "type": "uint8"
                },
                {
                  "internalType": "uint8",
                  "name": "additionalInformation",
                  "type": "uint8"
                },
                {
                  "internalType": "uint64",
                  "name": "len",
                  "type": "uint64"
                },
                {
                  "internalType": "uint64",
                  "name": "tag",
                  "type": "uint64"
                }
              ],
              "internalType": "struct Witnet.CBOR",
              "name": "value",
              "type": "tuple"
            }
          ],
          "internalType": "struct Witnet.Result",
          "name": "_result",
          "type": "tuple"
        }
      ],
      "name": "isError",
      "outputs": [
        {
          "internalType": "bool",
          "name": "",
          "type": "bool"
        }
      ],
      "stateMutability": "pure",
      "type": "function"
    },
    {
      "inputs": [
        {
          "components": [
            {
              "internalType": "bool",
              "name": "success",
              "type": "bool"
            },
            {
              "components": [
                {
                  "components": [
                    {
                      "internalType": "bytes",
                      "name": "data",
                      "type": "bytes"
                    },
                    {
                      "internalType": "uint32",
                      "name": "cursor",
                      "type": "uint32"
                    }
                  ],
                  "internalType": "struct Witnet.Buffer",
                  "name": "buffer",
                  "type": "tuple"
                },
                {
                  "internalType": "uint8",
                  "name": "initialByte",
                  "type": "uint8"
                },
                {
                  "internalType": "uint8",
                  "name": "majorType",
                  "type": "uint8"
                },
                {
                  "internalType": "uint8",
                  "name": "additionalInformation",
                  "type": "uint8"
                },
                {
                  "internalType": "uint64",
                  "name": "len",
                  "type": "uint64"
                },
                {
                  "internalType": "uint64",
                  "name": "tag",
                  "type": "uint64"
                }
              ],
              "internalType": "struct Witnet.CBOR",
              "name": "value",
              "type": "tuple"
            }
          ],
          "internalType": "struct Witnet.Result",
          "name": "_result",
          "type": "tuple"
        }
      ],
      "name": "isOk",
      "outputs": [
        {
          "internalType": "bool",
          "name": "",
          "type": "bool"
        }
      ],
      "stateMutability": "pure",
      "type": "function"
    },
    {
      "inputs": [
        {
          "internalType": "address",
          "name": "_reporter",
          "type": "address"
        }
      ],
      "name": "isReporter",
      "outputs": [
        {
          "internalType": "bool",
          "name": "",
          "type": "bool"
        }
      ],
      "stateMutability": "view",
      "type": "function"
    },
    {
      "inputs": [],
      "name": "isUpgradable",
      "outputs": [
        {
          "internalType": "bool",
          "name": "",
          "type": "bool"
        }
      ],
      "stateMutability": "view",
      "type": "function"
    },
    {
      "inputs": [
        {
          "internalType": "address",
          "name": "_from",
          "type": "address"
        }
      ],
      "name": "isUpgradableFrom",
      "outputs": [
        {
          "internalType": "bool",
          "name": "",
          "type": "bool"
        }
      ],
      "stateMutability": "view",
      "type": "function"
    },
    {
      "inputs": [],
      "name": "owner",
      "outputs": [
        {
          "internalType": "address",
          "name": "",
          "type": "address"
        }
      ],
      "stateMutability": "view",
      "type": "function"
    },
    {
      "inputs": [
        {
          "internalType": "contract IWitnetRequest",
          "name": "_addr",
          "type": "address"
        }
      ],
      "name": "postRequest",
      "outputs": [
        {
          "internalType": "uint256",
          "name": "_queryId",
          "type": "uint256"
        }
      ],
      "stateMutability": "payable",
      "type": "function"
    },
    {
      "inputs": [],
      "name": "proxiableUUID",
      "outputs": [
        {
          "internalType": "bytes32",
          "name": "",
          "type": "bytes32"
        }
      ],
      "stateMutability": "pure",
      "type": "function"
    },
    {
      "inputs": [
        {
          "internalType": "uint256",
          "name": "_queryId",
          "type": "uint256"
        }
      ],
      "name": "readRequest",
      "outputs": [
        {
          "components": [
            {
              "internalType": "contract IWitnetRequest",
              "name": "addr",
              "type": "address"
            },
            {
              "internalType": "address",
              "name": "requester",
              "type": "address"
            },
            {
              "internalType": "bytes32",
              "name": "hash",
              "type": "bytes32"
            },
            {
              "internalType": "uint256",
              "name": "gasprice",
              "type": "uint256"
            },
            {
              "internalType": "uint256",
              "name": "reward",
              "type": "uint256"
            }
          ],
          "internalType": "struct Witnet.Request",
          "name": "_request",
          "type": "tuple"
        }
      ],
      "stateMutability": "view",
      "type": "function"
    },
    {
      "inputs": [
        {
          "internalType": "uint256",
          "name": "_queryId",
          "type": "uint256"
        }
      ],
      "name": "readRequestBytecode",
      "outputs": [
        {
          "internalType": "bytes",
          "name": "_bytecode",
          "type": "bytes"
        }
      ],
      "stateMutability": "view",
      "type": "function"
    },
    {
      "inputs": [
        {
          "internalType": "uint256",
          "name": "_queryId",
          "type": "uint256"
        }
      ],
      "name": "readRequestGasPrice",
      "outputs": [
        {
          "internalType": "uint256",
          "name": "",
          "type": "uint256"
        }
      ],
      "stateMutability": "view",
      "type": "function"
    },
    {
      "inputs": [
        {
          "internalType": "uint256",
          "name": "_queryId",
          "type": "uint256"
        }
      ],
      "name": "readRequestReward",
      "outputs": [
        {
          "internalType": "uint256",
          "name": "",
          "type": "uint256"
        }
      ],
      "stateMutability": "view",
      "type": "function"
    },
    {
      "inputs": [
        {
          "internalType": "uint256",
          "name": "_queryId",
          "type": "uint256"
        }
      ],
      "name": "readResponse",
      "outputs": [
        {
          "components": [
            {
              "internalType": "address",
              "name": "reporter",
              "type": "address"
            },
            {
              "internalType": "uint256",
              "name": "timestamp",
              "type": "uint256"
            },
            {
              "internalType": "bytes32",
              "name": "drTxHash",
              "type": "bytes32"
            },
            {
              "internalType": "bytes",
              "name": "cborBytes",
              "type": "bytes"
            }
          ],
          "internalType": "struct Witnet.Response",
          "name": "_response",
          "type": "tuple"
        }
      ],
      "stateMutability": "view",
      "type": "function"
    },
    {
      "inputs": [
        {
          "internalType": "uint256",
          "name": "_queryId",
          "type": "uint256"
        }
      ],
      "name": "readResponseDrTxHash",
      "outputs": [
        {
          "internalType": "bytes32",
          "name": "",
          "type": "bytes32"
        }
      ],
      "stateMutability": "view",
      "type": "function"
    },
    {
      "inputs": [
        {
          "internalType": "uint256",
          "name": "_queryId",
          "type": "uint256"
        }
      ],
      "name": "readResponseReporter",
      "outputs": [
        {
          "internalType": "address",
          "name": "",
          "type": "address"
        }
      ],
      "stateMutability": "view",
      "type": "function"
    },
    {
      "inputs": [
        {
          "internalType": "uint256",
          "name": "_queryId",
          "type": "uint256"
        }
      ],
      "name": "readResponseResult",
      "outputs": [
        {
          "components": [
            {
              "internalType": "bool",
              "name": "success",
              "type": "bool"
            },
            {
              "components": [
                {
                  "components": [
                    {
                      "internalType": "bytes",
                      "name": "data",
                      "type": "bytes"
                    },
                    {
                      "internalType": "uint32",
                      "name": "cursor",
                      "type": "uint32"
                    }
                  ],
                  "internalType": "struct Witnet.Buffer",
                  "name": "buffer",
                  "type": "tuple"
                },
                {
                  "internalType": "uint8",
                  "name": "initialByte",
                  "type": "uint8"
                },
                {
                  "internalType": "uint8",
                  "name": "majorType",
                  "type": "uint8"
                },
                {
                  "internalType": "uint8",
                  "name": "additionalInformation",
                  "type": "uint8"
                },
                {
                  "internalType": "uint64",
                  "name": "len",
                  "type": "uint64"
                },
                {
                  "internalType": "uint64",
                  "name": "tag",
                  "type": "uint64"
                }
              ],
              "internalType": "struct Witnet.CBOR",
              "name": "value",
              "type": "tuple"
            }
          ],
          "internalType": "struct Witnet.Result",
          "name": "",
          "type": "tuple"
        }
      ],
      "stateMutability": "view",
      "type": "function"
    },
    {
      "inputs": [
        {
          "internalType": "uint256",
          "name": "_queryId",
          "type": "uint256"
        }
      ],
      "name": "readResponseTimestamp",
      "outputs": [
        {
          "internalType": "uint256",
          "name": "",
          "type": "uint256"
        }
      ],
      "stateMutability": "view",
      "type": "function"
    },
    {
      "inputs": [
        {
          "internalType": "uint256",
          "name": "_queryId",
          "type": "uint256"
        },
        {
          "internalType": "bytes32",
          "name": "_drTxHash",
          "type": "bytes32"
        },
        {
          "internalType": "bytes",
          "name": "_cborBytes",
          "type": "bytes"
        }
      ],
      "name": "reportResult",
      "outputs": [],
      "stateMutability": "nonpayable",
      "type": "function"
    },
    {
      "inputs": [
        {
          "internalType": "uint256",
          "name": "_queryId",
          "type": "uint256"
        },
        {
          "internalType": "uint256",
          "name": "_timestamp",
          "type": "uint256"
        },
        {
          "internalType": "bytes32",
          "name": "_drTxHash",
          "type": "bytes32"
        },
        {
          "internalType": "bytes",
          "name": "_cborBytes",
          "type": "bytes"
        }
      ],
      "name": "reportResult",
      "outputs": [],
      "stateMutability": "nonpayable",
      "type": "function"
    },
    {
      "inputs": [
        {
          "components": [
            {
              "internalType": "uint256",
              "name": "queryId",
              "type": "uint256"
            },
            {
              "internalType": "uint256",
              "name": "timestamp",
              "type": "uint256"
            },
            {
              "internalType": "bytes32",
              "name": "drTxHash",
              "type": "bytes32"
            },
            {
              "internalType": "bytes",
              "name": "cborBytes",
              "type": "bytes"
            }
          ],
          "internalType": "struct IWitnetRequestBoardReporter.BatchResult[]",
          "name": "_batchResults",
          "type": "tuple[]"
        },
        {
          "internalType": "bool",
          "name": "_verbose",
          "type": "bool"
        }
      ],
      "name": "reportResultBatch",
      "outputs": [],
      "stateMutability": "nonpayable",
      "type": "function"
    },
    {
      "inputs": [
        {
          "internalType": "bytes",
          "name": "_cborBytes",
          "type": "bytes"
        }
      ],
      "name": "resultFromCborBytes",
      "outputs": [
        {
          "components": [
            {
              "internalType": "bool",
              "name": "success",
              "type": "bool"
            },
            {
              "components": [
                {
                  "components": [
                    {
                      "internalType": "bytes",
                      "name": "data",
                      "type": "bytes"
                    },
                    {
                      "internalType": "uint32",
                      "name": "cursor",
                      "type": "uint32"
                    }
                  ],
                  "internalType": "struct Witnet.Buffer",
                  "name": "buffer",
                  "type": "tuple"
                },
                {
                  "internalType": "uint8",
                  "name": "initialByte",
                  "type": "uint8"
                },
                {
                  "internalType": "uint8",
                  "name": "majorType",
                  "type": "uint8"
                },
                {
                  "internalType": "uint8",
                  "name": "additionalInformation",
                  "type": "uint8"
                },
                {
                  "internalType": "uint64",
                  "name": "len",
                  "type": "uint64"
                },
                {
                  "internalType": "uint64",
                  "name": "tag",
                  "type": "uint64"
                }
              ],
              "internalType": "struct Witnet.CBOR",
              "name": "value",
              "type": "tuple"
            }
          ],
          "internalType": "struct Witnet.Result",
          "name": "",
          "type": "tuple"
        }
      ],
      "stateMutability": "pure",
      "type": "function"
    },
    {
      "inputs": [
        {
          "components": [
            {
              "components": [
                {
                  "internalType": "bytes",
                  "name": "data",
                  "type": "bytes"
                },
                {
                  "internalType": "uint32",
                  "name": "cursor",
                  "type": "uint32"
                }
              ],
              "internalType": "struct Witnet.Buffer",
              "name": "buffer",
              "type": "tuple"
            },
            {
              "internalType": "uint8",
              "name": "initialByte",
              "type": "uint8"
            },
            {
              "internalType": "uint8",
              "name": "majorType",
              "type": "uint8"
            },
            {
              "internalType": "uint8",
              "name": "additionalInformation",
              "type": "uint8"
            },
            {
              "internalType": "uint64",
              "name": "len",
              "type": "uint64"
            },
            {
              "internalType": "uint64",
              "name": "tag",
              "type": "uint64"
            }
          ],
          "internalType": "struct Witnet.CBOR",
          "name": "_cborValue",
          "type": "tuple"
        }
      ],
      "name": "resultFromCborValue",
      "outputs": [
        {
          "components": [
            {
              "internalType": "bool",
              "name": "success",
              "type": "bool"
            },
            {
              "components": [
                {
                  "components": [
                    {
                      "internalType": "bytes",
                      "name": "data",
                      "type": "bytes"
                    },
                    {
                      "internalType": "uint32",
                      "name": "cursor",
                      "type": "uint32"
                    }
                  ],
                  "internalType": "struct Witnet.Buffer",
                  "name": "buffer",
                  "type": "tuple"
                },
                {
                  "internalType": "uint8",
                  "name": "initialByte",
                  "type": "uint8"
                },
                {
                  "internalType": "uint8",
                  "name": "majorType",
                  "type": "uint8"
                },
                {
                  "internalType": "uint8",
                  "name": "additionalInformation",
                  "type": "uint8"
                },
                {
                  "internalType": "uint64",
                  "name": "len",
                  "type": "uint64"
                },
                {
                  "internalType": "uint64",
                  "name": "tag",
                  "type": "uint64"
                }
              ],
              "internalType": "struct Witnet.CBOR",
              "name": "value",
              "type": "tuple"
            }
          ],
          "internalType": "struct Witnet.Result",
          "name": "",
          "type": "tuple"
        }
      ],
      "stateMutability": "pure",
      "type": "function"
    },
    {
      "inputs": [
        {
          "internalType": "address[]",
          "name": "_reporters",
          "type": "address[]"
        }
      ],
      "name": "setReporters",
      "outputs": [],
      "stateMutability": "nonpayable",
      "type": "function"
    },
    {
      "inputs": [
        {
          "internalType": "address",
          "name": "_newOwner",
          "type": "address"
        }
      ],
      "name": "transferOwnership",
      "outputs": [],
      "stateMutability": "nonpayable",
      "type": "function"
    },
    {
      "inputs": [
        {
          "internalType": "address[]",
          "name": "_exReporters",
          "type": "address[]"
        }
      ],
      "name": "unsetReporters",
      "outputs": [],
      "stateMutability": "nonpayable",
      "type": "function"
    },
    {
      "inputs": [
        {
          "internalType": "uint256",
          "name": "_queryId",
          "type": "uint256"
        }
      ],
      "name": "upgradeReward",
      "outputs": [],
      "stateMutability": "payable",
      "type": "function"
    },
    {
      "inputs": [],
      "name": "version",
      "outputs": [
        {
          "internalType": "bytes32",
          "name": "",
          "type": "bytes32"
        }
      ],
      "stateMutability": "view",
      "type": "function"
    },
    {
      "stateMutability": "payable",
      "type": "receive"
    }
  ],
  "bytecode": "0x6101406040523480156200001257600080fd5b5060405162004948380380620049488339810160408190526200003591620000c3565b600060808190527ff595240b351bc8f951c2f53b26f4e78c32cb62122cf76c19b7fdda7d4968e18480546001600160a01b0319163390811790915581527fa6db7263983f337bae2c9fb315730227961d1c1153ae1e10a56b5791465dd6fd60205260409020805460ff191660011790553060a08190523f60c05291151560e052610100526101205262000101565b600080600060608486031215620000d957600080fd5b83518015158114620000ea57600080fd5b602085015160409095015190969495509392505050565b60805160a05160c05160e05161010051610120516147bf6200018960003960008181610a4f015281816117ed01526121d301526000818161071101526114790152600081816106de015261185d0152600081816108d3015261140c01526000818161066401528181611331015281816113c5015261142d01526000610b3e01526147bf6000f3fe6080604052600436106102e85760003560e01c80637780cde111610190578063c805dd0f116100dc578063d4da69ac11610095578063dc3c71cd1161006f578063dc3c71cd14610b0c578063e5a6b10f14610b2c578063e99e47f314610b60578063f2fde38b14610b805761034c565b8063d4da69ac14610a91578063d74803be14610ab1578063db04f16d14610adf5761034c565b8063c805dd0f146109af578063c87d969e146109c4578063c8f5cdd5146109f1578063cf62d11514610a11578063d2e8756114610a31578063d4ced13214610a715761034c565b8063a8604c1a11610149578063b281a7bd11610123578063b281a7bd14610917578063bc7e25ff1461092a578063c2485ebd14610962578063c683b4651461098f5761034c565b8063a8604c1a146108a4578063a9e954b9146108c4578063b0768328146108f75761034c565b80637780cde1146107e25780637c1fbda31461080257806381a398b5146108225780638da5cb5b1461084257806399f65804146108575780639d96fced146108845761034c565b80633b885f2a1161024f5780635479d9401161020857806366bfdc75116101e257806366bfdc75146107555780636b58960a146107685780636f07abcc14610788578063754e5bea146107b55761034c565b80635479d940146106cf57806354fd4d50146107025780636280bce8146107355761034c565b80633b885f2a146105c8578063439fab91146105e85780634c9f72e3146106085780634dcffaf3146106285780635001f3b51461065557806352d1902d1461069c5761034c565b80632241f2db116102a15780632241f2db146104de5780632565082b1461051157806328a78d9b1461053e5780632b68b9c6146105605780632b905fbb146105755780633ae97295146105a85761034c565b8063044ad7be146103ae57806307e66852146104095780630f572d2c14610436578063109a0e3c146104635780631dd27daf1461049057806320f9241e146104be5761034c565b3661034c5760405162461bcd60e51b815260206004820152602960248201527f5769746e657452657175657374426f6172643a206e6f207472616e7366657273604482015268081858d8d95c1d195960ba1b60648201526084015b60405180910390fd5b60405162461bcd60e51b815260206004820152603160248201527f5769746e657452657175657374426f61726455706772616461626c65426173656044820152700e881b9bdd081a5b5c1b195b595b9d1959607a1b6064820152608401610343565b3480156103ba57600080fd5b506103f46103c93660046130e4565b6001600160a01b0316600090815260008051602061473b833981519152602052604090205460ff1690565b60405190151581526020015b60405180910390f35b34801561041557600080fd5b5061042961042436600461337c565b610ba0565b60405161040091906133ff565b34801561044257600080fd5b5061045661045136600461337c565b610c25565b6040516104009190613446565b34801561046f57600080fd5b5061048361047e36600461337c565b610ca4565b60405161040091906134d1565b34801561049c57600080fd5b506104b06104ab3660046134e4565b610d23565b604051908152602001610400565b3480156104ca57600080fd5b506104b06104d93660046134e4565b610d8f565b3480156104ea57600080fd5b506104fe6104f936600461337c565b610ded565b60405160039190910b8152602001610400565b34801561051d57600080fd5b5061053161052c3660046134fd565b610e68565b6040516104009190613539565b34801561054a57600080fd5b5061055e61055936600461360c565b610eec565b005b34801561056c57600080fd5b5061055e610fd8565b34801561058157600080fd5b5061059561059036600461337c565b61100e565b604051600f9190910b8152602001610400565b3480156105b457600080fd5b506104b06105c33660046134e4565b611089565b3480156105d457600080fd5b506104836105e33660046134e4565b6110f6565b3480156105f457600080fd5b5061055e6106033660046136b0565b61126d565b34801561061457600080fd5b5061055e61062336600461360c565b6114c4565b34801561063457600080fd5b5061064861064336600461337c565b6115a5565b60405161040091906136e4565b34801561066157600080fd5b507f00000000000000000000000000000000000000000000000000000000000000005b6040516001600160a01b039091168152602001610400565b3480156106a857600080fd5b507f9969c6aff411c5e5f0807500693e8f819ce88529615cfa6cab569b24788a10186104b0565b3480156106db57600080fd5b507f00000000000000000000000000000000000000000000000000000000000000006103f4565b34801561070e57600080fd5b507f00000000000000000000000000000000000000000000000000000000000000006104b0565b34801561074157600080fd5b5061055e61075036600461376d565b611624565b61055e6107633660046134e4565b611773565b34801561077457600080fd5b506103f46107833660046130e4565b611841565b34801561079457600080fd5b506107a86107a33660046134e4565b6118a0565b60405161040091906137d5565b3480156107c157600080fd5b506107d56107d03660046134e4565b6118ab565b604051610400919061382a565b3480156107ee57600080fd5b506103f46107fd36600461337c565b6119ee565b34801561080e57600080fd5b506107d561081d3660046134e4565b611a69565b34801561082e57600080fd5b5061055e61083d36600461383d565b611ce4565b34801561084e57600080fd5b50610684611fd6565b34801561086357600080fd5b506108776108723660046134e4565b611ff2565b6040516104009190613996565b34801561089057600080fd5b5061068461089f3660046134e4565b6120f4565b3480156108b057600080fd5b506103f46108bf36600461337c565b612158565b3480156108d057600080fd5b507f00000000000000000000000000000000000000000000000000000000000000006104b0565b34801561090357600080fd5b5061064861091236600461337c565b612192565b6104b06109253660046130e4565b6121cc565b34801561093657600080fd5b5061094a61094536600461337c565b612408565b6040516001600160401b039091168152602001610400565b34801561096e57600080fd5b5061098261097d3660046134e4565b612483565b60405161040091906139a4565b34801561099b57600080fd5b506104836109aa36600461337c565b61263d565b3480156109bb57600080fd5b506104b0612677565b3480156109d057600080fd5b506109e46109df36600461337c565b612695565b60405161040091906139f3565b3480156109fd57600080fd5b5061055e610a0c366004613a55565b612714565b348015610a1d57600080fd5b506104b0610a2c36600461337c565b6128c9565b348015610a3d57600080fd5b506104b0610a4c3660046134e4565b507f000000000000000000000000000000000000000000000000000000000000000090565b348015610a7d57600080fd5b506103f4610a8c36600461337c565b612944565b348015610a9d57600080fd5b50610531610aac3660046134e4565b61297e565b348015610abd57600080fd5b50610ad1610acc36600461337c565b612a63565b604051610400929190613aca565b348015610aeb57600080fd5b50610aff610afa36600461337c565b612b75565b6040516104009190613aea565b348015610b1857600080fd5b506104b0610b273660046134e4565b612bf0565b348015610b3857600080fd5b506106847f000000000000000000000000000000000000000000000000000000000000000081565b348015610b6c57600080fd5b50610531610b7b3660046136b0565b612c4e565b348015610b8c57600080fd5b5061055e610b9b3660046130e4565b612c8d565b60405163fc853c3760e01b815260609073__$ea6a162dd0cd18b69b81164309824ac93c$__9063fc853c3790610bda908590600401613b7f565b600060405180830381865af4158015610bf7573d6000803e3d6000fd5b505050506040513d6000823e601f3d908101601f19168201604052610c1f9190810190613bb8565b92915050565b6040516308efc09760e01b815260609073__$ea6a162dd0cd18b69b81164309824ac93c$__906308efc09790610c5f908590600401613b7f565b600060405180830381865af4158015610c7c573d6000803e3d6000fd5b505050506040513d6000823e601f3d908101601f19168201604052610c1f9190810190613c61565b60405163f417daf560e01b815260609073__$ea6a162dd0cd18b69b81164309824ac93c$__9063f417daf590610cde908590600401613b7f565b600060405180830381865af4158015610cfb573d6000803e3d6000fd5b505050506040513d6000823e601f3d908101601f19168201604052610c1f9190810190613d47565b600081600180610d3283612d3d565b6003811115610d4357610d436137bf565b14610d4d82612dbf565b90610d6b5760405162461bcd60e51b815260040161034391906134d1565b50610d74612ea2565b60009485526003016020525050604090912060040154919050565b600081600280610d9e83612d3d565b6003811115610daf57610daf6137bf565b14610db982612dbf565b90610dd75760405162461bcd60e51b815260040161034391906134d1565b50610de184612ec6565b60010154949350505050565b604051636c4346db60e11b815260009073__$ea6a162dd0cd18b69b81164309824ac93c$__9063d8868db690610e27908590600401613b7f565b602060405180830381865af4158015610e44573d6000803e3d6000fd5b505050506040513d601f19601f82011682018060405250810190610c1f9190613d7b565b610e70613026565b60405163098141f760e11b815273__$ea6a162dd0cd18b69b81164309824ac93c$__9063130283ee90610ea7908590600401613d96565b600060405180830381865af4158015610ec4573d6000803e3d6000fd5b505050506040513d6000823e601f3d908101601f19168201604052610c1f9190810190613dbf565b610ef4612ea2565b600101546001600160a01b03163314610f1f5760405162461bcd60e51b815260040161034390613f0c565b60005b8151811015610f9d576000828281518110610f3f57610f3f613f43565b602002602001015190506000610f6060008051602061473b83398151915290565b6001600160a01b039290921660009081526020929092526040909120805460ff191691151591909117905580610f9581613f6f565b915050610f22565b507f646436560d9757cb3c0f01da0f62642c6040b00c9a80685f94ef1a7725cad5f181604051610fcd9190613f88565b60405180910390a150565b610fe0612ea2565b600101546001600160a01b0316331461100b5760405162461bcd60e51b815260040161034390613f0c565b33ff5b60405163c71db52160e01b815260009073__$ea6a162dd0cd18b69b81164309824ac93c$__9063c71db52190611048908590600401613b7f565b602060405180830381865af4158015611065573d6000803e3d6000fd5b505050506040513d601f19601f82011682018060405250810190610c1f9190613fc9565b60008160018061109883612d3d565b60038111156110a9576110a96137bf565b146110b382612dbf565b906110d15760405162461bcd60e51b815260040161034391906134d1565b506110da612ea2565b6000858152600391820160205260409020015492505050919050565b6060600061110383612d3d565b6003811115611114576111146137bf565b036111675760405162461bcd60e51b815260206004820152602f602482015260008051602061471b83398151915260448201526e081b9bdd081e595d081c1bdcdd1959608a1b6064820152608401610343565b600061117283612ee6565b80549091506001600160a01b0316156112675780546040805163784a000160e11b815290516001600160a01b039092169163f0940002916004808201926000929091908290030181865afa1580156111ce573d6000803e3d6000fd5b505050506040513d6000823e601f3d908101601f191682016040526111f69190810190613d47565b9150806002015461120683612f03565b146112675760405162461bcd60e51b815260206004820152603f602482015260008051602061471b83398151915260448201527f2062797465636f6465206368616e67656420616674657220706f7374696e67006064820152608401610343565b50919050565b6000611277612ea2565b600101546001600160a01b03169050806112bc57503380611296612ea2565b60010180546001600160a01b0319166001600160a01b0392909216919091179055611316565b336001600160a01b038216146113165760405162461bcd60e51b815260206004820152602b602482015260008051602061471b83398151915260448201526a1037b7363c9037bbb732b960a91b6064820152608401610343565b6000611320612ea2565b546001600160a01b0316146113c3577f00000000000000000000000000000000000000000000000000000000000000006001600160a01b0316611361612ea2565b546001600160a01b0316036113c35760405162461bcd60e51b8152602060048201526034602482015260008051602061471b83398151915260448201527308185b1c9958591e481a5b9a5d1a585b1a5e995960621b6064820152608401610343565b7f00000000000000000000000000000000000000000000000000000000000000006113ec612ea2565b80546001600160a01b0319166001600160a01b03929092169190911790557f00000000000000000000000000000000000000000000000000000000000000007f00000000000000000000000000000000000000000000000000000000000000006001600160a01b0316337f72d4b00d8e35b3717e384aef5f900256a106d6a423d88935a11579981333ba207f000000000000000000000000000000000000000000000000000000000000000060405190815260200160405180910390a46114c0828060200190518101906106239190613fe4565b5050565b6114cc612ea2565b600101546001600160a01b031633146114f75760405162461bcd60e51b815260040161034390613f0c565b60005b815181101561157557600082828151811061151757611517613f43565b60200260200101519050600161153860008051602061473b83398151915290565b6001600160a01b039290921660009081526020929092526040909120805460ff19169115159190911790558061156d81613f6f565b9150506114fa565b507f4d570ee36dec878006609360d34ac8d6a0b68d521871ae15a407b6340877ca0181604051610fcd9190613f88565b60405163147e5c8f60e01b815260609073__$ea6a162dd0cd18b69b81164309824ac93c$__9063147e5c8f906115df908590600401613b7f565b600060405180830381865af41580156115fc573d6000803e3d6000fd5b505050506040513d6000823e601f3d908101601f19168201604052610c1f919081019061407d565b33600090815260008051602061473b833981519152602052604090205460ff166116605760405162461bcd60e51b815260040161034390614116565b8360018061166d83612d3d565b600381111561167e5761167e6137bf565b1461168882612dbf565b906116a65760405162461bcd60e51b815260040161034391906134d1565b5060008590036116c85760405162461bcd60e51b815260040161034390614160565b60008390036116e95760405162461bcd60e51b8152600401610343906141c8565b6117343361172f88428989898080601f016020809104026020016040519081016040528093929190818152602001838380828437600092019190915250612f5592505050565b612feb565b604080518781523360208201527ee9413c6321ec446a267b7ebf5bb108663f2ef58b35c4f6e18905ac8f205cb2910160405180910390a1505050505050565b8060018061178083612d3d565b6003811115611791576117916137bf565b1461179b82612dbf565b906117b95760405162461bcd60e51b815260040161034391906134d1565b5060006117c584612ee6565b905060003482600401546117d99190614225565b6003830154909150600190811115611835577f00000000000000000000000000000000000000000000000000000000000000008083101561182c5760405162461bcd60e51b815260040161034390614238565b50600383018190555b50600490910155505050565b60008061184c612ea2565b600101546001600160a01b031690507f000000000000000000000000000000000000000000000000000000000000000080156118995750826001600160a01b0316816001600160a01b0316145b9392505050565b6000610c1f82612d3d565b6040805160808101825260008082526020820181905291810191909152606080820152816002806118db83612d3d565b60038111156118ec576118ec6137bf565b146118f682612dbf565b906119145760405162461bcd60e51b815260040161034391906134d1565b5061191e84612ec6565b6040805160808101825282546001600160a01b031681526001830154602082015260028301549181019190915260038201805491929160608401919061196390614275565b80601f016020809104026020016040519081016040528092919081815260200182805461198f90614275565b80156119dc5780601f106119b1576101008083540402835291602001916119dc565b820191906000526020600020905b8154815290600101906020018083116119bf57829003601f168201915b50505050508152505092505050919050565b6040516350ea2eab60e11b815260009073__$ea6a162dd0cd18b69b81164309824ac93c$__9063a1d45d5690611a28908590600401613b7f565b602060405180830381865af4158015611a45573d6000803e3d6000fd5b505050506040513d601f19601f82011682018060405250810190610c1f91906142a9565b604080516080810182526000808252602082018190529181019190915260608082015281600280611a9983612d3d565b6003811115611aaa57611aaa6137bf565b14611ab482612dbf565b90611ad25760405162461bcd60e51b815260040161034391906134d1565b506000611add612ea2565b60008681526003919091016020526040902060098101549091506001600160a01b03163314611b545760405162461bcd60e51b815260206004820152602f602482015260008051602061471b83398151915260448201526e1037b7363c903932b8bab2b9ba32b960891b6064820152608401610343565b604080516080810182526005830180546001600160a01b0316825260068401546020830152600784015492820192909252600883018054919291606084019190611b9d90614275565b80601f0160208091040260200160405190810160405280929190818152602001828054611bc990614275565b8015611c165780601f10611beb57610100808354040283529160200191611c16565b820191906000526020600020905b815481529060010190602001808311611bf957829003601f168201915b5050505050815250509350611c29612ea2565b600086815260039182016020526040812080546001600160a01b03199081168255600182018054821690556002820183905592810182905560048101829055600581018054909316835560068101829055600781018290559181611c906008850182613079565b50505060090180546001600160a01b0319169055604080518681523360208201527fdec847db058c9c012e0f3dbe2b99e05cfa4c693f61a7d8bc64652a68913cbfff910160405180910390a1505050919050565b33600090815260008051602061473b833981519152602052604090205460ff16611d205760405162461bcd60e51b815260040161034390614116565b8151600090815b81811015611fbf576000858281518110611d4357611d43613f43565b6020026020010151905060016003811115611d6057611d606137bf565b8151611d6b90612d3d565b6003811115611d7c57611d7c6137bf565b14611de8578415611de35780516040805191825260208201819052602c9082015260008051602061471b83398151915260608201526b08189859081c5d595c9e525960a21b60808201526000805160206146af8339815191529060a0015b60405180910390a15b611fac565b6040810151600003611e52578415611de35780516040805191825260208201819052602d9082015260008051602061471b83398151915260608201526c040c4c2c840c8e4a8f090c2e6d609b1b60808201526000805160206146af8339815191529060a001611dda565b806060015151600003611ebe578415611de35780516040805191825260208201819052602e9082015260008051602061471b83398151915260608201526d206261642063626f72427974657360901b60808201526000805160206146af8339815191529060a001611dda565b60008160200151118015611ed55750428160200151115b15611f39578415611de35780516040805191825260208201819052602e9082015260008051602061471b83398151915260608201526d0206261642074696d657374616d760941b60808201526000805160206146af8339815191529060a001611dda565b80516020820151611f65919015611f54578260200151611f56565b425b83604001518460600151612f55565b611f6f9085614225565b8151604080519182523360208301529195507ee9413c6321ec446a267b7ebf5bb108663f2ef58b35c4f6e18905ac8f205cb2910160405180910390a15b5080611fb781613f6f565b915050611d27565b508115611fd057611fd03383612feb565b50505050565b6000611fe0612ea2565b600101546001600160a01b0316919050565b6040805160a0810182526000808252602082018190529181018290526060810182905260808101919091528160018061202a83612d3d565b600381111561203b5761203b6137bf565b1461204582612dbf565b906120635760405162461bcd60e51b815260040161034391906134d1565b50600061206e612ea2565b600086815260039182016020908152604091829020825160a08101845281546001600160a01b039081168252600183015481169382019390935260028201549381019390935292830154606083015260048301546080830152600983015491965091925016156120ec5760098101546001600160a01b031660208501525b505050919050565b60008160028061210383612d3d565b6003811115612114576121146137bf565b1461211e82612dbf565b9061213c5760405162461bcd60e51b815260040161034391906134d1565b5061214684612ec6565b546001600160a01b0316949350505050565b604051636646c11960e01b815260009073__$ea6a162dd0cd18b69b81164309824ac93c$__90636646c11990611a28908590600401613b7f565b604051630879730d60e01b815260609073__$ea6a162dd0cd18b69b81164309824ac93c$__90630879730d906115df908590600401613b7f565b60003460017f0000000000000000000000000000000000000000000000000000000000000000808310156122125760405162461bcd60e51b815260040161034390614238565b6001600160a01b03851661226b5760405162461bcd60e51b815260206004820152602c602482015260008051602061471b83398151915260448201526b081b9d5b1b081cd8dc9a5c1d60a21b6064820152608401610343565b6000856001600160a01b031663f09400026040518163ffffffff1660e01b8152600401600060405180830381865afa1580156122ab573d6000803e3d6000fd5b505050506040513d6000823e601f3d908101601f191682016040526122d39190810190613d47565b9050600081511161232a5760405162461bcd60e51b815260206004820152602d602482015260008051602061471b83398151915260448201526c08195b5c1d1e481cd8dc9a5c1d609a1b6064820152608401610343565b612332612ea2565b6002016000815461234290613f6f565b9182905550945033612352612ea2565b60008781526003919091016020526040812060090180546001600160a01b0319166001600160a01b03939093169290921790915561238f86612ee6565b80546001600160a01b0319166001600160a01b03891617815590506123b382612f03565b60028201556003810184905560048101859055604080518781523360208201527fcabaf9c102f83746b27ae932f638eebfaf5ea7d014edd20ab14dec3768a8f55c910160405180910390a15050505050919050565b604051638233f9b360e01b815260009073__$ea6a162dd0cd18b69b81164309824ac93c$__90638233f9b390612442908590600401613b7f565b602060405180830381865af415801561245f573d6000803e3d6000fd5b505050506040513d601f19601f82011682018060405250810190610c1f91906142c6565b6124ed6040805161010081019091526000606082018181526080830182905260a0830182905260c0830182905260e0830191909152819081526040805160808101825260008082526020828101829052928201526060808201529101908152600060209091015290565b6124f5612ea2565b60008381526003918201602090815260409182902082516101008101845281546001600160a01b03908116606080840191825260018501548316608080860191909152600286015460a08601529785015460c0850152600485015460e0850152908352855196870186526005840180549092168752600684015487860152600784015495870195909552600883018054929693959487019491929184019161259c90614275565b80601f01602080910402602001604051908101604052809291908181526020018280546125c890614275565b80156126155780601f106125ea57610100808354040283529160200191612615565b820191906000526020600020905b8154815290600101906020018083116125f857829003601f168201915b505050919092525050508152600991909101546001600160a01b031660209091015292915050565b60405163a1b9089160e01b815260609073__$ea6a162dd0cd18b69b81164309824ac93c$__9063a1b9089190610cde908590600401613b7f565b6000612681612ea2565b60020154612690906001614225565b905090565b6040516316935cf160e11b815260609073__$ea6a162dd0cd18b69b81164309824ac93c$__90632d26b9e2906126cf908590600401613b7f565b600060405180830381865af41580156126ec573d6000803e3d6000fd5b505050506040513d6000823e601f3d908101601f19168201604052610c1f91908101906142e3565b33600090815260008051602061473b833981519152602052604090205460ff166127505760405162461bcd60e51b815260040161034390614116565b8460018061275d83612d3d565b600381111561276e5761276e6137bf565b1461277882612dbf565b906127965760405162461bcd60e51b815260040161034391906134d1565b50428611156128015760405162461bcd60e51b815260206004820152603160248201527f5769746e657452657175657374426f617264547275737461626c65446566617560448201527006c743a206261642074696d657374616d7607c1b6064820152608401610343565b60008590036128225760405162461bcd60e51b815260040161034390614160565b60008390036128435760405162461bcd60e51b8152600401610343906141c8565b6128893361172f89898989898080601f016020809104026020016040519081016040528093929190818152602001838380828437600092019190915250612f5592505050565b604080518881523360208201527ee9413c6321ec446a267b7ebf5bb108663f2ef58b35c4f6e18905ac8f205cb2910160405180910390a150505050505050565b60405163a2e8765560e01b815260009073__$ea6a162dd0cd18b69b81164309824ac93c$__9063a2e8765590612903908590600401613b7f565b602060405180830381865af4158015612920573d6000803e3d6000fd5b505050506040513d601f19601f82011682018060405250810190610c1f919061439e565b604051632afe0bd360e21b815260009073__$ea6a162dd0cd18b69b81164309824ac93c$__9063abf82f4c90611a28908590600401613b7f565b612986613026565b8160028061299383612d3d565b60038111156129a4576129a46137bf565b146129ae82612dbf565b906129cc5760405162461bcd60e51b815260040161034391906134d1565b5060006129d885612ec6565b60405163e99e47f360e01b815290915073__$ea6a162dd0cd18b69b81164309824ac93c$__9063e99e47f390612a159060038501906004016143b7565b600060405180830381865af4158015612a32573d6000803e3d6000fd5b505050506040513d6000823e601f3d908101601f19168201604052612a5a9190810190613dbf565b95945050505050565b6040516323317ad560e21b815260009060609073__$ea6a162dd0cd18b69b81164309824ac93c$__90638cc5eb5490612aa0908690600401613b7f565b600060405180830381865af4925050508015612ade57506040513d6000823e601f3d908101601f19168201604052612adb9190810190614452565b60015b612b6b57612aea61449f565b806308c379a003612b145750612afe6144bb565b80612b095750612b16565b600094909350915050565b505b3d808015612b40576040519150601f19603f3d011682016040523d82523d6000602084013e612b45565b606091505b5060ff6040518060600160405280602f815260200161475b602f91399250925050915091565b9094909350915050565b60405163d45d097d60e01b815260009073__$ea6a162dd0cd18b69b81164309824ac93c$__9063d45d097d90612baf908590600401613b7f565b602060405180830381865af4158015612bcc573d6000803e3d6000fd5b505050506040513d601f19601f82011682018060405250810190610c1f9190614544565b600081600280612bff83612d3d565b6003811115612c1057612c106137bf565b14612c1a82612dbf565b90612c385760405162461bcd60e51b815260040161034391906134d1565b50612c4284612ec6565b60020154949350505050565b612c56613026565b60405163e99e47f360e01b815273__$ea6a162dd0cd18b69b81164309824ac93c$__9063e99e47f390610ea79085906004016134d1565b612c95612ea2565b600101546001600160a01b03163314612cc05760405162461bcd60e51b815260040161034390613f0c565b6000612cca612ea2565b600101546001600160a01b039081169150821681146114c05781612cec612ea2565b60010180546001600160a01b0319166001600160a01b03928316179055604051838216918316907f8be0079c531659141344cd1fd0a4f28419497f9722a3daafe3b4186f6b6457e090600090a35050565b6000811580612d565750612d4f612ea2565b6002015482115b15612d6357506000919050565b6000612d6d612ea2565b600084815260039190910160205260409020600781015490915015612d955750600292915050565b60098101546001600160a01b031615612db15750600192915050565b50600392915050565b919050565b60606001826003811115612dd557612dd56137bf565b03612df9576040518060600160405280602581526020016146cf6025913992915050565b6002826003811115612e0d57612e0d6137bf565b03612e31576040518060600160405280602781526020016146f46027913992915050565b6003826003811115612e4557612e456137bf565b03612e69576040518060600160405280602681526020016146896026913992915050565b505060408051808201909152601981527f5769746e6574426f617264446174613a20626164206d6f6f6400000000000000602082015290565b7ff595240b351bc8f951c2f53b26f4e78c32cb62122cf76c19b7fdda7d4968e18390565b6000612ed0612ea2565b6000928352600301602052506040902060050190565b6000612ef0612ea2565b6000928352600301602052506040902090565b6000600282604051612f15919061455f565b602060405180830381855afa158015612f32573d6000803e3d6000fd5b5050506040513d601f19601f82011682018060405250810190610c1f919061439e565b600080612f60612ea2565b60008781526003919091016020526040902060068101869055600781018590556005810180546001600160a01b03191633178155909150819060088201612fa786826145c9565b505060049081015482546001600160a01b03199081168455600184018054909116905560006002840181905560038401819055929091019190915595945050505050565b6040516001600160a01b0383169082156108fc029083906000818181858888f19350505050158015613021573d6000803e3d6000fd5b505050565b6040805180820182526000808252825161010081018452606060c0820181815260e083018490528252602082810184905294820183905281018290526080810182905260a0810191909152909182015290565b50805461308590614275565b6000825580601f10613095575050565b601f0160209004906000526020600020908101906130b391906130b6565b50565b5b808211156130cb57600081556001016130b7565b5090565b6001600160a01b03811681146130b357600080fd5b6000602082840312156130f657600080fd5b8135611899816130cf565b634e487b7160e01b600052604160045260246000fd5b60c081018181106001600160401b038211171561313657613136613101565b60405250565b604081018181106001600160401b038211171561313657613136613101565b608081018181106001600160401b038211171561313657613136613101565b601f8201601f191681016001600160401b038111828210171561319f5761319f613101565b6040525050565b80151581146130b357600080fd5b8035612dba816131a6565b60006001600160401b038211156131d8576131d8613101565b50601f01601f191660200190565b600082601f8301126131f757600080fd5b8135613202816131bf565b60405161320f828261317a565b82815285602084870101111561322457600080fd5b82602086016020830137600092810160200192909252509392505050565b63ffffffff811681146130b357600080fd5b60ff811681146130b357600080fd5b8035612dba81613254565b6001600160401b03811681146130b357600080fd5b8035612dba8161326e565b600060c082840312156132a057600080fd5b6040516132ac81613117565b80915082356001600160401b03808211156132c657600080fd5b90840190604082870312156132da57600080fd5b6040516132e68161313c565b8235828111156132f557600080fd5b613301888286016131e6565b8252506020830135925061331483613242565b82602082015280845250505061332c60208401613263565b602082015261333d60408401613263565b604082015261334e60608401613263565b606082015261335f60808401613283565b608082015261337060a08401613283565b60a08201525092915050565b60006020828403121561338e57600080fd5b81356001600160401b03808211156133a557600080fd5b90830190604082860312156133b957600080fd5b6040516133c58161313c565b82356133d0816131a6565b81526020830135828111156133e457600080fd5b6133f08782860161328e565b60208301525095945050505050565b6020808252825182820181905260009190848201906040850190845b8181101561343a578351600f0b8352928401929184019160010161341b565b50909695505050505050565b6020808252825182820181905260009190848201906040850190845b8181101561343a57835160030b83529284019291840191600101613462565b60005b8381101561349c578181015183820152602001613484565b50506000910152565b600081518084526134bd816020860160208601613481565b601f01601f19169290920160200192915050565b60208152600061189960208301846134a5565b6000602082840312156134f657600080fd5b5035919050565b60006020828403121561350f57600080fd5b81356001600160401b0381111561352557600080fd5b6135318482850161328e565b949350505050565b6020815281511515602082015260006020830151604080840152805160c06060850152805160406101208601526135746101608601826134a5565b60209283015163ffffffff166101408701529183015160ff81166080870152919050604083015160ff811660a08701529150606083015160ff811660c0870152915060808301516001600160401b03811660e0870152915060a08301519250612a5a6101008601846001600160401b03169052565b60006001600160401b0382111561360257613602613101565b5060051b60200190565b6000602080838503121561361f57600080fd5b82356001600160401b0381111561363557600080fd5b8301601f8101851361364657600080fd5b8035613651816135e9565b60405161365e828261317a565b82815260059290921b830184019184810191508783111561367e57600080fd5b928401925b828410156136a5578335613696816130cf565b82529284019290840190613683565b979650505050505050565b6000602082840312156136c257600080fd5b81356001600160401b038111156136d857600080fd5b613531848285016131e6565b6020808252825182820181905260009190848201906040850190845b8181101561343a5783516001600160401b031683529284019291840191600101613700565b60008083601f84011261373757600080fd5b5081356001600160401b0381111561374e57600080fd5b60208301915083602082850101111561376657600080fd5b9250929050565b6000806000806060858703121561378357600080fd5b843593506020850135925060408501356001600160401b038111156137a757600080fd5b6137b387828801613725565b95989497509550505050565b634e487b7160e01b600052602160045260246000fd5b60208101600483106137e9576137e96137bf565b91905290565b60018060a01b0381511682526020810151602083015260408101516040830152600060608201516080606085015261353160808501826134a5565b60208152600061189960208301846137ef565b600080604080848603121561385157600080fd5b83356001600160401b038082111561386857600080fd5b818601915086601f83011261387c57600080fd5b81356020613889826135e9565b8551613895828261317a565b83815260059390931b850182019282810191508a8411156138b557600080fd5b8286015b8481101561393d578035868111156138d057600080fd5b87016080818e03601f190112156138e657600080fd5b88516138f18161315b565b858201358152898201358682015260608201358a82015260808201358881111561391b5760008081fd5b6139298f88838601016131e6565b6060830152508452509183019183016138b9565b50975061394d90508882016131b4565b955050505050509250929050565b80516001600160a01b039081168352602080830151909116908301526040808201519083015260608082015190830152608090810151910152565b60a08101610c1f828461395b565b602081526139b660208201835161395b565b6000602083015160e060c08401526139d26101008401826137ef565b604094909401516001600160a01b031660e093909301929092525090919050565b6000602080830181845280855180835260408601915060408160051b870101925083870160005b82811015613a4857603f19888603018452613a368583516134a5565b94509285019290850190600101613a1a565b5092979650505050505050565b600080600080600060808688031215613a6d57600080fd5b85359450602086013593506040860135925060608601356001600160401b03811115613a9857600080fd5b613aa488828901613725565b969995985093965092949392505050565b6101008110613ac657613ac66137bf565b9052565b613ad48184613ab5565b60406020820152600061353160408301846134a5565b60208101610c1f8284613ab5565b6000815160c084528051604060c0860152613b176101008601826134a5565b905063ffffffff60208301511660e086015260ff602085015116602086015260ff604085015116604086015260ff60608501511660608601526001600160401b03608085015116608086015260a0840151915061353160a08601836001600160401b03169052565b60208152815115156020820152600060208301516040808401526135316060840182613af8565b8051600f81900b8114612dba57600080fd5b60006020808385031215613bcb57600080fd5b82516001600160401b03811115613be157600080fd5b8301601f81018513613bf257600080fd5b8051613bfd816135e9565b604051613c0a828261317a565b82815260059290921b8301840191848101915087831115613c2a57600080fd5b928401925b828410156136a557613c4084613ba6565b82529284019290840190613c2f565b8051600381900b8114612dba57600080fd5b60006020808385031215613c7457600080fd5b82516001600160401b03811115613c8a57600080fd5b8301601f81018513613c9b57600080fd5b8051613ca6816135e9565b604051613cb3828261317a565b82815260059290921b8301840191848101915087831115613cd357600080fd5b928401925b828410156136a557613ce984613c4f565b82529284019290840190613cd8565b600082601f830112613d0957600080fd5b8151613d14816131bf565b604051613d21828261317a565b828152856020848701011115613d3657600080fd5b612a5a836020830160208801613481565b600060208284031215613d5957600080fd5b81516001600160401b03811115613d6f57600080fd5b61353184828501613cf8565b600060208284031215613d8d57600080fd5b61189982613c4f565b6020815260006118996020830184613af8565b8051612dba81613254565b8051612dba8161326e565b60006020808385031215613dd257600080fd5b82516001600160401b0380821115613de957600080fd5b81850191506040808388031215613dff57600080fd5b8051613e0a8161313c565b8351613e15816131a6565b81528385015183811115613e2857600080fd5b939093019260c08489031215613e3d57600080fd5b8151613e4881613117565b845184811115613e5757600080fd5b8501808a03841315613e6857600080fd5b8351613e738161313c565b815186811115613e8257600080fd5b613e8e8c828501613cf8565b825250878201519550613ea086613242565b808801869052825250613eb4858701613da9565b86820152613ec3838601613da9565b83820152613ed360608601613da9565b6060820152613ee460808601613db4565b6080820152613ef560a08601613db4565b60a082015294810194909452509195945050505050565b6020808252601b908201527f5769746e6574426f617264446174613a206f6e6c79206f776e65720000000000604082015260600190565b634e487b7160e01b600052603260045260246000fd5b634e487b7160e01b600052601160045260246000fd5b600060018201613f8157613f81613f59565b5060010190565b6020808252825182820181905260009190848201906040850190845b8181101561343a5783516001600160a01b031683529284019291840191600101613fa4565b600060208284031215613fdb57600080fd5b61189982613ba6565b60006020808385031215613ff757600080fd5b82516001600160401b0381111561400d57600080fd5b8301601f8101851361401e57600080fd5b8051614029816135e9565b604051614036828261317a565b82815260059290921b830184019184810191508783111561405657600080fd5b928401925b828410156136a557835161406e816130cf565b8252928401929084019061405b565b6000602080838503121561409057600080fd5b82516001600160401b038111156140a657600080fd5b8301601f810185136140b757600080fd5b80516140c2816135e9565b6040516140cf828261317a565b82815260059290921b83018401918481019150878311156140ef57600080fd5b928401925b828410156136a55783516141078161326e565b825292840192908401906140f4565b6020808252602a908201527f5769746e6574426f6172644461746141434c733a20756e617574686f72697a6560408201526932103932b837b93a32b960b11b606082015260800190565b60208082526042908201527f5769746e657452657175657374426f617264547275737461626c65446566617560408201527f6c743a205769746e65742064725478486173682063616e6e6f74206265207a65606082015261726f60f01b608082015260a00190565b6020808252603a908201527f5769746e657452657175657374426f617264547275737461626c65446566617560408201527f6c743a20726573756c742063616e6e6f7420626520656d707479000000000000606082015260800190565b80820180821115610c1f57610c1f613f59565b6020808252602f9082015260008051602061471b83398151915260408201526e2072657761726420746f6f206c6f7760881b606082015260800190565b600181811c9082168061428957607f821691505b60208210810361126757634e487b7160e01b600052602260045260246000fd5b6000602082840312156142bb57600080fd5b8151611899816131a6565b6000602082840312156142d857600080fd5b81516118998161326e565b600060208083850312156142f657600080fd5b82516001600160401b038082111561430d57600080fd5b818501915085601f83011261432157600080fd5b815161432c816135e9565b604051614339828261317a565b82815260059290921b840185019185810191508883111561435957600080fd5b8585015b83811015614391578051858111156143755760008081fd5b6143838b89838a0101613cf8565b84525091860191860161435d565b5098975050505050505050565b6000602082840312156143b057600080fd5b5051919050565b60006020808352600084546143cb81614275565b808487015260406001808416600081146143ec576001811461440657614434565b60ff1985168984015283151560051b890183019550614434565b896000528660002060005b8581101561442c5781548b8201860152908301908801614411565b8a0184019650505b509398975050505050505050565b80516101008110612dba57600080fd5b6000806040838503121561446557600080fd5b61446e83614442565b915060208301516001600160401b0381111561448957600080fd5b61449585828601613cf8565b9150509250929050565b600060033d11156144b85760046000803e5060005160e01c5b90565b600060443d10156144c95790565b6040516003193d81016004833e81513d6001600160401b0381602484011181841117156144f857505050505090565b82850191508151818111156145105750505050505090565b843d870101602082850101111561452a5750505050505090565b6145396020828601018761317a565b509095945050505050565b60006020828403121561455657600080fd5b61189982614442565b60008251614571818460208701613481565b9190910192915050565b601f82111561302157600081815260208120601f850160051c810160208610156145a25750805b601f850160051c820191505b818110156145c1578281556001016145ae565b505050505050565b81516001600160401b038111156145e2576145e2613101565b6145f6816145f08454614275565b8461457b565b602080601f83116001811461462b57600084156146135750858301515b600019600386901b1c1916600185901b1785556145c1565b600085815260208120601f198616915b8281101561465a5788860151825594840194600190910190840161463b565b50858210156146785787850151600019600388901b60f8161c191681555b5050505050600190811b0190555056fe5769746e6574426f617264446174613a206e6f7420696e2044656c65746564207374617475734df64445edc775fba59db44b8001852fb1b777eea88fd54f04572dd114e3ff7f5769746e6574426f617264446174613a206e6f7420696e20506f73746564207374617475735769746e6574426f617264446174613a206e6f7420696e205265706f72746564207374617475735769746e657452657175657374426f617264547275737461626c65426173653aa6db7263983f337bae2c9fb315730227961d1c1153ae1e10a56b5791465dd6fd5769746e657452657175657374426f617264547275737461626c65426173653a206661696c696e6720617373657274a264697066735822122013661f0225b4e552396ea973ff73a518cc01ad75edfa88299ce3703e71ccfd4364736f6c63430008110033",
  "linkReferences": {
    "contracts/witnet/libs/WitnetParserLib.sol": {
      "WitnetParserLib": [
        {
          "length": 20,
          "start": 3387
        },
        {
          "length": 20,
          "start": 3520
        },
        {
          "length": 20,
          "start": 3647
        },
        {
          "length": 20,
          "start": 3976
        },
        {
          "length": 20,
          "start": 4104
        },
        {
          "length": 20,
          "start": 4521
        },
        {
          "length": 20,
          "start": 5952
        },
        {
          "length": 20,
          "start": 7049
        },
        {
          "length": 20,
          "start": 8947
        },
        {
          "length": 20,
          "start": 9005
        },
        {
          "length": 20,
          "start": 9635
        },
        {
          "length": 20,
          "start": 10200
        },
        {
          "length": 20,
          "start": 10288
        },
        {
          "length": 20,
          "start": 10852
        },
        {
          "length": 20,
          "start": 10975
        },
        {
          "length": 20,
          "start": 11123
        },
        {
          "length": 20,
          "start": 11265
        },
        {
          "length": 20,
          "start": 11536
        },
        {
          "length": 20,
          "start": 11758
        }
      ]
    }
  },
  "deployedLinkReferences": {
    "contracts/witnet/libs/WitnetParserLib.sol": {
      "WitnetParserLib": [
        {
          "length": 20,
          "start": 2994
        },
        {
          "length": 20,
          "start": 3127
        },
        {
          "length": 20,
          "start": 3254
        },
        {
          "length": 20,
          "start": 3583
        },
        {
          "length": 20,
          "start": 3711
        },
        {
          "length": 20,
          "start": 4128
        },
        {
          "length": 20,
          "start": 5559
        },
        {
          "length": 20,
          "start": 6656
        },
        {
          "length": 20,
          "start": 8554
        },
        {
          "length": 20,
          "start": 8612
        },
        {
          "length": 20,
          "start": 9242
        },
        {
          "length": 20,
          "start": 9807
        },
        {
          "length": 20,
          "start": 9895
        },
        {
          "length": 20,
          "start": 10459
        },
        {
          "length": 20,
          "start": 10582
        },
        {
          "length": 20,
          "start": 10730
        },
        {
          "length": 20,
          "start": 10872
        },
        {
          "length": 20,
          "start": 11143
        },
        {
          "length": 20,
          "start": 11365
        }
      ]
    }
  }
}