{
  "_format": "hh-sol-artifact-1",
  "contractName": "WitnetPriceRouter",
  "sourceName": "contracts/witnet/apps/WitnetPriceRouter.sol",
  "abi": [
    {
      "anonymous": false,
      "inputs": [
        {
          "indexed": true,
          "internalType": "bytes32",
          "name": "erc2362ID",
          "type": "bytes32"
        },
        {
          "indexed": false,
          "internalType": "contract IERC165",
          "name": "pricefeed",
          "type": "address"
        }
      ],
      "name": "CurrencyPairSet",
      "type": "event"
    },
    {
      "anonymous": false,
      "inputs": [
        {
          "indexed": true,
          "internalType": "address",
          "name": "previousOwner",
          "type": "address"
        },
        {
          "indexed": true,
          "internalType": "address",
          "name": "newOwner",
          "type": "address"
        }
      ],
      "name": "OwnershipTransferred",
      "type": "event"
    },
    {
      "inputs": [
        {
          "internalType": "string",
          "name": "_caption",
          "type": "string"
        }
      ],
      "name": "currencyPairId",
      "outputs": [
        {
          "internalType": "bytes32",
          "name": "",
          "type": "bytes32"
        }
      ],
      "stateMutability": "pure",
      "type": "function"
    },
    {
      "inputs": [
        {
          "internalType": "bytes32",
          "name": "_erc2362id",
          "type": "bytes32"
        }
      ],
      "name": "getPriceFeed",
      "outputs": [
        {
          "internalType": "contract IERC165",
          "name": "",
          "type": "address"
        }
      ],
      "stateMutability": "view",
      "type": "function"
    },
    {
      "inputs": [
        {
          "internalType": "contract IERC165",
          "name": "_pricefeed",
          "type": "address"
        }
      ],
      "name": "getPriceFeedCaption",
      "outputs": [
        {
          "internalType": "string",
          "name": "",
          "type": "string"
        }
      ],
      "stateMutability": "view",
      "type": "function"
    },
    {
      "inputs": [
        {
          "internalType": "bytes32",
          "name": "_erc2362id",
          "type": "bytes32"
        }
      ],
      "name": "lookupERC2362ID",
      "outputs": [
        {
          "internalType": "string",
          "name": "_caption",
          "type": "string"
        }
      ],
      "stateMutability": "view",
      "type": "function"
    },
    {
      "inputs": [],
      "name": "owner",
      "outputs": [
        {
          "internalType": "address",
          "name": "",
          "type": "address"
        }
      ],
      "stateMutability": "view",
      "type": "function"
    },
    {
      "inputs": [],
      "name": "renounceOwnership",
      "outputs": [],
      "stateMutability": "nonpayable",
      "type": "function"
    },
    {
      "inputs": [
        {
          "internalType": "contract IERC165",
          "name": "_pricefeed",
          "type": "address"
        },
        {
          "internalType": "uint256",
          "name": "_decimals",
          "type": "uint256"
        },
        {
          "internalType": "string",
          "name": "_base",
          "type": "string"
        },
        {
          "internalType": "string",
          "name": "_quote",
          "type": "string"
        }
      ],
      "name": "setPriceFeed",
      "outputs": [],
      "stateMutability": "nonpayable",
      "type": "function"
    },
    {
      "inputs": [],
      "name": "supportedCurrencyPairs",
      "outputs": [
        {
          "internalType": "bytes32[]",
          "name": "",
          "type": "bytes32[]"
        }
      ],
      "stateMutability": "view",
      "type": "function"
    },
    {
      "inputs": [
        {
          "internalType": "bytes32",
          "name": "_erc2362id",
          "type": "bytes32"
        }
      ],
      "name": "supportsCurrencyPair",
      "outputs": [
        {
          "internalType": "bool",
          "name": "",
          "type": "bool"
        }
      ],
      "stateMutability": "view",
      "type": "function"
    },
    {
      "inputs": [
        {
          "internalType": "contract IERC165",
          "name": "_pricefeed",
          "type": "address"
        }
      ],
      "name": "supportsPriceFeed",
      "outputs": [
        {
          "internalType": "bool",
          "name": "",
          "type": "bool"
        }
      ],
      "stateMutability": "view",
      "type": "function"
    },
    {
      "inputs": [
        {
          "internalType": "address",
          "name": "newOwner",
          "type": "address"
        }
      ],
      "name": "transferOwnership",
      "outputs": [],
      "stateMutability": "nonpayable",
      "type": "function"
    },
    {
      "inputs": [
        {
          "internalType": "bytes32",
          "name": "_erc2362id",
          "type": "bytes32"
        }
      ],
      "name": "valueFor",
      "outputs": [
        {
          "internalType": "int256",
          "name": "_lastPrice",
          "type": "int256"
        },
        {
          "internalType": "uint256",
          "name": "_lastTimestamp",
          "type": "uint256"
        },
        {
          "internalType": "uint256",
          "name": "_latestUpdateStatus",
          "type": "uint256"
        }
      ],
      "stateMutability": "view",
      "type": "function"
    }
  ],
  "bytecode": "0x608060405234801561001057600080fd5b5061001a3361001f565b61006f565b600080546001600160a01b038381166001600160a01b0319831681178455604051919092169283917f8be0079c531659141344cd1fd0a4f28419497f9722a3daafe3b4186f6b6457e09190a35050565b61101e8061007e6000396000f3fe608060405234801561001057600080fd5b50600436106100b45760003560e01c806399d32a041161007157806399d32a0414610157578063a027ad1514610177578063bbfa81181461019a578063ca64c540146101ad578063f2fde38b146101e2578063f78eea83146101f557600080fd5b80633fd29ebd146100b9578063715018a6146100d757806377021267146100e1578063835262f5146100f45780638c0adf621461011b5780638da5cb5b14610146575b600080fd5b6100c1610223565b6040516100ce9190610a9f565b60405180910390f35b6100df61027b565b005b6100df6100ef366004610b41565b61028f565b61010d610102366004610be3565b805160209091012090565b6040519081526020016100ce565b61012e610129366004610c94565b6105b8565b6040516001600160a01b0390911681526020016100ce565b6000546001600160a01b031661012e565b61016a610165366004610c94565b6105dd565b6040516100ce9190610cd1565b61018a610185366004610d04565b61066d565b60405190151581526020016100ce565b61016a6101a8366004610d04565b6106a5565b61018a6101bb366004610c94565b6001600160e01b0319166000908152600160205260409020546001600160a01b0316151590565b6100df6101f0366004610d04565b610724565b610208610203366004610c94565b61079d565b604080519384526020840192909252908201526060016100ce565b6060600380548060200260200160405190810160405280929190818152602001828054801561027157602002820191906000526020600020905b81548152602001906001019080831161025d575b5050505050905090565b61028361088a565b61028d60006108e4565b565b61029761088a565b6001600160a01b0386161561041d576040516301ffc9a760e01b8152632089297160e11b60048201526001600160a01b038716906301ffc9a790602401602060405180830381865afa1580156102f1573d6000803e3d6000fd5b505050506040513d601f19601f820116820180604052508101906103159190610d28565b61039c5760405162461bcd60e51b815260206004820152604760248201527f5769746e65745072696365526f757465723a206665656420636f6e747261637460448201527f206973206e6f7420636f6d706c69616e74207769746820495769746e657450726064820152661a58d95199595960ca1b608482015260a4015b60405180910390fd5b6001600160a01b0386166000908152600260205260409020541561041d5760405162461bcd60e51b815260206004820152603260248201527f5769746e65745072696365526f757465723a20616c7265616479207365727669604482015271373390309031bab93932b731bc903830b4b960711b6064820152608401610393565b60008484848461042c8a610934565b604051602001610440959493929190610d4a565b60408051601f1981840301815291815281516020808401919091206001600160e01b03198116600090815260019092529190208054600282018054949550929391926001600160a01b039091169161049790610da3565b90506000036104fe57600282016104af888a83610e26565b50600382016104bf868883610e26565b5060018083018a90556003805491820181556000527fc2575a0e9e593c00f959f8c92f12db2869c3395a3b0502d05e2516446f71f85b01839055610527565b6001600160a01b03811615610527576001600160a01b0381166000908152600260205260408120555b806001600160a01b03168a6001600160a01b03161461055c576001600160a01b038a1660009081526002602052604090208390555b81546001600160a01b0319166001600160a01b038b16908117835560405190815283907f2a1586394a17f79a4cc822c7b077653442e5a6fd7c78be98349291aa67a50c219060200160405180910390a250505050505050505050565b6001600160e01b0319166000908152600160205260409020546001600160a01b031690565b6001600160e01b031981166000908152600160205260408120600281018054606093919061060a90610da3565b90501180156106295750600081600301805461062590610da3565b9050115b156106675780600201816003016106438360010154610934565b60405160200161065593929190610f5a565b60405160208183030381529060405291505b50919050565b6001600160a01b039081166000818152600260209081526040808320546001600160e01b031916835260019091529020549091161490565b60606106b08261066d565b6106fc5760405162461bcd60e51b815260206004820152601a60248201527f5769746e65745072696365526f757465723a20756e6b6e6f776e0000000000006044820152606401610393565b6001600160a01b03821660009081526002602052604090205461071e906105dd565b92915050565b61072c61088a565b6001600160a01b0381166107915760405162461bcd60e51b815260206004820152602660248201527f4f776e61626c653a206e6577206f776e657220697320746865207a65726f206160448201526564647265737360d01b6064820152608401610393565b61079a816108e4565b50565b6000806000806107ac856105b8565b90506001600160a01b0381166108195760405162461bcd60e51b815260206004820152602c60248201527f5769746e65745072696365526f757465723a20756e737570706f72746564206360448201526b3ab93932b731bc903830b4b960a11b6064820152608401610393565b806001600160a01b031663431838346040518163ffffffff1660e01b8152600401608060405180830381865afa158015610857573d6000803e3d6000fd5b505050506040513d601f19601f8201168201806040525081019061087b9190610fb2565b92989197509195509350505050565b6000546001600160a01b0316331461028d5760405162461bcd60e51b815260206004820181905260248201527f4f776e61626c653a2063616c6c6572206973206e6f7420746865206f776e65726044820152606401610393565b600080546001600160a01b038381166001600160a01b0319831681178455604051919092169283917f8be0079c531659141344cd1fd0a4f28419497f9722a3daafe3b4186f6b6457e09190a35050565b60606000610941836109c7565b600101905060008167ffffffffffffffff81111561096157610961610bcd565b6040519080825280601f01601f19166020018201604052801561098b576020820181803683370190505b5090508181016020015b600019016f181899199a1a9b1b9c1cb0b131b232b360811b600a86061a8153600a850494508461099557509392505050565b60008072184f03e93ff9f4daa797ed6e38ed64bf6a1f0160401b8310610a065772184f03e93ff9f4daa797ed6e38ed64bf6a1f0160401b830492506040015b6d04ee2d6d415b85acef81000000008310610a32576d04ee2d6d415b85acef8100000000830492506020015b662386f26fc100008310610a5057662386f26fc10000830492506010015b6305f5e1008310610a68576305f5e100830492506008015b6127108310610a7c57612710830492506004015b60648310610a8e576064830492506002015b600a831061071e5760010192915050565b6020808252825182820181905260009190848201906040850190845b81811015610ad757835183529284019291840191600101610abb565b50909695505050505050565b6001600160a01b038116811461079a57600080fd5b60008083601f840112610b0a57600080fd5b50813567ffffffffffffffff811115610b2257600080fd5b602083019150836020828501011115610b3a57600080fd5b9250929050565b60008060008060008060808789031215610b5a57600080fd5b8635610b6581610ae3565b955060208701359450604087013567ffffffffffffffff80821115610b8957600080fd5b610b958a838b01610af8565b90965094506060890135915080821115610bae57600080fd5b50610bbb89828a01610af8565b979a9699509497509295939492505050565b634e487b7160e01b600052604160045260246000fd5b600060208284031215610bf557600080fd5b813567ffffffffffffffff80821115610c0d57600080fd5b818401915084601f830112610c2157600080fd5b813581811115610c3357610c33610bcd565b604051601f8201601f19908116603f01168101908382118183101715610c5b57610c5b610bcd565b81604052828152876020848701011115610c7457600080fd5b826020860160208301376000928101602001929092525095945050505050565b600060208284031215610ca657600080fd5b5035919050565b60005b83811015610cc8578181015183820152602001610cb0565b50506000910152565b6020815260008251806020840152610cf0816040850160208701610cad565b601f01601f19169190910160400192915050565b600060208284031215610d1657600080fd5b8135610d2181610ae3565b9392505050565b600060208284031215610d3a57600080fd5b81518015158114610d2157600080fd5b6550726963652d60d01b8152848660068301376000858201602f60f81b600682015284866007830137602d60f81b6007918601918201528351610d94816008840160208801610cad565b01600801979650505050505050565b600181811c90821680610db757607f821691505b60208210810361066757634e487b7160e01b600052602260045260246000fd5b601f821115610e2157600081815260208120601f850160051c81016020861015610dfe5750805b601f850160051c820191505b81811015610e1d57828155600101610e0a565b5050505b505050565b67ffffffffffffffff831115610e3e57610e3e610bcd565b610e5283610e4c8354610da3565b83610dd7565b6000601f841160018114610e865760008515610e6e5750838201355b600019600387901b1c1916600186901b178355610ee0565b600083815260209020601f19861690835b82811015610eb75786850135825560209485019460019092019101610e97565b5086821015610ed45760001960f88860031b161c19848701351681555b505060018560011b0183555b5050505050565b60008154610ef481610da3565b60018281168015610f0c5760018114610f2157610f50565b60ff1984168752821515830287019450610f50565b8560005260208060002060005b85811015610f475781548a820152908401908201610f2e565b50505082870194505b5050505092915050565b6550726963652d60d01b81526000610f756006830186610ee7565b602f60f81b8152610f896001820186610ee7565b9050602d60f81b81528351610fa5816001840160208801610cad565b0160010195945050505050565b60008060008060808587031215610fc857600080fd5b50508251602084015160408501516060909501519196909550909250905056fea2646970667358221220b6649b32bc0dea7cd466856a56ffe1b699a1834becab390b638c19cf61974b7764736f6c63430008110033",
  "linkReferences": {},
  "deployedLinkReferences": {}
}