{
  "_format": "hh-sol-artifact-1",
  "contractName": "WitnetRandomnessMock",
  "sourceName": "contracts/witnet/mocks/WitnetRandomnessMock.sol",
  "abi": [
    {
      "inputs": [
        {
          "internalType": "uint8",
          "name": "_mockRandomizeLatencyBlocks",
          "type": "uint8"
        },
        {
          "internalType": "uint256",
          "name": "_mockRandomizeFee",
          "type": "uint256"
        }
      ],
      "stateMutability": "nonpayable",
      "type": "constructor"
    },
    {
      "anonymous": false,
      "inputs": [
        {
          "indexed": true,
          "internalType": "address",
          "name": "by",
          "type": "address"
        },
        {
          "indexed": true,
          "internalType": "contract Clonable",
          "name": "self",
          "type": "address"
        },
        {
          "indexed": true,
          "internalType": "contract Clonable",
          "name": "clone",
          "type": "address"
        }
      ],
      "name": "Cloned",
      "type": "event"
    },
    {
      "anonymous": false,
      "inputs": [
        {
          "indexed": true,
          "internalType": "address",
          "name": "from",
          "type": "address"
        },
        {
          "indexed": true,
          "internalType": "uint256",
          "name": "prevBlock",
          "type": "uint256"
        },
        {
          "indexed": false,
          "internalType": "uint256",
          "name": "witnetQueryId",
          "type": "uint256"
        },
        {
          "indexed": false,
          "internalType": "bytes32",
          "name": "witnetRequestHash",
          "type": "bytes32"
        }
      ],
      "name": "Randomized",
      "type": "event"
    },
    {
      "inputs": [],
      "name": "clone",
      "outputs": [
        {
          "internalType": "contract Clonable",
          "name": "_newInstance",
          "type": "address"
        }
      ],
      "stateMutability": "nonpayable",
      "type": "function"
    },
    {
      "inputs": [
        {
          "internalType": "bytes32",
          "name": "_salt",
          "type": "bytes32"
        }
      ],
      "name": "cloneDeterministic",
      "outputs": [
        {
          "internalType": "contract Clonable",
          "name": "_newInstance",
          "type": "address"
        }
      ],
      "stateMutability": "nonpayable",
      "type": "function"
    },
    {
      "inputs": [],
      "name": "cloned",
      "outputs": [
        {
          "internalType": "bool",
          "name": "",
          "type": "bool"
        }
      ],
      "stateMutability": "view",
      "type": "function"
    },
    {
      "inputs": [
        {
          "internalType": "uint256",
          "name": "",
          "type": "uint256"
        }
      ],
      "name": "estimateRandomizeFee",
      "outputs": [
        {
          "internalType": "uint256",
          "name": "",
          "type": "uint256"
        }
      ],
      "stateMutability": "view",
      "type": "function"
    },
    {
      "inputs": [
        {
          "internalType": "uint256",
          "name": "_block",
          "type": "uint256"
        }
      ],
      "name": "getRandomizeData",
      "outputs": [
        {
          "internalType": "address",
          "name": "_from",
          "type": "address"
        },
        {
          "internalType": "uint256",
          "name": "_id",
          "type": "uint256"
        },
        {
          "internalType": "uint256",
          "name": "_prevBlock",
          "type": "uint256"
        },
        {
          "internalType": "uint256",
          "name": "_nextBlock",
          "type": "uint256"
        }
      ],
      "stateMutability": "view",
      "type": "function"
    },
    {
      "inputs": [
        {
          "internalType": "uint256",
          "name": "_block",
          "type": "uint256"
        }
      ],
      "name": "getRandomnessAfter",
      "outputs": [
        {
          "internalType": "bytes32",
          "name": "",
          "type": "bytes32"
        }
      ],
      "stateMutability": "view",
      "type": "function"
    },
    {
      "inputs": [
        {
          "internalType": "uint256",
          "name": "_block",
          "type": "uint256"
        }
      ],
      "name": "getRandomnessNextBlock",
      "outputs": [
        {
          "internalType": "uint256",
          "name": "",
          "type": "uint256"
        }
      ],
      "stateMutability": "view",
      "type": "function"
    },
    {
      "inputs": [
        {
          "internalType": "uint256",
          "name": "_block",
          "type": "uint256"
        }
      ],
      "name": "getRandomnessPrevBlock",
      "outputs": [
        {
          "internalType": "uint256",
          "name": "",
          "type": "uint256"
        }
      ],
      "stateMutability": "view",
      "type": "function"
    },
    {
      "inputs": [
        {
          "internalType": "bytes",
          "name": "_initData",
          "type": "bytes"
        }
      ],
      "name": "initialize",
      "outputs": [],
      "stateMutability": "nonpayable",
      "type": "function"
    },
    {
      "inputs": [
        {
          "internalType": "uint256",
          "name": "_block",
          "type": "uint256"
        }
      ],
      "name": "isRandomized",
      "outputs": [
        {
          "internalType": "bool",
          "name": "",
          "type": "bool"
        }
      ],
      "stateMutability": "view",
      "type": "function"
    },
    {
      "inputs": [],
      "name": "latestRandomizeBlock",
      "outputs": [
        {
          "internalType": "uint256",
          "name": "",
          "type": "uint256"
        }
      ],
      "stateMutability": "view",
      "type": "function"
    },
    {
      "inputs": [
        {
          "internalType": "uint32",
          "name": "_range",
          "type": "uint32"
        },
        {
          "internalType": "uint256",
          "name": "_nonce",
          "type": "uint256"
        },
        {
          "internalType": "uint256",
          "name": "_block",
          "type": "uint256"
        }
      ],
      "name": "random",
      "outputs": [
        {
          "internalType": "uint32",
          "name": "",
          "type": "uint32"
        }
      ],
      "stateMutability": "view",
      "type": "function"
    },
    {
      "inputs": [
        {
          "internalType": "uint32",
          "name": "_range",
          "type": "uint32"
        },
        {
          "internalType": "uint256",
          "name": "_nonce",
          "type": "uint256"
        },
        {
          "internalType": "bytes32",
          "name": "_seed",
          "type": "bytes32"
        }
      ],
      "name": "random",
      "outputs": [
        {
          "internalType": "uint32",
          "name": "",
          "type": "uint32"
        }
      ],
      "stateMutability": "pure",
      "type": "function"
    },
    {
      "inputs": [],
      "name": "randomize",
      "outputs": [
        {
          "internalType": "uint256",
          "name": "_usedFunds",
          "type": "uint256"
        }
      ],
      "stateMutability": "payable",
      "type": "function"
    },
    {
      "inputs": [],
      "name": "self",
      "outputs": [
        {
          "internalType": "address",
          "name": "",
          "type": "address"
        }
      ],
      "stateMutability": "view",
      "type": "function"
    },
    {
      "inputs": [
        {
          "internalType": "uint256",
          "name": "",
          "type": "uint256"
        }
      ],
      "name": "upgradeRandomizeFee",
      "outputs": [
        {
          "internalType": "uint256",
          "name": "",
          "type": "uint256"
        }
      ],
      "stateMutability": "payable",
      "type": "function"
    },
    {
      "inputs": [],
      "name": "witnet",
      "outputs": [
        {
          "internalType": "contract WitnetRequestBoard",
          "name": "",
          "type": "address"
        }
      ],
      "stateMutability": "view",
      "type": "function"
    },
    {
      "inputs": [],
      "name": "witnetRandomnessRequest",
      "outputs": [
        {
          "internalType": "contract WitnetRequestRandomness",
          "name": "",
          "type": "address"
        }
      ],
      "stateMutability": "view",
      "type": "function"
    }
  ],
  "bytecode": "0x60c06040523060a05234801561001457600080fd5b506040516200392d3803806200392d83398101604081905261003591610104565b6001600160a01b03608081905260405161004e906100f6565b604051809103906000f08015801561006a573d6000803e3d6000fd5b50600080546001600160a01b0319166001600160a01b0392909216918217905560405163f2fde38b60e01b815233600482015263f2fde38b90602401600060405180830381600087803b1580156100c057600080fd5b505af11580156100d4573d6000803e3d6000fd5b50506003805460ff191660ff9690961695909517909455505060045550610138565b6124eb806200144283390190565b6000806040838503121561011757600080fd5b825160ff8116811461012857600080fd5b6020939093015192949293505050565b60805160a0516112c16200018160003960008181610253015281816102ca0152818161099201528181610a4001528181610c820152610d310152600061021701526112c16000f3fe6080604052600436106101095760003560e01c80639938fd0c11610095578063a60ee26811610064578063a60ee26814610372578063daaa360c14610394578063e35329f8146103b4578063e7d4a016146103c7578063fb476cad146103e757600080fd5b80639938fd0c146102755780639bc86fec1461028b578063a04daef0146102bb578063a3252f68146102fa57600080fd5b806340b41daa116100dc57806340b41daa146101c3578063439fab91146101e357806346d1d21a14610205578063699b328a146102395780637104ddb21461024157600080fd5b806309ed46071461010e57806324cbbfc11461014057806336b651bb146101755780633b13e76e146101a3575b600080fd5b34801561011a57600080fd5b50610123610407565b6040516001600160a01b0390911681526020015b60405180910390f35b34801561014c57600080fd5b5061016061015b366004610f38565b61041f565b60405163ffffffff9091168152602001610137565b34801561018157600080fd5b50610195610190366004610f6b565b61046d565b604051908152602001610137565b3480156101af57600080fd5b50600054610123906001600160a01b031681565b3480156101cf57600080fd5b506101956101de366004610f6b565b6104b3565b3480156101ef57600080fd5b506102036101fe366004610f9a565b6104fa565b005b34801561021157600080fd5b506101237f000000000000000000000000000000000000000000000000000000000000000081565b61019561059d565b34801561024d57600080fd5b506101237f000000000000000000000000000000000000000000000000000000000000000081565b34801561028157600080fd5b5061019560015481565b34801561029757600080fd5b506102ab6102a6366004610f6b565b610758565b6040519015158152602001610137565b3480156102c757600080fd5b507f00000000000000000000000000000000000000000000000000000000000000006001600160a01b03163014156102ab565b34801561030657600080fd5b50610348610315366004610f6b565b600090815260026020819052604090912060038101548154600183015492909301546001600160a01b0390931693909290565b604080516001600160a01b0390951685526020850193909352918301526060820152608001610137565b34801561037e57600080fd5b5061019561038d366004610f6b565b5060045490565b3480156103a057600080fd5b506101236103af366004610f6b565b61078e565b6101956103c2366004610f6b565b6107a9565b3480156103d357600080fd5b506101606103e2366004610f38565b6107e7565b3480156103f357600080fd5b50610195610402366004610f6b565b610868565b6000610411610973565b905061041c81610aa2565b90565b600061046584843361043086610868565b604080516001600160a01b039093166020840152820152606001604051602081830303815290604052805190602001206107e7565b949350505050565b600080821161047e5761047e61104b565b6001548083116104aa576000818152600260205260409020600101546104a5908490610bf7565b6104ac565b805b9392505050565b6000818152600260205260408120546001600160a01b03166104e0576104db82600154610c23565b6104f4565b600082815260026020819052604090912001545b92915050565b6000546001600160a01b0316156105665760405162461bcd60e51b815260206004820152602560248201527f5769746e657452616e646f6d6e6573733a20616c726561647920696e697469616044820152641b1a5e995960da1b60648201526084015b60405180910390fd5b8080602001905181019061057a9190611079565b600080546001600160a01b0319166001600160a01b039290921691909117905550565b60004360015410156107165760045490508034101561060a5760405162461bcd60e51b8152602060048201526024808201527f5769746e657452616e646f6d6e6573734d6f636b3a2072657761726420746f6f604482015263206c6f7760e01b606482015260840161055d565b600060056000815461061b906110ac565b918290555043600081815260026020818152604080842080546001600160a01b03191633908117825560038201889055600180548184018190558088528488209096018890559690965593548151624dead360e51b8152915196975093959294859490937faf291bb4e1767569c77502edb6ad1009e856f57c09f214886c6becc9836c20c09389936001600160a01b0393909316926309bd5a6092600480830193928290030181865afa1580156106d6573d6000803e3d6000fd5b505050506040513d601f19601f820116820180604052508101906106fa91906110c5565b6040805192835260208301919091520160405180910390a35050505b3481101561041c57336108fc61072c83346110de565b6040518115909202916000818181858888f19350505050158015610754573d6000803e3d6000fd5b5090565b60008181526002602052604081206003810154158015906104ac57506003546107849060ff16846110f1565b4310159392505050565b600061079982610c63565b90506107a481610aa2565b919050565b600034156107df5760405133903480156108fc02916000818181858888f193505050501580156107dd573d6000803e3d6000fd5b505b506000919050565b6000806107f385610d95565b6107fe9060ff611104565b90506000600161080f836002611201565b61081991906110de565b604080516020810187905290810187905260600160408051601f19818403018152919052805160209091012016905060ff821661085c63ffffffff881683611210565b901c9695505050505050565b6000818152600260205260408120546001600160a01b03166108905761088d826104b3565b91505b600082815260026020526040812060030154908190036108fe5760405162461bcd60e51b8152602060048201526024808201527f5769746e657452616e646f6d6e6573734d6f636b3a206e6f742072616e646f6d6044820152631a5e995960e21b606482015260840161055d565b60035461090e9060ff16846110f1565b43101561096d5760405162461bcd60e51b815260206004820152602760248201527f5769746e657452616e646f6d6e6573734d6f636b3a2070656e64696e672072616044820152666e646f6d697a6560c81b606482015260840161055d565b50504090565b604051733d602d80600a3d3981f3363d3d373d3d3d363d7360601b81527f0000000000000000000000000000000000000000000000000000000000000000606081901b60148301526e5af43d82803e903d91602b57fd5bf360881b602883015260009160378184f09250506001600160a01b038216610a345760405162461bcd60e51b815260206004820152601760248201527f436c6f6e61626c653a20435245415445206661696c6564000000000000000000604482015260640161055d565b816001600160a01b03167f00000000000000000000000000000000000000000000000000000000000000006001600160a01b0316336001600160a01b03167ff376596be5039d6b2fb36fead4c8a370eae426e790a869be8db074ab608cc24860405160405180910390a45090565b60008060009054906101000a90046001600160a01b03166001600160a01b03166309ed46076040518163ffffffff1660e01b81526004016020604051808303816000875af1158015610af8573d6000803e3d6000fd5b505050506040513d601f19601f82011682018060405250810190610b1c9190611079565b60405163f2fde38b60e01b81523360048201529091506001600160a01b0382169063f2fde38b90602401600060405180830381600087803b158015610b6057600080fd5b505af1158015610b74573d6000803e3d6000fd5b5050604080516001600160a01b0385811660208301528616935063439fab919250016040516020818303038152906040526040518263ffffffff1660e01b8152600401610bc19190611227565b600060405180830381600087803b158015610bdb57600080fd5b505af1158015610bef573d6000803e3d6000fd5b505050505050565b6000818311610c1d576000828152600260205260409020600101546104a5908490610bf7565b50919050565b600081831015610c4a576000828152600260205260409020600101546104a5908490610c23565b5060009081526002602081905260409091200154919050565b604051733d602d80600a3d3981f3363d3d373d3d3d363d7360601b81527f0000000000000000000000000000000000000000000000000000000000000000606081901b60148301526e5af43d82803e903d91602b57fd5bf360881b60288301526000918360378285f59250506001600160a01b038216610d255760405162461bcd60e51b815260206004820152601860248201527f436c6f6e61626c653a2043524541544532206661696c65640000000000000000604482015260640161055d565b816001600160a01b03167f00000000000000000000000000000000000000000000000000000000000000006001600160a01b0316336001600160a01b03167ff376596be5039d6b2fb36fead4c8a370eae426e790a869be8db074ab608cc24860405160405180910390a450919050565b60408051610400810182526000808252600960208301526001928201839052600a6060830152600d6080830152601560a0830152600260c08301819052601d60e0840152600b610100840152600e610120840152601061014084018190526012610160850152601661018085015260196101a085015260036101c0850152601e6101e085015260086102008501819052600c6102208601526014610240860152601c610260860152600f61028086015260116102a086015260186102c086015260076102e08601526013610300860152601b610320860181905260176103408701526006610360870152601a61038087015260056103a087015260046103c08701819052601f6103e08801529688901c637fffffff1680891763ffffffff998a1690911790941c939093179586901c630fffffff1680871796881617901c949094179384901c61ffff168085179592948493610efa926307c4acdd9290911617611210565b63ffffffff16901c63ffffffff1660208110610f1857610f18611275565b60200201519392505050565b803563ffffffff811681146107a457600080fd5b600080600060608486031215610f4d57600080fd5b610f5684610f24565b95602085013595506040909401359392505050565b600060208284031215610f7d57600080fd5b5035919050565b634e487b7160e01b600052604160045260246000fd5b600060208284031215610fac57600080fd5b813567ffffffffffffffff80821115610fc457600080fd5b818401915084601f830112610fd857600080fd5b813581811115610fea57610fea610f84565b604051601f8201601f19908116603f0116810190838211818310171561101257611012610f84565b8160405282815287602084870101111561102b57600080fd5b826020860160208301376000928101602001929092525095945050505050565b634e487b7160e01b600052600160045260246000fd5b6001600160a01b038116811461107657600080fd5b50565b60006020828403121561108b57600080fd5b81516104ac81611061565b634e487b7160e01b600052601160045260246000fd5b6000600182016110be576110be611096565b5060010190565b6000602082840312156110d757600080fd5b5051919050565b818103818111156104f4576104f4611096565b808201808211156104f4576104f4611096565b60ff82811682821603908111156104f4576104f4611096565b600181815b8085111561115857816000190482111561113e5761113e611096565b8085161561114b57918102915b93841c9390800290611122565b509250929050565b60008261116f575060016104f4565b8161117c575060006104f4565b8160018114611192576002811461119c576111b8565b60019150506104f4565b60ff8411156111ad576111ad611096565b50506001821b6104f4565b5060208310610133831016604e8410600b84101617156111db575081810a6104f4565b6111e5838361111d565b80600019048211156111f9576111f9611096565b029392505050565b60006104ac60ff841683611160565b80820281158282048414176104f4576104f4611096565b600060208083528351808285015260005b8181101561125457858101830151858201604001528201611238565b506000604082860101526040601f19601f8301168501019250505092915050565b634e487b7160e01b600052603260045260246000fdfea2646970667358221220036749a7196c6e2165109f4a5cb92713b4817498c1235f32d3cb7e16b1994ffa64736f6c6343000811003360a0604052306080523480156200001557600080fd5b50620000213362000041565b6040805160208101909152600081526200003b90620000a1565b62000b80565b600080516020620024ab83398151915280546001600160a01b038381166001600160a01b0319831681179093556040519116919082907f8be0079c531659141344cd1fd0a4f28419497f9722a3daafe3b4186f6b6457e090600090a35050565b620000e0604051806040016040528060118152602001700a0f120508021a01801a0210022202100b60781b815250620000e360201b620008d41760201c565b50565b600080516020620024cb833981519152805462000100906200083a565b1590506200016d5760405162461bcd60e51b815260206004820152602f60248201527f5769746e6574526571756573744d616c6c6561626c65426173653a20616c726560448201526e18591e481a5b9a5d1a585b1a5e9959608a1b60648201526084015b60405180910390fd5b620001788162000183565b620000e03362000041565b600081511162000197576200019762000876565b600080516020620024cb833981519152620001b38282620008f5565b507f375930152e1d0d102998be6e496b0cee86c9ecd0efef01014ecff169b17dfbab80546001600160d01b0319167403d090000000000007a120000000003b9aca003302178082556200023d9060029060ff610100820416906001600160401b036201000082048116916a01000000000000000000008104821691600160901b9091041662000241565b5050565b6000826001600160401b031611620002aa5760405162461bcd60e51b815260206004820152602560248201527f5769746e6574526571756573744d616c6c6561626c65426173653a206e6f2072604482015264195dd85c9960da1b606482015260840162000164565b60018560ff1610158015620002c35750607f8560ff1611155b620003375760405162461bcd60e51b815260206004820152603c60248201527f5769746e6574526571756573744d616c6c6561626c65426173653a206e756d6260448201527f6572206f66207769746e6573736573206f7574206f662072616e676500000000606482015260840162000164565b60338460ff161015801562000350575060638460ff1611155b620003b35760405162461bcd60e51b815260206004820152603d60248201526000805160206200248b83398151915260448201527f657373696e6720636f6e73656e737573206f7574206f662072616e6765000000606482015260840162000164565b633b9aca00836001600160401b03161015620004275760405162461bcd60e51b815260206004820152603d60248201526000805160206200248b83398151915260448201527f657373696e6720636f6c6c61746572616c2062656c6f77203120574954000000606482015260840162000164565b600080516020620024cb83398151915262000447600160fc1b8462000610565b62000457600360fb1b88620007c5565b62000467600160fd1b8562000610565b62000477600560fb1b89620007c5565b62000487600360fc1b8962000610565b6040516020016200049e96959493929190620009f3565b60408051601f198184030181529190527f375930152e1d0d102998be6e496b0cee86c9ecd0efef01014ecff169b17dfba990620004dc9082620008f5565b5062000596600080516020620024ab833981519152600201805462000501906200083a565b80601f01602080910402602001604051908101604052809291908181526020018280546200052f906200083a565b8015620005805780601f10620005545761010080835404028352916020019162000580565b820191906000526020600020905b8154815290600101906020018083116200056257829003601f168201915b5050505050620007dd60201b620009631760201c565b600080516020620024ab833981519152600301556040805160ff8781168252861660208201526001600160401b0385811682840152848116606083015283166080820152905133917f897a395aeb2699d9730b6377870654a5c371d6bb6dc4486cfc5c80eeafd095b0919081900360a00190a25050505050565b60608160025b607f826001600160401b0316111562000650576007826001600160401b0316901c915060018162000648919062000ac4565b905062000616565b6000816001600160401b03166001600160401b038111156200067657620006766200088c565b6040519080825280601f01601f191660200182016040528015620006a1576020820181803683370190505b5090508492508581600081518110620006be57620006be62000aee565b60200101906001600160f81b031916908160001a90535060015b826001600160401b0316816001600160401b03161015620007585783607f1660801760f81b82826001600160401b0316815181106200071b576200071b62000aee565b60200101906001600160f81b031916908160001a9053506007846001600160401b0316901c935080806200074f9062000b04565b915050620006d8565b50607f60f81b816200076c60018562000b35565b6001600160401b03168151811062000788576200078862000aee565b0160200180519091167fff000000000000000000000000000000000000000000000000000000000000001690600082901a90535095945050505050565b6060620007d68360ff841662000610565b9392505050565b6000600282604051620007f1919062000b58565b602060405180830381855afa1580156200080f573d6000803e3d6000fd5b5050506040513d601f19601f8201168201806040525081019062000834919062000b66565b92915050565b600181811c908216806200084f57607f821691505b6020821081036200087057634e487b7160e01b600052602260045260246000fd5b50919050565b634e487b7160e01b600052600160045260246000fd5b634e487b7160e01b600052604160045260246000fd5b601f821115620008f057600081815260208120601f850160051c81016020861015620008cb5750805b601f850160051c820191505b81811015620008ec57828155600101620008d7565b5050505b505050565b81516001600160401b038111156200091157620009116200088c565b62000929816200092284546200083a565b84620008a2565b602080601f831160018114620009615760008415620009485750858301515b600019600386901b1c1916600185901b178555620008ec565b600085815260208120601f198616915b82811015620009925788860151825594840194600190910190840162000971565b5085821015620009b15787850151600019600388901b60f8161c191681555b5050505050600190811b01905550565b6000815160005b81811015620009e45760208185018101518683015201620009c8565b50600093019283525090919050565b600080885462000a03816200083a565b6001828116801562000a1e576001811462000a345762000a65565b60ff198416875282151583028701945062000a65565b8c60005260208060002060005b8581101562000a5c5781548a82015290840190820162000a41565b50505082870194505b5050505062000aa162000a9a62000a9362000a8c62000a85858d620009c1565b8b620009c1565b89620009c1565b87620009c1565b85620009c1565b9998505050505050505050565b634e487b7160e01b600052601160045260246000fd5b6001600160401b0381811683821601908082111562000ae75762000ae762000aae565b5092915050565b634e487b7160e01b600052603260045260246000fd5b60006001600160401b038281166002600160401b0319810162000b2b5762000b2b62000aae565b6001019392505050565b6001600160401b0382811682821603908082111562000ae75762000ae762000aae565b6000620007d68284620009c1565b60006020828403121562000b7957600080fd5b5051919050565b6080516118cc62000bbf6000396000818161020c01528181610275015281816109fe01528181610aac01528181610f91015261104001526118cc6000f3fe608060405234801561001057600080fd5b50600436106101165760003560e01c80638da5cb5b116100a2578063daaa360c11610071578063daaa360c146102c7578063ef53d97a146102da578063f0940002146102e2578063f2fde38b146102ea578063ff21c3ba146102fd57600080fd5b80638da5cb5b1461025f578063a04daef014610267578063d196c2e3146102a1578063d9b9a961146102b457600080fd5b806352d1902d116100e957806352d1902d146101cc5780636f2ddd93146101f25780637104ddb214610207578063715018a61461022e5780638a481dad1461023657600080fd5b806309bd5a601461011b57806309ed460714610136578063439fab911461015657806348f9b8311461016b575b600080fd5b610123610310565b6040519081526020015b60405180910390f35b61013e610323565b6040516001600160a01b03909116815260200161012d565b6101696101643660046112ee565b6103f3565b005b610173610428565b60405161012d9190600060a08201905060ff835116825260ff602084015116602083015260408301516001600160401b038082166040850152806060860151166060850152806080860151166080850152505092915050565b7f851d0a92a3ad30295bef33afc69d6874779826b7789386b336e22621365ed2c2610123565b6101fa6104b5565b60405161012d91906113c2565b61013e7f000000000000000000000000000000000000000000000000000000000000000081565b610169610550565b61023e610564565b6040516fffffffffffffffffffffffffffffffff909116815260200161012d565b61013e6105c5565b604051306001600160a01b037f0000000000000000000000000000000000000000000000000000000000000000161415815260200161012d565b6101696102af36600461140b565b6105de565b6101696102c2366004611455565b610646565b61013e6102d5366004611470565b6106bb565b61023e61078e565b6101fa6107bd565b6101696102f8366004611489565b6107d5565b61016961030b3660046114b2565b610850565b600061031a6109bb565b60030154905090565b600061032d6109df565b9050806001600160a01b031663439fab916103466109bb565b6001016040518263ffffffff1660e01b81526004016103659190611516565b600060405180830381600087803b15801561037f57600080fd5b505af1158015610393573d6000803e3d6000fd5b505060405163f2fde38b60e01b81523360048201526001600160a01b038416925063f2fde38b9150602401600060405180830381600087803b1580156103d857600080fd5b505af11580156103ec573d6000803e3d6000fd5b5050505090565b610425604051806040016040528060118152602001700a0f120508021a01801a0210022202100b60781b8152506108d4565b50565b6040805160a08101825260008082526020820181905291810182905260608101829052608081019190915261045b6109bb565b6040805160a0810182526004929092015460ff808216845261010082041660208401526001600160401b03620100008204811692840192909252600160501b810482166060840152600160901b9004166080820152919050565b60606104bf6109bb565b60010180546104cd906114dc565b80601f01602080910402602001604051908101604052809291908181526020018280546104f9906114dc565b80156105465780601f1061051b57610100808354040283529160200191610546565b820191906000526020600020905b81548152906001019060200180831161052957829003601f168201915b5050505050905090565b610558610b0e565b6105626000610b6d565b565b60008061056f6109bb565b60040180549091506001600160401b03600160501b820481169161059d91600160901b9091041660026115b7565b6105a791906115e2565b81546105b6919060ff166115b7565b6001600160401b031691505090565b60006105cf6109bb565b546001600160a01b0316919050565b6105e6610b0e565b60006105f06109bb565b600401805460ff8481166101000261ffff19909216908616171780825590915061064190849084906001600160401b03620100008204811691600160501b8104821691600160901b90910416610bda565b505050565b61064e610b0e565b60006106586109bb565b60040180546001600160401b03808516620100000269ffffffffffffffff000019831681178085559394506106b79360ff91821693821693909317926101008104909116918691600160501b8104821691600160901b90910416610bda565b5050565b60006106c682610f72565b9050806001600160a01b031663439fab916106df6109bb565b6001016040518263ffffffff1660e01b81526004016106fe9190611516565b600060405180830381600087803b15801561071857600080fd5b505af115801561072c573d6000803e3d6000fd5b505060405163f2fde38b60e01b81523360048201526001600160a01b038416925063f2fde38b9150602401600060405180830381600087803b15801561077157600080fd5b505af1158015610785573d6000803e3d6000fd5b50505050919050565b6000806107996109bb565b60040180549091506105b6906001600160401b03620100008204169060ff166115b7565b60606107c76109bb565b60020180546104cd906114dc565b6107dd610b0e565b6001600160a01b0381166108475760405162461bcd60e51b815260206004820152602660248201527f4f776e61626c653a206e6577206f776e657220697320746865207a65726f206160448201526564647265737360d01b60648201526084015b60405180910390fd5b61042581610b6d565b610858610b0e565b60006108626109bb565b60040180546fffffffffffffffffffffffffffffffff60501b1916600160501b6001600160401b038681169190910267ffffffffffffffff60901b191691909117600160901b85831602178083559192506106419160ff80821692610100830490911691620100009004168686610bda565b6108dc6109bb565b60010180546108ea906114dc565b1590506109515760405162461bcd60e51b815260206004820152602f60248201527f5769746e6574526571756573744d616c6c6561626c65426173653a20616c726560448201526e18591e481a5b9a5d1a585b1a5e9959608a1b606482015260840161083e565b61095a816110a4565b61042533610b6d565b60006002826040516109759190611625565b602060405180830381855afa158015610992573d6000803e3d6000fd5b5050506040513d601f19601f820116820180604052508101906109b59190611641565b92915050565b7f375930152e1d0d102998be6e496b0cee86c9ecd0efef01014ecff169b17dfba790565b604051733d602d80600a3d3981f3363d3d373d3d3d363d7360601b81527f0000000000000000000000000000000000000000000000000000000000000000606081901b60148301526e5af43d82803e903d91602b57fd5bf360881b602883015260009160378184f09250506001600160a01b038216610aa05760405162461bcd60e51b815260206004820152601760248201527f436c6f6e61626c653a20435245415445206661696c6564000000000000000000604482015260640161083e565b816001600160a01b03167f00000000000000000000000000000000000000000000000000000000000000006001600160a01b0316336001600160a01b03167ff376596be5039d6b2fb36fead4c8a370eae426e790a869be8db074ab608cc24860405160405180910390a45090565b33610b176105c5565b6001600160a01b0316146105625760405162461bcd60e51b815260206004820181905260248201527f4f776e61626c653a2063616c6c6572206973206e6f7420746865206f776e6572604482015260640161083e565b6000610b776109bb565b546001600160a01b0316905081610b8c6109bb565b80546001600160a01b0319166001600160a01b03928316179055604051838216918316907f8be0079c531659141344cd1fd0a4f28419497f9722a3daafe3b4186f6b6457e090600090a35050565b6000826001600160401b031611610c415760405162461bcd60e51b815260206004820152602560248201527f5769746e6574526571756573744d616c6c6561626c65426173653a206e6f2072604482015264195dd85c9960da1b606482015260840161083e565b60018560ff1610158015610c595750607f8560ff1611155b610ccb5760405162461bcd60e51b815260206004820152603c60248201527f5769746e6574526571756573744d616c6c6561626c65426173653a206e756d6260448201527f6572206f66207769746e6573736573206f7574206f662072616e676500000000606482015260840161083e565b60338460ff1610158015610ce3575060638460ff1611155b610d555760405162461bcd60e51b815260206004820152603d60248201527f5769746e6574526571756573744d616c6c6561626c65426173653a207769746e60448201527f657373696e6720636f6e73656e737573206f7574206f662072616e6765000000606482015260840161083e565b633b9aca00836001600160401b03161015610dd85760405162461bcd60e51b815260206004820152603d60248201527f5769746e6574526571756573744d616c6c6561626c65426173653a207769746e60448201527f657373696e6720636f6c6c61746572616c2062656c6f77203120574954000000606482015260840161083e565b610de06109bb565b600101610df1600160fc1b8461113c565b610dff600360fb1b886112c2565b610e0d600160fd1b8561113c565b610e1b600560fb1b896112c2565b610e29600360fc1b8961113c565b604051602001610e3e9695949392919061165a565b604051602081830303815290604052610e556109bb565b60020190610e639082611765565b50610f00610e6f6109bb565b6002018054610e7d906114dc565b80601f0160208091040260200160405190810160405280929190818152602001828054610ea9906114dc565b8015610ef65780601f10610ecb57610100808354040283529160200191610ef6565b820191906000526020600020905b815481529060010190602001808311610ed957829003601f168201915b5050505050610963565b610f086109bb565b600301556040805160ff8781168252861660208201526001600160401b0385811682840152848116606083015283166080820152905133917f897a395aeb2699d9730b6377870654a5c371d6bb6dc4486cfc5c80eeafd095b0919081900360a00190a25050505050565b604051733d602d80600a3d3981f3363d3d373d3d3d363d7360601b81527f0000000000000000000000000000000000000000000000000000000000000000606081901b60148301526e5af43d82803e903d91602b57fd5bf360881b60288301526000918360378285f59250506001600160a01b0382166110345760405162461bcd60e51b815260206004820152601860248201527f436c6f6e61626c653a2043524541544532206661696c65640000000000000000604482015260640161083e565b816001600160a01b03167f00000000000000000000000000000000000000000000000000000000000000006001600160a01b0316336001600160a01b03167ff376596be5039d6b2fb36fead4c8a370eae426e790a869be8db074ab608cc24860405160405180910390a450919050565b60008151116110b5576110b5611824565b806110be6109bb565b600101906110cc9082611765565b5060006110d76109bb565b60040180546001600160d01b0319167403d090000000000007a120000000003b9aca003302178082559091506106b79060029060ff610100820416906001600160401b03620100008204811691600160501b8104821691600160901b90910416610bda565b60608160025b607f826001600160401b03161115611178576007826001600160401b0316901c915060018161117191906115e2565b9050611142565b6000816001600160401b03166001600160401b0381111561119b5761119b6112d8565b6040519080825280601f01601f1916602001820160405280156111c5576020820181803683370190505b50905084925085816000815181106111df576111df61183a565b60200101906001600160f81b031916908160001a90535060015b826001600160401b0316816001600160401b031610156112725783607f1660801760f81b82826001600160401b0316815181106112385761123861183a565b60200101906001600160f81b031916908160001a9053506007846001600160401b0316901c9350808061126a90611850565b9150506111f9565b50607f60f81b81611284600185611876565b6001600160401b03168151811061129d5761129d61183a565b0160200180519091166001600160f81b03191690600082901a90535095945050505050565b60606112d1838360ff1661113c565b9392505050565b634e487b7160e01b600052604160045260246000fd5b60006020828403121561130057600080fd5b81356001600160401b038082111561131757600080fd5b818401915084601f83011261132b57600080fd5b81358181111561133d5761133d6112d8565b604051601f8201601f19908116603f01168101908382118183101715611365576113656112d8565b8160405282815287602084870101111561137e57600080fd5b826020860160208301376000928101602001929092525095945050505050565b60005b838110156113b95781810151838201526020016113a1565b50506000910152565b60208152600082518060208401526113e181604085016020870161139e565b601f01601f19169190910160400192915050565b803560ff8116811461140657600080fd5b919050565b6000806040838503121561141e57600080fd5b611427836113f5565b9150611435602084016113f5565b90509250929050565b80356001600160401b038116811461140657600080fd5b60006020828403121561146757600080fd5b6112d18261143e565b60006020828403121561148257600080fd5b5035919050565b60006020828403121561149b57600080fd5b81356001600160a01b03811681146112d157600080fd5b600080604083850312156114c557600080fd5b6114ce8361143e565b91506114356020840161143e565b600181811c908216806114f057607f821691505b60208210810361151057634e487b7160e01b600052602260045260246000fd5b50919050565b600060208083526000845461152a816114dc565b8084870152604060018084166000811461154b576001811461156557611593565b60ff1985168984015283151560051b890183019550611593565b896000528660002060005b8581101561158b5781548b8201860152908301908801611570565b8a0184019650505b509398975050505050505050565b634e487b7160e01b600052601160045260246000fd5b6001600160401b038181168382160280821691908281146115da576115da6115a1565b505092915050565b6001600160401b03818116838216019080821115611602576116026115a1565b5092915050565b6000815161161b81856020860161139e565b9290920192915050565b6000825161163781846020870161139e565b9190910192915050565b60006020828403121561165357600080fd5b5051919050565b6000808854611668816114dc565b600182811680156116805760018114611695576116c4565b60ff19841687528215158302870194506116c4565b8c60005260208060002060005b858110156116bb5781548a8201529084019082016116a2565b50505082870194505b5050505087516116d8818360208c0161139e565b87519101906116eb818360208b0161139e565b6117096117036116fd8385018a611609565b88611609565b86611609565b9a9950505050505050505050565b601f82111561064157600081815260208120601f850160051c8101602086101561173e5750805b601f850160051c820191505b8181101561175d5782815560010161174a565b505050505050565b81516001600160401b0381111561177e5761177e6112d8565b6117928161178c84546114dc565b84611717565b602080601f8311600181146117c757600084156117af5750858301515b600019600386901b1c1916600185901b17855561175d565b600085815260208120601f198616915b828110156117f6578886015182559484019460019091019084016117d7565b50858210156118145787850151600019600388901b60f8161c191681555b5050505050600190811b01905550565b634e487b7160e01b600052600160045260246000fd5b634e487b7160e01b600052603260045260246000fd5b60006001600160401b0380831681810361186c5761186c6115a1565b6001019392505050565b6001600160401b03828116828216039080821115611602576116026115a156fea264697066735822122057af72d34d39a57a83e46eb63fb3e817395cf56781da43b2edb37c460c05108e64736f6c634300081100335769746e6574526571756573744d616c6c6561626c65426173653a207769746e375930152e1d0d102998be6e496b0cee86c9ecd0efef01014ecff169b17dfba7375930152e1d0d102998be6e496b0cee86c9ecd0efef01014ecff169b17dfba8",
  "linkReferences": {},
  "deployedLinkReferences": {}
}